:100000000C94730E0C949F170C94D0170C94011839
:100010000C9432180C9463180C9494180C94C51812
:100020000C94F6180C94A00E0C94A00E0C94A00E38
:100030000C94A00E0C94DB9E0C94A00E0C94A00EBD
:100040000C94A00E0C9419730C94A00E0C94A00E9A
:100050000C94A00E0C94A00E0C94237C0C948E1483
:100060000C94A00E0C946D480C94A00E0C94A00E51
:100070000C94A00E0C94A00E0C94A00E0C94A00E48
:100080000C94A00E0C94A00E0C94A00E0C94A00E38
:100090000C94A00E0C94A00E0C94A00E0C94A00E28
:1000A0000C94A00E0C94A00E0C94A00E0C94A00E18
:1000B0000C94A00E0C94A00E0C94A00E0C94A00E08
:1000C0000C94A00E0C94A00E0C94A00E0C94A00EF8
:1000D0000C94A00E0C94A00E0C94A00E0C94A00EE8
:1000E0000C94A00E084AD73B3BCE016E84BCBFFDEA
:1000F000C12F3D6C74319ABD56833DDA3D00C77FF8
:1001000011BED9E4BB4C3E916BAAAABE0000008090
:100110003F05A84CCDB2D44EB93836A9020C50B91F
:10012000918688083CA6AAAA2ABE000000803F004B
:10013000002100240027002A002D00300033000198
:10014000010000040107010A010000220025002827
:10015000002B002E003100340002010000050108D0
:10016000010B01000020002300260029002C002F95
:100170000032000001000003010601090105050528
:1001800005070508080808020202020A0A0808040E
:10019000040404010101010101010103030303033C
:1001A000030303040707070C0C0C0C0C0C0C0C02CB
:1001B00002020206060606060606060B0B0B0B0BD2
:1001C0000B0B0B01021020200808102040102040CB
:1001D000800201020108040201010204081020400B
:1001E0008080402010080402018004020180402029
:1001F0001008040201080402010102040810204052
:100200008001020408102040800000090A02080B47
:100210000C0D0706030401000000000000000000B0
:1002200000000000000000000000000000000000CE
:10023000000000000011100F00000000000000008E
:100240000000000000000000000000000000006549
:1002500063686F3A004572726F723A0053544F50A0
:100260005045442E20005072696E7465722073747C
:100270006F707065642064756520746F206572729C
:100280006F72732E204669782074686520657272DB
:100290006F7220616E6420757365204D3939392085
:1002A000746F20726573746172742E202854656DAA
:1002B000706572617475726520697320726573650B
:1002C000742E2053657420697420616674657220F1
:1002D00072657374617274696E6729004B494C4C86
:1002E00045442E20005072696E7465722068616CFE
:1002F0007465642E206B696C6C28292063616C6CBA
:10030000656421006F6B00526573656E643A20006E
:100310002200556E6B6E6F776E20636F6D6D616E30
:10032000643A2022007A5F6D61783A20007A5F6D2E
:10033000696E3A2000795F6D61783A2000785F6DD0
:1003400061783A2000205A3A0020593A0020436F41
:10035000756E7420583A200020453A00205A3A0021
:1003600020593A00583A004649524D574152455F8C
:100370004E414D453A4D61726C696E2056313B20BD
:10038000537072696E7465722F6772626C206D6152
:100390007368757020666F722067656E36204649F7
:1003A000524D574152455F55524C3A687474703AF9
:1003B0002F2F637265617461626C656C6162732E6C
:1003C000636F6D2050524F544F434F4C5F56455210
:1003D00053494F4E3A312E30204D414348494E4506
:1003E0005F545950453A435245415441424C45208F
:1003F00044322045585452554445525F434F554E60
:10040000543A3120555549443A303030303030304C
:10041000302D303030302D303030302D30303030E5
:100420002D3030303030303030303030300A004312
:100430005245415441424C45204432204F66662E7D
:1004400000435245415441424C45204432205265BC
:100450006164792E005072696E74696E672E2E2E5B
:100460002020202020202020200020423A0020456B
:100470003A00543A0048656174696E67202E2E2E4A
:100480002020202020202020200048656174696EF3
:100490006720646F6E652E0048656174696E672021
:1004A00063616E636C65642E0020573A0020453A04
:1004B00000543A0048656174696E672E2E2E202024
:1004C0002020202020202020002042403A002040F0
:1004D0003A00202F003A00205400202F0020423AFA
:1004E00000202F006F6B20543A002569206D696E43
:1004F0002C2025692073656300456E642066696C55
:1005000065206C69737400426567696E2066696C6A
:1005100065206C697374004E6F206D6F76652E00D8
:10052000526573756D696E67207072696E740057DD
:1005300061697420666F7220757365722E2E2E00AD
:100540000A00205A3A200020593A200020583A2028
:100550000042656400435245415441424C452044A9
:10056000322052656164792E00536C6565702E2EC1
:100570002E00010101000048430000484300002311
:10058000430000A0400000A0400000A04000000088
:100590000000000000000023430000C8C20000C8A3
:1005A000C2000000000000C8420000C84200002352
:1005B000430A00207A3A200020793A200020783A35
:1005C0002000426564002000256920686F75727301
:1005D000202569206D696E7574657300446F6E65C2
:1005E000207072696E74696E672066696C6500536D
:1005F000544F505045442E20005072696E746572FD
:100600002073746F707065642064756520746F204A
:100610006572726F72732E20466978207468652047
:100620006572726F7220616E6420757365204D393A
:10063000393920746F20726573746172742E2028AA
:1006400054656D706572617475726520697320728E
:10065000657365742E205365742069742061667417
:1006600065722072657374617274696E6729006FB8
:100670006B004E6F204C696E65204E756D62657221
:10068000207769746820636865636B73756D2C20CF
:100690004C617374204C696E653A20004E6F2043A4
:1006A0006865636B73756D2077697468206C696E1B
:1006B00065206E756D6265722C204C617374204CE0
:1006C000696E653A2000636865636B73756D206DB4
:1006D00069736D617463682C204C617374204C697C
:1006E0006E653A20004C696E65204E756D626572CC
:1006F000206973206E6F74204C617374204C696E96
:1007000065204E756D6265722B312C204C617374BF
:10071000204C696E653A20004D31313000446F6ED7
:100720006520736176696E672066696C652E006F5F
:100730006B004D3239002020506C616E6E65724244
:10074000756666657242797465733A200020467258
:100750006565204D656D6F72793A20004A616E20A3
:100760003135203230313600436F6D70696C65640D
:100770003A200056657273696F6E20312E302E3626
:1007800000207C20417574686F723A20004A616EC7
:1007900020313520323031362031383A30363A3255
:1007A0003900204C61737420557064617465643A3B
:1007B0002000312E302E30004D61726C696E0020A9
:1007C000536F66747761726520526573657400209B
:1007D0005761746368646F672052657365740020A5
:1007E00042726F776E206F75742052657365740066
:1007F0002045787465726E616C2052657365740073
:10080000506F7765725570007374617274002200C6
:10081000656E717565696E672022002200656E71D4
:100820007565696E672022007C3C3E5E2B3D3F2F44
:100830005B5D3B2C2A225C0045313A200045303A72
:1008400020005A3A2000593A2000583A20004D53CF
:10085000312C4D53322050696E730A0024F404D9B0
:10086000201BC40C5C0E9804C4095F02650771016B
:10087000F405F900FB04B30048048700C1036900D4
:100880005803550003034500BE023A0084023100BC
:1008900053022A002902250004022000E4011C0062
:1008A000C8011900AF01170098011400840113005A
:1008B000710110006101100051010E0043010D0093
:1008C00036010B002B010B0020010B001501090064
:1008D0000C01090003010800FB000800F3000800F8
:1008E000EB000700E4000600DE000600D80006006A
:1008F000D2000600CC000500C7000500C2000500BC
:10090000BD000400B9000400B5000400B1000400FB
:10091000AD000400A9000400A5000300A20003002C
:100920009F0004009B000300980003009500020054
:1009300093000300900003008D0002008B00030071
:10094000880002008600020084000300810002008B
:100950007F0002007D0002007B000200790002009F
:1009600077000100760002007400020072000100AE
:10097000710002006F0002006D0001006C000200B7
:100980006A000100690002006700010066000100C2
:1009900065000100640002006200010061000100C6
:1009A000600001005F0002005D0001005C000100CA
:1009B0005B0001005A0001005900010058000100CD
:1009C00057000100560001005500010054000100CD
:1009D00053000000530001005200010051000100CB
:1009E000500001004F0001004E0000004E000100C9
:1009F0004D0001004C0001004B0000004B000100C5
:100A00004A000100490001004800000048000100C0
:100A100047000100460000004600010045000000BC
:100A200045000100440001004300000043000100B4
:100A300042000000420001004100000041000100AE
:100A4000400001003F0000003F0001003E000000A8
:100A50003E0001003D0000003D0001003C000000A0
:100A60003C0000003C0001003B0000003B00010096
:100A70003A0000003A00010039000000390001008E
:100A80003800000038000000380001003700000086
:100A9000370001003600000036000000360001007B
:100AA0003500000035000000350001003400000072
:100AB0003400000034000100330000003300000067
:100AC000330001003200000032000000320001005B
:100AD0003100000031000000310001003000000052
:100AE00030000000300001002F0000002F00000047
:100AF0002F0000002F0001002E0000002E0000003B
:100B00002E0001002D0000002D0000002D0000002F
:100B10002D0001002C0000002C0000002C00000023
:100B20002C0001002B0000002B0000002B00000017
:100B30002B0001002A0000002A0000002A0000000B
:100B40002A000100290000002900000029000000FF
:100B500029000000290001002800000028000000F2
:100B600028000000280000002800010027000000E5
:100B700027000000270000002700000027000100D8
:100B800026000000260000002600000026000000CD
:100B900026000100250000002500000025000000BF
:100BA00025000000250000002500010024000000B1
:100BB00024000000240000002400000024000100A4
:100BC0002300000023000000230000002300000099
:100BD0002300000023000000230001002200000089
:100BE000220000002200000022000000220000007D
:100BF000220001002100000021000000210000006F
:100C0000210000002100000021000000210001005F
:100C10002000000020000000200000002000000054
:100C20002000000020000000200000002000010043
:100C30001F0000001F0000001F0000001F00000038
:100C40001F0000001F0000001F0001001E00000028
:100C50001E0000001E0000001E00000024F4D4301E
:100C600050C38E20C2A24017828B7011127A910D50
:100C7000816CD90AA861E108C7586607615143062B
:100C80001E4B5D05C145A7041A411104093D980397
:100C9000713931034036DB0265339102D43054029E
:100CA000802E1D02632CEE01752AC501B028A0011B
:100CB000102781018F2564012B244B01E022340190
:100CC000AC211F018D200D01801FFC00841EED0052
:100CD000971DDF00B81CD200E61BC600201BBC001D
:100CE000641AB200B219A8000A19A0006A18990083
:100CF000D117910040178B00B516840031167E0085
:100D0000B31579003A157300C7146F0058146A00C0
:100D1000EE1366008813630025135E00C7125B00A4
:100D20006C12570015125400C111510070114F0080
:100D300021114B00D61049008D1047004610440089
:100D400002104200C00F4000800F3E00420F3C00E6
:100D5000060F3B00CB0E3800930E37005C0E3500BB
:100D6000270E3400F30D3200C10D3100900D30001C
:100D7000600D2E00320D2D00050D2C00D90C2B001E
:100D8000AE0C2900850C29005C0C2700350C2700CF
:100D90000E0C2600E80B2400C40B2400A00B23003B
:100DA0007D0B23005A0B2100390B2100180B20006A
:100DB000F80A1F00D90A1E00BB0A1E009D0A1D006A
:100DC000800A1D00630A1C00470A1B002C0A1B0036
:100DD000110A1A00F7091A00DD091900C4091900DF
:100DE000AB091900920917007B0918006309170065
:100DF0004C09160036091600200916000A091500CC
:100E0000F5081500E0081400CC081400B808140018
:100E1000A4081400900813007D0812006B0813004A
:100E20005808120046081200340811002308110067
:100E30001208110001081100F0071000E00710006F
:100E4000D0071000C0071000B0070F00A107100066
:100E500091070E0083070F0074070F0065070E004F
:100E600057070E0049070E003B070D002E070E0026
:100E700020070D0013070D0006070D00F9060C00F2
:100E8000ED060D00E0060C00D4060C00C8060C00B0
:100E9000BC060C00B0060C00A4060B0099060C0062
:100EA0008D060B0082060B0077060B006C060B000C
:100EB00061060A0057060B004C060A0042060A00AB
:100EC00038060A002E060A0024060A001A060A003E
:100ED0001006090007060A00FD050900F4050900CF
:100EE000EB050900E2050900D9050900D005090054
:100EF000C7050900BE050900B5050800AD050800D5
:100F0000A50509009C050800940508008C0508004B
:100F1000840508007C050800740508006C050700BE
:100F2000650508005D050700560508004E05070029
:100F30004705070040050800380507003105070090
:100F40002A050700230507001C05060016050700F3
:100F50000F0507000805060002050700FB04060050
:100F6000F5040700EE040600E8040600E2040700AA
:100F7000DB040600D5040600CF040600C904060001
:100F8000C3040600BD040600B7040600B104050052
:100F9000AC040600A6040600A00405009B0406009D
:100FA00095040500900406008A04050085040500E8
:100FB000800406007A04050075040500700405002D
:100FC0006B04050066040500610405005C0405006F
:100FD00057040500520405004D04050048040500AF
:100FE000430405003E0404003A04050035040500EE
:100FF000300404002C040500270404002304050029
:101000001E0404001A040400160405001104040060
:101010000D04040009040500040404000004040095
:10102000FC030400F8030400F4030400F0030400CC
:10103000EC030400E8030400E4030400E0030400FC
:10104000DC030400D8030400D4030400D00304002C
:10105000CC030400C8030300C50303006563686F85
:101060003A00205A3A0020593A0020583A00656E5A
:101070006473746F7073206869743A2000457272EB
:101080006F723A004572723A204D415854454D50A6
:10109000204245440054656D7065726174757265D7
:1010A0002068656174656420626564207377697483
:1010B00063686564206F66662E204D415854454D27
:1010C000502074726967676572656420212100454C
:1010D00072723A204D494E54454D50003A204578A1
:1010E00074727564657220737769746368656420CF
:1010F0006F66662E204D494E54454D5020747269DE
:101100006767657265642021004572723A204D411F
:101110005854454D50003A20457874727564657294
:10112000207377697463686564206F66662E204D4E
:10113000415854454D502074726967676572656403
:10114000202100202D20496E76616C69642065782D
:10115000747275646572206E756D6265722021000F
:1011600010003003B000870150014701F001260153
:101170009002100130030001D003F3007004E90075
:101180001005E000B005D8005006D200F006CC00F3
:101190009007C6003008C200D008BD007009B90031
:1011A000100AB500B00AB200500BAE00F00BAB0055
:1011B000900CA800300DA500D00DA200700EA0006C
:1011C000100F9D00B00F9B0050109800F01096007B
:1011D0009011940030129200D012900070138E0083
:1011E00010148C00B0148A0050158800F015870088
:1011F0009016850030178300D0178100701880008A
:1012000010197E00B0197D00501A7B00F01A7A0088
:10121000901B7800301C7700D01C7500701D740086
:10122000101E7200B01E7100501F6F00F01F6E0084
:1012300090206C0030216B00D0216A007022680081
:1012400010236700B023660050246400F02463007C
:101250009025620030266000D0265F0070275D0078
:1012600010285C00B0285B0050295900F029580074
:10127000902A5700302B5500D02B5400702C520070
:10128000102D5100B02D5000502E4E00F02E4D006C
:10129000902F4B0030304A00D0304800703146006B
:1012A00010324500B032430050334100F03340006B
:1012B00090343E0030353C00D0353A00703638006E
:1012C00010373600B037340050383200F0382F0075
:1012D00090392D00303A2A00D03A2700703B240084
:1012E000103C2000B03C1C00503D1700F03D1100A8
:1012F000903E0A00303F0000504944204175746F11
:1013000074756E652066696E697368656421205026
:10131000757420746865204B702C204B6920616EB9
:1013200064204B6420636F6E7374616E7473206904
:101330006E746F20436F6E66696775726174696F52
:101340006E2E6800504944204175746F74756E6547
:10135000206661696C6564212074696D656F7574C0
:101360000020403A006F6B20543A006F6B20423AE5
:1013700000504944204175746F74756E6520666134
:10138000696C6564212054656D7065726174757255
:101390006520746F6F206869676800204B643A208D
:1013A00000204B693A2000204B703A200020436C0B
:1013B000617369632050494420002054753A20002D
:1013C000204B753A2000206D61783A2000206D692D
:1013D0006E3A200020643A200020626961733A204E
:1013E0000010006003B000940150015101F0012E83
:1013F000019002170130030601D003F9007004EEDA
:10140000001005E500B005DD005006D700F006D05D
:10141000009007CB003008C600D008C1007009BD9D
:1014200000100AB900B00AB500500BB200F00BAEC4
:1014300000900CAB00300DA800D00DA600700EA3DC
:1014400000100FA000B00F9E0050109B00F01099EC
:10145000009011970030129500D0129300701391F4
:101460000010148F00B0148D0050158B00F01589FA
:10147000009016870030178500D0178400701882FE
:101480000010198000B0197F00501A7D00F01A7CFE
:1014900000901B7A00301C7800D01C7700701D75FE
:1014A00000101E7400B01E7300501F7100F01F70FA
:1014B0000090206E0030216D00D0216B0070226AF8
:1014C0000010236900B023670050246600F02464F4
:1014D000009025630030266200D026600070275FF0
:1014E0000010285D00B0285C0050295B00F02959ED
:1014F00000902A5800302B5600D02B5500702C54E9
:1015000000102D5200B02D5100502E4F00F02E4EE5
:1015100000902F4C0030304A00D0304900703147E5
:101520000010324600B032440050334200F03340E5
:101530000090343F0030353D00D0353B00703639E7
:101540000010373700B037340050383200F03830F0
:101550000090392D00303A2A00D03A2700703B2401
:1015600000103C2000B03C1C00503D1700F03D1125
:1015700000903E0A004D383420582059205A20450A
:10158000006563686F3A0043616E6E6F7420656E2C
:10159000746572207375626469723A20004D32344A
:1015A000004D3233202573006175746F25692E67F5
:1015B000004572726F723A006572726F72207772B4
:1015C0006974696E6720746F2066696C65004E6F80
:1015D00074205344207072696E74696E67002F0026
:1015E0005344207072696E74696E67206279746505
:1015F00020002E0044656C6574696F6E2066616919
:101600006C65642C2046696C653A200046696C65FF
:101610002064656C657465643A002E006F70656EB9
:10162000206661696C65642C2046696C653A20000F
:1016300057726974696E6720746F2066696C653AC9
:1016400020002E006F70656E206661696C65642CE9
:101650002046696C653A20002E006F70656E20662A
:1016600061696C65642C2046696C653A20004669A6
:101670006C652073656C6563746564002053697ADA
:10168000653A200046696C65206F70656E65643A46
:1016900020002E006F70656E206661696C65642C99
:1016A0002046696C653A20004E6F7720667265733C
:1016B000682066696C653A20004E6F7720646F6918
:1016C0006E672066696C653A20002220706F730097
:1016D0002220706172656E743A2200535542524F57
:1016E0005554494E452043414C4C20746172676506
:1016F000743A2200747279696E6720746F20636196
:101700006C6C207375622D67636F64652066696C0D
:101710006573207769746820746F6F206D616E79CE
:10172000206C6576656C732E204D4158206C657673
:10173000656C2069733A0053442063617264206FC2
:101740006B006F70656E526F6F74206661696C65B7
:101750006400766F6C756D652E696E6974206661C4
:10176000696C656400534420696E69742066616920
:101770006C006563686F3A0048617264636F64650A
:10178000642044656661756C742053657474696E79
:101790006773204C6F616465640053746F72656495
:1017A0002073657474696E677320726574726965FD
:1017B0007665640020005D005D5B00206265645F0B
:1017C0006C6576656C5B006265645F6C6576656C04
:1017D000203A002044002049002020204D333031A1
:1017E0002050005049442073657474696E67733AE1
:1017F00000205A0020590020204D3636362058004F
:10180000456E6473746F702061646A757374656D7E
:10181000656E7420286D6D293A00205A0020590009
:1018200020204D323036205800486F6D65206F669D
:101830006673657420286D6D293A00204500205A92
:101840000020580020420020540020204D32303526
:10185000205300416476616E63656420766172692D
:1018600061626C65733A20533D4D696E2066656513
:10187000647261746520286D6D2F73292C20543D8E
:101880004D696E2074726176656C20666565647260
:1018900061746520286D6D2F73292C20423D6D6980
:1018A0006E696D756D207365676D656E7420746902
:1018B0006D6520286D73292C20583D6D6178696D08
:1018C000756D205859206A65726B20286D6D2F73D5
:1018D000292C20205A3D6D6178696D756D205A2044
:1018E0006A65726B20286D6D2F73292C2020453D71
:1018F0006D6178696D756D2045206A65726B202871
:101900006D6D2F73290020540020204D323034207B
:101910005300416363656C65726174696F6E3A2050
:10192000533D616363656C65726174696F6E2C20F1
:10193000543D7265747261637420616363656C65A4
:10194000726174696F6E00204500205A00205900B2
:1019500020204D3230312058004D6178696D756D11
:1019600020416363656C65726174696F6E20286DD8
:101970006D2F7332293A00204500205A002059006B
:1019800020204D3230332058004D6178696D756DDF
:101990002066656564726174657320286D6D2F73B0
:1019A000293A00204500205A0020590020204D39B6
:1019B0003220580053746570732070657220756E04
:1019C00069743A0053657474696E67732053746F59
:1019D00072656400022D2D3A2D2D002D2D2D005302
:1019E0004420000120000120004E6F20534420635A
:1019F000617264005072696E742066726F6D20535C
:101A0000440053746F70207072696E740052657375
:101A1000756D65207072696E740050617573652014
:101A20007072696E7400436F6F6C646F776E004DF7
:101A300061696E74656E616E63650046696C616DA7
:101A4000656E740054756E65004241434B00052E6F
:101A50002E004241434B004D3234004D323320259D
:101A60007300473238004D383420582059205A200E
:101A700045004D313036205332353500526573659F
:101A80007420746F2064656661756C74004C6F61BE
:101A9000642073657474696E670053746F72652097
:101AA00073657474696E670056657273696F6E0052
:101AB00052756E74696D652073746174730054653A
:101AC0006D70657261747572650053657474696ECA
:101AD00067205A2D6F6666736574004175746F20B8
:101AE0006C6576656C696E6700486F6D652068652A
:101AF0006164004241434B00436F6F6C646F776ECB
:101B00000042656400426564004E6F7A7A6C65003D
:101B10004E6F7A7A6C65004241434B004D34303051
:101B2000004730205A3230204631303030004730C4
:101B3000205A3430204635303030004732380020CB
:101B4000004D6F7665205A00473238005A004241F6
:101B5000434B004F4B004732390047323800473281
:101B6000380053657474696E672041425320746570
:101B70006D700053657474696E6720504C41207419
:101B8000656D7000457874727564652066696C6176
:101B90006D656E74004C6F61642066696C616D6583
:101BA0006E7400556E6C6F61642066696C616D6562
:101BB0006E740053656C6563742041425300536535
:101BC0006C65637420504C41004241434B00537498
:101BD0006F72652073657474696E67004265640096
:101BE000426564004E6F7A7A6C65004E6F7A7A6C4B
:101BF00065004241434B0053746F726520736574F6
:101C000074696E670042656400426564004E6F7AD5
:101C10007A6C65004E6F7A7A6C65004241434B00E6
:101C200041425300504C410047323800473238009F
:101C30004732380001200043414E43454C004F4B92
:101C40000043414E43454C004F4B00466C6F7700BC
:101C5000466C6F770042656400426564004E6F7A9F
:101C60007A6C65004E6F7A7A6C65004241434B0096
:101C7000436172642072656D6F76656400436172C2
:101C80006420696E73657274656400207365630017
:101C9000206D696E0020686F75720020686F757224
:101CA0007300494E46494E4954594E414ECDCCCC15
:101CB0003D0AD7233C17B7D13877CC2B329595E620
:101CC000241FB14F0A000020410000C84200401C00
:101CD0004620BCBE4CCA1B0E5AAEC59D7400431AAA
:101CE000014926C93C1A11241FBECFEFD1E2DEBF45
:101CF000CDBF00E00CBF16E0A0E0B2E0E8E3FCEAF4
:101D000001E00BBF02C007900D92A63EB107D9F7C4
:101D10001BBE12E1A6EEB6E001C01D92A936B107C6
:101D2000E1F71CE1C4EEDCE104C02297FE010E9451
:101D3000C1D5CE3DD107C9F70E949FD00C940FD6D4
:101D40000C940000A0E0B0E0E8EAFEE00C94DED5E0
:101D5000EC015B016115710519F0FB019183808332
:101D6000F9908F2D90E00E94C5D5892BC9F7FDE22F
:101D7000FF1621F4F990EE24E39405C02BE2F2164D
:101D800009F4F990EE248E0101501040C80162EA76
:101D90007CE143E050E00E943811892B01F58E016F
:101DA0000E5F1F4FC80165EA7CE145E050E00E94EC
:101DB0003811892B19F48E01095F1F4FA114B1044A
:101DC00019F0F50111830083E0FC04C070E090E09D
:101DD00080E814C070E090E080E86FEF08C1C801AF
:101DE0006AEA7CE143E050E00E943811892B69F4F3
:101DF000A114B10429F470E090E080EC6FE7F7C023
:101E00002296F501D183C083F6CF8824992440E03F
:101E100050E060E070E0EF2DE053EA30A0F5F2E032
:101E2000EF2A8E2D90E09C0128703070E2FE06C0F3
:101E3000232B79F50894811C911C2BC0232B19F0BE
:101E4000089481089108DB01CA0112E0880F991FEC
:101E5000AA1FBB1F1A95D1F7480F591F6A1F7B1F76
:101E6000440F551F661F771F4E0F511D611D711DB9
:101E7000483929E9520729E9620729E1720748F040
:101E800084E0E82A06C0EE3F31F4E3FC39C098E074
:101E9000E92AF990C0CFE53311F0E53189F52991B0
:101EA0002D3219F4E0E1EE2A05C02B3219F081E061
:101EB00090E003C0299182E090E0E22FE053EA3005
:101EC00018F0C81BD90B1CC020E030E0FCE0203823
:101ED0003F075CF4C901880F991F880F991F280FCD
:101EE000391F220F331F2E0F311DE991E053EA30C5
:101EF00068F3E4FE03C0309521953F4F820E931E98
:101F0000CE2CDD24E1FE07C0A114B10421F02197FD
:101F1000F501D183C083CB01BA010E942AD27B0193
:101F20008C01F3E0CF22DD2423E0C216D10421F49A
:101F300017FB109517F9109557016801C801B701F3
:101F400020E030E040E050E00E948AD1882309F48C
:101F50004AC097FE0DC021ECE22E2CE1F22E9094A7
:101F6000819491089394C0E2D0E000E010E012C0A8
:101F700099EDE92E9CE1F92EF6CFF70125913591E7
:101F800045915491C601B5010E946AD45B016C0170
:101F90008C1A9D0A8C169D0684F7D595C7950F5F00
:101FA0001F4F0630110529F08CEF9FEFE80EF91E48
:101FB000F1CFC501D6017C018D018C2D880F8D2DAF
:101FC000881F8F3F51F0C601B50120E030E040E0AE
:101FD00050E00E948AD1882331F482E290E090930D
:101FE0006812809367127E2D9F2D802F612F272FDF
:101FF000392F482F562FB901CA01CDB7DEB7ECE013
:102000000C94FAD52F923F925F926F927F928F92AB
:102010009F92AF92BF92CF92DF92EF92FF920F9377
:102020001F93CF93DF938C011B01EA0161157105AA
:1020300019F0FB0191838083209749F0CE0102972C
:10204000839728F020E030E040E050E0F6C0F8014F
:10205000A1908F018A2D90E00E94C5D5892BB9F7F8
:10206000FDE2AF1631F4F801A1908F01552453948D
:1020700007C0FBE2AF1619F4F801A1908F015524B7
:10208000209719F0C031D105C1F4F0E3AF1679F40F
:10209000F8018081883711F0883549F4F801A18072
:1020A0000E5F1F4FF2E05F2AC0E1D0E006C020972C
:1020B00021F480E3A816E9F427C0C830D10531F136
:1020C000C930D10524F4C230D10531F50CC0CA3075
:1020D000D10589F0C031D105F9F4C12CD12CE12C06
:1020E000B8E0FB2E28C0C12CD12CE12CA0E4FA2EA4
:1020F00022C0CAE0D0E0FCECCF2EFCECDF2EFCECE2
:10210000EF2EFCE0FF2E17C0C8E0D0E0C12CD12C90
:10211000E12CE0E1FE2E0FC09E01442737FD4095E3
:10212000542F60E070E080E090E80E9482D5C90101
:10213000DA016C017D0120E030E040E050E060E039
:102140003E01882477FC8094982C70EDB72EBA0C51
:10215000E9E0EB1570F48A2D81548A3118F499EC7A
:10216000B92E06C08A2D81568A3150F589EAB82EDB
:10217000BA0C8B2D90E08C179D0714F56F3FE1F0A2
:10218000C216D306E406F506B0F0CA01B901A401EF
:1021900093010E943CD59B01AC012B0D311D411DCB
:1021A000511D2130F0E03F07F0E04F07F0E85F07F6
:1021B00010F461E001C06FEFF801A1908F01C5CF6D
:1021C0002114310481F0662331F001501040F101F7
:1021D0001183008308C051FE1AC002501040F10163
:1021E0001183008314C067FF12C050FC05C02FEF9D
:1021F0003FEF4FEF5FE704C020E030E040E050E801
:1022000082E290E0909368128093671216C050FEAD
:1022100008C050954095309521953F4F4F4F5F4FE7
:102220000CC057FF0AC082E290E09093681280933E
:1022300067122FEF3FEF4FEF5FE7B901CA01DF9160
:10224000CF911F910F91FF90EF90DF90CF90BF90B3
:10225000AF909F908F907F906F905F903F902F9066
:102260000895FB01DC0105900D920020E1F708952F
:10227000FB01DC014150504088F08D9181341CF00D
:102280008B350CF4805E659161341CF06B350CF479
:10229000605E861B611171F3990B0895881BFCCF5A
:1022A000FB01DC014150504048F005900D920020A8
:1022B000C9F701C01D9241505040E0F70895FB015D
:1022C00055915523A9F0BF01DC014D9145174111EE
:1022D000E1F759F4CD010590002049F04D914015EA
:1022E0004111C9F3FB014111EFCF81E090E001976B
:1022F0000895FB01DC0104C08D910190801921F447
:1023000041505040C8F7881B990B0895FB01DC0130
:1023100002C001900D9241505040D8F70895FB0142
:10232000DC010D900020E9F7119701900D9200203B
:10233000E1F70895FC018191861721F08823D9F7F0
:10234000992708953197CF010895FB01DC01019091
:102350000D920020E1F70895FB01DC01415050404F
:1023600030F08D910190801919F40020B9F7881B85
:10237000990B0895FB01DC014150504048F0019059
:102380000D920020C9F701C01D9241505040E0F766
:102390000895AEE0B0E0EFECF1E10C94E6D50E89E3
:1023A0001F8986E08C831A8309838FEF9FE79E83C2
:1023B0008D839E01265E3F4FCE010196688D798DFB
:1023C000A9010E9411122F813885020F131FF801F5
:1023D00010822E96E4E00C9402D6AEE0B0E0E3EF7B
:1023E000F1E10C94E6D50E891F898EE08C831A8367
:1023F00009838FEF9FE79E838D839E01265E3F4F6B
:10240000CE010196688D798DA9010E9411122F814C
:102410003885020F131FF80110822E96E4E00C9409
:1024200002D6ABE0B0E0E7E1F2E10C94D8D53C0194
:102430002B015A01FC0117821682838181FD03C0A2
:102440006FEF7FEFC6C19AE0892E1E010894211C10
:10245000311CF3012381F20123FD859123FF81913A
:102460002F01882309F4B2C1853239F423FD859107
:1024700023FF81912F01853229F490E0B3010E945E
:102480000414E7CF982FFF24EE249924FFE1FF15D1
:10249000D0F09B3269F09C3228F4903259F093329C
:1024A00091F40EC09D3249F0903369F441E024C0AC
:1024B00052E0F52A84E0F82A28C098E0F92A25C0DD
:1024C000E0E1FE2A22C0F7FC29C0892F80538A3020
:1024D00070F4F6FE05C0989C902C1124980E15C03F
:1024E000E89CE02C1124E80EF0E2FF2A0EC09E3298
:1024F00029F4F6FC6BC140E4F42A07C09C3619F4B9
:1025000050E8F52A02C0983649F4F20123FD95916E
:1025100023FF91912F01992309F0B8CF892F85547A
:10252000833018F08052833038F444E050E0A40E39
:10253000B51E5FE359830FC0933631F0933779F0BE
:10254000933509F056C020C0F5018081898342E0AF
:1025500050E0A40EB51E610101E010E012C0F501CB
:10256000C080D180F6FC03C06FEF7FEF02C0692D01
:1025700070E042E050E0A40EB51EC6010E94F913BF
:102580008C015FE7F52214C0F501C080D180F6FC14
:1025900003C06FEF7FEF02C0692D70E042E050E0B2
:1025A000A40EB51EC6010E94EE138C0150E8F52A58
:1025B000F3FE07C01AC080E290E0B3010E94041449
:1025C000EA948E2D90E008171907A8F30EC0F601C3
:1025D000F7FC8591F7FE81916F0190E0B3010E94B5
:1025E0000414E110EA94015010400115110579F727
:1025F000EAC0943611F0993669F5F7FE08C0F50186
:10260000208131814281538184E090E00AC0F5014C
:10261000808191819C01442737FD4095542F82E0B1
:1026200090E0A80EB91E9FE6F92257FF09C0509509
:102630004095309521953F4F4F4F5F4FE0E8FE2A80
:10264000CA01B901A1012AE030E00E943014D82E5D
:10265000D21840C0953729F41F2D1F7E2AE030E0A4
:102660001DC01F2D197F9F3661F0903720F49835DB
:1026700009F0ACC00FC0903739F0983709F0A6C008
:1026800004C028E030E00AC0106114FD146020E1AD
:1026900030E004C014FD166020E132E017FF08C0EE
:1026A000F501608171818281938144E050E008C02E
:1026B000F50180819181BC0180E090E042E050E032
:1026C000A40EB51EA1010E943014D82ED2188FE797
:1026D000F82EF122F6FE0BC05EEFF522D91438F485
:1026E000F4FE07C0F2FC05C08FEEF82202C01D2DDB
:1026F00001C0192DF4FE0DC0FE01ED0DF11D80810C
:10270000803319F499EEF92208C01F5FF2FE05C06C
:1027100003C08F2D867809F01F5F0F2DF3FC14C0C6
:10272000F0FE0FC01E1510F09D2C0BC09D2C9E0CB2
:10273000911A1E2D06C080E290E0B3010E9404149D
:102740001F5F1E15C0F304C01E1510F4E11A01C06E
:10275000EE2404FF0FC080E390E0B3010E94041454
:1027600002FF1DC001FD03C088E790E00EC088E5B0
:1027700090E00BC0802F867891F001FF02C08BE2C1
:1027800001C080E2F7FC8DE290E0B3010E940414E6
:1027900006C080E390E0B3010E9404149A94D91417
:1027A000C0F3DA94F101ED0DF11D808190E0B301E9
:1027B0000E940414DD20A9F706C080E290E0B30176
:1027C0000E940414EA94EE20C1F743CEF30166811F
:1027D0007781CB012B96E2E10C94F4D5FC010590B6
:1027E000615070400110D8F7809590958E0F9F1F13
:1027F0000895FC016150704001900110D8F7809558
:1028000090958E0F9F1F08950F931F93CF93DF9383
:102810008C01EB018B8181FF1BC082FF0DC02E81DB
:102820003F818C819D812817390764F4E881F98103
:102830000193F983E88306C0E885F985802F19950F
:10284000892B31F48E819F8101969F838E8302C0F4
:102850000FEF1FEFC801DF91CF911F910F910895E6
:10286000FA01AA27283051F1203181F1E8946F93C1
:102870006E7F6E5F7F4F8F4F9F4FAF4FB1E03ED067
:10288000B4E03CD0670F781F891F9A1FA11D680F05
:10289000791F8A1F911DA11D6A0F711D811D911D38
:1028A000A11D20D009F468943F912AE0269F1124AD
:1028B0003019305D3193DEF6CF010895462F477011
:1028C000405D4193B3E00FD0C9F7F6CF462F4F706C
:1028D000405D4A3318F0495D31FD4052419302D0CA
:1028E000A9F7EACFB4E0A695979587957795679570
:1028F000BA95C9F700976105710508959B01AC0170
:102900000A2E06945795479537952795BA95C9F796
:10291000620F731F841F951FA01D08951F920F92B1
:102920000FB60F9211242F933F938F939F93AF93E2
:10293000BF938091EA069091EB06A091EC06B091CE
:10294000ED063091EE060196A11DB11D232F2D5FDE
:102950002D3720F02D570196A11DB11D2093EE06B5
:102960008093EA069093EB06A093EC06B093ED06F5
:102970008091E6069091E706A091E806B091E906FD
:102980000196A11DB11D8093E6069093E706A093E2
:10299000E806B093E906BF91AF919F918F913F9167
:1029A0002F910F900FBE0F901F9018958FB7F8942E
:1029B0002091EA063091EB064091EC065091ED062D
:1029C0008FBFB901CA0108959B01AC017FB7F8948C
:1029D0008091E6069091E706A091E806B091E9069D
:1029E00066B5A89B05C06F3F19F00196A11DB11DEA
:1029F0007FBFBA2FA92F982F8827860F911DA11D61
:102A0000B11D62E0880F991FAA1FBB1F6A95D1F7FD
:102A1000BC012DC0FFB7F8948091E6069091E706BF
:102A2000A091E806B091E906E6B5A89B05C0EF3F86
:102A300019F00196A11DB11DFFBFBA2FA92F982F24
:102A400088278E0F911DA11DB11DE2E0880F991FEF
:102A5000AA1FBB1FEA95D1F7861B970B885E934090
:102A6000C8F2215030404040504068517C4F211501
:102A700031054105510571F60895019739F0880F28
:102A8000991F880F991F02970197F1F7089578947D
:102A900084B5826084BD84B5816084BD85B5826063
:102AA00085BD85B5816085BDEEE6F0E08081816001
:102AB0008083E1E8F0E01082808182608083808101
:102AC00081608083E0E8F0E0808181608083E1EBD9
:102AD000F0E0808184608083E0EBF0E080818160C1
:102AE0008083E1E9F0E08081826080838081816081
:102AF0008083E0E9F0E0808181608083E1EAF0E0BA
:102B0000808182608083808181608083E0EAF0E060
:102B1000808181608083E1E2F1E080818260808356
:102B2000808181608083E0E2F1E080818160808348
:102B3000EAE7F0E080818460808380818260808326
:102B40008081816080838081806880831092C10051
:102B500008951F93CF93DF93182FEB0161E00E943C
:102B60008916209709F4CAC0CF3FD10509F4C9C01E
:102B7000E12FF0E0E75FFD4F8491893009F466C0F2
:102B80008A30B0F48430F1F1853040F4823059F16C
:102B9000833070F5813009F0AEC020C0873009F471
:102BA00043C0883008F048C0863009F0A4C034C063
:102BB0008D3009F478C08E3038F48B3009F45AC067
:102BC0008C3008F066C04CC0803109F480C081317F
:102BD00009F487C08F3009F08EC06FC084B580685B
:102BE00084BDC7BD92C084B5806284BDC8BD8DC0A0
:102BF00080918000806880938000D0938900C0938A
:102C0000880083C080918000806280938000D09390
:102C10008B00C0938A0079C08091B0008068809357
:102C2000B000C093B30071C08091B0008062809307
:102C3000B000C093B40069C0809190008068809318
:102C40009000D0939900C09398005FC0809190004D
:102C5000806280939000D0939B00C0939A0055C0EF
:102C600080919000886080939000D0939D00C093E5
:102C70009C004BC08091A00080688093A000809150
:102C8000A0008F7B8093A000D093A900C093A800E0
:102C90003CC08091A00080628093A000D093AB00E4
:102CA000C093AA0032C08091A00088608093A000E9
:102CB000D093AD00C093AC0028C080912001806803
:102CC00080932001D0932901C09328011EC08091D8
:102CD0002001806280932001D0932B01C0932A01B0
:102CE00014C080912001886080932001D0932D0131
:102CF000C0932C010AC0C038D1051CF4812F60E0BC
:102D000002C0812F61E00E943C17DF91CF911F919B
:102D10000895CF93DF93482F50E0CA018D539E4F03
:102D2000FC01349143585E4FFA018491882369F184
:102D300090E0880F991FFC01E15DFE4FA591B491D1
:102D4000FC01E75BFE4FC591D491662351F42FB788
:102D5000F8948C91932F909589238C938881892363
:102D60000BC0623061F42FB7F8948C91932F90953B
:102D700089238C938881832B88832FBF06C09FB7BC
:102D8000F8948C91832B8C939FBFDF91CF91089502
:102D9000893009F449C08A30A0F4843051F185307B
:102DA00040F4823079F1833000F5813009F063C05E
:102DB00026C0873079F1883098F5863009F05BC0FD
:102DC00025C08D3009F442C08E3028F48B30B1F12B
:102DD0008C30C0F52DC0803109F442C0813109F436
:102DE00045C08F3009F047C037C0809180008F7791
:102DF00003C0809180008F7D80938000089584B50A
:102E00008F7702C084B58F7D84BD08958091B00016
:102E10008F7703C08091B0008F7D8093B0000895BC
:102E2000809190008F7707C0809190008F7D03C0C4
:102E300080919000877F8093900008958091A000FA
:102E40008F7707C08091A0008F7D03C08091A00084
:102E5000877F8093A0000895809120018F7703C021
:102E6000809120018F7D8093200108958091200121
:102E7000877F809320010895FF920F931F93F62E72
:102E8000482F50E0CA01875F9D4FFC012491CA0181
:102E90008D539E4FFC01149143585E4FFA010491EB
:102EA0000023C9F0222319F0822F0E94C816E02FB8
:102EB000F0E0EE0FFF1FE75BFE4FA591B4919FB7C7
:102EC000F894FF2021F48C911095812302C08C91FD
:102ED000812B8C939FBF1F910F91FF9008950F93AB
:102EE0001F93482F50E0CA01875F9D4FFC0124913A
:102EF000CA018D539E4FFC01049143585E4FFA0165
:102F00001491112319F420E030E015C0222319F0A8
:102F1000822F0E94C816812F90E0880F991F8D592B
:102F20009E4FFC01A591B4918C9120E030E080236C
:102F300011F021E030E0C9011F910F9108951F9217
:102F40000F920FB60F920BB60F9211242F933F934F
:102F50004F935F936F937F938F939F93AF93BF93A1
:102F6000EF93FF938091F3069091F406892B29F05B
:102F7000E091F306F091F4061995FF91EF91BF915E
:102F8000AF919F918F917F916F915F914F913F9101
:102F90002F910F900BBE0F900FBE0F901F901895A2
:102FA0001F920F920FB60F920BB60F9211242F9310
:102FB0003F934F935F936F937F938F939F93AF93C1
:102FC000BF93EF93FF938091F5069091F606892BBE
:102FD00029F0E091F506F091F6061995FF91EF9131
:102FE000BF91AF919F918F917F916F915F914F9121
:102FF0003F912F910F900BBE0F900FBE0F901F901F
:1030000018951F920F920FB60F920BB60F921124C4
:103010002F933F934F935F936F937F938F939F93E0
:10302000AF93BF93EF93FF938091F7069091F806CB
:10303000892B29F0E091F706F091F8061995FF9198
:10304000EF91BF91AF919F918F917F916F915F9120
:103050004F913F912F910F900BBE0F900FBE0F908D
:103060001F9018951F920F920FB60F920BB60F92EA
:1030700011242F933F934F935F936F937F938F937D
:103080009F93AF93BF93EF93FF938091F906909135
:10309000FA06892B29F0E091F906F091FA061995C4
:1030A000FF91EF91BF91AF919F918F917F916F9120
:1030B0005F914F913F912F910F900BBE0F900FBEDC
:1030C0000F901F9018951F920F920FB60F920BB68C
:1030D0000F9211242F933F934F935F936F937F939E
:1030E0008F939F93AF93BF93EF93FF938091EF06DE
:1030F0009091F006892B29F0E091EF06F091F0060F
:103100001995FF91EF91BF91AF919F918F917F9111
:103110006F915F914F913F912F910F900BBE0F9048
:103120000FBE0F901F9018951F920F920FB60F921F
:103130000BB60F9211242F933F934F935F936F938E
:103140007F938F939F93AF93BF93EF93FF93809160
:10315000F1069091F206892B29F0E091F106F091A9
:10316000F2061995FF91EF91BF91AF919F918F91C9
:103170007F916F915F914F913F912F910F900BBE77
:103180000F900FBE0F901F9018951F920F920FB6C1
:103190000F920BB60F9211242F933F934F935F938F
:1031A0006F937F938F939F93AF93BF93EF93FF930F
:1031B0008091FB069091FC06892B29F0E091FB069B
:1031C000F091FC061995FF91EF91BF91AF919F91FE
:1031D0008F917F916F915F914F913F912F910F90C0
:1031E0000BBE0F900FBE0F901F9018951F920F925D
:1031F0000FB60F920BB60F9211242F933F934F935C
:103200005F936F937F938F939F93AF93BF93EF934E
:10321000FF938091FD069091FE06892B29F0E091A5
:10322000FD06F091FE061995FF91EF91BF91AF91C8
:103230009F918F917F916F915F914F913F912F91CE
:103240000F900BBE0F900FBE0F901F901895CF924E
:10325000DF92EF92FF920F931F93CF93DF937C0146
:103260006B018A01C0E0D0E00FC0D6016D916D0105
:10327000D701ED91FC910190F081E02DC7011995E6
:10328000C80FD91F015010400115110571F7CE016B
:10329000DF91CF911F910F91FF90EF90DF90CF9032
:1032A0000895DC01ED91FC910190F081E02D1995DC
:1032B0000895CF93DF93EC016115710519F420E0B7
:1032C00030E00FC0DB010D900020E9F71197A61B3D
:1032D000B70BE881F9810280F381E02DAD011995EA
:1032E0009C01C901DF91CF9108950E945919089559
:1032F0008091C70B9091C80B181619069CF4809109
:10330000310A9091320A019664E070E00E946FD514
:103310009093C20B8093C10B81E090E09093C80B17
:103320008093C70B0895EF92FF920F931F93CF9353
:10333000DF93EC01E090AC05F090AD050091AE0597
:103340001091AF05688179818A819B81A8019701DD
:103350000E9498D3181624F4E882F9820A831B830A
:10336000E090B005F090B1050091B2051091B30561
:103370006C817D818E819F81A80197010E9498D3E5
:10338000181624F4EC82FD820E831F83E090B405AE
:10339000F090B5050091B6051091B705688579855F
:1033A0008A859B85A80197010E9498D3181624F45A
:1033B000E886F9860A871B87DF91CF911F910F91CD
:1033C000FF90EF9008958091FC0908950F931F934B
:1033D000CF93DF938130910549F46F5F7F4F09F000
:1033E00046C08FEF96E00E94CF9241C0892B09F032
:1033F0003EC06F5F7F4FD9F586E696E09093CA088E
:103400008093C9088091D008882321F08DEC98E042
:103410000E94E64EC5E8D8E006E616E005C06F97C4
:1034200087E0CF34D80751F0198308838F81882330
:10343000B1F3CE0104960E94E64EF1CF86E696E007
:10344000998388838F81882321F0CE0104960E947E
:10345000E64E86E696E090932F0780932E078091A4
:103460003507882321F082E397E00E94E64EDF9142
:10347000CF911F910F91089580E090E06FEF7FEF63
:103480000E94E619089581E090E06FEF7FEF0E94BF
:10349000E61908950E94357B8091FC09882309F084
:1034A0003AC081E08093FC098091000A9091010A62
:1034B000A091020AB091030A8093040A9093050A2E
:1034C000A093060AB093070AE5E5F2E0949108C0DC
:1034D0008091C00085FFFCCF9093C60031969491F7
:1034E0009923B1F7E6E6F2E0949108C08091C0001C
:1034F00085FFFCCF9093C600319694919923B1F744
:103500008091C00085FFFCCF8AE08093C6008CE5E7
:1035100092E00E9459C90895F8940E94357B9FB7A4
:10352000F894809108018160809308019FBF1092F8
:10353000BA099FB7F89480910B01826080930B01C8
:103540009FBF1092BB09899A1092BC09129A8DE212
:1035500060E00E948916E5E5F2E0949108C0809150
:10356000C00085FFFCCF9093C600319694919923BB
:10357000B1F7E5EEF2E0949108C08091C00085FFBC
:10358000FCCF9093C600319694919923B1F7809126
:10359000C00085FFFCCF8AE08093C6008CED92E0EE
:1035A0000E9468C9FFCF0E94D6146093080A7093E6
:1035B000090A80930A0A90930B0AE091310AF0916C
:1035C000320AED5CF54F80818823A9F4E4E0F3E052
:1035D000949108C08091C00085FFFCCF9093C600F5
:1035E000319694919923B1F78091C00085FFFCCF6B
:1035F0008AE08093C60008950E94D6146093080A5A
:103600007093090A80930A0A90930B0A0895EF9227
:10361000FF920F931F930E94D614E0900C0AF09033
:103620000D0A00910E0A10910F0A2091080A30919C
:10363000090A40910A0A50910B0A621B730B840B12
:10364000950BE616F7060807190738F4E114F1049C
:103650000105110511F00E948C1A8091BA05909114
:10366000BB05A091BC05B091BD050097A105B105B2
:10367000C9F10E94D6142091080A3091090A40919C
:103680000A0A50910B0A621B730B840B950B209155
:10369000BA053091BB054091BC055091BD05261778
:1036A000370748075907F0F49091391180913A1182
:1036B0009817C1F49FB7F8948091080181608093B6
:1036C00008019FBF1092BA099FB7F89480910B012F
:1036D000826080930B019FBF1092BB09899A109260
:1036E000BC09129A0E9451631F910F91FF90EF90B5
:1036F00008956F927F928F929F92AF92BF92CF92D6
:10370000DF92EF92FF920F931F93F82E6091100AB1
:103710007091110A8091120A9091130A2091140A53
:103720003091150A4091160A5091170A0E94A5D3AC
:103730003B014C0100D000D00DB71EB70F5F1F4FEB
:103740006091980570919905882777FD8095982F4D
:103750000E942CD22091BE053091BF054091C0053A
:103760005091C1050E946AD420E030E040E752E465
:103770000E9491D120E030E048EC52E40E9491D1C7
:103780005B016C01F8016082718282829382F48213
:103790008091C109858382E999E06CE17AE040E19A
:1037A0005AE020E001E0E2E0EE2E0E94C75B80914B
:1037B0001C0A90911D0AA0911E0AB0911F0A8093C5
:1037C000920990939309A0939409B09395098091DD
:1037D000200A9091210AA091220AB091230A809395
:1037E000960990939709A0939809B09399098091AD
:1037F000240A9091250AA091260AB091270A809365
:103800009A0990939B09A0939C09B0939D0980917C
:10381000280A9091290AA0912A0AB0912B0A809334
:103820009E0990939F09A093A009B093A1098DB719
:103830009EB706960FB6F8949EBF0FBE8DBF0E942E
:10384000D6146093080A7093090A80930A0A909329
:103850000B0A1F910F91FF90EF90DF90CF90BF90D8
:10386000AF909F908F907F906F9008958F929F92CE
:10387000AF92BF92CF92DF92EF92FF920F931F937E
:103880004C016EE37BE487ED92ECF4012081318101
:10389000428153810E94B0D07B018C016AE979E9B1
:1038A00088E792ECF40124813581468157810E949A
:1038B000B0D05B016C01C801B701A80197010E945B
:1038C0006AD49B01AC0160E079E78AE697E40E9444
:1038D000B0D07B018C01C601B501A60195010E9403
:1038E0006AD49B01AC01C801B7010E94B0D00E940C
:1038F000D7D4F40120853185428553850E94B1D00B
:103900006093C4097093C5098093C6099093C70951
:103910006EE37BE487ED92E4F40120813181428102
:1039200053810E94B0D07B018C016AE979E988E774
:1039300092ECF40124813581468157810E94B0D0F8
:103940005B016C01C801B701A80197010E946AD40C
:103950009B01AC0160E079E78AE697E40E94B0D071
:103960007B018C01C601B501A60195010E946AD4B4
:103970009B01AC01C801B7010E94B0D00E94D7D40E
:10398000F40120853185428553850E94B1D0609332
:10399000C8097093C9098093CA099093CB0960E064
:1039A00070E080E090E0F401208131814281538118
:1039B0000E94B0D07B018C016AE979E988EF92E43A
:1039C000F40124813581468157810E94B0D05B018A
:1039D0006C01C801B701A80197010E946AD49B013C
:1039E000AC0160E079E78AE697E40E94B0D07B0101
:1039F0008C01C601B501A60195010E946AD49B0104
:103A0000AC01C801B7010E94B0D00E94D7D4F40124
:103A100020853185428553850E94B1D06093CC09C1
:103A20007093CD098093CE099093CF091F910F9188
:103A3000FF90EF90DF90CF90BF90AF909F908F90CE
:103A400008952F923F924F925F926F927F928F9242
:103A50009F92AF92BF92CF92DF92EF92FF920F931D
:103A60001F93DF93CF9300D00F92CDB7DEB70E94A4
:103A7000D6146093080A7093090A80930A0A9093F7
:103A80000B0AFCE1CF2EFAE0DF2EC6010E94361CA5
:103A90000F920F922DB63EB60894211C311C409017
:103AA000C4095090C5096090C6097090C7098091FB
:103AB000C8099091C909A091CA09B091CB0989831D
:103AC0009A83AB83BC83E090CC09F090CD09009140
:103AD000CE091091CF09ACE0B0E0CA0EDB1E6091B8
:103AE000980570919905882777FD8095982F0E94F9
:103AF0002CD22091BE053091BF054091C005509158
:103B0000C1050E946AD420E030E040E752E40E9400
:103B100091D120E030E048EC52E40E9491D14B0179
:103B20005C0181EC99E0F10191838083C301B201D2
:103B300029813A814B815C810E943A6680911C0AFE
:103B400090911D0AA0911E0AB0911F0A80939209BC
:103B500090939309A0939409B09395098091200ABA
:103B60009091210AA091220AB091230A809396098C
:103B700090939709A0939809B09399098091240A8A
:103B80009091250AA091260AB091270A80939A095C
:103B900090939B09A0939C09B0939D098091280A5A
:103BA0009091290AA0912A0AB0912B0A80939E092C
:103BB00090939F09A093A009B093A1090F900F9033
:103BC0000F900F900F900F90CF91DF911F910F9159
:103BD000FF90EF90DF90CF90BF90AF909F908F902D
:103BE0007F906F905F904F903F902F9008952F920D
:103BF0003F924F925F926F927F928F929F92AF927D
:103C0000BF92CF92DF92EF92FF920F931F93DF93B9
:103C1000CF93CDB7DEB762970FB6F894DEBF0FBE75
:103C2000CDBF3C01DC016D917D918D919C9120E097
:103C300030E044E952E40E9491D169837A838B8316
:103C40009C8327E73EEB4FE75FE30E9498D318166B
:103C50008CF069817A818B819C8127E73EEB4FE76D
:103C60005FEB0E948AD188236CF487E79EEBAFE775
:103C7000BFEB04C087E79EEBAFE7BFE389839A837E
:103C8000AB83BC83D30114966D917D918D919C91F2
:103C9000179720E030E044E952E40E9491D12B01D3
:103CA0003C0127E73EEB4FE75FE30E9498D31816ED
:103CB000ACF0C301B20127E73EEB4FE75FEB0E9498
:103CC0008AD18823ACF40F2EF7E74F2EFEEB5F2E40
:103CD000FFE76F2EFFEB7F2EF02D0AC00F2EF7E7C8
:103CE0004F2EFEEB5F2EFFE76F2EFFE37F2EF02DB2
:103CF00069817A818B819C810E9467D20E94F9D16F
:103D00004B015C01C301B2010E9467D20E94F9D14C
:103D10006B017C01B401882777FD8095982F0E9464
:103D20002CD29B01AC0169817A818B819C810E949C
:103D3000B0D06D837E838F839887B601882777FD07
:103D40008095982F0E942CD29B01AC01C301B20137
:103D50000E94B0D02B013C010894811C911C089456
:103D6000C11CD11CF6013196FA8BE98B1401089421
:103D7000211C311C60E070E080E89FE3A301920108
:103D80000E94B0D069877A878B879C8760E070E05B
:103D900080E89FE32D813E814F8158850E94B0D0FD
:103DA0006D877E878F87988B8401000F111F080D08
:103DB000191DF801EC0DFD1DEE0FFF1FEE0FFF1F8B
:103DC000E053F64F69857A858B859C85208131810A
:103DD000428153810E946AD44B015C0189899A898E
:103DE000080F191F000F111F000F111F0053164F4E
:103DF000C301B201D8012D913D914D915C910E947A
:103E00006AD49B01AC01C501B4010E94B1D09B01F1
:103E1000AC016D857E858F8598890E946AD44B019F
:103E20005C018101000F111F020D131DC00ED11E78
:103E3000CC0CDD1CCC0CDD1CE0EDF9E0CE0EDF1E61
:103E400069857A858B859C85D6012D913D914D9113
:103E50005C910E946AD46B017C01E989FA890E0F9A
:103E60001F1F000F111F000F111F0053164FC3011A
:103E7000B201D8012D913D914D915C910E946AD47F
:103E80009B01AC01C701B6010E94B1D09B01AC01FE
:103E90006D817E818F8198850E946AD49B01AC01DF
:103EA000C501B4010E94B1D07B018C016091C409AD
:103EB0007091C5098091C6099091C709A801970121
:103EC0000E94B1D06093C4097093C5098093C6095C
:103ED0009093C7096091C8097091C9098091CA0976
:103EE0009091CB09A80197010E94B1D06093C809B5
:103EF0007093C9098093CA099093CB096091CC094A
:103F00007091CD098091CE099091CF09A8019701B8
:103F10000E94B1D06093CC097093CD098093CE09F3
:103F20009093CF0962960FB6F894DEBF0FBECDBF57
:103F3000CF91DF911F910F91FF90EF90DF90CF9085
:103F4000BF90AF909F908F907F906F905F904F90B9
:103F50003F902F9008952F923F924F925F926F92D1
:103F60007F928F929F92AF92BF92CF92DF92EF9209
:103F7000FF920F931F93DF93CF93CDB7DEB7A69732
:103F80000FB6F894DEBF0FBECDBFE090AC05F09049
:103F9000AD050091AE051091AF0560911C0A7091BE
:103FA0001D0A80911E0A90911F0AA80197010E9484
:103FB00098D3181644F4E0921C0AF0921D0A00935C
:103FC0001E0A10931F0AE090B005F090B105009111
:103FD000B2051091B3056091200A7091210A809179
:103FE000220A9091230AA80197010E9498D31816DB
:103FF00044F4E092200AF092210A0093220A1093DE
:10400000230AE090B405F090B5050091B605109133
:10401000B7056091240A7091250A8091260A909133
:10402000270AA80197010E9498D3181644F4E09239
:10403000240AF092250A0093260A1093270A0E9468
:10404000D6146093080A7093090A80930A0A909321
:104050000B0AEE24FF246E010894C11CD11C8601BA
:104060000E0D1F1DF701E45EF54FD701AE56B64F9A
:1040700060817181828193812D913D914D915C91FF
:104080000E94B0D0D8016D937D938D939C9313972C
:10409000E4E0F0E0EE0EFF1EF0E1EF16F104F9F6B9
:1040A00089819A81AB81BC818B8F9C8FAD8FBE8FB4
:1040B0008D819E81AF81B8858F8B988FA98FBA8FA4
:1040C00089859A85AB85BC858B8B9C8BAD8BBE8B94
:1040D0006B8D7C8D8D8D9E8D9B01AC010E946AD471
:1040E0007B018C016F89788D898D9A8D9B01AC0144
:1040F0000E946AD49B01AC01C801B7010E94B1D0F3
:104100007B018C016B897C898D899E899B01AC0127
:104110000E946AD49B01AC01C801B7010E94B1D0D2
:104120000E94D7D47B018C012DEB37E346E855E3A1
:104130000E948AD1882394F4ED84FE840F85188927
:10414000C801B70120E030E040E050E00E9498D381
:10415000181624F017FB109517F91095C801B70130
:104160002DEB37E346E855E30E948AD187FD73C102
:10417000C801B70120E030E84BEB55E40E946AD457
:104180002091BE053091BF054091C0055091C105F9
:104190000E9491D17B018C016091980570919905E5
:1041A000882777FD8095982F0E942CD29B01AC0127
:1041B000C801B7010E9491D120E030E048E453E407
:1041C0000E946AD40E94F9D17A8B698B1616170661
:1041D00024F0A1E0B0E0BA8BA98BF1E02F2E312CB6
:1041E00089899A89AA2797FDA095BA2F8BA39CA3AA
:1041F000ADA3BEA3EAC0B101882777FD8095982FB3
:104200000E942CD27B018C016BA17CA18DA19EA16F
:104210000E942CD29B01AC01C801B7010E9491D130
:104220007B018C016B8D7C8D8D8D9E8DA8019701FE
:104230000E946AD49B01AC0160919209709193092C
:1042400080919409909195090E94B1D060931C0AC5
:1042500070931D0A80931E0A90931F0A6F89788DB0
:10426000898D9A8DA80197010E946AD49B01AC01A7
:104270006091960970919709809198099091990998
:104280000E94B1D06093200A7093210A8093220A81
:104290009093230A6B897C898D899E89A801970157
:1042A0000E946AD49B01AC0160919A0970919B09AC
:1042B00080919C0990919D090E94B1D06093240A3D
:1042C0007093250A8093260A9093270AC801B701A4
:1042D0002D853E854F8558890E946AD49B01AC018B
:1042E00060919E0970919F098091A0099091A10908
:1042F0000E94B1D06093280A7093290A80932A0AF9
:1043000090932B0A8CE19AE00E94361C8CE19AE093
:104310000E94F71D0F920F92CDB6DEB60894C11C15
:10432000D11C4090C4095090C5096090C609709096
:10433000C7098091C8099091C909A091CA09B09193
:10434000CB098F8F98A3A9A3BAA3E090CC09F090D2
:10435000CD090091CE091091CF0960919805709117
:104360009905882777FD8095982F0E942CD220915F
:10437000BE053091BF054091C0055091C1050E9416
:104380006AD420E030E040E752E40E9491D120E07E
:1043900030E048EC52E40E9491D14B015C01E1EC29
:1043A000F9E0D601ED93FC93C301B2012F8D38A142
:1043B00049A15AA1E8E2CE2EEAE0DE2E0E943A663A
:1043C0000894211C311C0F900F9089899A898215BD
:1043D00093050CF010CF80911C0A90911D0AA091BA
:1043E0001E0AB0911F0A8093920990939309A0939B
:1043F0009409B09395098091200A9091210AA09187
:10440000220AB091230A8093960990939709A0936A
:104410009809B09399098091240A9091250AA09156
:10442000260AB091270A80939A0990939B09A0933A
:104430009C09B0939D098091280A9091290AA09126
:104440002A0AB0912B0A80939E0990939F09A0930A
:10445000A009B093A109A6960FB6F894DEBF0FBECF
:10446000CDBFCF91DF911F910F91FF90EF90DF9023
:10447000CF90BF90AF909F908F907F906F905F9004
:104480004F903F902F9008958EE49CE00E94F84852
:10449000E7E0F3E0949108C08091C00085FFFCCF75
:1044A0009093C600319694919923B1F74091000AF8
:1044B0005091010A6091020A7091030A4F5F5F4FA9
:1044C0006F4F7F4F8EE49CE02AE030E00E94B949B4
:1044D0008091C00085FFFCCF8AE08093C6000E94D7
:1044E000D31A08956F927F928F929F92AF92BF924C
:1044F000CF92DF92EF92FF920F931F936090BE05D1
:104500007090BF058090C0059090C1050F2EF0E01F
:10451000AF2EF0E0BF2EFAE7CF2EF5E4DF2EF02D20
:10452000A092BE05B092BF05C092C005D092C10551
:1045300060931C0A70931D0A80931E0A90931F0AB1
:104540002093200A3093210A4093220A5093230A91
:10455000E092240AF092250A0093260A1093270A73
:104560000E94211D0E94EE726092BE057092BF05EE
:104570008092C0059092C1051F910F91FF90EF901E
:10458000DF90CF90BF90AF909F908F907F906F9073
:104590000895EF92FF920F931F9380918805909159
:1045A0008905A0918A05B0918B058093BE059093F3
:1045B000BF05A093C005B093C1050F2EF0E0EF2E0C
:1045C000F0E0FF2EF0E00F2FF0E01F2FF02DE09233
:1045D0001C0AF0921D0A00931E0A10931F0AE09213
:1045E000200AF092210A0093220A1093230A80E005
:1045F00090E0A8ECB2E48093240A9093250AA0935B
:10460000260AB093270A0E94211D609188057091A7
:10461000890580918A0590918B0520E030E040E289
:1046200051E40E9491D16093BE057093BF058093C1
:10463000C0059093C105E0921C0AF0921D0A0093F8
:104640001E0A10931F0A0E94211D0E94EE721F91E4
:104650000F91FF90EF90089580E00E94D0718091BB
:10466000370A9091380AA091390AB0913A0A80939A
:10467000BE059093BF05A093C005B093C10580917E
:1046800090099091910990939905809398050E94C3
:10469000D6146093080A7093090A80930A0A9093CB
:1046A0000B0A08952F923F924F925F926F927F92E2
:1046B0008F929F92AF92BF92CF92DF92EF92FF9232
:1046C0000F931F93DF93CF93CDB7DEB7A0970FB6AD
:1046D000F894DEBF0FBECDBF9E838D8383309105DE
:1046E00008F0D4C2FC01EE58FA4FB490880F991F1D
:1046F000880F991F98A38F8FB2E92B2EB9E03B2E1C
:10470000280E391E20E030E040E050E0D1012D932A
:104710003D934D935C931397609192097091930927
:10472000809194099091950920919609309197096B
:104730004091980950919909E0909A09F0909B094D
:1047400000919C0910919D09AEE9CA2EA9E0DA2ECC
:104750000E94E26020E030E040E050E0D1012D9383
:104760003D934D935C9313976091920970919309D7
:10477000809194099091950920919609309197091B
:104780004091980950919909E0909A09F0909B09FD
:1047900000919C0910919D090E94E260EF8DF8A1A3
:1047A000EB58FA4FE590F590059114916B2D772712
:1047B00067FD7095882777FD8095982F0E942CD2F1
:1047C00069837A838B839C83EF8DF8A1E45EF54F38
:1047D000F887EF83C801B70120E030E040EC5FE3E9
:1047E0000E946AD429813A814B815C810E946AD4FB
:1047F000AF81B8856D937D938D939C931397EF8DC7
:10480000F8A1E857FA4FFA87E987608171818281C0
:1048100093816093BE057093BF058093C00590930C
:10482000C1050F920F92CDB6DEB60894C11CD11C03
:1048300040901C0A50901D0A60901E0A70901F0A3A
:104840002091200A3091210A4091220A5091230A96
:104850002B873C874D875E87E090240AF090250ADD
:104860000091260A1091270A20E030E040E752E448
:104870000E9491D14B015C01E1ECF9E0D601ED938E
:10488000FC93C301B2012B853C854D855E85F8E222
:10489000CF2EFAE0DF2E0E943A660F900F900E9412
:1048A000EE7280E00E94D07120E030E040E050E005
:1048B000D1012D933D934D935C9313976091920991
:1048C000709193098091940990919509209196098E
:1048D000309197094091980950919909E0909A096F
:1048E000F0909B0900919C0910919D09EEE9CE2E54
:1048F000E9E0DE2E0E94E260EF8DF8A1EF57FA4F5B
:104900004590559065907490C301B20190582981EB
:104910003A814B815C810E946AD4EF81F885608383
:104920007183828393830F920F92CDB6DEB6089483
:10493000C11CD11C20911C0A30911D0A40911E0AF5
:1049400050911F0A2F87388B498B5A8B8091200AF0
:104950009091210AA091220AB091230A8B8B9C8B03
:10496000AD8BBE8BE090240AF090250A0091260AB8
:104970001091270A6091BE057091BF058091C00516
:104980009091C10520E030E040E752E40E9491D1CF
:104990004B015C01E1ECF9E0D601ED93FC936F85EE
:1049A000788989899A892B893C894D895E89B8E201
:1049B000CB2EBAE0DB2E0E943A660F900F900E9439
:1049C000EE7281E00E94D071C301B201A301920195
:1049D0000E94B1D029813A814B815C810E946AD4C6
:1049E000AF81B8856D937D938D939C931397E985E3
:1049F000FA85608171818281938120E030E040E816
:104A00005EE30E946AD46093BE057093BF058093F5
:104A1000C0059093C1050F920F92CDB6DEB60894F3
:104A2000C11CD11C40901C0A50901D0A60901E0AA7
:104A300070901F0A2091200A3091210A4091220A89
:104A40005091230A2F8B388F498F5A8FE090240A78
:104A5000F090250A0091260A1091270A20E030E004
:104A600040E752E40E9491D14B015C01E1ECF9E096
:104A7000D601ED93FC93C301B2012F89388D498D86
:104A80005A8DA8E2CA2EAAE0DA2E0E943A660F904A
:104A90000F900E94EE72AF8CB8A02EEA39E0A20E01
:104AA000B31E69817A818B819C81D5012D913D91C5
:104AB0004D915C910E946AD420E030E040E050E0EB
:104AC0000E948AD188230CF071C060919209709184
:104AD00093098091940990919509209196093091BC
:104AE00097094091980950919909E0909A09F0909E
:104AF0009B0900919C0910919D09FEE9CF2EF9E0D8
:104B0000DF2E0E94E260F50180819181A281B38154
:104B1000EF81F88580839183A283B3830F920F92F4
:104B2000CDB6DEB60894C11CD11C40901C0A509032
:104B30001D0A60901E0A70901F0A2091200A309171
:104B4000210A4091220A5091230A2B8F3C8F4D8FCE
:104B50005E8FE090240AF090250A0091260A1091B9
:104B6000270A6091BE057091BF058091C0059091A4
:104B7000C10520E030E040E752E40E9491D14B01B2
:104B80005C01E1ECF9E0D601ED93FC93C301B201C5
:104B90002B8D3C8D4D8D5E8DE8E2CE2EEAE0DE2E33
:104BA0000E943A660F900F900E94EE72CD80DE80D8
:104BB000CC0CDD1CCC0CDD1CF601E357FA4F6591E3
:104BC000759185919491F601EE55F64F8080918014
:104BD000A280B380A50194010E94B1D07B018C0119
:104BE000F601EE56F64FCB01D80180839183A28364
:104BF000B383F601E756FA4F6591759185919491CB
:104C0000B0EA6B2EB5E07B2E6C0C7D1CA5019401E7
:104C10000E94B1D0D3016D937D938D939C93139794
:104C2000F601EB55FA4F6591759185919491ACEA37
:104C30006A2EA5E07A2E6C0C7D1CA50194010E94C1
:104C4000B1D0F30160837183828393832CE13AE0D6
:104C5000C20ED31EC701D801F60180839183A283BF
:104C6000B38380E090E0A0E0B0E08093BE05909335
:104C7000BF05A093C005B093C1050E94C9712D81E5
:104C80003E812654364F81E0D9018C93A0960FB611
:104C9000F894DEBF0FBECDBFCF91DF911F910F9172
:104CA000FF90EF90DF90CF90BF90AF909F908F904C
:104CB0007F906F905F904F903F902F900895CF928C
:104CC000DF92EF92FF920F931F93CF93DF93EE2427
:104CD000FF24E6ECF5E0D4908AE0C82E38C0488185
:104CE00059816A817B818EE49CE022E030E00E9461
:104CF000C94A9D2DE6ECF5E008C08091C00085FF13
:104D0000FCCF9093C600319694919923B1F70F5F31
:104D10001F4F2C960330110511F7E0E0F2E007C0B9
:104D20008091C00085FFFCCF31969093C6009081A2
:104D30009923B1F78091C00085FFFCCFC092C600D7
:104D40000894E11CF11C83E0E816F10451F0E7013E
:104D5000CC0FDD1FCC0FDD1FC053D64F00E010E09D
:104D6000BECFDF91CF911F910F91FF90EF90DF9019
:104D7000CF900895FC01949108C08091C00085FFF8
:104D8000FCCF9093C600319694919923B1F78EE4AD
:104D90009CE022E030E00E94C94A0895682F2091EB
:104DA000310A3091320A80E690E0AC01249FC001C4
:104DB000259F900D349F900D1124835C954F70E0DA
:104DC0000E949A119C0190933C0A80933B0A80E0D8
:104DD000232B09F081E00895FC01949108C0809193
:104DE000C00085FFFCCF9093C60031969491992323
:104DF000B1F78EE49CE04AE050E00E94EE4908954D
:104E0000FC01949108C08091C00085FFFCCF909375
:104E1000C600319694919923B1F78EE49CE02AE084
:104E200030E00E949A4908958F929F92AF92BF926C
:104E3000CF92DF92EF92FF920F931F9382EC95E057
:104E40000E94A0CC81E00E94D0719AE9C92E99E01D
:104E5000D92E80909A0990909B09A0909C09B090BF
:104E60009D0982E00E94B9727B018C0160919005DE
:104E700070919105809192059091930520E030E02A
:104E800040E251E40E9491D16093BE057093BF054A
:104E90008093C0059093C10580E090E0A0E7B1EC5D
:104EA0008093240A9093250AA093260AB093270A98
:104EB0000E94211D0E94EE720E94C97180E00E9432
:104EC000D07182E00E94B972E61AF70A080B190B3A
:104ED000C801B7010E942CD220917C0E30917D0E2A
:104EE00040917E0E50917F0E0E9491D19B01AC01AA
:104EF000C501B4010E94B0D060939A0970939B09D8
:104F000080939C0990939D09C60108970E94361CC6
:104F10006091C4097091C5098091C6099091C70933
:104F20002091C8093091C9094091CA095091CB0913
:104F3000E090CC09F090CD090091CE091091CF09F5
:104F4000E4E0F0E0CE0EDF1E0E94E2601F910F91C0
:104F5000FF90EF90DF90CF90BF90AF909F908F9099
:104F600008956F927F928F929F92AF92BF92CF924D
:104F7000DF92EF92FF920F931F935B016C01390157
:104F80004A016091920970919309809194099091DE
:104F9000950920919609309197094091980950916F
:104FA00099090E947222E0909A09F0909B09009161
:104FB0009C0910919D09C601B501A40193010E94AD
:104FC00072220E94142710919A0900919B09F09077
:104FD0009C09E0909D09E2ECF5E0949108C0809175
:104FE000C00085FFFCCF9093C60031969491992321
:104FF000B1F7EDEBF5E0949108C08091C00085FF1A
:10500000FCCF9093C600319694919923B1F78EE42A
:105010009CE0B601A50122E030E00E94C94AE8EB1D
:10502000F5E0949108C08091C00085FFFCCF90937B
:10503000C600319694919923B1F78EE49CE0B401B7
:10504000A30122E030E00E94C94AE3EBF5E094912D
:1050500008C08091C00085FFFCCF9093C6003196B8
:1050600094919923B1F78EE49CE0212F302FEF2DFE
:10507000FE2DA901BF0122E030E00E94C94AE1EB08
:10508000F5E0949108C08091C00085FFFCCF90931B
:10509000C600319694919923B1F7212F302F4F2DCF
:1050A0005E2DB901CA011F910F91FF90EF90DF9023
:1050B000CF90BF90AF909F908F907F906F9008950A
:1050C00080913B0A90913C0A019660E070E04AE0D2
:1050D00050E00E940210089580913B0A90913C0A92
:1050E000019660E070E00E94A20E0895CF93DF93D6
:1050F000EC018091C1098093FF0984E50E94CE26CE
:10510000882309F46FC00E946C280E94FED1262FCC
:105110006093FF09662309F465C0EFE4F2E094911F
:1051200008C08091C00085FFFCCF9093C6003196E7
:1051300094919923B1F7C936D10599F0CA36D105B2
:1051400024F4C836D105F1F50FC0CD36D10531F0C4
:10515000CA3DD105B9F5E1E0F2E031C0E8E1F2E0A5
:1051600023C0EFE2F2E015C0E6E4F2E007C0809170
:10517000C00085FFFCCF31969093C60090819923A3
:10518000B1F720C08091C00085FFFCCF319690938D
:10519000C60090819923B1F715C08091C00085FFAA
:1051A000FCCF31969093C60090819923B1F70AC045
:1051B0008091C00085FFFCCF31969093C60090810E
:1051C0009923B1F78EE49CE0622F40E050E00E940A
:1051D000A7498091C00085FFFCCF8AE08093C6007C
:1051E00081E001C080E0DF91CF910895AF92BF923E
:1051F000CF92DF92EF92FF920F931F93CF93DF93A3
:1052000022E9E22E29E0F22ECCE1DAE000E010E023
:10521000F801EA5DF94F80810E94CE26882339F19A
:105220000E946C285B016C01F801E457F64F808105
:10523000882311F061E002C060912C0A70E0882799
:1052400077FD8095982F0E942CD2F7012081318123
:10525000428153810E946AD49B01AC01C601B50111
:105260000E94B1D0688379838A839B8309C0F70148
:1052700080819181A281B38188839983AA83BB8332
:105280000F5F1F4F84E090E0E80EF91E2496043073
:10529000110509F0BDCF86E40E94CE268823E1F0F7
:1052A0000E946C287B018C0160932D0A70932E0A5A
:1052B00080932F0A9093300A20E030E040E050E0E5
:1052C0000E9498D3181644F4E092BE05F092BF05F0
:1052D0000093C0051093C105DF91CF911F910F91ED
:1052E000FF90EF90DF90CF90BF90AF9008950E9415
:1052F000F62889E40E94CE26882359F00E946C2863
:105300006093100A7093110A8093120A9093130A03
:105310000CC080E090E0A0E0B0E08093100A909391
:10532000110AA093120AB093130A8AE40E94CE26AF
:10533000882359F00E946C286093140A7093150A10
:105340008093160A9093170A089580E090E0A0E0F9
:10535000B0E08093140A9093150AA093160AB093B4
:10536000170A08952F923F924F925F926F927F9209
:105370008F929F92AF92BF92CF92DF92EF92FF9265
:105380000F931F93DF93CF93CDB7DEB7C655D040B1
:105390000FB6F894DEBF0FBECDBF87E40E94CE26C5
:1053A000882309F46EC60E946C280E94F9D16C31E2
:1053B000710599F16D317105ACF46230710509F434
:1053C00042C06330710524F477239CF50C94E740C8
:1053D0006330710509F43FC06430710511F00C941D
:1053E000E74044C06A35710509F4DCC56B357105C9
:1053F00054F46D31710509F470C26E31710511F00C
:105400000C94E740F5C46B35710509F4CFC56C35D4
:10541000710511F00C94E740CEC510ED412E19E056
:10542000512EBFE16B2E712C6C0E7D1E8201F3019B
:1054300067C08091FC09882331F40E94F6280E94FD
:10544000AB1F0C94F3408091FC09882321F40E9447
:10545000772981E007C08091FC09882339F40E94F4
:10546000772980E00E94791B0C94F34089E695E04F
:105470000E9459C980E50E94CE26882321F4EE249B
:10548000FF24870106C00E946C280E94FED17B0188
:105490008C0183E50E94CE26882361F00E946C284F
:1054A00020E030E04AE754E40E946AD40E94FED132
:1054B0007B018C010E94EE720E94D6145B016C018C
:1054C000AE0CBF1CC01ED11E0E94D6146093080AE9
:1054D0007093090A80930A0A90930B0A08C00E94ED
:1054E0006B7F0E94071B0E9432CA0E9495CF0E94C8
:1054F000D6146A157B058C059D0588F30C94E7404E
:10550000D8012D913D914D915C911397208331836A
:105510004283538314962D913D914D915C91179741
:10552000248335834683578318962D913D914D9161
:105530005C911B972087318742875387045F1F4FF9
:105540003C96B9E0043F1B07D9F682EC95E00E9437
:10555000A0CCF801B4970F2EF0E0EF2EF0E0FF2E74
:10556000F0E00F2FF0E01F2FF02DE082F182028398
:105570001383E486F58606871787E08EF18E028F07
:10558000138F349629E0EC3DF20779F78091BE0540
:105590009091BF05A091C005B091C1058093370AD5
:1055A0009093380AA093390AB0933A0A80919805EB
:1055B00090919905909391098093900984E690E0E9
:1055C00090939905809398050E94D6146093080AD9
:1055D0007093090A80930A0A90930B0A81E00E9453
:1055E000D0718091920990919309A0919409B09102
:1055F000950980931C0A90931D0AA0931E0AB093EC
:105600001F0A8091960990919709A0919809B091ED
:1056100099098093200A9093210AA093220AB093BB
:10562000230A80919A0990919B09A0919C09B091BD
:105630009D098093240A9093250AA093260AB0938B
:10564000270A80919E0990919F09A091A009B0918D
:10565000A1098093280A9093290AA0932A0AB0935B
:105660002B0AE092BE05F092BF050093C00510938F
:10567000C105E0929209F092930900939409109366
:105680009509E0929609F092970900939809109372
:105690009909E0929A09F0929B0900939C09109352
:1056A0009D0960E070E080E090E09B01AC017B012F
:1056B0008C01AEE9CA2EA9E0DA2E0E94E26080E0F9
:1056C00090E8A4EFB3E480931C0A90931D0AA09382
:1056D0001E0AB0931F0A8093200A9093210AA09378
:1056E000220AB093230A8093240A9093250AA09358
:1056F000260AB093270A60918805709189058091E8
:105700008A0590918B052DE232EB4DED5FE30E940F
:105710006AD46093BE057093BF058093C0059093D3
:10572000C1050F920F920DB71EB70F5F1F4F20E0FC
:1057300030E040E752E40E9491D14B015C0181ECE2
:1057400099E0D8018D939C9360E070E884EF93E436
:105750009B01AC017B018C01F8E2CF2EFAE0DF2E39
:105760000E943A660F900F900E94EE720E94C971DB
:1057700080911C0A90911D0AA0911E0AB0911F0AE7
:105780008093920990939309A0939409B0939509FB
:105790008091200A9091210AA091220AB091230AB7
:1057A0008093960990939709A0939809B0939909CB
:1057B0008091240A9091250AA091260AB091270A87
:1057C00080939A0990939B09A0939C09B0939D099B
:1057D00080E090E00E94522381E090E00E945223FA
:1057E00082E090E00E94522382E999E00E94361CF8
:1057F0006091C4097091C5098091C6099091C7094B
:105800002091C8093091C9094091CA095091CB092A
:10581000E090CC09F090CD090091CE091091CF090C
:10582000EEE9CE2EE9E0DE2E0E94E2609E012D5BC5
:105830003F4FF30180819181A281B381F201808386
:105840009183A283B383F30184819581A681B7817B
:10585000F20184839583A683B783F30180859185C4
:10586000A285B385F20180879187A287B3874CE038
:1058700050E0640E751E440E551E62167306C9F67E
:1058800080E00E94D0718091370A9091380AA091EF
:10589000390AB0913A0A8093BE059093BF05A09350
:1058A000C005B093C10580919009909191099093A2
:1058B0009905809398050E94D6146093080A709306
:1058C000090A80930A0A90930B0A0E94C97185E520
:1058D00095E00E9459C90C94E7400E94EE7282EC58
:1058E00095E00E94A0CCE0EDF9E080E090E0A0E03F
:1058F000B0E080839183A283B38384879587A68752
:10590000B787808F918FA28FB38F349659E0EC3D8B
:10591000F50779F70E94C9228091BE059091BF05D5
:10592000A091C005B091C1058093370A9093380AC1
:10593000A093390AB0933A0A8091980590919905FD
:10594000909391098093900984E690E09093990553
:10595000809398050E94D6146093080A7093090AF0
:1059600080930A0A90930B0A80919005909191057B
:10597000A0919205B09193058093BE059093BF05C9
:10598000A093C005B093C1058AE50E94CE26882366
:1059900029F463E373E383EB9EE308C00E946C2861
:1059A00023E333E343EB5EE30E94B1D067966CAF31
:1059B0007DAF8EAF9FAF679763961FAE1EAE6397A6
:1059C00061961FAE1EAE619786EB9FEF27969FAF45
:1059D0008EAF27972796AEADBFAD2797BD0188271D
:1059E00077FD8095982F0E942CD22B013C01609668
:1059F000BFAD6097B0FD0DC082E090E0EFEFFFEF2C
:105A00002F96FFAFEEAF2F972D96FFAFEEAF2D97EE
:105A10000EC080E090E023E030E02F963FAF2EAF45
:105A20002F9741E050E02D965FAF4EAF2D972D960A
:105A3000AEADBFAD2D97EAE4F0E0AE9FB001AF9FF1
:105A4000700DBE9F700D112429967FAF6EAF299700
:105A50008E9F90018F9F300D9E9F300D11242A54F0
:105A6000304025963FAF2EAF25971D01220C331CE9
:105A70002A0E3B1E220C331C220C331C4C01880CBA
:105A8000991C880E991E61964EAD5FAD6197840E8C
:105A9000951E880C991C880C991C60ED79E0860E87
:105AA000971E2B969FAF8EAF2B979CC02596AEADC1
:105AB000BFAD2597BD01882777FD8095982F0E945F
:105AC0002CD25B016C01A60195010E946AD47B0176
:105AD0008C01C301B201A30192010E946AD49B010F
