:100000000C94A10D0C94A9160C94DA160C940B17F1
:100010000C943C170C946D170C949E170C94CF17EE
:100020000C9400180C94CE0D0C94CE0D0C94CE0DA7
:100030000C94CE0D0C9403A10C94CE0D0C94CE0D0B
:100040000C94CE0D0C9440760C94CE0D0C94CE0DE9
:100050000C94CE0D0C94CE0D0C94CA7F0C94981376
:100060000C94CE0D0C94814B0C94CE0D0C94CE0DB3
:100070000C94CE0D0C94CE0D0C94CE0D0C94CE0D94
:100080000C94CE0D0C94CE0D0C94CE0D0C94CE0D84
:100090000C94CE0D0C94CE0D0C94CE0D0C94CE0D74
:1000A0000C94CE0D0C94CE0D0C94CE0D0C94CE0D64
:1000B0000C94CE0D0C94CE0D0C94CE0D0C94CE0D54
:1000C0000C94CE0D0C94CE0D0C94CE0D0C94CE0D44
:1000D0000C94CE0D0C94CE0D0C94CE0D0C94CE0D34
:1000E0000C94CE0D084AD73B3BCE016E84BCBFFDBD
:1000F000C12F3D6C74319ABD56833DDA3D00C77FF8
:1001000011BED9E4BB4C3E916BAAAABE0000008090
:100110003F05A84CCDB2D44EB93836A9020C50B91F
:10012000918688083CA6AAAA2ABE000000803F004B
:10013000002100240027002A002D00300033000198
:10014000010000040107010A010000220025002827
:10015000002B002E003100340002010000050108D0
:10016000010B01000020002300260029002C002F95
:100170000032000001000003010601090105050528
:1001800005070508080808020202020A0A0808040E
:10019000040404010101010101010103030303033C
:1001A000030303040707070C0C0C0C0C0C0C0C02CB
:1001B00002020206060606060606060B0B0B0B0BD2
:1001C0000B0B0B01021020200808102040102040CB
:1001D000800201020108040201010204081020400B
:1001E0008080402010080402018004020180402029
:1001F0001008040201080402010102040810204052
:100200008001020408102040800000090A02080B47
:100210000C0D0706030401000000000000000000B0
:1002200000000000000000000000000000000000CE
:10023000000000000011100F00000000000000008E
:100240000000000000000000000000000000006549
:1002500063686F3A004572726F723A0053544F50A0
:100260005045442E20005072696E7465722073747C
:100270006F707065642064756520746F206572729C
:100280006F72732E204669782074686520657272DB
:100290006F7220616E6420757365204D3939392085
:1002A000746F20726573746172742E202854656DAA
:1002B000706572617475726520697320726573650B
:1002C000742E2053657420697420616674657220F1
:1002D00072657374617274696E6729004B494C4C86
:1002E00045442E20005072696E7465722068616CFE
:1002F0007465642E206B696C6C28292063616C6CBA
:10030000656421006F6B00526573656E643A20006E
:100310002200556E6B6E6F776E20636F6D6D616E30
:10032000643A2022004368616E67652066696C61EB
:100330006D656E74007A5F6D61783A20007A5F6D4A
:10034000696E3A2000795F6D61783A2000795F6DBF
:10035000696E3A2000785F6D61783A2000785F6DB1
:10036000696E3A2000205A3A0020593A0020436F23
:10037000756E7420583A200020453A00205A3A0001
:1003800020593A00583A004649524D574152455F6C
:100390004E414D453A4D61726C696E2056313B209D
:1003A000537072696E7465722F6772626C206D6132
:1003B0007368757020666F722067656E36204649D7
:1003C000524D574152455F55524C3A6874747073A0
:1003D0003A2F2F6769746875622E636F6D2F4572AF
:1003E000696B5A616C6D2F4D61726C696E2F205074
:1003F000524F544F434F4C5F56455253494F4E3A1C
:10040000312E30204D414348494E455F54595045A7
:100410003A437265617461626C65203220455854BC
:1004200052554445525F434F554E543A312055552D
:1004300049443A30303030303030302D3030303088
:100440002D303030302D303030302D3030303030B5
:10045000303030303030300A004372656174616290
:100460006C652032204F66662E00437265617461B0
:10047000626C6520322072656164792E0042656489
:1004800020646F6E652E0020423A0020453A0054E9
:100490003A004265642048656174696E672E0048C1
:1004A000656174696E6720646F6E652E0020573A2F
:1004B0000020453A00543A0048656174696E672E21
:1004C0002E2E002042403A0020403A00202F003AD1
:1004D00000205400202F0020423A00202F006F6B94
:1004E00020543A002569206D696E2C2025692073FF
:1004F000656300456E642066696C65206C69737481
:1005000000426567696E2066696C65206C6973746A
:10051000004E6F206D6F76652E00526573756D69A4
:100520006E67207072696E74005761697420666F1F
:100530007220757365722E2E2E000A00205A3A2002
:100540000020593A200020583A20004265640053A8
:100550006C6565702E2E2E0001010100002A4300FB
:10056000002A43004084430000A0400000A0400057
:1005700000A0400000000000000000004084430094
:1005800000AAC20000AAC2000000000000AA4200A7
:1005900000AA42004084430A00207A3A20002079D1
:1005A0003A200020783A2000426564002000256946
:1005B00020686F757273202569206D696E7574658A
:1005C0007300446F6E65207072696E74696E672087
:1005D00066696C650053544F505045442E200050BE
:1005E00072696E7465722073746F707065642064D4
:1005F000756520746F206572726F72732E20466964
:100600007820746865206572726F7220616E642054
:10061000757365204D39393920746F207265737494
:100620006172742E202854656D70657261747572E4
:10063000652069732072657365742E20536574207C
:100640006974206166746572207265737461727476
:10065000696E6729006F6B004E6F204C696E6520D4
:100660004E756D6265722077697468206368656392
:100670006B73756D2C204C617374204C696E653AF8
:1006800020004E6F20436865636B73756D2077693A
:100690007468206C696E65206E756D6265722C20C1
:1006A0004C617374204C696E653A20006368656321
:1006B0006B73756D206D69736D617463682C204C6C
:1006C000617374204C696E653A20004C696E652038
:1006D0004E756D626572206973206E6F74204C6177
:1006E0007374204C696E65204E756D6265722B3196
:1006F0002C204C617374204C696E653A20004D319A
:10070000313000446F6E6520736176696E672066D4
:10071000696C652E006F6B004D3239002020506CE3
:10072000616E6E6572427566666572427974657354
:100730003A20002046726565204D656D6F72793AEA
:1007400020004E6F76203235203230313400436F36
:100750006D70696C65643A200028415445414D2C08
:1007600020437265617461626C65322900207C20CF
:10077000417574686F723A20004E6F7620323520D2
:10078000323031342031333A32323A313100204C78
:1007900061737420557064617465643A2000312E71
:1007A000302E30004D61726C696E0020536F66749C
:1007B00077617265205265736574002057617463B8
:1007C00068646F67205265736574002042726F77AA
:1007D0006E206F75742052657365740020457874BF
:1007E00065726E616C20526573657400506F776539
:1007F000725570007374617274002200656E7175B9
:1008000065696E672022002200656E717565696EEC
:10081000672022007C3C3E5E2B3D3F2F5B5D3B2CE6
:100820002A225C0045313A200045303A20005A3AED
:100830002000593A2000583A20004D53312C4D5396
:10084000322050696E730A0024F404D9201BC40CB2
:100850005C0E9804C4095F0265077101F405F90094
:10086000FB04B30048048700C10369005803550026
:1008700003034500BE023A008402310053022A00FD
:100880002902250004022000E4011C00C80119000F
:10089000AF011700980114008401130071011000CA
:1008A0006101100051010E0043010D0036010B00E3
:1008B0002B010B0020010B00150109000C010900A0
:1008C00003010800FB000800F3000800EB0007002C
:1008D000E4000600DE000600D8000600D200060094
:1008E000CC000500C7000500C2000500BD000400E3
:1008F000B9000400B5000400B1000400AD0004001C
:10090000A9000400A5000300A20003009F0004004A
:100910009B00030098000300950002009300030071
:10092000900003008D0002008B000300880002008D
:100930008600020084000300810002007F000200A4
:100940007D0002007B0002007900020077000100B8
:1009500076000200740002007200010071000200C3
:100960006F0002006D0001006C0002006A000100CF
:1009700069000200670001006600010065000100D7
:1009800064000200620001006100010060000100DB
:100990005F0002005D0001005C0001005B000100DF
:1009A0005A000100590001005800010057000100E1
:1009B00056000100550001005400010053000000E2
:1009C00053000100520001005100010050000100DD
:1009D0004F0001004E0000004E0001004D000100DC
:1009E0004C0001004B0000004B0001004A000100D8
:1009F00049000100480000004800010047000100D4
:100A000046000000460001004500000045000100CE
:100A100044000100430000004300010042000000C8
:100A200042000100410000004100010040000100BF
:100A30003F0000003F0001003E0000003E000100BA
:100A40003D0000003D0001003C0000003C000000B3
:100A50003C0001003B0000003B0001003A000000A8
:100A60003A000100390000003900010038000000A0
:100A70003800000038000100370000003700010096
:100A8000360000003600000036000100350000008E
:100A90003500000035000100340000003400000083
:100AA0003400010033000000330000003300010077
:100AB000320000003200000032000100310000006E
:100AC0003100000031000100300000003000000063
:100AD000300001002F0000002F0000002F00000058
:100AE0002F0001002E0000002E0000002E0001004B
:100AF0002D0000002D0000002D0000002D00010041
:100B00002C0000002C0000002C0000002C00010034
:100B10002B0000002B0000002B0000002B00010028
:100B20002A0000002A0000002A0000002A0001001C
:100B30002900000029000000290000002900000011
:100B40002900010028000000280000002800000003
:100B500028000000280001002700000027000000F6
:100B600027000000270000002700010026000000E9
:100B700026000000260000002600000026000100DC
:100B800025000000250000002500000025000000D1
:100B900025000000250001002400000024000000C2
:100BA00024000000240000002400010023000000B5
:100BB00023000000230000002300000023000000A9
:100BC000230000002300010022000000220000009A
:100BD000220000002200000022000000220001008C
:100BE0002100000021000000210000002100000081
:100BF0002100000021000000210001002000000071
:100C00002000000020000000200000002000000064
:100C10002000000020000000200001001F00000054
:100C20001F0000001F0000001F0000001F00000048
:100C30001F0000001F0001001E0000001E00000039
:100C40001E0000001E00000024F4D43050C38E208B
:100C5000C2A24017828B7011127A910D816CD90A51
:100C6000A861E108C7586607615143061E4B5D0540
:100C7000C145A7041A411104093D98037139310394
:100C80004036DB0265339102D4305402802E1D02BF
:100C9000632CEE01752AC501B028A001102781013F
:100CA0008F2564012B244B01E0223401AC211F016C
:100CB0008D200D01801FFC00841EED00971DDF00BC
:100CC000B81CD200E61BC600201BBC00641AB20090
:100CD000B219A8000A19A0006A189900D11791004A
:100CE00040178B00B516840031167E00B3157900CD
:100CF0003A157300C7146F0058146A00EE136600AB
:100D00008813630025135E00C7125B006C12570046
:100D100015125400C111510070114F0021114B00E8
:100D2000D61049008D1047004610440002104200C2
:100D3000C00F4000800F3E00420F3C00060F3B00FA
:100D4000CB0E3800930E37005C0E3500270E3400B2
:100D5000F30D3200C10D3100900D3000600D2E00FA
:100D6000320D2D00050D2C00D90C2B00AE0C2900E6
:100D7000850C29005C0C2700350C27000E0C260082
:100D8000E80B2400C40B2400A00B23007D0B2300E0
:100D90005A0B2100390B2100180B2000F80A1F0004
:100DA000D90A1E00BB0A1E009D0A1D00800A1D00F4
:100DB000630A1C00470A1B002C0A1B00110A1A00B8
:100DC000F7091A00DD091900C4091900AB09190057
:100DD000920917007B091800630917004C091600D7
:100DE00036091600200916000A091500F508150035
:100DF000E0081400CC081400B8081400A40814007B
:100E0000900813007D0812006B08130058081200A8
:100E100046081200340811002308110012081100BE
:100E200001081100F0071000E0071000D0071000C3
:100E3000C0071000B0070F00A107100091070E00B7
:100E400083070F0074070F0065070E0057070E0099
:100E500049070E003B070D002E070E0020070D006E
:100E600013070D0006070D00F9060C00ED060D0036
:100E7000E0060C00D4060C00C8060C00BC060C00F2
:100E8000B0060C00A4060B0099060C008D060B00A2
:100E900082060B0077060B006C060B0061060A0049
:100EA00057060B004C060A0042060A0038060A00E4
:100EB0002E060A0024060A001A060A001006090077
:100EC00007060A00FD050900F4050900EB05090005
:100ED000E2050900D9050900D0050900C705090088
:100EE000BE050900B5050800AD050800A505090007
:100EF0009C050800940508008C050800840508007E
:100F00007C050800740508006C05070065050800ED
:100F10005D050700560508004E0507004705070058
:100F20004005080038050700310507002A050700BD
:100F3000230507001C050600160507000F0507001E
:100F40000805060002050700FB040600F50407007B
:100F5000EE040600E8040600E2040700DB040600D5
:100F6000D5040600CF040600C9040600C304060029
:100F7000BD040600B7040600B1040500AC04060079
:100F8000A6040600A00405009B04060095040500C5
:100F9000900406008A04050085040500800406000C
:100FA0007A04050075040500700405006B04050053
:100FB00066040500610405005C0405005704050093
:100FC000520405004D0405004804050043040500D3
:100FD0003E0404003A040500350405003004040012
:100FE0002C04050027040400230405001E0404004B
:100FF0001A04040016040500110404000D04040082
:10100000090405000404040000040400FC030400B7
:10101000F8030400F4030400F0030400EC030400EC
:10102000E8030400E4030400E0030400DC0304001C
:10103000D8030400D4030400D0030400CC0304004C
:10104000C8030300C50303006563686F3A00656E5B
:101050006473746F7073206869743A205A00205A60
:101060003A00656E6473746F7073206869743A2017
:10107000590020593A00656E6473746F707320686C
:1010800069743A20580020583A00656E6473746F92
:101090007073206869743A20004572726F723A006A
:1010A0004572723A204D415854454D5020424544B6
:1010B0000054656D70657261747572652068656154
:1010C000746564206265642073776974636865641D
:1010D000206F66662E204D415854454D5020747245
:1010E00069676765726564202121004572723A2044
:1010F0004D494E54454D50003A2045787472756400
:101100006572207377697463686564206F66662E04
:10111000204D494E54454D50207472696767657281
:1011200065642021004572723A204D415854454D66
:1011300050003A204578747275646572207377693F
:101140007463686564206F66662E204D415854456F
:101150004D502074726967676572656420210020B4
:101160002D20496E76616C696420657874727564AF
:101170006572206E756D62657220210070012C0110
:1011800090012701B0012201C0011D01F0011801E9
:101190001002130130020E016002090190020401E5
:1011A000C002FF000003FA004003F5008003F000D6
:1011B000D003EB002004E6007004E100E004DC0052
:1011C0004005D700C005D2004006CD00D006C800BB
:1011D0008007C3003008BE00F008B900C009B400A1
:1011E000B00AAF00B00BAA00D00CA500000EA00002
:1011F000500F9B00C01096005012910000148C00FC
:10120000C0158700B0178200B0197D00D01B780090
:10121000001E730040206E0090226900F0246400DC
:1012200040275F0090295A00E02B5500102E5000F7
:1012300020304B0010324600E033410090353C0036
:101240001037370070383200A0392D00B03A28002E
:10125000A03B2300603C1E00103D1900903D14008F
:10126000103E0F00703E0A00C03E0500003F000027
:10127000504944204175746F74756E652066696EBF
:101280006973686564212050757420746865204B0B
:10129000702C204B6920616E64204B6420636F6E5C
:1012A0007374616E747320696E746F20436F6E6621
:1012B000696775726174696F6E2E680050494420C9
:1012C0004175746F74756E65206661696C65642123
:1012D0002074696D656F75740020403A006F6B2053
:1012E000543A006F6B20423A0050494420417574D3
:1012F0006F74756E65206661696C65642120546544
:101300006D706572617475726520746F6F206869A5
:10131000676800204B643A2000204B693A20002087
:101320004B703A200020436C61736963205049443C
:1013300020002054753A2000204B753A2000206D83
:1013400061783A2000206D696E3A200020643A20CE
:101350000020626961733A20004D383420582059CA
:10136000205A2045006563686F3A0043616E6E6FD6
:101370007420656E746572207375626469723A20B8
:10138000004D3234004D3233202573006175746F87
:1013900025692E67004572726F723A006572726F2E
:1013A000722077726974696E6720746F2066696C49
:1013B00065004E6F74205344207072696E74696EBC
:1013C00067002F005344207072696E74696E672045
:1013D0006279746520002E0044656C6574696F6ED7
:1013E000206661696C65642C2046696C653A200052
:1013F00046696C652064656C657465643A002E000E
:101400006F70656E206661696C65642C2046696C3E
:10141000653A200057726974696E6720746F2066A0
:10142000696C653A20002E006F70656E20666169F8
:101430006C65642C2046696C653A20002E006F7044
:10144000656E206661696C65642C2046696C653A3E
:10145000200046696C652073656C65637465640083
:101460002053697A653A200046696C65206F706583
:101470006E65643A20002E006F70656E20666169AB
:101480006C65642C2046696C653A20004E6F7720AD
:1014900066726573682066696C653A20004E6F77E6
:1014A00020646F696E672066696C653A20002220AF
:1014B000706F73002220706172656E743A2200535F
:1014C0005542524F5554494E452043414C4C20748F
:1014D00061726765743A2200747279696E6720746C
:1014E0006F2063616C6C207375622D67636F646538
:1014F0002066696C6573207769746820746F6F204B
:101500006D616E79206C6576656C732E204D415847
:10151000206C6576656C2069733A005344206361E2
:101520007264206F6B006F70656E526F6F7420660F
:1015300061696C656400766F6C756D652E696E69A6
:1015400074206661696C656400534420696E697437
:10155000206661696C006563686F3A004861726477
:10156000636F6465642044656661756C74205365BF
:101570007474696E6773204C6F61646564005374A2
:101580006F7265642073657474696E677320726529
:10159000747269657665640020440020490020204B
:1015A000204D33303120500050494420736574740D
:1015B000696E67733A00205A0020590020204D368A
:1015C0003636205800456E6473746F702061646A0B
:1015D000757374656D656E7420286D6D293A0020F1
:1015E0005A0020590020204D323036205800486FD4
:1015F0006D65206F666673657420286D6D293A00ED
:10160000204500205A00205800204200205400208D
:10161000204D323035205300416476616E6365643D
:10162000207661726961626C65733A20533D4D6941
:101630006E20666565647261746520286D6D2F7318
:10164000292C20543D4D696E2074726176656C20A2
:10165000666565647261746520286D6D2F73292C31
:1016600020423D6D696E696D756D207365676D65AE
:101670006E742074696D6520286D73292C20583D87
:101680006D6178696D756D205859206A65726B209F
:10169000286D6D2F73292C20205A3D6D6178696D5E
:1016A000756D205A206A65726B20286D6D2F732925
:1016B0002C2020453D6D6178696D756D2045206A4F
:1016C00065726B20286D6D2F732900205400202037
:1016D0004D323034205300416363656C6572617430
:1016E000696F6E3A20533D616363656C6572617426
:1016F000696F6E2C20543D72657472616374206151
:101700006363656C65726174696F6E0020450020CB
:101710005A0020590020204D3230312058004D61B0
:1017200078696D756D20416363656C65726174697C
:101730006F6E20286D6D2F7332293A0020450020EE
:101740005A0020590020204D3230332058004D617E
:1017500078696D756D206665656472617465732066
:10176000286D6D2F73293A00204500205A0020591A
:101770000020204D3932205800537465707320705A
:10178000657220756E69743A0053657474696E678A
:10179000732053746F72656400022D2D3A2D2D0055
:1017A0002D2D2D0053440020590001200001200060
:1017B0004E6F2053442063617264005072696E74EE
:1017C0002066726F6D2053440053746F70207072E6
:1017D000696E7400526573756D65207072696E7400
:1017E000005061757365207072696E740053657482
:1017F00074696E6700436F6E74726F6C0046696C3B
:10180000616D656E740054756E6500496E666F207B
:1018100073637265656E00052E2E004D61696E0062
:101820004D3234004D3233202573004D383420586A
:101830002059205A204500526573746F72652066E6
:1018400061696C73616665004C6F6164206D656DE4
:101850006F72790053746F7265206D656D6F727968
:10186000004D6F74696F6E20536574746E67005419
:10187000656D7065726174757265004D61696E00A9
:10188000412D7265747261637400412D72657472CA
:1018900061637400416D6178206500416D6178205D
:1018A0006500416D6178207A00416D6178207A0091
:1018B000416D6178207900416D6178207900416D3A
:1018C0006178207800416D617820780056652D6A36
:1018D00065726B0056652D6A65726B00567A2D6ACB
:1018E00065726B00567A2D6A65726B005678792D99
:1018F0006A65726B005678792D6A65726B00416378
:1019000063656C00416363656C005A204F666673C3
:101910006574005A204F666673657400536574746D
:10192000696E6700436F6F6C646F776E005072650D
:10193000686561742041425320636F6E6600507287
:10194000656865617420504C4120636F6E6600428B
:10195000656400426564004E6F7A7A6C65004E6F74
:101960007A7A6C650053657474696E670053746F9E
:101970007265206D656D6F72790042656400426525
:1019800064004E6F7A7A6C65004E6F7A7A6C6500EF
:1019900054656D70657261747572650053746F7211
:1019A00065206D656D6F7279004265640042656403
:1019B000004E6F7A7A6C65004E6F7A7A6C650054CF
:1019C000656D706572617475726500486F6D652034
:1019D00068656164004175746F204C6576656C695B
:1019E0006E67004D61696E0047323800473239003A
:1019F0004732380053657474696E67004368616EDE
:101A00006765004D61696E0041425300504C4100D2
:101A10004D61696E004C6F6164696E6700556E6C54
:101A20006F6164696E67004D61696E004372656144
:101A30007461626C6520322072656164792E004C9D
:101A40006F6164696E672066696C616D656E742094
:101A50002020200048656174696E67206E6F7A7A75
:101A60006C652E2E00437265617461626C65203274
:101A70002072656164792E00556E6C6F6164696EC9
:101A8000672066696C616D656E7420200048656131
:101A900074696E67206E6F7A7A6C652E2E004D36F3
:101AA0003030004368616E67652066696C616D6502
:101AB0006E7400466C6F7700466C6F770042656409
:101AC00000426564004E6F7A7A6C65004E6F7A7AD8
:101AD0006C65005370656564005370656564004D06
:101AE00061696E00436172642072656D6F76656432
:101AF000004361726420696E7365727465640049A5
:101B00004E46494E4954594E414ECDCCCC3D0AD754
:101B1000233C17B7D13877CC2B329595E6241FB1EB
:101B20004F0A000020410000C84200401C4620BC73
:101B3000BE4CCA1B0E5AAEC59D746D1A154C37C5E6
:101B4000661A11241FBECFEFD1E2DEBFCDBF00E089
:101B50000CBF14E0A0E0B2E0EAEEF0EB01E00BBF56
:101B600002C007900D92AE3AB107D9F71BBE13E140
:101B7000AEEAB4E001C01D92A132B107E1F71BE16A
:101B8000C0E4DBE104C02297FE010E941AD8CA33E8
:101B9000D107C9F70E94F8D20C9468D80C940000C1
:101BA000A0E0B0E0E6EDFDE00C9437D8EC015B017D
:101BB0006115710519F0FB0191838083F9908F2DD8
:101BC00090E00E941ED8892BC9F7FDE2FF1621F490
:101BD000F990EE24E39405C02BE2F21609F4F99093
:101BE000EE248E0101501040C8016FEF7AE143E00E
:101BF00050E00E946610892B01F58E010E5F1F4F89
:101C0000C80162E07BE145E050E00E946610892B4C
:101C100019F48E01095F1F4FA114B10419F0F501E9
:101C200011830083E0FC04C070E090E080E814C001
:101C300070E090E080E86FEF08C1C80167E07BE1E9
:101C400043E050E00E946610892B69F4A114B104AE
:101C500029F470E090E080EC6FE7F7C02296F50180
:101C6000D183C083F6CF8824992440E050E060E01F
:101C700070E0EF2DE053EA30A0F5F2E0EF2A8E2D70
:101C800090E09C0128703070E2FE06C0232B79F5AD
:101C90000894811C911C2BC0232B19F008948108F7
:101CA0009108DB01CA0112E0880F991FAA1FBB1F10
:101CB0001A95D1F7480F591F6A1F7B1F440F551FF4
:101CC000661F771F4E0F511D611D711D483929E98F
:101CD000520729E9620729E1720748F084E0E82AFF
:101CE00006C0EE3F31F4E3FC39C098E0E92AF990F0
:101CF000C0CFE53311F0E53189F529912D3219F482
:101D0000E0E1EE2A05C02B3219F081E090E003C03B
:101D1000299182E090E0E22FE053EA3018F0C81BEE
:101D2000D90B1CC020E030E0FCE020383F075CF419
:101D3000C901880F991F880F991F280F391F220F7B
:101D4000331F2E0F311DE991E053EA3068F3E4FEB2
:101D500003C0309521953F4F820E931ECE2CDD247B
:101D6000E1FE07C0A114B10421F02197F501D18350
:101D7000C083CB01BA010E9483D47B018C01F3E0C4
:101D8000CF22DD2423E0C216D10421F417FB1095E5
:101D900017F9109557016801C801B70120E030E03C
:101DA00040E050E00E94E3D3882309F44AC097FE44
:101DB0000DC02EE1E22E2BE1F22E90948194910839
:101DC0009394C0E2D0E000E010E012C096E3E92E68
:101DD0009BE1F92EF6CFF70125913591459154916C
:101DE000C601B5010E94C3D65B016C018C1A9D0A25
:101DF0008C169D0684F7D595C7950F5F1F4F06304B
:101E0000110529F08CEF9FEFE80EF91EF1CFC50107
:101E1000D6017C018D018C2D880F8D2D881F8F3F61
:101E200051F0C601B50120E030E040E050E00E94F2
:101E3000E3D3882331F482E290E0909320138093DF
:101E40001F137E2D9F2D802F612F272F392F482F75
:101E5000562FB901CA01CDB7DEB7ECE00C9453D8C8
:101E60002F923F925F926F927F928F929F92AF924A
:101E7000BF92CF92DF92EF92FF920F931F93CF9377
:101E8000DF938C011B01EA016115710519F0FB015B
:101E900091838083209749F0CE010297839728F0A1
:101EA00020E030E040E050E0F6C0F801A1908F0162
:101EB0008A2D90E00E941ED8892BB9F7FDE2AF165B
:101EC00031F4F801A1908F015524539407C0FBE22F
:101ED000AF1619F4F801A1908F015524209719F03D
:101EE000C031D105C1F4F0E3AF1679F4F801808177
:101EF000883711F0883549F4F801A1800E5F1F4F33
:101F0000F2E05F2AC0E1D0E006C0209721F480E330
:101F1000A816E9F427C0C830D10531F1C930D10580
:101F200024F4C230D10531F50CC0CA30D10589F096
:101F3000C031D105F9F4C12CD12CE12CB8E0FB2E35
:101F400028C0C12CD12CE12CA0E4FA2E22C0CAE07A
:101F5000D0E0FCECCF2EFCECDF2EFCECEF2EFCE016
:101F6000FF2E17C0C8E0D0E0C12CD12CE12CE0E15D
:101F7000FE2E0FC09E01442737FD4095542F60E090
:101F800070E080E090E80E94DBD7C901DA016C01C3
:101F90007D0120E030E040E050E060E03E01882438
:101FA00077FC8094982C70EDB72EBA0CE9E0EB1515
:101FB00070F48A2D81548A3118F499ECB92E06C038
:101FC0008A2D81568A3150F589EAB82EBA0C8B2DAC
:101FD00090E08C179D0714F56F3FE1F0C216D30611
:101FE000E406F506B0F0CA01B901A40193010E940C
:101FF00095D79B01AC012B0D311D411D511D213089
:10200000F0E03F07F0E04F07F0E85F0710F461E011
:1020100001C06FEFF801A1908F01C5CF21143104E9
:1020200081F0662331F001501040F10111830083EB
:1020300008C051FE1AC002501040F1011183008304
:1020400014C067FF12C050FC05C02FEF3FEF4FEFE9
:102050005FE704C020E030E040E050E882E290E03A
:102060009093201380931F1316C050FE08C0509504
:102070004095309521953F4F4F4F5F4F0CC057FF14
:102080000AC082E290E09093201380931F132FEFF9
:102090003FEF4FEF5FE7B901CA01DF91CF911F9189
:1020A0000F91FF90EF90DF90CF90BF90AF909F90F7
:1020B0008F907F906F905F903F902F900895FB01DD
:1020C000DC0105900D920020E1F70895FB01DC0191
:1020D0004150504088F08D9181341CF08B350CF4C8
:1020E000805E659161341CF06B350CF4605E861B7C
:1020F000611171F3990B0895881BFCCFFB01DC0182
:102100004150504048F005900D920020C9F701C0A1
:102110001D9241505040E0F70895FB015591552321
:10212000A9F0BF01DC014D9145174111E1F759F4C8
:10213000CD010590002049F04D9140154111C9F3A2
:10214000FB014111EFCF81E090E001970895FB0181
:10215000DC0104C08D910190801921F44150504060
:10216000C8F7881B990B0895FB01DC0102C00190A0
:102170000D9241505040D8F70895FB01DC010D90BD
:102180000020E9F7119701900D920020E1F70895E2
:10219000FC018191861721F08823D9F799270895AA
:1021A0003197CF010895FB01DC0101900D920020D1
:1021B000E1F70895FB01DC014150504030F08D9172
:1021C0000190801919F40020B9F7881B990B089524
:1021D000FB01DC014150504048F001900D9200207D
:1021E000C9F701C01D9241505040E0F70895AEE09C
:1021F000B0E0EDEFF0E10C943FD80E891F898EE03E
:102200008C831A8309838FEF9FE79E838D839E01C2
:10221000265E3F4FCE010196688D798DA9010E94FF
:102220001B112F813885020F131FF80110822E9683
:10223000E4E00C945BD8ABE0B0E0E1E2F1E10C94B7
:1022400031D83C012B015A01FC011782168283818F
:1022500081FD03C06FEF7FEFC6C19AE0892E1E019A
:102260000894211C311CF3012381F20123FD859187
:1022700023FF81912F01882309F4B2C1853239F4FB
:1022800023FD859123FF81912F01853229F490E070
:10229000B3010E940E13E7CF982FFF24EE24992458
:1022A000FFE1FF15D0F09B3269F09C3228F49032A8
:1022B00059F0933291F40EC09D3249F0903369F495
:1022C00041E024C052E0F52A84E0F82A28C098E0D2
:1022D000F92A25C0E0E1FE2A22C0F7FC29C0892F97
:1022E00080538A3070F4F6FE05C0989C902C11241F
:1022F000980E15C0E89CE02C1124E80EF0E2FF2AAD
:102300000EC09E3229F4F6FC6BC140E4F42A07C0EB
:102310009C3619F450E8F52A02C0983649F4F201C7
:1023200023FD959123FF91912F01992309F0B8CFB7
:10233000892F8554833018F08052833038F444E07C
:1023400050E0A40EB51E5FE359830FC0933631F001
:10235000933779F0933509F056C020C0F50180819C
:10236000898342E050E0A40EB51E610101E010E057
:1023700012C0F501C080D180F6FC03C06FEF7FEF83
:1023800002C0692D70E042E050E0A40EB51EC60107
:102390000E9403138C015FE7F52214C0F501C08091
:1023A000D180F6FC03C06FEF7FEF02C0692D70E0B3
:1023B00042E050E0A40EB51EC6010E94F8128C0146
:1023C00050E8F52AF3FE07C01AC080E290E0B3019E
:1023D0000E940E13EA948E2D90E008171907A8F3B7
:1023E0000EC0F601F7FC8591F7FE81916F0190E038
:1023F000B3010E940E13E110EA9401501040011540
:10240000110579F7EAC0943611F0993669F5F7FEAF
:1024100008C0F501208131814281538184E090E040
:102420000AC0F501808191819C01442737FD4095C8
:10243000542F82E090E0A80EB91E9FE6F92257FFC4
:1024400009C050954095309521953F4F4F4F5F4FB4
:10245000E0E8FE2ACA01B901A1012AE030E00E94A9
:102460003A13D82ED21840C0953729F41F2D1F7E5D
:102470002AE030E01DC01F2D197F9F3661F0903794
:1024800020F4983509F0ACC00FC0903739F0983778
:1024900009F0A6C004C028E030E00AC0106114FDB5
:1024A000146020E130E004C014FD166020E132E049
:1024B00017FF08C0F501608171818281938144E03A
:1024C00050E008C0F50180819181BC0180E090E07E
:1024D00042E050E0A40EB51EA1010E943A13D82E8E
:1024E000D2188FE7F82EF122F6FE0BC05EEFF52230
:1024F000D91438F4F4FE07C0F2FC05C08FEEF822C0
:1025000002C01D2D01C0192DF4FE0DC0FE01ED0D00
:10251000F11D8081803319F499EEF92208C01F5F04
:10252000F2FE05C003C08F2D867809F01F5F0F2DC6
:10253000F3FC14C0F0FE0FC01E1510F09D2C0BC054
:102540009D2C9E0C911A1E2D06C080E290E0B301D6
:102550000E940E131F5F1E15C0F304C01E1510F459
:10256000E11A01C0EE2404FF0FC080E390E0B30144
:102570000E940E1302FF1DC001FD03C088E790E01A
:102580000EC088E590E00BC0802F867891F001FFA7
:1025900002C08BE201C080E2F7FC8DE290E0B30163
:1025A0000E940E1306C080E390E0B3010E940E1358
:1025B0009A94D914C0F3DA94F101ED0DF11D8081E4
:1025C00090E0B3010E940E13DD20A9F706C080E25F
:1025D00090E0B3010E940E13EA94EE20C1F743CEBF
:1025E000F30166817781CB012B96E2E10C944DD803
:1025F000FC010590615070400110D8F780959095CE
:102600008E0F9F1F0895FC016150704001900110D2
:10261000D8F7809590958E0F9F1F08950F931F9365
:10262000CF93DF938C01EB018B8181FF1BC082FF75
:102630000DC02E813F818C819D812817390764F45C
:10264000E881F9810193F983E88306C0E885F9857B
:10265000802F1995892B31F48E819F8101969F835C
:102660008E8302C00FEF1FEFC801DF91CF911F9142
:102670000F910895FA01AA27283051F1203181F1F4
:10268000E8946F936E7F6E5F7F4F8F4F9F4FAF4F7A
:10269000B1E03ED0B4E03CD0670F781F891F9A1F8D
:1026A000A11D680F791F8A1F911DA11D6A0F711D41
:1026B000811D911DA11D20D009F468943F912AE04D
:1026C000269F11243019305D3193DEF6CF01089535
:1026D000462F4770405D4193B3E00FD0C9F7F6CF66
:1026E000462F4F70405D4A3318F0495D31FD40522E
:1026F000419302D0A9F7EACFB4E0A69597958795C4
:1027000077956795BA95C9F70097610571050895A2
:102710009B01AC010A2E069457954795379527954E
:10272000BA95C9F7620F731F841F951FA01D0895E6
:102730001F920F920FB60F9211242F933F938F93F6
:102740009F93AF93BF938091B2049091B304A091F3
:10275000B404B091B5043091B6040196A11DB11D29
:10276000232F2D5F2D3720F02D570196A11DB11D70
:102770002093B6048093B2049093B304A093B4045E
:10278000B093B5048091AE049091AF04A091B004D1
:10279000B091B1040196A11DB11D8093AE04909338
:1027A000AF04A093B004B093B104BF91AF919F91D7
:1027B0008F913F912F910F900FBE0F901F90189502
:1027C0008FB7F8942091B2043091B3044091B404CF
:1027D0005091B5048FBFB901CA0108959B01AC01A6
:1027E0007FB7F8948091AE049091AF04A091B004AB
:1027F000B091B10466B5A89B05C06F3F19F0019672
:10280000A11DB11D7FBFBA2FA92F982F8827860F32
:10281000911DA11DB11D62E0880F991FAA1FBB1F4A
:102820006A95D1F7BC012DC0FFB7F8948091AE0432
:102830009091AF04A091B004B091B104E6B5A89B0B
:1028400005C0EF3F19F00196A11DB11DFFBFBA2FC2
:10285000A92F982F88278E0F911DA11DB11DE2E091
:10286000880F991FAA1FBB1FEA95D1F7861B970BEC
:10287000885E9340C8F2215030404040504068513B
:102880007C4F211531054105510571F608950197D9
:1028900039F0880F991F880F991F02970197F1F758
:1028A0000895789484B5826084BD84B5816084BDC8
:1028B00085B5826085BD85B5816085BDEEE6F0E0B9
:1028C000808181608083E1E8F0E010828081826015
:1028D0008083808181608083E0E8F0E08081816096
:1028E0008083E1EBF0E0808184608083E0EBF0E0C6
:1028F000808181608083E1E9F0E080818260808373
:10290000808181608083E0E9F0E080818160808364
:10291000E1EAF0E080818260808380818160808351
:10292000E0EAF0E0808181608083E1E2F1E0808193
:1029300082608083808181608083E0E2F1E0808139
:1029400081608083EAE7F0E0808184608083808119
:1029500082608083808181608083808180688083C1
:102960001092C10008951F93CF93DF93182FEB01AE
:1029700061E00E949315209709F4CAC0CF3FD105AA
:1029800009F4C9C0E12FF0E0E75FFD4F8491893081
:1029900009F466C08A30B0F48430F1F1853040F437
:1029A000823059F1833070F5813009F0AEC020C01B
:1029B000873009F443C0883008F048C0863009F0F9
:1029C000A4C034C08D3009F478C08E3038F48B3018
:1029D00009F45AC08C3008F066C04CC0803109F44C
:1029E00080C0813109F487C08F3009F08EC06FC07C
:1029F00084B5806884BDC7BD92C084B5806284BD43
:102A0000C8BD8DC080918000806880938000D09385
:102A10008900C093880083C0809180008062809389
:102A20008000D0938B00C0938A0079C08091B00061
:102A300080688093B000C093B30071C08091B000F3
:102A400080628093B000C093B40069C08091900010
:102A5000806880939000D0939900C09398005FC0E5
:102A600080919000806280939000D0939B00C093EF
:102A70009A0055C080919000886080939000D09318
:102A80009D00C0939C004BC08091A0008068809303
:102A9000A0008091A0008F7B8093A000D093A9001C
:102AA000C093A8003CC08091A00080628093A000E9
:102AB000D093AB00C093AA0032C08091A000886080
:102AC0008093A000D093AD00C093AC0028C080914B
:102AD0002001806880932001D0932901C0932801B0
:102AE0001EC080912001806280932001D0932B0131
:102AF000C0932A0114C08091200188608093200136
:102B0000D0932D01C0932C010AC0C038D1051CF40C
:102B1000812F60E002C0812F61E00E944616DF91A4
:102B2000CF911F910895CF93DF93482F50E0CA01B2
:102B30008D539E4FFC01349143585E4FFA018491AE
:102B4000882369F190E0880F991FFC01E15DFE4F39
:102B5000A591B491FC01E75BFE4FC591D49166232A
:102B600051F42FB7F8948C91932F909589238C93DF
:102B7000888189230BC0623061F42FB7F8948C915F
:102B8000932F909589238C938881832B88832FBFE3
:102B900006C09FB7F8948C91832B8C939FBFDF91D5
:102BA000CF910895893009F449C08A30A0F4843067
:102BB00051F1853040F4823079F1833000F5813075
:102BC00009F063C026C0873079F1883098F58630E7
:102BD00009F05BC025C08D3009F442C08E3028F466
:102BE0008B30B1F18C30C0F52DC0803109F442C07A
:102BF000813109F445C08F3009F047C037C080915A
:102C000080008F7703C0809180008F7D809380004B
:102C1000089584B58F7702C084B58F7D84BD0895F3
:102C20008091B0008F7703C08091B0008F7D80933A
:102C3000B0000895809190008F7707C08091900038
:102C40008F7D03C080919000877F809390000895CE
:102C50008091A0008F7707C08091A0008F7D03C076
:102C60008091A000877F8093A0000895809120012B
:102C70008F7703C0809120018F7D8093200108957C
:102C800080912001877F809320010895FF920F9308
:102C90001F93F62E482F50E0CA01875F9D4FFC011D
:102CA0002491CA018D539E4FFC01149143585E4FED
:102CB000FA0104910023C9F0222319F0822F0E9407
:102CC000D215E02FF0E0EE0FFF1FE75BFE4FA5915E
:102CD000B4919FB7F894FF2021F48C911095812333
:102CE00002C08C91812B8C939FBF1F910F91FF90FD
:102CF00008950F931F93482F50E0CA01875F9D4F9F
:102D0000FC012491CA018D539E4FFC01049143584C
:102D10005E4FFA011491112319F420E030E015C040
:102D2000222319F0822F0E94D215812F90E0880F64
:102D3000991F8D599E4FFC01A591B4918C9120E073
:102D400030E0802311F021E030E0C9011F910F91A4
:102D500008951F920F920FB60F920BB60F92112487
:102D60002F933F934F935F936F937F938F939F9393
:102D7000AF93BF93EF93FF938091BB049091BC04FA
:102D8000892B29F0E091BB04F091BC041995FF91C7
:102D9000EF91BF91AF919F918F917F916F915F91D3
:102DA0004F913F912F910F900BBE0F900FBE0F9040
:102DB0001F9018951F920F920FB60F920BB60F929D
:102DC00011242F933F934F935F936F937F938F9330
:102DD0009F93AF93BF93EF93FF938091BD04909126
:102DE000BE04892B29F0E091BD04F091BE04199531
:102DF000FF91EF91BF91AF919F918F917F916F91D3
:102E00005F914F913F912F910F900BBE0F900FBE8E
:102E10000F901F9018951F920F920FB60F920BB63E
:102E20000F9211242F933F934F935F936F937F9350
:102E30008F939F93AF93BF93EF93FF938091BF04C2
:102E40009091C004892B29F0E091BF04F091C00457
:102E50001995FF91EF91BF91AF919F918F917F91C4
:102E60006F915F914F913F912F910F900BBE0F90FB
:102E70000FBE0F901F9018951F920F920FB60F92D2
:102E80000BB60F9211242F933F934F935F936F9341
:102E90007F938F939F93AF93BF93EF93FF93809113
:102EA000C1049091C204892B29F0E091C104F091F2
:102EB000C2041995FF91EF91BF91AF919F918F91AE
:102EC0007F916F915F914F913F912F910F900BBE2A
:102ED0000F900FBE0F901F9018951F920F920FB674
:102EE0000F920BB60F9211242F933F934F935F9342
:102EF0006F937F938F939F93AF93BF93EF93FF93C2
:102F00008091B7049091B804892B29F0E091B7041F
:102F1000F091B8041995FF91EF91BF91AF919F91F6
:102F20008F917F916F915F914F913F912F910F9072
:102F30000BBE0F900FBE0F901F9018951F920F920F
:102F40000FB60F920BB60F9211242F933F934F930E
:102F50005F936F937F938F939F93AF93BF93EF9301
:102F6000FF938091B9049091BA04892B29F0E091E4
:102F7000B904F091BA041995FF91EF91BF91AF9107
:102F80009F918F917F916F915F914F913F912F9181
:102F90000F900BBE0F900FBE0F901F9018951F92B1
:102FA0000F920FB60F920BB60F9211242F933F93EF
:102FB0004F935F936F937F938F939F93AF93BF9341
:102FC000EF93FF938091C3049091C404892B29F05F
:102FD000E091C304F091C4041995FF91EF91BF9162
:102FE000AF919F918F917F916F915F914F913F91A1
:102FF0002F910F900BBE0F900FBE0F901F90189542
:103000001F920F920FB60F920BB60F9211242F93AF
:103010003F934F935F936F937F938F939F93AF9360
:10302000BF93EF93FF938091C5049091C604892BC1
:1030300029F0E091C504F091C6041995FF91EF9134
:10304000BF91AF919F918F917F916F915F914F91C0
:103050003F912F910F900BBE0F900FBE0F901F90BE
:103060001895CF92DF92EF92FF920F931F93CF9319
:10307000DF937C016B018A01C0E0D0E00FC0D60174
:103080006D916D01D701ED91FC910190F081E02DE2
:10309000C7011995C80FD91F01501040011511051E
:1030A00071F7CE01DF91CF911F910F91FF90EF90BB
:1030B000DF90CF900895DC01ED91FC910190F081BB
:1030C000E02D19950895CF93DF93EC0161157105FB
:1030D00019F420E030E00FC0DB010D900020E9F78B
:1030E0001197A61BB70BE881F9810280F381E02DCF
:1030F000AD0119959C01C901DF91CF9108950E94FE
:10310000631808952F923F924F925F926F927F9231
:103110008F929F92AF92BF92CF92DF92EF92FF92E7
:103120000F931F93DF93CF9300D00F92CDB7DEB7ED
:103130009C838B837A8369838A0139014C0143E044
:10314000880C991C4A95E1F7881A990AFB01E80D49
:10315000F91DEE0FFF1FEE0FFF1FE856F84F6081BD
:1031600071818281938120E030E040E050E00E9454
:10317000E3D3882309F0EAC08B819C81800F911FE3
:103180006801CC0CDD1C2B813C81C20ED31E7C015E
:1031900003E0EE0CFF1C0A95E1F7E81AF90AE98151
:1031A000FA81EE0DFF1DEE0FFF1FEE0FFF1FE85619
:1031B000F84F2081318142815381CA01B9010E94B7
:1031C0000AD38601B3E0000F111FBA95E1F70C197D
:1031D0001D09E981FA81E00FF11FEE0FFF1FEE0FCD
:1031E000FF1FE856F84F20813181428153810E94B0
:1031F00009D31B012C01A980BA80A60CB71C63015E
:10320000CC0CDD1C89819A81C80ED91EF401EA0D0F
:10321000FB1DEE0FFF1FEE0FFF1FE856F84F20813A
:10322000318142815381CA01B9010E940AD3F4015C
:10323000EC0DFD1DEE0FFF1FEE0FFF1FE856F84FC0
:1032400020813181428153810E9409D33B014C018D
:10325000EA0CFB1CEE0CFF1CEE0CFF1CA8E9B7E00F
:10326000EA0EFB1EF7012081318142815381CA01A0
:10327000B9010E940AD30C0D1D1D000F111F000F74
:10328000111F0856184FD8012D913D914D915C9119
:103290000E9409D37B018C01C201B101A4019301F9
:1032A0000E94E3D38823B4F4C401B301A8019701B9
:1032B0000E94E3D388232CF4B62CD72CA82CC92C3D
:1032C00004C0BE2CDF2CA02EC12EC801B701A20164
:1032D000910115C0C801B701A40193010E94E3D375
:1032E00088232CF4B62CD72CA82CC92C04C0BE2CB7
:1032F000DF2CA02EC12EC201B101A80197010E94AE
:10330000E3D3882324F4B22CD32CA42CC52CEB813A
:10331000FC8193E0EE0FFF1F9A95E1F72B813C8132
:10332000E21BF30B89819A81E80FF91FEE0FFF1F53
:10333000EE0FFF1FE856F84F2B2D3D2D4A2D5C2D2B
:10334000C901DA0180839183A283B3830F900F9028
:103350000F900F90CF91DF911F910F91FF90EF9001
:10336000DF90CF90BF90AF909F908F907F906F90A5
:103370005F904F903F902F900895EF92FF920F93A0
:103380001F93CF93DF93EC01E0906D03F0906E03F9
:1033900000916F0310917003688179818A819B810C
:1033A000A80197010E94F1D5181624F4E882F98249
:1033B0000A831B83E0907103F09072030091730302
:1033C000109174036C817D818E819F81A80197018A
:1033D0000E94F1D5181624F4EC82FD820E831F831F
:1033E000E0907503F09076030091770310917803D5
:1033F000688579858A859B85A80197010E94F1D50A
:10340000181624F4E886F9860A871B87DF91CF9186
:103410001F910F91FF90EF90089580916408089597
:103420000F931F93CF93DF938130910549F46F5F22
:103430007F4F09F046C087EC94E00E94539641C04C
:10344000892B09F03EC06F5F7F4FD9F587E294E08A
:10345000909392068093910680919806882321F09C
:1034600085E996E00E94FA51CDE4D6E007E214E047
:1034700005C06F9785E0C731D80751F019830883DD
:103480008F818823B1F3CE0104960E94FA51F1CFC7
:1034900087E294E0998388838F81882321F0CE018D
:1034A00004960E94FA5187E294E09093F704809387
:1034B000F6048091FD04882321F08AEF94E00E94B5
:1034C000FA51DF91CF911F910F91089580E090E024
:1034D0006FEF7FEF0E94101A089581E090E06FEF88
:1034E0007FEF0E94101A08950E94D57E8091640893
:1034F000882309F03AC081E08093640880916708CE
:1035000090916808A0916908B0916A0880936B084F
:1035100090936C08A0936D08B0936E08E5E5F2E017
:10352000949108C08091C00085FFFCCF9093C600A5
:10353000319694919923B1F7E6E6F2E0949108C0B0
:103540008091C00085FFFCCF9093C6003196949186
:103550009923B1F78091C00085FFFCCF8AE080936A
:10356000C6008CE592E00E944AC508958EE260E0B4
:103570000E9493159FB7F894EBE0F1E0808188609A
:1035800080839FBF0895F8940E94D57E9FB7F894DA
:1035900080910B01826080930B019FBF1092820784
:1035A000899A109283079FB7F894809108018160EF
:1035B000809308019FBF10928407129A8DE260E009
:1035C0000E949315E5E5F2E0949108C08091C00057
:1035D00085FFFCCF9093C600319694919923B1F763
:1035E000E5EEF2E0949108C08091C00085FFFCCF29
:1035F0009093C600319694919923B1F78091C000C1
:1036000085FFFCCF8AE08093C6008CED92E00E949B
:1036100059C5FFCF0E94E01360936F087093700844
:103620008093710890937208E0919808F09199083E
:10363000E656F74F80818823A9F4E4E0F3E0949103
:1036400008C08091C00085FFFCCF9093C6003196E2
:1036500094919923B1F78091C00085FFFCCF8AE057
:103660008093C6000895EF92FF920F931F930E94DC
:10367000E013E0907308F0907408009175081091C1
:10368000760820916F083091700840917108509130
:103690007208621B730B840B950BE616F70608077E
:1036A000190738F4E114F1040105110511F00E9425
:1036B000C31A80917B0390917C03A0917D03B0910C
:1036C0007E030097A105B105C9F10E94E013209186
:1036D0006F08309170084091710850917208621B18
:1036E000730B840B950B20917B0330917C034091ED
:1036F0007D0350917E032617370748075907F0F4DA
:1037000090910412809105129817C1F49FB7F89414
:1037100080910B01826080930B019FBF1092820702
:10372000899A109283079FB7F8948091080181606D
:10373000809308019FBF10928407129A809109011B
:1037400083FD02C00E94C31A0E9451661F910F910F
:10375000FF90EF9008956F927F928F929F92AF9219
:10376000BF92CF92DF92EF92FF920F931F93F82EAA
:1037700060917708709178088091790890917A0823
:1037800020917B0830917C0840917D0850917E0803
:103790000E94FED53B014C0100D000D00DB71EB7F2
:1037A0000F5F1F4F6091590370915A03882777FD6F
:1037B0008095982F0E9485D420917F0330918003BB
:1037C00040918103509182030E94C3D620E030E0F3
:1037D00040E752E40E94EAD320E030E048EC52E4B3
:1037E0000E94EAD35B016C01F801608271828282DF
:1037F0009382F4828091890785838AE597E063E864
:1038000078E047E758E020E001E0E2E0EE2E0E9499
:10381000DB5E8091830890918408A0918508B09127
:10382000860880935A0790935B07A0935C07B09338
:103830005D078091870890918808A0918908B091D0
:103840008A0880935E0790935F07A0936007B09308
:10385000610780918B0890918C08A0918D08B091A0
:103860008E088093620790936307A0936407B093D8
:10387000650780918F0890919008A0919108B09170
:1038800092088093660790936707A0936807B093A8
:1038900069078DB79EB706960FB6F8949EBF0FBE08
:1038A0008DBF0E94E01360936F087093700880933F
:1038B0007108909372081F910F91FF90EF90DF9025
:1038C000CF90BF90AF909F908F907F906F90089512
:1038D0008F929F92AF92BF92CF92DF92EF92FF9220
:1038E0000F931F934C0163ED7FEF84EB92ECF40197
:1038F00020813181428153810E9409D37B018C0157
:1039000060E070E081E592ECF4012481358146812C
:1039100057810E9409D35B016C01C801B701A8015E
:1039200097010E94C3D69B01AC0161E77EE882E368
:1039300097E40E9409D37B018C01C601B501A60161
:1039400095010E94C3D69B01AC01C801B7010E943A
:1039500009D30E9430D7F4012085318542855385F3
:103960000E940AD360938C0770938D0780938E0713
:1039700090938F0763ED7FEF84EB92E4F401208155
:103980003181428153810E9409D37B018C0160E027
:1039900070E081E592ECF401248135814681578104
:1039A0000E9409D35B016C01C801B701A80197010E
:1039B0000E94C3D69B01AC0161E77EE882E397E4F5
:1039C0000E9409D37B018C01C601B501A6019501B6
:1039D0000E94C3D69B01AC01C801B7010E9409D364
:1039E0000E9430D7F40120853185428553850E949D
:1039F0000AD36093900770939107809392079093F6
:103A0000930760E070E080E090E0F4012081318174
:103A1000428153810E9409D37B018C0160E070E0F8
:103A200081ED92E4F40124813581468157810E9421
:103A300009D35B016C01C801B701A80197010E947D
:103A4000C3D69B01AC0161E77EE882E397E40E9464
:103A500009D37B018C01C601B501A60195010E9425
:103A6000C3D69B01AC01C801B7010E9409D30E94D3
:103A700030D7F40120853185428553850E940AD3D1
:103A80006093940770939507809396079093970798
:103A90001F910F91FF90EF90DF90CF90BF90AF906C
:103AA0009F908F9008952F923F924F925F926F92C6
:103AB0007F928F929F92AF92BF92CF92DF92EF92BE
:103AC000FF920F931F93DF93CF9300D00F92CDB748
:103AD000DEB70E94E01360936F08709370088093C4
:103AE000710890937208F3E8CF2EF8E0DF2EC6013C
:103AF0000E94681C0F920F922DB63EB60894211CAE
:103B0000311C40908C0750908D0760908E0770900C
:103B10008F078091900790919107A0919207B091A3
:103B2000930789839A83AB83BC83E0909407F090DA
:103B300095070091960710919707ACE0B0E0CA0E88
:103B4000DB1E6091590370915A03882777FD809599
:103B5000982F0E9485D420917F033091800340915B
:103B60008103509182030E94C3D620E030E040E7F9
:103B700052E40E94EAD320E030E048EC52E40E9494
:103B8000EAD34B015C0189E897E0F10191838083DE
:103B9000C301B20129813A814B815C810E943A695B
:103BA0008091830890918408A0918508B09186083F
:103BB00080935A0790935B07A0935C07B0935D07CF
:103BC0008091870890918808A0918908B0918A080F
:103BD00080935E0790935F07A0936007B09361079F
:103BE00080918B0890918C08A0918D08B0918E08DF
:103BF0008093620790936307A0936407B09365076F
:103C000080918F0890919008A0919108B0919208AE
:103C10008093660790936707A0936807B09369073E
:103C20000F900F900F900F900F900F90CF91DF910A
:103C30001F910F91FF90EF90DF90CF90BF90AF90CA
:103C40009F908F907F906F905F904F903F902F90BC
:103C500008952F923F924F925F926F927F928F9230
:103C60009F92AF92BF92CF92DF92EF92FF920F930B
:103C70001F93DF93CF93CDB7DEB764970FB6F89459
:103C8000DEBF0FBECDBF3C01DC016D917D918D91FA
:103C90009C9120E030E048EC51E40E94EAD3698333
:103CA0007A838B839C832EE93FEE4FE350E40E949E
:103CB000F1D518168CF069817A818B819C812EE96F
:103CC0003FEE4FE350EC0E94E3D388236CF48EE97F
:103CD0009FEEAFE3B0EC04C08EE99FEEAFE3B0E43B
:103CE00089839A83AB83BC83D30114966D917D91B4
:103CF0008D919C91179720E030E048EC51E40E94B0
:103D0000EAD32B013C012EE93FEE4FE350E40E9441
:103D1000F1D51816ACF0C301B2012EE93FEE4FE326
:103D200050EC0E94E3D38823ACF40F2EFEE94F2E13
:103D3000FFEE5F2EFFE36F2EF0EC7F2EF02D0AC01A
:103D40000F2EFEE94F2EFFEE5F2EFFE36F2EF0E405
:103D50007F2EF02D69817A818B819C810E94C0D455
:103D60000E9452D46B017C01C301B2010E94C0D4F5
:103D70000E9452D44B015C01B601882777FD8095E3
:103D8000982F0E9485D49B01AC0169817A818B8137
:103D90009C810E9409D36D837E838F839887B401B1
:103DA000882777FD8095982F0E9485D49B01AC01D0
:103DB000C301B2010E9409D369877A878B879C87E8
:103DC00053E0452E512C4C0C5D1C43E0642E712CAD
:103DD000680C791CE4E0F0E08E0E9F1ECE0EDF1E14
:103DE00060E070E080E89FE329853A854B855C853B
:103DF0000E9409D36D877E878F87988B60E070E083
:103E000080E89FE32D813E814F8158850E9409D330
:103E1000698B7A8B8B8B9C8B820133E0000F111F97
:103E20003A95E1F704191509F801E60DF71DEE0FB3
:103E3000FF1FEE0FFF1FE856F84F6D857E858F85BB
:103E4000988920813181428153810E94C3D61B0110
:103E50002C01080D191D000F111F000F111F08560E
:103E6000184F69857A858B859C85D8012D913D9168
:103E70004D915C910E94C3D69B01AC01C201B1017E
:103E80000E940AD39B01AC0169897A898B899C893C
:103E90000E94C3D61B012C01860183E0000F111F75
:103EA0008A95E1F70C191D09600E711E660C771CCE
:103EB000660C771CE8E9F7E06E0E7F1E6D857E8547
:103EC0008F859889D3012D913D914D915C910E94F0
:103ED000C3D66B017C01080D191D000F111F000FC7
:103EE000111F0856184F69857A858B859C85F801C6
:103EF00020813181428153810E94C3D69B01AC0154
:103F0000C701B6010E940AD39B01AC016D817E817D
:103F10008F8198850E94C3D69B01AC01C201B1017B
:103F20000E940AD37B018C0160918C0770918D07F0
:103F300080918E0790918F07A80197010E940AD364
:103F400060938C0770938D0780938E0790938F07F3
:103F500060919007709191078091920790919307DB
:103F6000A80197010E940AD360939007709391076C
:103F700080939207909393076091940770919507AF
:103F80008091960790919707A80197010E940AD304
:103F90006093940770939507809396079093970783
:103FA00064960FB6F894DEBF0FBECDBFCF91DF9100
:103FB0001F910F91FF90EF90DF90CF90BF90AF9047
:103FC0009F908F907F906F905F904F903F902F9039
:103FD00008952F923F924F925F926F927F928F92AD
:103FE0009F92AF92BF92CF92DF92EF92FF920F9388
:103FF0001F93DF93CF93CDB7DEB7A6970FB6F89494
:10400000DEBF0FBECDBFE0906D03F0906E03009158
:104010006F03109170036091830870918408809100
:10402000850890918608A80197010E94F1D518167D
:1040300044F4E0928308F09284080093850810937A
:104040008608E0907103F090720300917303109161
:104050007403609187087091880880918908909115
:104060008A08A80197010E94F1D5181644F4E0923D
:104070008708F09288080093890810938A08E090D6
:104080007503F090760300917703109178036091A7
:104090008B0870918C0880918D0890918E08A801F2
:1040A00097010E94F1D5181644F4E0928B08F09223
:1040B0008C0800938D0810938E080E94E013609383
:1040C0006F08709370088093710890937208EE24C3
:1040D000FF246E010894C11CD11C86010E0D1F1D0A
:1040E000F701ED57F74FD701A65AB84F608171819C
:1040F000828193812D913D914D915C910E9409D3D4
:10410000D8016D937D938D939C931397E4E0F0E039
:10411000EE0EFF1EF0E1EF16F104F9F689819A81A7
:10412000AB81BC818B8F9C8FAD8FBE8F8D819E812B
:10413000AF81B8858F8B988FA98FBA8F89859A8523
:10414000AB85BC858B8B9C8BAD8BBE8B6B8D7C8D3F
:104150008D8D9E8D9B01AC010E94C3D67B018C018D
:104160006F89788D898D9A8D9B01AC010E94C3D691
:104170009B01AC01C801B7010E940AD37B018C01ED
:104180006B897C898D899E899B01AC010E94C3D675
:104190009B01AC01C801B7010E940AD30E9430D72D
:1041A0007B018C012DEB37E346E855E30E94E3D316
:1041B000882394F4ED84FE840F851889C801B70123
:1041C00020E030E040E050E00E94F1D5181624F0E5
:1041D00017FB109517F91095C801B7012DEB37E3C0
:1041E00046E855E30E94E3D387FD73C1C801B701D8
:1041F00020E030E84BEB55E40E94C3D620917F03CA
:104200003091800340918103509182030E94EAD350
:104210007B018C016091590370915A03882777FDC7
:104220008095982F0E9485D49B01AC01C801B701ED
:104230000E94EAD320E030E048E453E40E94C3D671
:104240000E9452D47A8B698B1616170624F0A1E0CF
:10425000B0E0BA8BA98BF1E02F2E312C89899A8995
:10426000AA2797FDA095BA2F8BA39CA3ADA3BEA3AD
:10427000EAC0B101882777FD8095982F0E9485D4E8
:104280007B018C016BA17CA18DA19EA10E9485D494
:104290009B01AC01C801B7010E94EAD37B018C01EC
:1042A0006B8D7C8D8D8D9E8DA80197010E94C3D64C
:1042B0009B01AC0160915A0770915B0780915C078C
:1042C00090915D070E940AD36093830870938408DD
:1042D00080938508909386086F89788D898D9A8D53
:1042E000A80197010E94C3D69B01AC0160915E07B3
:1042F00070915F0780916007909161070E940AD3D7
:1043000060938708709388088093890890938A083F
:104310006B897C898D899E89A80197010E94C3D6EB
:104320009B01AC0160916207709163078091640703
:10433000909165070E940AD360938B0870938C0854
:1043400080938D0890938E08C801B7012D853E8516
:104350004F8558890E94C3D69B01AC0160916607C6
:104360007091670780916807909169070E940AD34E
:1043700060938F08709390088093910890939208AF
:1043800083E898E00E94681C83E898E00E94291E58
:104390000F920F92CDB6DEB60894C11CD11C40908E
:1043A0008C0750908D0760908E0770908F078091DA
:1043B000900790919107A0919207B09193078F8FEA
:1043C00098A3A9A3BAA3E0909407F0909507009151
:1043D0009607109197076091590370915A038827A7
:1043E00077FD8095982F0E9485D420917F0330918E
:1043F000800340918103509182030E94C3D620E044
:1044000030E040E752E40E94EAD320E030E048EC9C
:1044100052E40E94EAD34B015C01E9E8F7E0D601DF
:10442000ED93FC93C301B2012F8D38A149A15AA18C
:10443000EFE8CE2EE8E0DE2E0E943A690894211CB7
:10444000311C0F900F9089899A89821593050CF081
:1044500010CF8091830890918408A0918508B09135
:10446000860880935A0790935B07A0935C07B093EC
:104470005D078091870890918808A0918908B09184
:104480008A0880935E0790935F07A0936007B093BC
:10449000610780918B0890918C08A0918D08B09154
:1044A0008E088093620790936307A0936407B0938C
:1044B000650780918F0890919008A0919108B09124
:1044C00092088093660790936707A0936807B0935C
:1044D0006907A6960FB6F894DEBF0FBECDBFCF9189
:1044E000DF911F910F91FF90EF90DF90CF90BF90E1
:1044F000AF909F908F907F906F905F904F903F9084
:104500002F90089585EB9AE00E940C4CE7E0F3E0D1
:10451000949108C08091C00085FFFCCF9093C600A5
:10452000319694919923B1F74091670850916808AA
:104530006091690870916A084F5F5F4F6F4F7F4FBE
:1045400085EB9AE02AE030E00E94CD4C8091C000DB
:1045500085FFFCCF8AE08093C6000E940A1B089565
:104560008091490390914A03A0914B03B0914C0371
:1045700080937F0390938003A0938103B093820381
:1045800080E090E0ACE0B2E48093830890938408EC
:10459000A0938508B093860880E090E0A0E9B2E49B
:1045A0008093870890938808A0938908B0938A081D
:1045B00080E090E0A8ECB2E480938B0890938C08A4
:1045C000A0938D08B0938E080E94531D60914903FB
:1045D00070914A0380914B0390914C0320E030E0AE
:1045E00040E251E40E94EAD360937F03709380031A
:1045F000809381039093820380E090E0A0E0B0E09C
:104600008093830890938408A0938508B0938608CC
:104610000E94531D0E94177608958091490390913E
:104620004A03A0914B03B0914C0380937F03909376
:104630008003A0938103B09382036091620770911D
:104640006307809164079091650720E030E040EABD
:1046500051E40E940AD360938B0870938C08809376
:104660008D0890938E080E94531D80E090E0A8E38F
:10467000B2EC8093830890938408A0938508B0934C
:10468000860880E090E0ACE6B2E4809387089093DF
:104690008808A0938908B0938A0880E090E0A0EE93
:1046A000B1E480938B0890938C08A0938D08B0930D
:1046B0008E080E94531D60915103709152038091A6
:1046C00053039091540320E030E040E251E40E9413
:1046D000EAD360937F037093800380938103909368
:1046E00082036091620770916307809164079091E3
:1046F000650720E030E040EA51E40E9409D360936E
:104700008B0870938C0880938D0890938E080E947C
:10471000531D8091510390915203A0915303B09186
:10472000540380937F0390938003A0938103B093FD
:104730008203609162077091630780916407909192
:10474000650720E030E040EF51E40E940AD3609317
:104750008B0870938C0880938D0890938E080E942C
:10476000531D0E941776089580E00E94F77480918F
:104770009E0890919F08A091A008B091A1088093F5
:104780007F0390938003A0938103B0938203809171
:1047900058079091590790935A03809359030E94A8
:1047A000E01360936F087093700880937108909382
:1047B000720808952F923F924F925F926F927F926C
:1047C0008F929F92AF92BF92CF92DF92EF92FF9221
:1047D0000F931F93DF93CF93CDB7DEB7A0970FB69C
:1047E000F894DEBF0FBECDBF9E838D8383309105CD
:1047F00008F0D4C2FC01E85AFA4FB490880F991F10
:10480000880F991F98A38F8FBAE52B2EB7E03B2E08
:10481000280E391E20E030E040E050E0D1012D9319
:104820003D934D935C93139760915A0770915B078A
:1048300080915C0790915D0720915E0730915F0742
:104840004091600750916107E0906207F090630724
:104850000091640710916507A6E6CA2EA7E0DA2E3C
:104860000E94E26320E030E040E050E0D1012D936F
:104870003D934D935C93139760915A0770915B073A
:1048800080915C0790915D0720915E0730915F07F2
:104890004091600750916107E0906207F0906307D4
:1048A00000916407109165070E94E263EF8DF8A103
:1048B000E55AFA4FE590F590059114916B2D772705
:1048C00067FD7095882777FD8095982F0E9485D485
:1048D00069837A838B839C83EF8DF8A1ED57F74F23
:1048E000F887EF83C801B70120E030E040EC5FE3D8
:1048F0000E94C3D629813A814B815C810E94C3D634
:10490000AF81B8856D937D938D939C931397EF8DB5
:10491000F8A1E75BFC4FFA87E987608171818281AA
:10492000938160937F0370938003809381039093BE
:1049300082030F920F92CDB6DEB60894C11CD11C33
:104940004090830850908408609085087090860895
:1049500020918708309188084091890850918A08F1
:104960002B873C874D875E87E0908B08F0908C0802
:1049700000918D0810918E0820E030E040E752E46D
:104980000E94EAD34B015C01E9E8F7E0D601ED9320
:10499000FC93C301B2012B853C854D855E85FFE804
:1049A000CF2EF8E0DF2E0E943A690F900F900E9400
:1049B000177680E00E94F77420E030E040E050E09D
:1049C000D1012D933D934D935C93139760915A07BA
:1049D00070915B0780915C0790915D0720915E0765
:1049E00030915F074091600750916107E090620746
:1049F000F09063070091640710916507E6E6CE2EFC
:104A0000E7E0DE2E0E94E263EF8DF8A1E959FA4F4C
:104A10004590559065907490C301B20190582981DA
:104A20003A814B815C810E94C3D6EF81F885608317
:104A30007183828393830F920F92CDB6DEB6089472
:104A4000C11CD11C209183083091840840918508B5
:104A5000509186082F87388B498B5A8B8091870815
:104A600090918808A0918908B0918A088B8B9C8BC3
:104A7000AD8BBE8BE0908B08F0908C0800918D0878
:104A800010918E0860917F03709180038091810363
:104A90009091820320E030E040E752E40E94EAD3A4
:104AA0004B015C01E9E8F7E0D601ED93FC936F85DB
:104AB000788989899A892B893C894D895E89BFE8E3
:104AC000CB2EB8E0DB2E0E943A690F900F900E9427
:104AD000177681E00E94F774C301B201A30192012D
:104AE0000E940AD329813A814B815C810E94C3D6FE
:104AF000AF81B8856D937D938D939C931397E985D2
:104B0000FA85608171818281938120E030E040E804
:104B10005EE30E94C3D660937F037093800380930B
:104B20008103909382030F920F92CDB6DEB6089464
:104B3000C11CD11C40908308509084086090850867
:104B400070908608209187083091880840918908E4
:104B500050918A082F8B388F498F5A8FE0908B089D
:104B6000F0908C0800918D0810918E0820E030E0C4
:104B700040E752E40E94EAD34B015C01E9E8F7E028
:104B8000D601ED93FC93C301B2012F89388D498D75
:104B90005A8DAFE8CA2EA8E0DA2E0E943A690F902B
:104BA0000F900E941776AF8CB8A026E737E0A20ED0
:104BB000B31E69817A818B819C81D5012D913D91B4
:104BC0004D915C910E94C3D620E030E040E050E07F
:104BD0000E94E3D388230CF071C060915A07709152
:104BE0005B0780915C0790915D0720915E07309193
:104BF0005F074091600750916107E0906207F09075
:104C000063070091640710916507F6E6CF2EF7E081
:104C1000DF2E0E94E263F50180819181A281B38140
:104C2000EF81F88580839183A283B3830F920F92E3
:104C3000CDB6DEB60894C11CD11C409083085090BC
:104C400084086090850870908608209187083091CC
:104C500088084091890850918A082B8F3C8F4D8F8E
:104C60005E8FE0908B08F0908C0800918D08109179
:104C70008E0860917F0370918003809181039091F1
:104C8000820320E030E040E752E40E94EAD34B0187
:104C90005C01E9E8F7E0D601ED93FC93C301B201B2
:104CA0002B8D3C8D4D8D5E8DEFE8CE2EE8E0DE2E17
:104CB0000E943A690F900F900E941776CD80DE8097
:104CC000CC0CDD1CCC0CDD1CF601ED58FA4F6591C7
:104CD000759185919491F601E659F84F8080918005
:104CE000A280B380A50194010E940AD37B018C01AC
:104CF000F601E65AF84FCB01D80180839183A28355
:104D0000B383F601E158FA4F6591759185919491BD
:104D1000B1E66B2EB3E07B2E6C0C7D1CA5019401DB
:104D20000E940AD3D3016D937D938D939C93139727
:104D3000F601E557FA4F6591759185919491ADE62D
:104D40006A2EA3E07A2E6C0C7D1CA50194010E94B2
:104D50000AD3F301608371838283938323E838E06D
:104D6000C20ED31EC701D801F60180839183A283AE
:104D7000B38380E090E0A0E0B0E080937F03909365
:104D80008003A0938103B09382030E94F0742D816D
:104D90003E812E57384F81E0D9018C93A0960FB6F3
:104DA000F894DEBF0FBECDBFCF91DF911F910F9161
:104DB000FF90EF90DF90CF90BF90AF909F908F903B
:104DC0007F906F905F904F903F902F900895CF927B
:104DD000DF92EF92FF920F931F93CF93DF93EE2416
:104DE000FF24ECEAF5E0D4908AE0C82E38C0488170
:104DF00059816A817B8185EB9AE022E030E00E9454
:104E0000DD4D9D2DECEAF5E008C08091C00085FFE6
:104E1000FCCF9093C600319694919923B1F70F5F20
:104E20001F4F6C960730110511F7E0E0F2E007C064
:104E30008091C00085FFFCCF31969093C600908191
:104E40009923B1F78091C00085FFFCCFC092C600C6
:104E50000894E11CF11C87E0E816F10451F0E70129
:104E6000CC0FDD1FCC0FDD1FC856D84F00E010E07F
:104E7000BECFDF91CF911F910F91FF90EF90DF9008
:104E8000CF900895FC01949108C08091C00085FFE7
:104E9000FCCF9093C600319694919923B1F785EB9E
:104EA0009AE022E030E00E94DD4D0895682F2091C5
:104EB00098083091990880E690E0AC01249FC001E9
:104EC000259F900D349F900D11248C55974F70E0C5
:104ED0000E94C8109C019093A3088093A20880E0D0
:104EE000232B09F081E00895FC01949108C0809182
:104EF000C00085FFFCCF9093C60031969491992312
:104F0000B1F785EB9AE02AE030E00E94AE4C0895BC
:104F10008F929F92AF92BF92CF92DF92EF92FF92C9
:104F20000F931F9383E893E00E94B1D081E00E9429
:104F3000F77492E6C92E97E0D92E80906207909080
:104F40006307A0906407B090650782E00E94E27555
:104F50007B018C0160915103709152038091530346
:104F60009091540320E030E040E85EE30E94C3D615
:104F700060937F03709380038093810390938203F7
:104F800080E090E0A0E2B1EC80938B0890938C08D5
:104F9000A0938D08B0938E080E94531D0E9417762F
:104FA0000E94F07480E00E94F77482E00E94E27533
:104FB000E61AF70A080B190BC801B7010E9485D43D
:104FC0002091DF0C3091E00C4091E10C5091E20C0B
:104FD0000E94EAD39B01AC01C501B4010E9409D330
:104FE00060936207709363078093640790936507EB
:104FF000C60108970E94681C60918C0770918D070C
:1050000080918E0790918F072091900730919107A2
:105010004091920750919307E0909407F090950784
:105020000091960710919707E4E0F0E0CE0EDF1EA6
:105030000E94E2631F910F91FF90EF90DF90CF905D
:10504000BF90AF909F908F9008952F923F924F9274
:105050005F926F927F928F929F92AF92BF92CF9208
:10506000DF92EF92FF920F931F93DF93CF9300D0C5
:105070000F92CDB7DEB71B012C0129833A834B83F6
:105080005C8380915A0790915B07A0915C07B09177
:105090005D0720915E0730915F0740916007509156
:1050A000610760907F0370908003809081039090EF
:1050B00082030F2EF0E0AF2EF0E0BF2EFAEFCF2EDE
:1050C000F5E4DF2EF02DA0927F03B0928003C09212
:1050D0008103D09282038093830890938408A093E5
:1050E0008508B093860820938708309388084093FA
:1050F000890850938A08E0928B08F0928C080093FC
:105100008D0810938E080E94531D0E941776E09020
:105110006207F09063070091640710916507A09201
:105120007F03B0928003C0928103D0928203C201B8
:10513000B10120E030E040E85FE30E940AD36093D1
:10514000830870938408809385089093860869810A
:105150007A818B819C8120E030E048EA51E40E9412
:1051600009D3609387087093880880938908909387
:105170008A08E0928B08F0928C0800938D081093B7
:105180008E080E94531D0E94177660927F037092D2
:10519000800380928103909282030E94882710915D
:1051A000620700916307F0906407E0906507E8EA02
:1051B000F5E0949108C08091C00085FFFCCF9093EA
:1051C000C600319694919923B1F7E3EAF5E0949102
:1051D00008C08091C00085FFFCCF9093C600319637
:1051E00094919923B1F785EB9AE0B201A10122E0F5
:1051F00030E00E94DD4DEEE9F5E0949108C0809129
:10520000C00085FFFCCF9093C600319694919923FE
:10521000B1F785EB9AE049815A816B817C8122E06C
:1052200030E00E94DD4DE9E9F5E0949108C08091FD
:10523000C00085FFFCCF9093C600319694919923CE
:10524000B1F785EB9AE0212F302FEF2DFE2DA9012C
:10525000BF0122E030E00E94DD4DE7E9F5E09491E6
:1052600008C08091C00085FFFCCF9093C6003196A6
:1052700094919923B1F7212F302F4F2D5E2DB90135
:10528000CA010F900F900F900F90CF91DF911F9157
:105290000F91FF90EF90DF90CF90BF90AF909F90D5
:1052A0008F907F906F905F904F903F902F900895D8
:1052B0008091A2089091A308019660E070E04AE016
:1052C00050E00E94300F08958091A2089091A308A9
:1052D000019660E070E00E94D00D0895CF93DF93B7
:1052E000EC01809189078093660884E50E94562727
:1052F000882309F46FC00E9464290E9457D4262F86
:1053000060936608662309F465C0EFE4F2E09491C7
:1053100008C08091C00085FFFCCF9093C6003196F5
:1053200094919923B1F7C936D10599F0CA36D105C0
:1053300024F4C836D105F1F50FC0CD36D10531F0D2
:10534000CA3DD105B9F5E1E0F2E031C0E8E1F2E0B3
:1053500023C0EFE2F2E015C0E6E4F2E007C080917E
:10536000C00085FFFCCF31969093C60090819923B1
:10537000B1F720C08091C00085FFFCCF319690939B
:10538000C60090819923B1F715C08091C00085FFB8
:10539000FCCF31969093C60090819923B1F70AC053
:1053A0008091C00085FFFCCF31969093C60090811C
:1053B0009923B1F785EB9AE0622F40E050E00E941C
:1053C000BB4C8091C00085FFFCCF8AE08093C60073
:1053D00081E001C080E0DF91CF910895AF92BF924C
:1053E000CF92DF92EF92FF920F931F93CF93DF93B1
:1053F0002AE5E22E27E0F22EC3E8D8E000E010E034
:10540000F801E951FC4F80810E945627882339F129
:105410000E9464295B016C01F801EC5AF84F80810D
:10542000882311F061E002C06091930870E0882742
:1054300077FD8095982F0E9485D4F70120813181D6
:10544000428153810E94C3D69B01AC01C601B501C4
:105450000E940AD3688379838A839B8309C0F701FA
:1054600080819181A281B38188839983AA83BB8340
:105470000F5F1F4F84E090E0E80EF91E2496043081
:10548000110509F0BDCF86E40E9456278823E1F07C
:105490000E9464297B018C016093940870939508A5
:1054A000809396089093970820E030E040E050E029
:1054B0000E94F1D5181644F4E0927F03F092800325
:1054C0000093810310938203DF91CF911F910F917D
:1054D000FF90EF90DF90CF90BF90AF9008950E9423
:1054E000EE2989E40E945627882359F00E946429F6
:1054F00060937708709378088093790890937A087E
:105500000CC080E090E0A0E0B0E08093770890933A
:105510007808A0937908B0937A088AE40E94562705
:10552000882359F00E94642960937B0870937C085B
:1055300080937D0890937E08089580E090E0A0E03D
:10554000B0E080937B0890937C08A0937D08B09393
:105550007E0808952F923F924F925F926F927F92B2
:105560008F929F92AF92BF92CF92DF92EF92FF9273
:105570000F931F93DF93CF93CDB7DEB7CC56D040B8
:105580000FB6F894DEBF0FBECDBF87E40E9456274A
:10559000882309F44CC50E9464290E9452D46C31BE
:1055A000710509F496C06D3171059CF46230710586
:1055B000A9F16330710524F4772334F50C94E343A7
:1055C0006330710599F16430710511F00C94E34377
:1055D00038C06A35710509F4BBC46B35710554F4E4
:1055E0006D31710509F417C26E31710511F00C941B
:1055F000E343FAC36B35710509F4AEC46C3571052C
:1056000011F00C94E343ADC480916408882331F415
:105610000E94EE290E94E91F0C940A4480916408BC
:10562000882321F40E946F2A81E007C080916408DA
:10563000882339F40E946F2A80E00E94AB1B0C94EF
:105640000A448FE495E00E944AC580E50E945627EF
:10565000882321F4EE24FF24870106C00E946429D8
:105660000E9457D47B018C0183E50E945627882332
:1056700061F00E94642920E030E04AE754E40E948F
:10568000C3D60E9457D47B018C010E9417760E94DA
:10569000E0135B016C01AE0CBF1CC01ED11E0E944A
:1056A000E01360936F087093700880937108909373
:1056B000720806C00E9428830E94331B0E9424C6E1
:1056C0000E94E0136A157B058C059D0598F30C94E8
:1056D000E34383E893E00E94B1D020E030E00F2E56
:1056E000F0E0EF2EF0E0FF2EF0E00F2FF0E01F2FA4
:1056F000F02D0EC0E082F1820283138301967C9626
:1057000087309105B9F72F5F3F4F2730310551F0B2
:10571000F901EE0FFF1FEE0FFF1FE856F84F80E074
:1057200090E0E8CF80917F0390918003A091810366
:10573000B091820380939E0890939F08A093A00845
:10574000B093A1088091590390915A0390935907FF
:105750008093580784E690E090935A03809359030E
:105760000E94E01360936F08709370088093710833
:105770009093720881E00E94F77480915A0790918B
:105780005B07A0915C07B0915D07809383089093BD
:105790008408A0938508B093860880915E07909155
:1057A0005F07A0916007B09161078093870890938D
:1057B0008808A0938908B0938A0880916207909125
:1057C0006307A0916407B091650780938B0890935D
:1057D0008C08A0938D08B0938E08809166079091F5
:1057E0006707A0916807B091690780938F0890932D
:1057F0009008A0939108B0939208E0927F03F092F2
:1058000080030093810310938203E0925A07F09281
:105810005B0700935C0710935D07E0925E07F092D0
:105820005F070093600710936107E0926207F092B0
:105830006307009364071093650760E070E080E001
:1058400090E09B01AC017B018C01F6E6CF2EF7E0E6
:10585000DF2E0E94E26380E090E6A6E4B4E4809349
:10586000830890938408A0938508B093860880935A
:10587000870890938808A0938908B0938A0880933A
:105880008B0890938C08A0938D08B0938E0860913C
:10589000490370914A0380914B0390914C032DE290
:1058A00032EB4DED5FE30E94C3D660937F037093AC
:1058B000800380938103909382030F920F920DB720
:1058C0001EB70F5F1F4F20E030E040E752E40E9418
:1058D000EAD34B015C0189E897E0D8018D939C9352
:1058E00060E070E686E494E49B01AC017B018C01EE
:1058F000EFE8CE2EE8E0DE2E0E943A690F900F907E
:105900000E9417760E94F074809183089091840819
:10591000A0918508B091860880935A0790935B0701
:10592000A0935C07B0935D078091870890918808E9
:10593000A0918908B0918A0880935E0790935F07D1
:10594000A0936007B093610780918B0890918C08B9
:10595000A0918D08B0918E088093620790936307A1
:10596000A0936407B093650780E090E00E94DA237B
:1059700081E090E00E94DA2382E090E00E94DA2346
:105980008AE597E00E94681C60918C0770918D07F2
:1059900080918E0790918F07209190073091910709
:1059A0004091920750919307E0909407F0909507EB
:1059B0000091960710919707B6E6CB2EB7E0DB2E45
:1059C0000E94E26380E00E94F77480919E089091AB
:1059D0009F08A091A008B091A10880937F039093A5
:1059E0008003A0938103B093820380915807909124
:1059F000590790935A03809359030E94E0136093D0
:105A00006F087093700880937108909372080E94D9
:105A1000F0740C94E3430E94177683E893E00E94AD
:105A2000B1D020E030E040E050E060E070E00EC037
:105A3000408351836283738301967C9687309105FE
:105A4000B9F72F5F3F4F2730310551F0F901EE0FC5
:105A5000FF1FEE0FFF1FE856F84F80E090E0E8CF01
:105A60000E94B02280917F0390918003A0918103D6
:105A7000B091820380939E0890939F08A093A00802
:105A8000B093A1088091590390915A0390935907BC
:105A90008093580784E690E090935A0380935903CB
:105AA0000E94E01360936F087093700880937108F0
:105AB000909372088091510390915203A0915303E7
:105AC000B091540380937F0390938003A09381034C
:105AD000B09382038AE50E945627882359F426E66C
