:100000000C9452100C9487190C94B8190C94E9199B
:100010000C941A1A0C944B1A0C947C1A0C94AD1A6A
:100020000C94DE1A0C947F100C947F100C947F10AB
:100030000C947F100C94EEA60C947F100C947F10FF
:100040000C947F100C94347A0C947F100C947F10D5
:100050000C947F100C947F100C943E830C947616B5
:100060000C947F100C9428510C947F100C947F10EA
:100070000C947F100C947F100C947F100C947F10C4
:100080000C947F100C947F100C947F100C947F10B4
:100090000C947F100C947F100C947F100C947F10A4
:1000A0000C947F100C947F100C947F100C947F1094
:1000B0000C947F100C947F100C947F100C947F1084
:1000C0000C947F100C947F100C947F100C947F1074
:1000D0000C947F100C947F100C947F100C947F1064
:1000E0000C947F10084AD73B3BCE016E84BCBFFD09
:1000F000C12F3D6C74319ABD56833DDA3D00C77FF8
:1001000011BED9E4BB4C3E916BAAAABE0000008090
:100110003F05A84CCDB2D44EB93836A9020C50B91F
:10012000918688083CA6AAAA2ABE000000803F004B
:10013000002100240027002A002D00300033000198
:10014000010000040107010A010000220025002827
:10015000002B002E003100340002010000050108D0
:10016000010B01000020002300260029002C002F95
:100170000032000001000003010601090105050528
:1001800005070508080808020202020A0A0808040E
:10019000040404010101010101010103030303033C
:1001A000030303040707070C0C0C0C0C0C0C0C02CB
:1001B00002020206060606060606060B0B0B0B0BD2
:1001C0000B0B0B01021020200808102040102040CB
:1001D000800201020108040201010204081020400B
:1001E0008080402010080402018004020180402029
:1001F0001008040201080402010102040810204052
:100200008001020408102040800000090A02080B47
:100210000C0D0706030401000000000000000000B0
:1002200000000000000000000000000000000000CE
:10023000000000000011100F00000000000000008E
:100240000000000000000000000000000000000DA1
:100250000A342E204E6F7A7A6C652026204265641F
:100260002073657420746F203130302064677265AC
:10027000650D0A000D0A332E2046616E204F6E0D6B
:100280000A004842204572726F720D0A00484220EF
:100290004F6B0D0A004E6F7A7A6C65204572726F53
:1002A000720D0A000D0A4E6F7A7A6C65204F6B0D45
:1002B0000A0020423A004E3A000D0A322E205468BD
:1002C00065726D6973746F720D0A0058204F4B0D83
:1002D0000A0058204572726F720D0A005A204F4B67
:1002E0000D0A005A204572726F720D0A0059204F94
:1002F0004B0D0A0059204572726F720D0A00312EA3
:10030000204C696D6974207377697463680D0A0005
:100310000D0A426F61726420546573740D0A0065A2
:1003200063686F3A004572726F723A0053544F50CF
:100330005045442E20005072696E746572207374AB
:100340006F707065642064756520746F20657272CB
:100350006F72732E2046697820746865206572720A
:100360006F7220616E6420757365204D39393920B4
:10037000746F20726573746172742E202854656DD9
:10038000706572617475726520697320726573653A
:10039000742E205365742069742061667465722020
:1003A00072657374617274696E6729004B494C4CB5
:1003B00045442E20005072696E7465722068616C2D
:1003C0007465642E206B696C6C28292063616C6CE9
:1003D000656421006F6B00526573656E643A20009E
:1003E0002200556E6B6E6F776E20636F6D6D616E60
:1003F000643A202200435245415441424C45204436
:1004000033205245414459005072696E74696E67D9
:100410002E2E2E2020202020202020200020423A96
:100420000020453A00543A0048656174696E6720BF
:100430002E2E2E2020202020202020200048656104
:1004400074696E6720646F6E652E0048656174691B
:100450006E672063616E636C65642E0020573A00FE
:1004600020453A00543A0048656174696E672E2E43
:100470002E202020202020202020200043524541F3
:100480005441424C45204433205245414459004395
:100490005245415441424C45204433205245414449
:1004A000590048656174696E672E2E2E2020202029
:1004B0002020202020200048656174696E67206438
:1004C0006F6E652E0048656174696E672063616EAA
:1004D000636C65642E0020573A0020453A00543A78
:1004E0000048656174696E672E2E2E202020202022
:1004F000202020202000435245415441424C4520B9
:100500004433205245414459007A5F6D61783A2066
:10051000007A5F6D696E3A2000795F6D61783A20EC
:1005200000785F6D61783A2000205A3A0020593AED
:100530000020436F756E7420583A200020453A0021
:10054000205A3A0020593A00583A004649524D572D
:100550004152455F4E414D453A4D61726C696E2086
:1005600056313B20537072696E7465722F677262E8
:100570006C206D617368757020666F722067656EA0
:1005800036204649524D574152455F55524C3A68C4
:100590007474703A2F2F637265617461626C656C5C
:1005A0006162732E636F6D2050524F544F434F4C16
:1005B0005F56455253494F4E3A312E30204D4143FC
:1005C00048494E455F545950453A4352454154417C
:1005D000424C452044332045585452554445525FBF
:1005E000434F554E543A3120555549443A303030F6
:1005F00030303030302D303030302D303030302D04
:10060000303030302D3030303030303030303030ED
:10061000300A00435245415441424C452044332066
:100620004F66662E00435245415441424C4520449A
:1006300033205245414459005072696E74696E67A7
:100640002E2E2E2020202020202020200020423A64
:100650000020453A00543A0048656174696E67208D
:100660002E2E2E20202020202020202000486561D2
:1006700074696E6720646F6E652E004865617469E9
:100680006E672063616E636C65642E0020573A00CC
:1006900020453A00543A0048656174696E672E2E11
:1006A0002E20202020202020202020002042403A00
:1006B0000020403A00202F003A00205400202F0054
:1006C00020423A00202F006F6B20543A0025692009
:1006D0006D696E2C2025692073656300456E64206A
:1006E00066696C65206C69737400426567696E2089
:1006F00066696C65206C697374004E6F206D6F764F
:10070000652E00526573756D696E67207072696E33
:1007100074005761697420666F7220757365722E5C
:100720002E2E00435245415441424C452044332033
:10073000524541445900536C6565702E2E2E0001C0
:100740000101000087430000874300006843000068
:10075000A0400000A0400000A040000000000000F9
:10076000000000006843000007C3000007C300004A
:1007700000000000074300000743000068432569AC
:1007800020686F757273202569206D696E757465B8
:100790007300446F6E65207072696E74696E6720B5
:1007A00066696C650053544F505045442E200050EC
:1007B00072696E7465722073746F70706564206402
:1007C000756520746F206572726F72732E20466992
:1007D0007820746865206572726F7220616E642083
:1007E000757365204D39393920746F2072657374C3
:1007F0006172742E202854656D7065726174757213
:10080000652069732072657365742E2053657420AA
:1008100069742061667465722072657374617274A4
:10082000696E6729006F6B004E6F204C696E652002
:100830004E756D62657220776974682063686563C0
:100840006B73756D2C204C617374204C696E653A26
:1008500020004E6F20436865636B73756D20776968
:100860007468206C696E65206E756D6265722C20EF
:100870004C617374204C696E653A2000636865634F
:100880006B73756D206D69736D617463682C204C9A
:10089000617374204C696E653A20004C696E652066
:1008A0004E756D626572206973206E6F74204C61A5
:1008B0007374204C696E65204E756D6265722B31C4
:1008C0002C204C617374204C696E653A20004D31C8
:1008D000313000446F6E6520736176696E67206603
:1008E000696C652E006F6B004D3239002020506C12
:1008F000616E6E6572427566666572427974657383
:100900003A20002046726565204D656D6F72793A18
:100910002000417567203130203230313600436F7E
:100920006D70696C65643A200056657273696F6E0C
:1009300020312E302E3900207C20417574686F7272
:100940003A20004175672031302032303136203175
:10095000353A30323A313300204C6173742055708F
:1009600064617465643A2000312E302E30004D6190
:10097000726C696E0020536F6674776172652052E5
:100980006573657400205761746368646F672052F3
:1009900065736574002042726F776E206F757420E6
:1009A0005265736574002045787465726E616C20C1
:1009B000526573657400506F77657255700073747B
:1009C000617274002200656E717565696E67202220
:1009D000002200656E717565696E672022007C3C9F
:1009E0003E5E2B3D3F2F5B5D3B2C2A225C00453158
:1009F0003A200045303A20005A3A2000593A200067
:100A0000583A20004D53312C4D53322050696E73AB
:100A10000A0024F404D9201BC40C5C0E9804C409F9
:100A20005F0265077101F405F900FB04B300480497
:100A30008700C10369005803550003034500BE0247
:100A40003A008402310053022A00290225000402E0
:100A50002000E4011C00C8011900AF011700980133
:100A60001400840113007101100061011000510194
:100A70000E0043010D0036010B002B010B0020017D
:100A80000B00150109000C01090003010800FB001F
:100A90000800F3000800EB000700E4000600DE0099
:100AA0000600D8000600D2000600CC000500C700F2
:100AB0000500C2000500BD000400B9000400B50037
:100AC0000400B1000400AD000400A9000400A5006A
:100AD0000300A20003009F0004009B000300980095
:100AE00003009500020093000300900003008D00B6
:100AF00002008B00030088000200860002008400D0
:100B00000300810002007F0002007D0002007B00E4
:100B100002007900020077000100760002007400F4
:100B2000020072000100710002006F0002006D00FF
:100B300001006C0002006A00010069000200670009
:100B4000010066000100650001006400020062000F
:100B5000010061000100600001005F0002005D0013
:100B600001005C0001005B0001005A000100590017
:100B70000100580001005700010056000100550017
:100B80000100540001005300000053000100520016
:100B9000010051000100500001004F0001004E0013
:100BA00000004E0001004D0001004C0001004B0010
:100BB00000004B0001004A0001004900010048000C
:100BC0000000480001004700010046000000460008
:100BD0000100450000004500010044000100430001
:100BE00000004300010042000000420001004100FB
:100BF000000041000100400001003F0000003F00F4
:100C000001003E0000003E0001003D0000003D00EC
:100C100001003C0000003C0000003C0001003B00E3
:100C200000003B0001003A0000003A0001003900DA
:100C300000003900010038000000380000003800D2
:100C400001003700000037000100360000003600C8
:100C500000003600010035000000350000003500BE
:100C600001003400000034000000340001003300B3
:100C700000003300000033000100320000003200A9
:100C8000000032000100310000003100000031009E
:100C900001003000000030000000300001002F0093
:100CA00000002F0000002F0000002F0001002E0088
:100CB00000002E0000002E0001002D0000002D007D
:100CC00000002D0000002D0001002C0000002C0071
:100CD00000002C0000002C0001002B0000002B0065
:100CE00000002B0000002B0001002A0000002A0059
:100CF00000002A0000002A0001002900000029004D
:100D0000000029000000290000002900010028003F
:100D10000000280000002800000028000000280033
:100D20000100270000002700000027000000270026
:100D30000000270001002600000026000000260019
:100D4000000026000000260001002500000025000C
:100D500000002500000025000000250000002500FF
:100D600001002400000024000000240000002400F2
:100D700000002400010023000000230000002300E5
:100D800000002300000023000000230000002300D7
:100D900001002200000022000000220000002200CA
:100DA00000002200000022000100210000002100BC
:100DB00000002100000021000000210000002100AF
:100DC00000002100010020000000200000002000A1
:100DD0000000200000002000000020000000200093
:100DE0000000200001001F0000001F0000001F0085
:100DF00000001F0000001F0000001F0000001F0077
:100E000001001E0000001E0000001E0000001E0069
:100E1000000024F4D43050C38E20C2A24017828B2D
:100E20007011127A910D816CD90AA861E108C75836
:100E30006607615143061E4B5D05C145A7041A4173
:100E40001104093D9803713931034036DB026533E3
:100E50009102D4305402802E1D02632CEE01752ABB
:100E6000C501B028A001102781018F2564012B2422
:100E70004B01E0223401AC211F018D200D01801FA8
:100E8000FC00841EED00971DDF00B81CD200E61B9D
:100E9000C600201BBC00641AB200B219A8000A19CF
:100EA000A0006A189900D117910040178B00B51661
:100EB000840031167E00B31579003A157300C7140B
:100EC0006F0058146A00EE13660088136300251340
:100ED0005E00C7125B006C12570015125400C1115E
:100EE000510070114F0021114B00D61049008D1098
:100EF00047004610440002104200C00F4000800F1F
:100F00003E00420F3C00060F3B00CB0E3800930E14
:100F100037005C0E3500270E3400F30D3200C10D92
:100F20003100900D3000600D2E00320D2D00050DAA
:100F30002C00D90C2B00AE0C2900850C29005C0C70
:100F40002700350C27000E0C2600E80B2400C40BEC
:100F50002400A00B23007D0B23005A0B2100390B2A
:100F60002100180B2000F80A1F00D90A1E00BB0A36
:100F70001E009D0A1D00800A1D00630A1C00470A0E
:100F80001B002C0A1B00110A1A00F7091A00DD09C0
:100F90001900C4091900AB091900920917007B094F
:100FA0001800630917004C091600360916002009BD
:100FB00016000A091500F5081500E0081400CC0811
:100FC0001400B8081400A4081400900813007D0849
:100FD00012006B081300580812004608120034086B
:100FE0001100230811001208110001081100F00778
:100FF0001000E0071000D0071000C0071000B00775
:101000000F00A107100091070E0083070F0074075F
:101010000F0065070E0057070E0049070E003B073B
:101020000D002E070E0020070D0013070D00060708
:101030000D00F9060C00ED060D00E0060C00D406CC
:101040000C00C8060C00BC060C00B0060C00A40680
:101050000B0099060C008D060B0082060B0077062C
:101060000B006C060B0061060A0057060B004C06CD
:101070000A0042060A0038060A002E060A00240664
:101080000A001A060A001006090007060A00FD05F4
:101090000900F4050900EB050900E2050900D9057E
:1010A0000900D0050900C7050900BE050900B505FE
:1010B0000800AD050800A50509009C050800940579
:1010C00008008C050800840508007C0508007405EC
:1010D00008006C050700650508005D05070056055A
:1010E00008004E05070047050700400508003805C1
:1010F0000700310507002A050700230507001C0526
:101100000600160507000F05070008050600020582
:101110000700FB040600F5040700EE040600E804DF
:101120000600E2040700DB040600D5040600CF0435
:101130000600C9040600C3040600BD040600B70487
:101140000600B1040500AC040600A6040600A004D5
:1011500005009B04060095040500900406008A041F
:10116000050085040500800406007A040500750466
:101170000500700405006B040500660405006104A9
:1011800005005C04050057040500520405004D04E9
:10119000050048040500430405003E0404003A0429
:1011A000050035040500300404002C040500270464
:1011B0000400230405001E0404001A04040016049D
:1011C0000500110404000D040400090405000404D2
:1011D000040000040400FC030400F8030400F4030A
:1011E0000400F0030400EC030400E8030400E4033B
:1011F0000400E0030400DC030400D8030400D4036B
:101200000400D0030400CC030400C8030300C5039A
:1012100003006563686F3A00205A3A0020593A008B
:1012200020583A00656E6473746F70732068697437
:101230003A20004572726F723A004572723A204D40
:10124000415854454D50204245440054656D7065E9
:101250007261747572652068656174656420626589
:1012600064207377697463686564206F66662E20F6
:101270004D415854454D50207472696767657265D9
:1012800064202121004572723A204D494E54454D4B
:1012900050003A20457874727564657220737769DE
:1012A0007463686564206F66662E204D494E544510
:1012B0004D5020747269676765726564202100452E
:1012C00072723A204D415854454D50003A204578AD
:1012D00074727564657220737769746368656420DD
:1012E0006F66662E204D415854454D5020747269EA
:1012F000676765726564202100202D20496E766144
:101300006C6964206578747275646572206E756DA1
:1013100062657220210010003003B0008701500187
:101320004701F00126019002100130030001D003B3
:10133000F3007004E9001005E000B005D800500685
:10134000D200F006CC009007C6003008C200D008DA
:10135000BD007009B900100AB500B00AB200500B08
:10136000AE00F00BAB00900CA800300DA500D00D26
:10137000A200700EA000100F9D00B00F9B00501037
:101380009800F01096009011940030129200D01244
:10139000900070138E0010148C00B0148A00501549
:1013A0008800F01587009016850030178300D0174D
:1013B00081007018800010197E00B0197D00501A4D
:1013C0007B00F01A7A00901B7800301C7700D01C4C
:1013D0007500701D7400101E7200B01E7100501F49
:1013E0006F00F01F6E0090206C0030216B00D02148
:1013F0006A007022680010236700B0236600502442
:101400006400F02463009025620030266000D0263E
:101410005F0070275D0010285C00B0285B00502939
:101420005900F0295800902A5700302B5500D02B36
:101430005400702C5200102D5100B02D5000502E31
:101440004E00F02E4D00902F4B0030304A00D0302F
:1014500048007031460010324500B032430050332E
:101460004100F033400090343E0030353C00D03530
:101470003A007036380010373600B0373400503834
:101480003200F0382F0090392D00303A2A00D03A3F
:101490002700703B2400103C2000B03C1C00503D55
:1014A0001700F03D1100903E0A00303F9CFF50496C
:1014B00044204175746F74756E652066696E69733A
:1014C000686564212050757420746865204B702C09
:1014D000204B6920616E64204B6420636F6E7374CF
:1014E000616E747320696E746F20436F6E666967F6
:1014F00075726174696F6E2E6800504944204175A1
:10150000746F74756E65206661696C656421207402
:10151000696D656F75740020403A006F6B20543A16
:10152000006F6B20423A00504944204175746F743B
:10153000756E65206661696C6564212054656D7007
:101540006572617475726520746F6F206869676871
:1015500000204B643A2000204B693A2000204B7059
:101560003A200020436C6173696320504944200095
:101570002054753A2000204B753A2000206D617888
:101580003A2000206D696E3A200020643A20002045
:10159000626961733A200010006003B0009401504A
:1015A000015101F0012E019002170130030401D016
:1015B00003F0007004E1001005DC00B005D200501B
:1015C00006C800F006C3009007BE003008BA00D07D
:1015D00008B7007009B500100AB300B00AB1005096
:1015E0000BAF00F00BAD00900CAB00300DA800D09D
:1015F0000DA600700EA300100FA000B00F9E0050AB
:10160000109B00F01099009011970030129500D0B7
:101610001293007013910010148F00B0148D0050BD
:10162000158B00F01589009016870030178500D0C3
:101630001784007018820010198000B0197F0050C4
:101640001A7D00F01A7C00901B7A00301C7800D0C4
:101650001C7700701D7500101E7400B01E730050C2
:101660001F7100F01F700090206E0030216D00D0BF
:10167000216B0070226A0010236900B023670050BC
:10168000246600F02464009025630030266200D0B8
:1016900026600070275F0010285D00B0285C0050B5
:1016A000295B00F0295900902A5800302B5600D0B1
:1016B0002B5500702C5400102D5200B02D510050AD
:1016C0002E4F00F02E4E00902F4C0030304A00D0AC
:1016D0003049007031470010324600B032440050AB
:1016E000334200F033400090343F0030353D00D0AD
:1016F000353B007036390010373700B037340050B2
:10170000383200F038300090392D00303A2A00D0BD
:101710003A2700703B2400103C2000B03C1C0050D5
:101720003D1700F03D1100903E0A00303F9CFF4DF8
:10173000383420582059205A2045006563686F3A94
:101740000043616E6E6F7420656E746572207375F0
:10175000626469723A20004D3234004D32332025E4
:1017600073006175746F25692E67004572726F7220
:101770003A006572726F722077726974696E6720C1
:10178000746F2066696C65004E6F7420534420703E
:1017900072696E74696E67002F005344207072691D
:1017A0006E74696E67206279746520002E0044654E
:1017B0006C6574696F6E206661696C65642C204687
:1017C000696C653A200046696C652064656C6574D7
:1017D00065643A002E006F70656E206661696C6505
:1017E000642C2046696C653A200057726974696EF2
:1017F0006720746F2066696C653A20002E006F7058
:10180000656E206661696C65642C2046696C653A7A
:1018100020002E006F70656E206661696C65642C17
:101820002046696C653A200046696C652073656CDA
:101830006563746564002053697A653A20004669DF
:101840006C65206F70656E65643A20002E006F70C5
:10185000656E206661696C65642C2046696C653A2A
:1018600020004E6F772066726573682066696C652C
:101870003A20004E6F7720646F696E672066696C4E
:10188000653A20002220706F73002220706172651B
:101890006E743A2200535542524F5554494E4520DA
:1018A00043414C4C207461726765743A2200747233
:1018B00079696E6720746F2063616C6C2073756248
:1018C0002D67636F64652066696C65732077697442
:1018D0006820746F6F206D616E79206C6576656C21
:1018E000732E204D4158206C6576656C2069733AE3
:1018F0000053442063617264206F6B006F70656EEB
:10190000526F6F74206661696C656400766F6C75E8
:101910006D652E696E6974206661696C656400533B
:101920004420696E6974206661696C006563686F44
:101930003A0048617264636F64656420446566615F
:10194000756C742053657474696E6773204C6F6195
:101950006465640053746F726564207365747469A0
:101960006E677320726574726965766564002044E1
:10197000002049002020204D3330312050005049B4
:10198000442073657474696E67733A00205A0020AE
:10199000590020204D363636205800456E64737449
:1019A0006F702061646A757374656D656E7420284C
:1019B0006D6D293A00205A0020590020204D323008
:1019C00036205800486F6D65206F66667365742019
:1019D000286D6D293A00204500205A00205800202B
:1019E000420020540020204D323035205300416405
:1019F00076616E636564207661726961626C65739D
:101A00003A20533D4D696E20666565647261746568
:101A100020286D6D2F73292C20543D4D696E207444
:101A2000726176656C2066656564726174652028F4
:101A30006D6D2F73292C20423D6D696E696D756D3A
:101A4000207365676D656E742074696D6520286DFF
:101A500073292C20583D6D6178696D756D2058593A
:101A6000206A65726B20286D6D2F73292C20205AF7
:101A70003D6D6178696D756D205A206A65726B20C5
:101A8000286D6D2F73292C2020453D6D6178696D7F
:101A9000756D2045206A65726B20286D6D2F732946
:101AA0000020540020204D32303420530041636325
:101AB000656C65726174696F6E3A20533D61636352
:101AC000656C65726174696F6E2C20543D7265742B
:101AD0007261637420616363656C65726174696FC0
:101AE0006E00204500205A0020590020204D323041
:101AF000312058004D6178696D756D2041636365D3
:101B00006C65726174696F6E20286D6D2F73322958
:101B10003A00204500205A0020590020204D323044
:101B2000332058004D6178696D756D206665656478
:101B3000726174657320286D6D2F73293A002045FA
:101B400000205A0020590020204D393220580053DF
:101B5000746570732070657220756E69743A0053F5
:101B6000657474696E67732053746F7265640002E4
:101B70002D2D3A2D2D002020200020202000534420
:101B800020000120000120004D3130362053323535
:101B90003500494E464F2F53455454494E47530044
:101BA0005554494C495449455300505245484541C4
:101BB000540046494C414D454E5400434F4F4C4410
:101BC0004F574E004E4F2053442043415244005043
:101BD00052494E542046524F4D20534400414456E2
:101BE000414E4345440043414E43454C20505249E9
:101BF0004E5400524553554D45205052494E5400C5
:101C00005041555345205052494E54004241434B98
:101C100000524553544F52452044454641554C547B
:101C20000052554E54494D4520535441545553008C
:101C30004649524D574152452056455253494F4E01
:101C40000048454154494E47204D494E55544500A2
:101C500048454154494E47204D494E555445004C46
:101C6000454420434F4C4F52004F6666004F6E2054
:101C7000004F6666004F6E200042555A5A4552008A
:101C80004241434B004C4544204252494748544E40
:101C90004553530048454154494E4720434F4C4F0C
:101CA00052005354414E44425920434F4C4F52002E
:101CB0005052494E54494E4720434F4C4F520042D8
:101CC00041434B004C4544204252494748544E45FD
:101CD00053530048454154494E4720424C55450016
:101CE00048454154494E4720475245454E004845D6
:101CF0004154494E4720524544004241434B005312
:101D000054414E44425920424C5545005354414E93
:101D100044425920475245454E005354414E444297
:101D20005920524544005354414E44425920424C9C
:101D30005545005354414E44425920475245454E63
:101D4000005354414E4442592052454400424143BD
:101D50004B005354414E44425920424C5545005388
:101D600054414E44425920475245454E0053544138
:101D70004E44425920524544005052494E5420424C
:101D80004C5545005052494E5420475245454E004F
:101D90005052494E5420524544004241434B00505A
:101DA00052494E5420424C5545005052494E542001
:101DB000475245454E005052494E5420524544002A
:101DC000434C45414E204E4F5A5A4C450054454DC8
:101DD000504552415455524500424544204C4556C9
:101DE000454C494E4700484F4D4520484541440029
:101DF0004241434B0056323800434F4F4C444F57FB
:101E00004E004245442054454D5000424544205424
:101E1000454D50004E4F5A5A4C452054454D5000A8
:101E20004E4F5A5A4C452054454D50004241434B69
:101E30000043414E43454C004F4B0047312046354F
:101E4000303030205A313000473238004731204698
:101E500035303030205A3000473120583020592D4D
:101E6000313130004731204635303030205A300093
:101E7000473120582D39352E33205935350047311B
:101E8000204635303030205A313000473120463539
:101E9000303030205A30004731205839352E332029
:101EA000593535004731204635303030205A3130F1
:101EB00000473238004732380043414E43454C001A
:101EC00053544152540053455454494E47204649B7
:101ED0004C414D454E54004348414E4745204649EC
:101EE0004C414D454E5400455854525544452046AA
:101EF000494C414D454E54004241434B0053454CE3
:101F000045435420435553544F4D0053454C45438E
:101F100054204142530053454C45435420504C41BA
:101F2000004241434B004241434B0053454C454323
:101F30005420262045584954004245442054454DDC
:101F400050004245442054454D50004E4F5A5A4C83
:101F5000452054454D50004E4F5A5A4C452054454B
:101F60004D50004241434B0053454C4543542026BD
:101F70002045584954004241434B0053454C45438A
:101F8000542026204558495400554E4C4F4144207A
:101F900046494C414D454E54004C4F414420464922
:101FA0004C414D454E54004241434B00012000013D
:101FB0002000012000012000012000012000473204
:101FC0003800052E2E004241434B004D3234004D67
:101FD0003233202573004C4544204252494748542F
:101FE0004E455353004245442054454D5000424510
:101FF000442054454D50004E4F5A5A4C45205445AC
:102000004D50004E4F5A5A4C452054454D500042B9
:1020100041434B00473238004D3834205820592076
:102020005A204500434152442052454D4F564544A5
:10203000004341524420494E534552544544004DBB
:102040003130362053323535002073656300206D02
:10205000696E0020686F75720020686F757273007A
:10206000494E46494E4954594E414ECDCCCC3D0A7D
:10207000D7233C17B7D13877CC2B329595E6241F60
:10208000B14F0A000020410000C84200401C462019
:10209000BCBE4CCA1B0E5AAEC59D74002B1CBC5155
:1020A00035D9241C11241FBECFEFD1E2DEBFCDBF36
:1020B00000E00CBF18E0A0E0B2E0EEEDF9ED01E0C9
:1020C0000BBF02C007900D92A634B107D9F71BBE13
:1020D00012E1A6E4B8E001C01D92AC39B107E1F706
:1020E00010E2C2EAD0E204C02297FE010E9494EC02
:1020F000CC39D107C9F70E9472E70C94E2EC0C943A
:102100000000A0E0B0E0E7E8F0E10C94B1ECEC01F5
:102110005B016115710519F0FB0191838083F990D2
:102120008F2D90E00E9498EC892BC9F7FDE2FF16F5
:1021300021F4F990EE24E39405C02BE2F21609F4A1
:10214000F990EE248E0101501040C80160E670E263
:1021500043E050E00E942013892B01F58E010E5FB1
:102160001F4FC80163E670E245E050E00E94201373
:10217000892B19F48E01095F1F4FA114B10419F0C6
:10218000F50111830083E0FC04C070E090E080E87A
:1021900014C070E090E080E86FEF08C1C80168E605
:1021A00070E243E050E00E942013892B69F4A114EF
:1021B000B10429F470E090E080EC6FE7F7C022965C
:1021C000F501D183C083F6CF8824992440E050E004
:1021D00060E070E0EF2DE053EA30A0F5F2E0EF2A86
:1021E0008E2D90E09C0128703070E2FE06C0232BFB
:1021F00079F50894811C911C2BC0232B19F00894AD
:1022000081089108DB01CA0112E0880F991FAA1FFB
:10221000BB1F1A95D1F7480F591F6A1F7B1F440F28
:10222000551F661F771F4E0F511D611D711D4839C7
:1022300029E9520729E9620729E1720748F084E099
:10224000E82A06C0EE3F31F4E3FC39C098E0E92A01
:10225000F990C0CFE53311F0E53189F529912D32A0
:1022600019F4E0E1EE2A05C02B3219F081E090E08C
:1022700003C0299182E090E0E22FE053EA3018F0A9
:10228000C81BD90B1CC020E030E0FCE020383F0721
:102290005CF4C901880F991F880F991F280F391FF7
:1022A000220F331F2E0F311DE991E053EA3068F3FE
:1022B000E4FE03C0309521953F4F820E931ECE2C35
:1022C000DD24E1FE07C0A114B10421F02197F5013E
:1022D000D183C083CB01BA010E94FDE87B018C0150
:1022E000F3E0CF22DD2423E0C216D10421F417FB52
:1022F000109517F9109557016801C801B70120E042
:1023000030E040E050E00E945DE8882309F44AC0D4
:1023100097FE0DC02FE7E22E20E2F22E90948194DA
:1023200091089394C0E2D0E000E010E012C097E979
:10233000E92E90E2F92EF6CFF701259135914591DE
:102340005491C601B5010E943DEB5B016C018C1AF2
:102350009D0A8C169D0684F7D595C7950F5F1F4F74
:102360000630110529F08CEF9FEFE80EF91EF1CF32
:10237000C501D6017C018D018C2D880F8D2D881F04
:102380008F3F51F0C601B50120E030E040E050E061
:102390000E945DE8882331F482E290E090939B12E2
:1023A00080939A127E2D9F2D802F612F272F392FFA
:1023B000482F562FB901CA01CDB7DEB7ECE00C9417
:1023C000CDEC2F923F925F926F927F928F929F926D
:1023D000AF92BF92CF92DF92EF92FF920F931F9333
:1023E000CF93DF938C011B01EA016115710519F090
:1023F000FB0191838083209749F0CE010297839758
:1024000028F020E030E040E050E0F6C0F801A19074
:102410008F018A2D90E00E9498EC892BB9F7FDE29C
:10242000AF1631F4F801A1908F015524539407C0E1
:10243000FBE2AF1619F4F801A1908F015524209703
:1024400019F0C031D105C1F4F0E3AF1679F4F80109
:102450008081883711F0883549F4F801A1800E5F3A
:102460001F4FF2E05F2AC0E1D0E006C0209721F4C0
:1024700080E3A816E9F427C0C830D10531F1C9308E
:10248000D10524F4C230D10531F50CC0CA30D105D4
:1024900089F0C031D105F9F4C12CD12CE12CB8E080
:1024A000FB2E28C0C12CD12CE12CA0E4FA2E22C096
:1024B000CAE0D0E0FCECCF2EFCECDF2EFCECEF2EE3
:1024C000FCE0FF2E17C0C8E0D0E0C12CD12CE12CDD
:1024D000E0E1FE2E0FC09E01442737FD4095542FAA
:1024E00060E070E080E090E80E9455ECC901DA01FC
:1024F0006C017D0120E030E040E050E060E03E0112
:10250000882477FC8094982C70EDB72EBA0CE9E003
:10251000EB1570F48A2D81548A3118F499ECB92E98
:1025200006C08A2D81568A3150F589EAB82EBA0C38
:102530008B2D90E08C179D0714F56F3FE1F0C216CC
:10254000D306E406F506B0F0CA01B901A40193016F
:102550000E940FEC9B01AC012B0D311D411D511D43
:102560002130F0E03F07F0E04F07F0E85F0710F49C
:1025700061E001C06FEFF801A1908F01C5CF211478
:10258000310481F0662331F001501040F1011183D4
:10259000008308C051FE1AC002501040F10111839F
:1025A000008314C067FF12C050FC05C02FEF3FEF3F
:1025B0004FEF5FE704C020E030E040E050E882E207
:1025C00090E090939B1280939A1216C050FE08C020
:1025D00050954095309521953F4F4F4F5F4F0CC020
:1025E00057FF0AC082E290E090939B1280939A1268
:1025F0002FEF3FEF4FEF5FE7B901CA01DF91CF91B6
:102600001F910F91FF90EF90DF90CF90BF90AF9010
:102610009F908F907F906F905F903F902F90089544
:10262000FB01DC0105900D920020E1F70895FC010B
:1026300005900020E9F7809590958E0F9F1F0895D3
:10264000FB01DC014150504088F08D9181341CF039
:102650008B350CF4805E659161341CF06B350CF4A5
:10266000605E861B611171F3990B0895881BFCCF86
:10267000FB01DC014150504048F005900D920020D4
:10268000C9F701C01D9241505040E0F70895FB0189
:1026900055915523A9F0BF01DC014D91451741111A
:1026A000E1F759F4CD010590002049F04D91401516
:1026B0004111C9F3FB014111EFCF81E090E0019797
:1026C0000895FB01DC0104C08D910190801921F473
:1026D00041505040C8F7881B990B0895FB01DC015D
:1026E00002C001900D9241505040D8F70895FB016F
:1026F000DC010D900020E9F7119701900D92002068
:10270000E1F70895FC018191861721F08823D9F71C
:10271000992708953197CF010895FB01DC010190BD
:102720000D920020E1F70895FB01DC01415050407B
:1027300030F08D910190801919F40020B9F7881BB1
:10274000990B0895FB01DC014150504048F0019085
:102750000D920020C9F701C01D9241505040E0F792
:102760000895AEE0B0E0E7EBF3E10C94B9EC0E892C
:102770001F8986E08C831A8309838FEF9FE79E83EE
:102780008D839E01265E3F4FCE010196688D798D27
:10279000A9010E94F9132F813885020F131FF80138
:1027A00010822E96E4E00C94D5ECAEE0B0E0EBEDB8
:1027B000F3E10C94B9EC0E891F898EE08C831A83A7
:1027C00009838FEF9FE79E838D839E01265E3F4F97
:1027D000CE010196688D798DA9010E94F9132F8190
:1027E0003885020F131FF80110822E96E4E00C9436
:1027F000D5ECABE0B0E0EFEFF3E10C94ABEC3C01D7
:102800002B015A01FC0117821682838181FD03C0CE
:102810006FEF7FEFC6C19AE0892E1E010894211C3C
:10282000311CF3012381F20123FD859123FF819166
:102830002F01882309F4B2C1853239F423FD859133
:1028400023FF81912F01853229F490E0B3010E948A
:10285000EC15E7CF982FFF24EE249924FFE1FF1514
:10286000D0F09B3269F09C3228F4903259F09332C8
:1028700091F40EC09D3249F0903369F441E024C0D8
:1028800052E0F52A84E0F82A28C098E0F92A25C009
:10289000E0E1FE2A22C0F7FC29C0892F80538A304C
:1028A00070F4F6FE05C0989C902C1124980E15C06B
:1028B000E89CE02C1124E80EF0E2FF2A0EC09E32C4
:1028C00029F4F6FC6BC140E4F42A07C09C3619F4E5
:1028D00050E8F52A02C0983649F4F20123FD95919B
:1028E00023FF91912F01992309F0B8CF892F8554A7
:1028F000833018F08052833038F444E050E0A40E66
:10290000B51E5FE359830FC0933631F0933779F0EA
:10291000933509F056C020C0F5018081898342E0DB
:1029200050E0A40EB51E610101E010E012C0F501F7
:10293000C080D180F6FC03C06FEF7FEF02C0692D2D
:1029400070E042E050E0A40EB51EC6010E94E11501
:102950008C015FE7F52214C0F501C080D180F6FC40
:1029600003C06FEF7FEF02C0692D70E042E050E0DE
:10297000A40EB51EC6010E94D6158C0150E8F52A9A
:10298000F3FE07C01AC080E290E0B3010E94EC158C
:10299000EA948E2D90E008171907A8F30EC0F601EF
:1029A000F7FC8591F7FE81916F0190E0B3010E94E1
:1029B000EC15E110EA94015010400115110579F76A
:1029C000EAC0943611F0993669F5F7FE08C0F501B2
:1029D000208131814281538184E090E00AC0F50179
:1029E000808191819C01442737FD4095542F82E0DE
:1029F00090E0A80EB91E9FE6F92257FF09C0509536
:102A00004095309521953F4F4F4F5F4FE0E8FE2AAC
:102A1000CA01B901A1012AE030E00E941816D82E9F
:102A2000D21840C0953729F41F2D1F7E2AE030E0D0
:102A30001DC01F2D197F9F3661F0903720F4983507
:102A400009F0ACC00FC0903739F0983709F0A6C034
:102A500004C028E030E00AC0106114FD146020E1D9
:102A600030E004C014FD166020E132E017FF08C01A
:102A7000F501608171818281938144E050E008C05A
:102A8000F50180819181BC0180E090E042E050E05E
:102A9000A40EB51EA1010E941816D82ED2188FE7D9
:102AA000F82EF122F6FE0BC05EEFF522D91438F4B1
:102AB000F4FE07C0F2FC05C08FEEF82202C01D2D07
:102AC00001C0192DF4FE0DC0FE01ED0DF11D808138
:102AD000803319F499EEF92208C01F5FF2FE05C099
:102AE00003C08F2D867809F01F5F0F2DF3FC14C0F3
:102AF000F0FE0FC01E1510F09D2C0BC09D2C9E0CDF
:102B0000911A1E2D06C080E290E0B3010E94EC15E0
:102B10001F5F1E15C0F304C01E1510F4E11A01C09A
:102B2000EE2404FF0FC080E390E0B3010E94EC1597
:102B300002FF1DC001FD03C088E790E00EC088E5DC
:102B400090E00BC0802F867891F001FF02C08BE2ED
:102B500001C080E2F7FC8DE290E0B3010E94EC1529
:102B600006C080E390E0B3010E94EC159A94D9145A
:102B7000C0F3DA94F101ED0DF11D808190E0B30115
:102B80000E94EC15DD20A9F706C080E290E0B301B9
:102B90000E94EC15EA94EE20C1F743CEF301668162
:102BA0007781CB012B96E2E10C94C7ECFC010590F8
:102BB000615070400110D8F7809590958E0F9F1F3F
:102BC0000895FC016150704001900110D8F7809584
:102BD00090958E0F9F1F08950F931F93CF93DF93B0
:102BE0008C01EB018B8181FF1BC082FF0DC02E8108
:102BF0003F818C819D812817390764F4E881F98130
:102C00000193F983E88306C0E885F985802F19953B
:102C1000892B31F48E819F8101969F838E8302C020
:102C20000FEF1FEFC801DF91CF911F910F91089512
:102C3000FA01AA27283051F1203181F1E8946F93ED
:102C40006E7F6E5F7F4F8F4F9F4FAF4FB1E03ED093
:102C5000B4E03CD0670F781F891F9A1FA11D680F31
:102C6000791F8A1F911DA11D6A0F711D811D911D64
:102C7000A11D20D009F468943F912AE0269F1124D9
:102C80003019305D3193DEF6CF010895462F47703D
:102C9000405D4193B3E00FD0C9F7F6CF462F4F7098
:102CA000405D4A3318F0495D31FD4052419302D0F6
:102CB000A9F7EACFB4E0A69597958795779567959C
:102CC000BA95C9F700976105710508959B01AC019C
:102CD0000A2E06945795479537952795BA95C9F7C3
:102CE000620F731F841F951FA01D08951F920F92DE
:102CF0000FB60F9211242F933F938F939F93AF930F
:102D0000BF9380914A0890914B08A0914C08B091D4
:102D10004D0830914E080196A11DB11D232F2D5F46
:102D20002D3720F02D570196A11DB11D20934E087F
:102D300080934A0890934B08A0934C08B0934D0899
:102D40008091460890914708A0914808B0914908A1
:102D50000196A11DB11D8093460890934708A0934A
:102D60004808B0934908BF91AF919F918F913F91CF
:102D70002F910F900FBE0F901F9018958FB7F8945A
:102D800020914A0830914B0840914C0850914D08D1
:102D90008FBFB901CA0108959B01AC017FB7F894B8
:102DA0008091460890914708A0914808B091490841
:102DB00066B5A89B05C06F3F19F00196A11DB11D16
:102DC0007FBFBA2FA92F982F8827860F911DA11D8D
:102DD000B11D62E0880F991FAA1FBB1F6A95D1F72A
:102DE000BC012DC0FFB7F894809146089091470828
:102DF000A0914808B0914908E6B5A89B05C0EF3FEF
:102E000019F00196A11DB11DFFBFBA2FA92F982F50
:102E100088278E0F911DA11DB11DE2E0880F991F1B
:102E2000AA1FBB1FEA95D1F7861B970B885E9340BC
:102E3000C8F2215030404040504068517C4F21152D
:102E400031054105510571F60895019739F0880F54
:102E5000991F880F991F02970197F1F708957894A9
:102E600084B5826084BD84B5816084BD85B582608F
:102E700085BD85B5816085BDEEE6F0E0808181602D
:102E80008083E1E8F0E0108280818260808380812D
:102E900081608083E0E8F0E0808181608083E1EB05
:102EA000F0E0808184608083E0EBF0E080818160ED
:102EB0008083E1E9F0E080818260808380818160AD
:102EC0008083E0E9F0E0808181608083E1EAF0E0E6
:102ED000808182608083808181608083E0EAF0E08D
:102EE000808181608083E1E2F1E080818260808383
:102EF000808181608083E0E2F1E080818160808375
:102F0000EAE7F0E080818460808380818260808352
:102F10008081816080838081806880831092C1007D
:102F200008951F93CF93DF93182FEB0161E00E9468
:102F30007118209709F4CAC0CF3FD10509F4C9C060
:102F4000E12FF0E0E75FFD4F8491893009F466C01E
:102F50008A30B0F48430F1F1853040F4823059F198
:102F6000833070F5813009F0AEC020C0873009F49D
:102F700043C0883008F048C0863009F0A4C034C08F
:102F80008D3009F478C08E3038F48B3009F45AC093
:102F90008C3008F066C04CC0803109F480C08131AB
:102FA00009F487C08F3009F08EC06FC084B5806887
:102FB00084BDC7BD92C084B5806284BDC8BD8DC0CC
:102FC00080918000806880938000D0938900C093B6
:102FD000880083C080918000806280938000D093BD
:102FE0008B00C0938A0079C08091B0008068809384
:102FF000B000C093B30071C08091B0008062809334
:10300000B000C093B40069C0809190008068809344
:103010009000D0939900C09398005FC08091900079
:10302000806280939000D0939B00C0939A0055C01B
:1030300080919000886080939000D0939D00C09311
:103040009C004BC08091A00080688093A00080917C
:10305000A0008F7B8093A000D093A900C093A8000C
:103060003CC08091A00080628093A000D093AB0010
:10307000C093AA0032C08091A00088608093A00015
:10308000D093AD00C093AC0028C08091200180682F
:1030900080932001D0932901C09328011EC0809104
:1030A0002001806280932001D0932B01C0932A01DC
:1030B00014C080912001886080932001D0932D015D
:1030C000C0932C010AC0C038D1051CF4812F60E0E8
:1030D00002C0812F61E00E942419DF91CF911F91DE
:1030E0000895CF93DF93482F50E0CA018D539E4F30
:1030F000FC01349143585E4FFA018491882369F1B1
:1031000090E0880F991FFC01E15DFE4FA591B491FD
:10311000FC01E75BFE4FC591D491662351F42FB7B4
:10312000F8948C91932F909589238C93888189238F
:103130000BC0623061F42FB7F8948C91932F909567
:1031400089238C938881832B88832FBF06C09FB7E8
:10315000F8948C91832B8C939FBFDF91CF9108952E
:10316000893009F449C08A30A0F4843051F18530A7
:1031700040F4823079F1833000F5813009F063C08A
:1031800026C0873079F1883098F5863009F05BC029
:1031900025C08D3009F442C08E3028F48B30B1F157
:1031A0008C30C0F52DC0803109F442C0813109F462
:1031B00045C08F3009F047C037C0809180008F77BD
:1031C00003C0809180008F7D80938000089584B536
:1031D0008F7702C084B58F7D84BD08958091B00043
:1031E0008F7703C08091B0008F7D8093B0000895E9
:1031F000809190008F7707C0809190008F7D03C0F1
:1032000080919000877F8093900008958091A00026
:103210008F7707C08091A0008F7D03C08091A000B0
:10322000877F8093A0000895809120018F7703C04D
:10323000809120018F7D809320010895809120014D
:10324000877F809320010895FF920F931F93F62E9E
:10325000482F50E0CA01875F9D4FFC012491CA01AD
:103260008D539E4FFC01149143585E4FFA01049117
:103270000023C9F0222319F0822F0E94B018E02FFA
:10328000F0E0EE0FFF1FE75BFE4FA591B4919FB7F3
:10329000F894FF2021F48C911095812302C08C9129
:1032A000812B8C939FBF1F910F91FF9008950F93D7
:1032B0001F93482F50E0CA01875F9D4FFC01249166
:1032C000CA018D539E4FFC01049143585E4FFA0191
:1032D0001491112319F420E030E015C0222319F0D5
:1032E000822F0E94B018812F90E0880F991F8D596E
:1032F0009E4FFC01A591B4918C9120E030E0802399
:1033000011F021E030E0C9011F910F9108951F9243
:103310000F920FB60F920BB60F9211242F933F937B
:103320004F935F936F937F938F939F93AF93BF93CD
:10333000EF93FF938091530890915408892B29F0C3
:10334000E0915308F09154081995FF91EF91BF91C6
:10335000AF919F918F917F916F915F914F913F912D
:103360002F910F900BBE0F900FBE0F901F901895CE
:103370001F920F920FB60F920BB60F9211242F933C
:103380003F934F935F936F937F938F939F93AF93ED
:10339000BF93EF93FF938091550890915608892B26
:1033A00029F0E0915508F09156081995FF91EF9199
:1033B000BF91AF919F918F917F916F915F914F914D
:1033C0003F912F910F900BBE0F900FBE0F901F904B
:1033D00018951F920F920FB60F920BB60F921124F1
:1033E0002F933F934F935F936F937F938F939F930D
:1033F000AF93BF93EF93FF93809157089091580834
:10340000892B29F0E0915708F09158081995FF9100
:10341000EF91BF91AF919F918F917F916F915F914C
:103420004F913F912F910F900BBE0F900FBE0F90B9
:103430001F9018951F920F920FB60F920BB60F9216
:1034400011242F933F934F935F936F937F938F93A9
:103450009F93AF93BF93EF93FF93809159089091FF
:103460005A08892B29F0E0915908F0915A081995CA
:10347000FF91EF91BF91AF919F918F917F916F914C
:103480005F914F913F912F910F900BBE0F900FBE08
:103490000F901F9018951F920F920FB60F920BB6B8
:1034A0000F9211242F933F934F935F936F937F93CA
:1034B0008F939F93AF93BF93EF93FF9380914F08A8
:1034C00090915008892B29F0E0914F08F091500815
:1034D0001995FF91EF91BF91AF919F918F917F913E
:1034E0006F915F914F913F912F910F900BBE0F9075
:1034F0000FBE0F901F9018951F920F920FB60F924C
:103500000BB60F9211242F933F934F935F936F93BA
:103510007F938F939F93AF93BF93EF93FF9380918C
:10352000510890915208892B29F0E0915108F091AF
:1035300052081995FF91EF91BF91AF919F918F9193
:103540007F916F915F914F913F912F910F900BBEA3
:103550000F900FBE0F901F9018951F920F920FB6ED
:103560000F920BB60F9211242F933F934F935F93BB
:103570006F937F938F939F93AF93BF93EF93FF933B
:1035800080915B0890915C08892B29F0E0915B08A1
:10359000F0915C081995FF91EF91BF91AF919F91C8
:1035A0008F917F916F915F914F913F912F910F90EC
:1035B0000BBE0F900FBE0F901F9018951F920F9289
:1035C0000FB60F920BB60F9211242F933F934F9388
:1035D0005F936F937F938F939F93AF93BF93EF937B
:1035E000FF9380915D0890915E08892B29F0E0910E
:1035F0005D08F0915E081995FF91EF91BF91AF9131
:103600009F918F917F916F915F914F913F912F91FA
:103610000F900BBE0F900FBE0F901F901895CF927A
:10362000DF92EF92FF920F931F93CF93DF937C0172
:103630006B018A01C0E0D0E00FC0D6016D916D0131
:10364000D701ED91FC910190F081E02DC701199512
:10365000C80FD91F015010400115110571F7CE0197
:10366000DF91CF911F910F91FF90EF90DF90CF905E
:103670000895DC01ED91FC910190F081E02D199508
:103680000895CF93DF93EC016115710519F420E0E3
:1036900030E00FC0DB010D900020E9F71197A61B69
:1036A000B70BE881F9810280F381E02DAD01199516
:1036B0009C01C901DF91CF9108950E94411B08959B
:1036C0008091050D9091060D181619069CF48091B5
:1036D0006F0B9091700B019664E070E00E9442ECD9
:1036E0009093000D8093FF0C81E090E09093060D85
:1036F0008093050D0895EF92FF920F931F93CF9340
:10370000DF93EC01E0902E07F0902F070091300737
:1037100010913107688179818A819B81A801970185
:103720000E946BEA181624F4E882F9820A831B834C
:10373000E0903207F090330700913407109135077D
:103740006C817D818E819F81A80197010E946BEA27
:10375000181624F4EC82FD820E831F83E090360756
:10376000F0903707009138071091390768857985FF
:103770008A859B85A80197010E946BEA181624F49C
:10378000E886F9860A871B87DF91CF911F910F91F9
:10379000FF90EF9008958091390B08950F931F9338
:1037A000CF93DF938130910549F46F5F7F4F09F02C
:1037B00046C08FE598E00E94AB9941C0892B09F083
:1037C0003EC06F5F7F4FD9F586EC97E090932A0A51
:1037D0008093290A8091300A882321F08DE29AE0B3
:1037E0000E94A157C5EED9E006EC17E005C06F971F
:1037F00088E0CF3AD80751F0198308838F81882356
:10380000B1F3CE0104960E94A157F1CF86EC97E068
:10381000998388838F81882321F0CE0104960E94AA
:10382000A15786EC97E090938F0880938E08809143
:103830009508882321F082E998E00E94A157DF9142
:10384000CF911F910F91089580E090E06FEF7FEF8F
:103850000E94CE1B089581E090E06FEF7FEF0E9401
:10386000CE1B0895FC01949108C08091C00085FF93
:10387000FCCF9093C600319694919923B1F78CE8D0
:103880009DE022E030E00E94845308951F93CF937F
:10389000DF93182F61E00E947118812F60E00E9471
:1038A00024196AE070E080E090E00E94CC16812F3D
:1038B00060E00E947118812F0E945719C0E0D0E08B
:1038C0001816190614F4C1E0D0E0812F61E00E94BF
:1038D0007118812F61E00E9424196AE070E080E095
:1038E00090E00E94CC16812F60E00E947118812F19
:1038F0000E945719892B09F42196CE01DF91CF91AF
:103900001F9108950E9450828091390B882309F0FD
:103910003AC081E08093390B80913F0B9091400B2E
:10392000A091410BB091420B8093430B9093440BB9
:10393000A093450BB093460BE5E2F3E0949108C0E9
:103940008091C00085FFFCCF9093C6003196949182
:103950009923B1F7E6E3F3E0949108C08091C000A9
:1039600085FFFCCF9093C600319694919923B1F7CF
:103970008091C00085FFFCCF8AE08093C6008CE276
:1039800093E00E94C1E00895F8940E9450829FB78E
:10399000F894809108018160809308019FBF109284
:1039A0001A0B9FB7F89480910B01826080930B01F2
:1039B0009FBF10921B0B899A10921C0B129A8DE2DA
:1039C00060E00E947118E5E2F3E0949108C08091F4
:1039D000C00085FFFCCF9093C60031969491992347
:1039E000B1F7E5EBF3E0949108C08091C00085FF4A
:1039F000FCCF9093C600319694919923B1F78091B2
:103A0000C00085FFFCCF8AE08093C6008CEA93E07B
:103A10000E94D0E0FFCF0E94BE166093470B7093C8
:103A2000480B8093490B90934A0BE0916F0BF091F8
:103A3000700BEF58F44F80818823A9F4E4EDF3E094
:103A4000949108C08091C00085FFFCCF9093C60080
:103A5000319694919923B1F78091C00085FFFCCFF6
:103A60008AE08093C60008950E94BE166093470BBB
:103A70007093480B8093490B90934A0B0895EF92F3
:103A8000FF920F931F930E94BE16E0904B0BF09095
:103A90004C0B00914D0B10914E0B2091470B309128
:103AA000480B4091490B50914A0B621B730B840BDE
:103AB000950BE616F7060807190738F4E114F10428
:103AC0000105110511F00E94C41C80913C079091E2
:103AD0003D07A0913E07B0913F070097A105B105B2
:103AE000C9F10E94BE162091470B3091480B4091BE
:103AF000490B50914A0B621B730B840B950B209161
:103B00003C0730913D0740913E0750913F072617F3
:103B1000370748075907F0F49091431180914411F9
:103B20009817C1F49FB7F894809108018160809341
:103B300008019FBF10921A0B9FB7F89480910B0158
:103B4000826080930B019FBF10921B0B899A109289
:103B50001C0B129A0E94DA6A1F910F91FF90EF904E
:103B600008956F927F928F929F92AF92BF92CF9261
:103B7000DF92EF92FF920F931F93F82E60914F0BFD
:103B80007091500B8091510B9091520B2091530BDF
:103B90003091540B4091550B5091560B0E9478EA8E
:103BA0003B014C0100D000D00DB71EB70F5F1F4F77
:103BB00060911A0770911B07882777FD8095982FD1
:103BC0000E94FFE820914007309141074091420751
:103BD000509143070E943DEB20E030E040E752E483
:103BE0000E9464E820E030E048EC52E40E9464E87F
:103BF0005B016C01F8016082718282829382F4829F
:103C00008091220B858382EF9AE06BE57BE04FE4A5
:103C10005BE020E001E032E0E32E0E9482648091CC
:103C20005B0B90915C0BA0915D0BB0915E0B809350
:103C3000F20A9093F30AA093F40AB093F50A8091E4
:103C40005F0B9091600BA091610BB091620B809320
:103C5000F60A9093F70AA093F80AB093F90A8091B4
:103C6000630B9091640BA091650BB091660B8093F0
:103C7000FA0A9093FB0AA093FC0AB093FD0A809184
:103C8000670B9091680BA091690BB0916A0B8093C0
:103C9000FE0A9093FF0AA093000BB093010B8DB71F
:103CA0009EB706960FB6F8949EBF0FBE8DBF0E94BA
:103CB000BE166093470B7093480B8093490B90930B
:103CC0004A0B1F910F91FF90EF90DF90CF90BF9024
:103CD000AF909F908F907F906F9008958F929F925A
:103CE000AF92BF92CF92DF92EF92FF920F931F930A
:103CF0004C0169E475E588ED92ECF4012081318195
:103D0000428153810E9483E77B018C016DEC7CEC46
:103D100089E792ECF40124813581468157810E9424
:103D200083E75B016C01C801B701A80197010E94FC
:103D30003DEB9B01AC016EE27CE683E897E40E94D8
:103D400083E77B018C01C601B501A60195010E94A4
:103D50003DEB9B01AC01C801B7010E9483E70E94C3
:103D6000AAEBF40120853185428553850E9484E7C2
:103D70006093250B7093260B8093270B9093280B51
:103D800069E475E588ED92E4F40120813181428196
:103D900053810E9483E77B018C016DEC7CEC89E709
:103DA00092ECF40124813581468157810E9483E79A
:103DB0005B016C01C801B701A80197010E943DEBAE
:103DC0009B01AC016EE27CE683E897E40E9483E706
:103DD0007B018C01C601B501A60195010E943DEB56
:103DE0009B01AC01C801B7010E9483E70E94AAEBC6
:103DF000F40120853185428553850E9484E76093D4
:103E0000290B70932A0B80932B0B90932C0B60E063
:103E100070E080E090E0F4012081318142815381A3
:103E20000E9483E77B018C016DEC7CEC89EF92E4CE
:103E3000F40124813581468157810E9483E75B012B
:103E40006C01C801B701A80197010E943DEB9B01DD
:103E5000AC016EE27CE683E897E40E9483E77B0195
:103E60008C01C601B501A60195010E943DEB9B01A5
:103E7000AC01C801B7010E9483E70E94AAEBF401DC
:103E800020853185428553850E9484E760932D0B00
:103E900070932E0B80932F0B9093300B1F910F91EB
:103EA000FF90EF90DF90CF90BF90AF909F908F905A
:103EB0000895CF92DF92EF92FF920F931F93E0E16C
:103EC000F3E007C08091C00085FFFCCF319690934E
:103ED000C60094919923B1F7EEEFF2E007C080910C
:103EE000C00085FFFCCF31969093C6009491992332
:103EF000B1F780E290E00E94461C181619061CF0EB
:103F0000EDEEF2E015C0E4EFF2E007C08091C000F2
:103F100085FFFCCF31969093C60094919923B1F719
:103F20000AC08091C00085FFFCCF31969093C600F7
:103F300094919923B1F784E290E00E94461C1816F0
:103F400019061CF0ECEDF2E015C0E3EEF2E007C05C
:103F50008091C00085FFFCCF31969093C60094916C
:103F60009923B1F70AC08091C00085FFFCCF31963C
:103F70009093C60094919923B1F782E290E00E9459
:103F8000461C181619061CF0EBECF2E015C0E2ED29
:103F9000F2E007C08091C00085FFFCCF319690937E
:103FA000C60094919923B1F713C08091C00085FF9A
:103FB000FCCF31969093C60094919923B1F708C035
:103FC0008091C00085FFFCCF31969093C60002C05F
:103FD000E9EBF2E09491992399F7E6EBF2E0949102
:103FE00008C08091C00085FFFCCF9093C600319639
:103FF00094919923B1F74091AC115091AD1160911A
:10400000AE117091AF118CE89DE021E030E00E948C
:104010008453E2EBF2E0949108C08091C00085FFE8
:10402000FCCF9093C600319694919923B1F74091BB
:10403000B2115091B3116091B4117091B5118CE827
:104040009DE021E030E00E948453E090AC11F090BC
:10405000AD110091AE111091AF11C801B70120E070
:1040600030E04CE852E40E946BEA181604F5C801EF
:10407000B70120E030E048EC52E40E945DE888237C
:10408000B4F4E4EAF2E007C08091C00085FFFCCF01
:1040900031969093C60094919923B1F70DC0809109
:1040A000C00085FFFCCF31969093C60002C0E5E9C1
:1040B000F2E09491992399F7E090B211F090B31146
:1040C0000091B4111091B511C801B70120E030E0A2
:1040D0004CE852E40E946BEA181604F5C801B701D7
:1040E00020E030E048EC52E40E945DE88823B4F41C
:1040F000EDE8F2E007C08091C00085FFFCCF31966B
:104100009093C60094919923B1F716C08091C00096
:1041100085FFFCCF31969093C60002C0E2E8F2E042
:104120009491992399F708C08091C00085FFFCCF36
:1041300031969093C60002C0E4E7F2E0949199238F
:1041400099F78FEF90E09093240B8093230BEFE48B
:10415000F2E007C08091C00085FFFCCF31969093BC
:10416000C60094919923B1F784E690E09093A7114B
:104170008093A6119093A9118093A81180E261E029
:104180000E94711880E260E00E94241984E261E0DC
:104190000E94711884E260E00E94241982E261E0CA
:1041A0000E94711882E260E00E94241981E08093ED
:1041B0003D0B80E090E0A8ECB2E48093FA0A909383
:1041C000FB0AA093FC0AB093FD0A82EF9AE00E94DA
:1041D0006E1E85E29BE069E27BE04DE25BE02EEF44
:1041E0003AE00F2EF0E0EF2EF0E0FF2EF8E40F2F74
:1041F000F3E41F2FF02DE2E2CE2EEBE0DE2E0E9444
:10420000C36D80E090E0A8ECB2EC8093FA0A909342
:10421000FB0AA093FC0AB093FD0A82EF9AE00E9489
:104220006E1E85E29BE069E27BE04DE25BE02EEFF3
:104230003AE00E94C36D6091FE0A7091FF0A80917E
:10424000000B9091010B20E030E040EF52E40E941F
:1042500084E76093FE0A7093FF0A8093000B9093AB
:10426000010B82EF9AE00E946E1E85E29BE069E2FC
:104270007BE04DE25BE02EEF3AE00F2EF0E0EF2E18
:10428000F0E0FF2EFAEF0F2FF3E41F2FF02D0E9426
:10429000C36D6091FE0A7091FF0A8091000B9091AE
:1042A000010B20E030E040EF52E40E9483E760938E
:1042B000FE0A7093FF0A8093000B9093010B82EF2C
:1042C0009AE00E946E1E85E29BE069E27BE04DE28F
:1042D0005BE02EEF3AE00E94C36D1F910F91FF90BB
:1042E000EF90DF90CF9008952F923F924F925F9280
:1042F0006F927F928F929F92AF92BF92CF92DF92F6
:10430000EF92FF920F931F93DF93CF93CDB7DEB75A
:104310006A970FB6F894DEBF0FBECDBFE0902E07B0
:10432000F0902F07009130071091310760915B0BDF
:1043300070915C0B80915D0B90915E0BA8019701D1
:104340000E946BEA181644F4E0925B0BF0925C0B4F
:1043500000935D0B10935E0BE0903207F0903307F3
:10436000009134071091350760915F0B7091600BDD
:104370008091610B9091620BA80197010E946BEAFA
:10438000181644F4E0925F0BF092600B0093610BFF
:104390001093620BE0903607F090370700913807D2
:1043A000109139076091630B7091640B8091650BDC
:1043B0009091660BA80197010E946BEA181644F4CD
:1043C000E092630BF092640B0093650B1093660B05
:1043D0000E94BE166093470B7093480B8093490B65
:1043E00090934A0BEE24FF246E010894C11CD11C4B
:1043F00086010E0D1F1DF701E55AF44FD701AE508F
:10440000B54F60817181828193812D913D914D9154
:104410005C910E9483E7D8016D937D938D939C936B
:104420001397E4E0F0E0EE0EFF1EF0E1EF16F1046A
:10443000F9F689819A81AB81BC818B8B9C8BAD8B8A
:10444000BE8B2D803E804F80588469847A848B8413
:104450009C84BC01CD019B01AC010E943DEB7B0122
:104460008C01C201B101A20191010E943DEB9B01AF
:10447000AC01C801B7010E9484E77B018C01C40133
:10448000B301A40193010E943DEB9B01AC01C80163
:10449000B7010E9484E70E94AAEB7B018C012DEBFF
:1044A00037E346E855E30E945DE8882394F4ED8401
:1044B000FE840F851889C801B70120E030E040E094
:1044C00050E00E946BEA181624F017FB109517F9BC
:1044D0001095C801B7012DEB37E346E855E30E947C
:1044E0005DE887FD43C1C801B70120E030E84BEB30
:1044F00055E40E943DEB20914007309141074091E7
:104500004207509143070E9464E87B018C0160914F
:104510001A0770911B07882777FD8095982F0E94B6
:10452000FFE89B01AC01C801B7010E9464E820E0EC
:1045300030E048EC52E40E943DEB0E94CCE87A8BDC
:10454000698B1616170624F0A1E0B0E0BA8BA98B90
:10455000F1E0AF2EB12C89899A89AA2797FDA09501
:10456000BA2F8F8B988FA98FBA8FBAC0B5018827C1
:1045700077FD8095982F0E94FFE87B018C016F8961
:10458000788D898D9A8D0E94FFE89B01AC01C8014E
:10459000B7010E9464E87B018C016B897C898D895D
:1045A0009E89A80197010E943DEB9B01AC0160919F
:1045B000F20A7091F30A8091F40A9091F50A0E9430
:1045C00084E760935B0B70935C0B80935D0B90931F
:1045D0005E0BC201B101A80197010E943DEB9B0156
:1045E000AC016091F60A7091F70A8091F80A9091F7
:1045F000F90A0E9484E760935F0B7093600B8093CD
:10460000610B9093620BC401B301A80197010E9452
:104610003DEB9B01AC016091FA0A7091FB0A80911D
:10462000FC0A9091FD0A0E9484E76093630B7093EB
:10463000640B8093650B9093660BC801B7012D85C1
:104640003E854F8558890E943DEB9B01AC016091EE
:10465000FE0A7091FF0A8091000B9091010B0E945D
:1046600084E76093670B7093680B8093690B90935A
:104670006A0B8BE59BE00E946E1E60911A07709199
:104680001B07882777FD8095982F0E94FFE82091CF
:1046900040073091410740914207509143070E94E3
:1046A0003DEB20E030E040E752E40E9464E820E087
:1046B00030E048EC52E40E9464E87B018C0185E222
:1046C0009BE069E27BE04DE25BE027E63BE0E2E273
:1046D000CE2EEBE0DE2E0E94C36D0894A11CB11C0F
:1046E000A989BA89AA15BB050CF040CF80915B0B54
:1046F00090915C0BA0915D0BB0915E0B8093F20AE0
:104700009093F30AA093F40AB093F50A80915F0B9B
:104710009091600BA091610BB091620B8093F60AAF
:104720009093F70AA093F80AB093F90A8091630B6B
:104730009091640BA091650BB091660B8093FA0A7F
:104740009093FB0AA093FC0AB093FD0A8091670B3B
:104750009091680BA091690BB0916A0B8093FE0A4F
:104760009093FF0AA093000BB093010B6A960FB6CB
:10477000F894DEBF0FBECDBFCF91DF911F910F9197
:10478000FF90EF90DF90CF90BF90AF909F908F9071
:104790007F906F905F904F903F902F9008958CE89E
:1047A0009DE00E94B351E7EDF3E0949108C0809141
:1047B000C00085FFFCCF9093C60031969491992359
:1047C000B1F740913F0B5091400B6091410B7091BC
:1047D000420B4F5F5F4F6F4F7F4F8CE89DE02AE0A9
:1047E00030E00E9474528091C00085FFFCCF8AE0C7
:1047F0008093C6000E940B1D08952F923F924F9206
:104800005F926F927F928F929F92AF92BF92CF9260
:10481000DF92EF92FF920F931F93DF93CF93CDB769
:10482000DEB728970FB6F894DEBF0FBECDBF9A83D0
:1048300089838330910508F0CDC1FC01E15CF84F1C
:10484000D490880F991F880F991F98878F83A2EFA4
:104850002A2EAAE03A2E280E391E0F2EF0E08F2EB7
:10486000F0E09F2EF0E0AF2EF0E0BF2EF02DD10152
:104870008D929D92AD92BC92139782EF9AE066EF73
:104880007AE04AEF5AE02EEF3AE00E946F69F101B8
:1048900080829182A282B38282EF9AE066EF7AE010
:1048A0004AEF5AE02EEF3AE00E946F69EF81F885F7
:1048B000EE5BF84FE590F590059114916D2D7727FB
:1048C00067FD7095882777FD8095982F0E94FFE8F7
:1048D0002B013C018F819885855A944F9C838B8353
:1048E000C801B70120E030E040EC5FE30E943DEBFF
:1048F000A30192010E943DEBAB81BC816D937D933E
:104900008D939C931397EF81F885E65FF84FFE83B4
:10491000ED83608171818281938160934007709300
:104920004107809342079093430720E030E040E73F
:1049300052E40E9464E87B018C018BE59BE06FE50B
:104940007BE043E65BE027E63BE0F2E2CF2EFBE0D4
:10495000DF2E0E94C36D0E94097A80E00E94EB78EE
:10496000D1018D929D92AD92BC92139782EF9AE005
:1049700066EF7AE04AEF5AE02EEF3AE00E946F6964
:10498000EF81F885E25BF84F85909590A590B49003
:10499000C501B4019058A30192010E943DEBEB8147
:1049A000FC8160837183828393836091400770915F
:1049B0004107809142079091430720E030E040E7B3
:1049C00052E40E9464E87B018C018BE59BE06FE57B
:1049D0007BE043E65BE027E63BE00E94C36D0E947C
:1049E000097A81E00E94EB78C501B401A501940128
:1049F0000E9484E7A30192010E943DEBAB81BC8140
:104A00006D937D938D939C931397ED81FE816081CF
:104A100071818281938120E030E040E85EE30E9472
:104A20003DEB60934007709341078093420790935A
:104A3000430720E030E040E752E40E9464E87B0155
:104A40008C018BE59BE06FE57BE043E65BE027E6CE
:104A50003BE00E94C36D0E94097A0F811885025FB6
:104A6000144FC301B201D8012D913D914D915C913C
:104A70000E943DEB20E030E040E050E00E945DE825
:104A80008823ACF582EF9AE066EF7AE04AEF5AE0CD
:104A90002EEF3AE00E946F69F80180819181A28136
:104AA000B381EB81FC8180839183A283B383609186
:104AB000400770914107809142079091430720E0A1
:104AC00030E040E752E40E9464E87B018C018BE512
:104AD0009BE06FE57BE043E65BE027E63BE0E2E25C
:104AE000CE2EEBE0DE2E0E94C36D0E94097AC980B3
:104AF000DA80CC0CDD1CCC0CDD1CF601E65AF84F3C
:104B00006591759185919491F601EE5FF44F8080E7
:104B10009180A280B380A50194010E9484E77B016B
:104B20008C01F601EE50F54FCB01D80180839183C3
:104B3000A283B383F601EA59F84F65917591859187
:104B40009491B2E26B2EB7E07B2E6C0C7D1CA5011C
:104B500094010E9484E7D3016D937D938D939C9380
:104B60001397F601EE58F84F6591759185919491E0
:104B7000AEE26A2EA7E07A2E6C0C7D1CA501940192
:104B80000E9484E7F30160837183828393838BE5C2
:104B90009BE0C80ED91EC701D801F601808391831E
:104BA000A283B38380E090E0A0E0B0E08093400770
:104BB00090934107A0934207B09343070E94E47883
:104BC00089819A81865E944F9A83898381E0A98145
:104BD000BA818C9328960FB6F894DEBF0FBECDBF76
:104BE000CF91DF911F910F91FF90EF90DF90CF90C9
:104BF000BF90AF909F908F907F906F905F904F90FD
:104C00003F902F900895682F20916F0B3091700B7B
:104C100080E690E0AC01249FC001259F900D349F59
:104C2000900D11248558944F70E00E9482139C01CE
:104C300090937A0B8093790B80E0232B09F081E02D
:104C40000895FC01949108C08091C00085FFFCCFBD
:104C50009093C600319694919923B1F78CE89DE02A
:104C60002AE030E00E94555208958091790B90918E
:104C70007A0B019660E070E04AE050E00E94E1119A
:104C800008958091790B90917A0B019660E070E025
:104C90000E9481100895CF93DF93EC018091220B45
:104CA00080933E0B84E50E940326882309F46FC09D
:104CB0000E9441260E94D1E8262F60933E0B662376
:104CC00009F465C0EFE1F3E0949108C08091C00061
:104CD00085FFFCCF9093C600319694919923B1F74C
:104CE000C936D10599F0CA36D10524F4C836D105A4
:104CF000F1F50FC0CD36D10531F0CA3DD105B9F57A
:104D0000E0E0F2E031C0E7E1F2E023C0EEE2F2E001
:104D100015C0E5E4F2E007C08091C00085FFFCCF3C
:104D200031969093C60090819923B1F720C080916D
:104D3000C00085FFFCCF31969093C60090819923E7
:104D4000B1F715C08091C00085FFFCCF31969093DC
:104D5000C60090819923B1F70AC08091C00085FFF9
:104D6000FCCF31969093C60090819923B1F78CE8DF
:104D70009DE0622F40E050E00E9462528091C000AE
:104D800085FFFCCF8AE08093C60081E001C080E00F
:104D9000DF91CF910895AF92BF92CF92DF92EF92C1
:104DA000FF920F931F93CF93DF9312EFE12E1AE040
:104DB000F12ECBE5DBE000E010E0F801EA57F84F18
:104DC00080810E940326882339F10E9441265B01DD
:104DD0006C01F801E451F54F8081882311F061E006
:104DE00002C060913D0B70E0882777FD8095982F79
:104DF0000E94FFE8F70120813181428153810E94A6
:104E00003DEB9B01AC01C601B5010E9484E76883BC
:104E100079838A839B8309C0F70180819181A28174
:104E2000B38188839983AA83BB830F5F1F4F84E07C
:104E300090E0E80EF91E24960430110509F0BDCF6C
:104E400086E40E9403268823E1F00E9441267B012C
:104E50008C0160936B0B70936C0B80936D0B909334
:104E60006E0B20E030E040E050E00E946BEA181644
:104E700044F4E0924007F0924107009342071093F8
:104E80004307DF91CF911F910F91FF90EF90DF903B
:104E9000CF90BF90AF9008950E94CB2689E40E94E6
:104EA0000326882359F00E94412660934F0B70938C
:104EB000500B8093510B9093520B0CC080E090E00C
:104EC000A0E0B0E080934F0B9093500BA093510B58
:104ED000B093520B8AE40E940326882359F00E9463
:104EE00041266093530B7093540B8093550B909312
:104EF000560B089580E090E0A0E0B0E08093530B63
:104F00009093540BA093550BB093560B08952F928A
:104F10003F924F925F926F927F928F929F92AF9249
:104F2000BF92CF92DF92EF92FF920F931F93DF9386
:104F3000CF93CDB7DEB76E970FB6F894DEBF0FBE36
:104F4000CDBF87E40E940326882309F446C20E944D
:104F500041260E94CCE86430710509F441C06530F7
:104F6000710554F46230710541F1633071056CF5DF
:104F70007723CCF40C9424496A35710509F4D6C121
:104F80006B35710534F46C31710511F00C942449C2
:104F900071C06B35710509F4CDC16C35710511F027
:104FA0000C942449CCC18091390B882331F40E94A0
:104FB000CB260E9474210C943C498091390B8823A4
:104FC00021F40E944C2781E007C08091390B88238F
:104FD00039F40E944C2780E00E94B11D0C943C499A
:104FE00086E397E00E94C1E080E50E9403268823C3
:104FF00021F4EE24FF24870106C00E9441260E946E
:10500000D1E87B018C0183E50E940326882361F0AF
:105010000E94412620E030E04AE754E40E943DEB44
:105020000E94D1E87B018C010E94097A0E94BE1681
:105030005B016C01AE0CBF1CC01ED11E0E94BE16CF
:105040006093470B7093480B8093490B90934A0BE6
:1050500008C00E9486860E943F1D0E949AE10E941D
:1050600068E60E94BE166A157B058C059D0588F3CF
:105070000C9424498091400790914107A0914207E8
:10508000B09143078093750B9093760BA093770BA9
:10509000B093780B80911A0790911B079093F10AB7
:1050A0008093F00A84E690E090931B0780931A07A0
:1050B0000E94BE166093470B7093480B8093490B78
:1050C00090934A0B81E00E94EB788091F20A9091D4
:1050D000F30AA091F40AB091F50A80935B0B9093C8
:1050E0005C0BA0935D0BB0935E0B8091F60A9091E0
:1050F000F70AA091F80AB091F90A80935F0B909398
:10510000600BA093610BB093620B8091FA0A9091AF
:10511000FB0AA091FC0AB091FD0A8093630B909367
:10512000640BA093650BB093660B8091FE0A90917F
:10513000FF0AA091000BB091010B8093670B909335
:10514000680BA093690BB0936A0B80E090E0A0E03D
:10515000B0E08093400790934107A0934207B0933B
:1051600043078093F20A9093F30AA093F40AB09352
:10517000F50A8093F60A9093F70AA093F80AB09381
:10518000F90A8093FA0A9093FB0AA093FC0AB09361
:10519000FD0A82EF9AE066EF7AE04AEF5AE02EEFDE
:1051A0003AE00E946F6980E090E0AEE2B4E4809360
:1051B0005B0B90935C0BA0935D0BB0935E0B8093A5
:1051C0005F0B9093600BA093610BB093620B809385
:1051D000630B9093640BA093650BB093660B609187
:1051E0000A0770910B0780910C0790910D072DE233
:1051F00032EB4DED5FE30E943DEB6093400770930F
:105200004107809342079093430720E030E040E756
:1052100052E40E9464E87B018C018BE59BE06FE522
:105220007BE043E65BE027E63BE0E2E2CE2EEBE00C
:10523000DE2E0E94C36D0E94097A0E94E47880915C
:105240005B0B90915C0BA0915D0BB0915E0B80931A
:10525000F20A9093F30AA093F40AB093F50A8091AE
:105260005F0B9091600BA091610BB091620B8093EA
:10527000F60A9093F70AA093F80AB093F90A80917E
:10528000630B9091640BA091650BB091660B8093BA
:10529000FA0A9093FB0AA093FC0AB093FD0A80E0FF
:1052A00090E00E94FD2381E090E00E94FD2382E0D7
:1052B00090E00E94FD2382EF9AE00E946E1E85E23C
:1052C0009BE069E27BE04DE25BE02EEF3AE00E947A
:1052D0006F6980E00E94EB788091750B9091760B5E
:1052E000A091770BB091780B809340079093410782
:1052F000A0934207B09343078091F00A9091F10A7E
:1053000090931B0780931A070E94BE166093470B69
:105310007093480B8093490B90934A0B0E94E4785A
:1053200083E297E00E94C1E00C94244910923D0B67
:105330000C94244981E080933D0B0C94244985E42E
:105340000E940326882311F40E94097A52EFE52E69
:105350005AE0F52E42E0C42E4BE0D42E00E010E0DF
:10536000F801EA57F84F80810E940326882341F113
:10537000033069F40E944126D7016D937D938D938C
:105380009C9313978EEF9AE00E94516919C00E9476
:105390004126F60120813181428153810E9484E7B8
:1053A000D7016D937D938D939C93139782EF9AE031
:1053B00066EF7AE04AEF5AE02EEF3AE00E946F691A
:1053C0000F5F1F4FE4E0F0E0EE0EFF1ECE0EDF1E7B
:1053D0000430110529F60C9424498DE40E9403261B
:1053E000882311F40C94F5390E9441260E94CCE8E0
:1053F0006D36710509F4EEC56E3671050CF09CC072
:105400006E31710509F4A6C26F3171050CF042C00E
:105410006631710509F404C267317105E4F4613144
:10542000710509F4AFC16231710534F46230710560
:1054300010F00C94244943C16431710509F4BAC1D8
:10544000653171050CF0E6C16231710511F00C9403
:1054500024490C9491336931710509F413C26A31FE
:10546000710554F46731710509F4E0C168317105C3
:1054700011F00C942449F6C16B31710509F427C26F
:105480006B3171050CF404C26C31710511F00C9490
:10549000244923C26335710511F40C948C336435AF
:1054A000710514F56A32710509F4F5C36B327105A3
:1054B00054F46F31710509F43EC36032710511F087
:1054C0000C9424498DC26135710511F40C945E333E
:1054D0006235710514F00C9488336035710511F054
:1054E0000C9424490C9444336836710509F41DC4A6
:1054F000693671058CF46535710511F40C94F83337
:105500006535710514F40C9491336C35710511F007
:105510000C9424490C940F346A36710511F40C94E0
:105520000D336A3671050CF431C46B36710511F018
:105530000C9424490C943E336C3D710511F40C9489
:10554000FC376D3D71050CF054C06C38710509F4E1
:105550000CC46D38710524F56537710511F40C9490
:10556000A8346637710564F46237710511F40C9440
:10557000BF346337710511F00C9424490C949834AE
:105580006837710511F40C94B4356937710511F45D
:105590000C94B9356737710511F00C9424498BC010
:1055A0006B3C710511F40C941D376C3C710584F44F
:1055B000683C710511F40C946D36693C710511F469
:1055C0000C94F9366E3B710511F00C9424490AC70E
:1055D0006D3C710511F40C945E376D3C710514F44B
:1055E0000C943C376E3C710511F00C9424490C94DA
:1055F000BE37F1E0643F7F0711F40C94C93921E014
:10560000653F72074CF531E06D32730711F40C946D
:10561000AB3841E06E32740764F46D3D710511F4EE
:105620000C940D38623E710511F00C9424490C94D1
:105630001E3851E06039750711F40C94C53981E0CA
:10564000643A780711F40C947E386F52714011F06F
:105650000C9424490C948439A2E06A397A0711F435
:105660000C94DD37B2E06B397B079CF4E1E0663FD8
:105670007E0711F40C94D139F1E0663F7F0714F4F2
:105680000C94CD39675F714011F00C9424490C944F
:10569000D53933E0673E730711F40C94D93943E0F0
:1056A000683E740711F40C94F139605A734011F09C
:1056B0000C94244905C2ECE5F2E00C94C53582E176
:1056C00097E00E94C1E080E50E940326882321F430
:1056D000EE24FF24870106C00E9441260E94D1E8E3
:1056E0007B018C0183E50E940326882361F00E94E0
:1056F000412620E030E04AE754E40E943DEB0E945E
:10570000D1E87B018C010E94097A0E94BE16609349
:10571000470B7093480B8093490B90934A0BE1140D
:10572000F1040105110521F10E94BE165B016C0117
:10573000AE0CBF1CC01ED11E0E94BE166A157B0592
:105740008C059D05C8F40E9460A78823A9F40E94D7
:1057500086860E943F1D0E949AE10E9468E6ECCF77
:105760000E9486860E943F1D0E949AE10E9468E680
:105770000E9460A78823A1F383E097E00E94C1E024
:105780000C9424498AEF96E00E94C1E09FB7F894F8
:10579000809108018E7F809308019FBF9FB7F89486
:1057A00080910B018D7F80930B019FBF8998129888
:1057B0000C942449EAEEF6E0949108C08091C00070
:1057C00085FFFCCF9093C600319694919923B1F751
:1057D0008091C00085FFFCCF8AE08093C6008FE5F2
:1057E00098E00E945E99ECEDF6E0949108C08091FB
:1057F000C00085FFFCCF9093C60031969491992309
:10580000B1F78091C00085FFFCCF8AE08093C6008D
:105810000C9424498FE598E00E94BD940C9424498F
:105820008FE598E00E94D98C0C9424498091790BE3
:1058300090917A0B04966AE270E00E948213FC0158
:10584000009711F0319710826091790B70917A0B6B
:105850006C5F7F4F8FE598E041E021E00E94B090BF
:105860000C9424498FE598E00E9437940E94BE165C
:105870006093310B7093320B8093330B9093340B06
:105880000C9424498FE598E00E94DD8C0C94244907
:1058900080916208882311F40C94244983E50E94C6
:1058A0000326882311F40C9424490E943526AB0169
:1058B000BC014093E20A5093E30A8093E40A709398
:1058C000E50A8DE29AE00E9487560C9424498FE500
:1058D00098E00E949B8E0C9424498091790B9091C2
:1058E0007A0B04966AE270E00E9482138C010097A2
:1058F00019F120916F0B3091700B80E690E0DC0184
:105900002A9FC0012B9F900D3A9F900D112485581E
:10591000944F6EE470E00E94821360E270E00E9497
:1059200082139C012F5F3F4F30937A0B2093790BAA
:1059300001501040F80110826091790B70917A0B40
:105940006C5F7F4F8FE598E040E021E00E94B090CF
:105950000C94244980916208882311F40C94244902
:105960008FE598E060E00E940A8E8091790B90911B
:105970007A0B04966AE270E00E9482138C01009711
:1059800019F120916F0B3091700B80E690E0AC0123
:10599000249FC001259F900D349F900D11248558A0
:1059A000944F6EE470E00E94821360E270E00E9407
:1059B00082139C012F5F3F4F30937A0B2093790B1A
:1059C00001501040D8011C926091790B70917A0BB4
:1059D0006C5F7F4F8FE598E00E94F58E0C94244910
:1059E00080916108882311F00E94097AE090790B78
:1059F000F0907A0BE4E0F0E0EE0EFF1EC7016AE2E1
:105A000070E00E9482138C01C70161E270E00E9485
:105A10008213009721F07C010894E11CF11C011510
:105A2000110521F001501040D8011C9280E50E9420
:105A30000326182F8091790B90917A0BE816F906BE
:105A400008F410E080916208882311F40C94244932
:105A500021E021278FE598E0B70141E00E94B09056
:105A600083E50E9403268823B9F08091790B9091F9
:105A70007A0B8E159F0580F40E943526AB01BC0180
:105A80004093E20A5093E30A8093E40A7093E50A94
:105A90008DE29AE00E9487568FE598E00E94379445
:105AA000112311F00C9424490E94BE166093310B0F
:105AB0007093320B8093330B9093340B0C942449E6
:105AC0008091790B90917A0B05966AE270E00E94C2
:105AD00082138C01009719F120916F0B3091700B9C
