:100000000C9474100C94A1100C94A1100C94A110D9
:100010000C94A1100C94A1100C94A1100C94A1109C
:100020000C94A1100C94A1100C94A1100C94A1108C
:100030000C94A1100C94A1100C94A1100C94A1107C
:100040000C94A1100C94ADA10C94A1100C94A110CF
:100050000C94A1100C94A1100C94AFAA0C9421F54F
:100060000C94A1100C9425350C94A1100C94A110A3
:100070000C94A1100C94A1100C94A1100C94A1103C
:100080000C94A1100C94A1100C94A1100C94A1102C
:100090000C94A1100C94A1100C94A1100C948CF34E
:1000A0000C94A1100C94A1100C94A1100C94A1100C
:1000B0000C94A1100C94A1100C94A1100C94A110FC
:1000C0000C94A1100C94A1100C94A1100C94A110EC
:1000D0000C94A1100C94A1100C94A1100C94A110DC
:1000E0000C94A110084AD73B3BCE016E84BCBFFDE7
:1000F000C12F3D6C74319ABD56833DDA3D00C77FF8
:1001000011BED9E4BB4C3E916BAAAABE0000008090
:100110003F05A84CCDB2D44EB93836A9020C50B91F
:10012000918688083CA6AAAA2ABE000000803F4DFE
:10013000383420582059205A2045006563686F3AAA
:100140000043616E6E6F7420656E74657220737506
:10015000626469723A20004D3234004D32332025FA
:1001600073006175746F25692E67004572726F7236
:100170003A006572726F722077726974696E6720D7
:10018000746F2066696C65004E6F74205344207054
:1001900072696E74696E67002F0053442070726933
:1001A0006E74696E67206279746520002E00446564
:1001B0006C6574696F6E206661696C65642C20469D
:1001C000696C653A200046696C652064656C6574ED
:1001D00065643A002E006F70656E206661696C651B
:1001E000642C2046696C653A200057726974696E08
:1001F0006720746F2066696C653A20002E006F706E
:10020000656E206661696C65642C2046696C653A90
:1002100020002E006F70656E206661696C65642C2D
:100220002046696C653A200046696C652073656CF0
:100230006563746564002053697A653A20004669F5
:100240006C65206F70656E65643A20002E006F70DB
:10025000656E206661696C65642C2046696C653A40
:1002600020004E6F772066726573682066696C6542
:100270003A20004E6F7720646F696E672066696C64
:10028000653A20002220706F730022207061726531
:100290006E743A2200535542524F5554494E4520F0
:1002A00043414C4C207461726765743A2200747249
:1002B00079696E6720746F2063616C6C207375625E
:1002C0002D67636F64652066696C65732077697458
:1002D0006820746F6F206D616E79206C6576656C37
:1002E000732E204D4158206C6576656C2069733AF9
:1002F0000053442063617264206F6B006F70656E01
:10030000526F6F74206661696C656400766F6C75FE
:100310006D652E696E6974206661696C6564005351
:100320004420696E6974206661696C006563686F5A
:100330003A0048617264636F646564204465666175
:10034000756C742053657474696E6773204C6F61AB
:100350006465640053746F726564207365747469B6
:100360006E6773207265747269657665640020003B
:100370005D005D5B00206265645F6C6576656C5B4B
:10038000006265645F6C6576656C203A002044000D
:100390002049002020204D33303120500050494466
:1003A0002073657474696E67733A00205A0020598F
:1003B0000020204D363636205800456E6473746F29
:1003C000702061646A757374656D656E7420286D44
:1003D0006D293A00205A0020590020204D32303635
:1003E000205800486F6D65206F666673657420281D
:1003F0006D6D293A00204500205A00205800204207
:100400000020540020204D323035205300416476C6
:10041000616E636564207661726961626C65733ACE
:1004200020533D4D696E2066656564726174652078
:10043000286D6D2F73292C20543D4D696E207472E8
:100440006176656C20666565647261746520286DEF
:100450006D2F73292C20423D6D696E696D756D207D
:100460007365676D656E742074696D6520286D73A2
:10047000292C20583D6D6178696D756D2058592083
:100480006A65726B20286D6D2F73292C20205A3DD0
:100490006D6178696D756D205A206A65726B2028D0
:1004A0006D6D2F73292C2020453D6D6178696D7528
:1004B0006D2045206A65726B20286D6D2F732900B1
:1004C00020540020204D32303420530041636365B6
:1004D0006C65726174696F6E3A20533D6163636548
:1004E0006C65726174696F6E2C20543D7265747214
:1004F00061637420616363656C65726174696F6EBA
:1005000000204500205A0020590020204D32303173
:100510002058004D6178696D756D20416363656C8D
:1005200065726174696F6E20286D6D2F7332293A80
:1005300000204500205A0020590020204D32303341
:100540002058004D6178696D756D2066656564722F
:100550006174657320286D6D2F73293A0020450062
:10056000205A0020590020204D3932205800537461
:100570006570732070657220756E69743A005365FA
:100580007474696E67732053746F726564000D0A2A
:10059000342E204E6F7A7A6C6520262042656420C6
:1005A00073657420746F2031303020646772656524
:1005B0000D0A000D0A332E2046616E204F6E0D0A83
:1005C000004842204572726F720D0A004842204F67
:1005D0006B0D0A004E6F7A7A6C65204572726F72ED
:1005E0000D0A000D0A4E6F7A7A6C65204F6B0D0A6A
:1005F0000020423A004E3A000D0A322E205468651F
:10060000726D6973746F720D0A0058204F4B0D0A9A
:100610000058204572726F720D0A005A204F4B0D20
:100620000A005A204572726F720D0A0059204F4B12
:100630000D0A0059204572726F720D0A00312E208A
:100640004C696D6974207377697463680D0A000DD5
:100650000A426F61726420546573740D0A00656309
:10066000686F3A004572726F723A0053544F50509F
:1006700045442E20005072696E7465722073746F49
:10068000707065642064756520746F206572726F88
:1006900072732E2046697820746865206572726FC7
:1006A0007220616E6420757365204D39393920746C
:1006B0006F20726573746172742E202854656D709A
:1006C00065726174757265206973207265736574F3
:1006D0002E205365742069742061667465722072DF
:1006E000657374617274696E6729004B494C4C459F
:1006F000442E20005072696E7465722068616C74BB
:1007000065642E206B696C6C28292063616C6C65B4
:100710006421006F6B00526573656E643A2000229D
:1007200000556E6B6E6F776E20636F6D6D616E64DA
:100730003A202200435245415441424C4520443323
:10074000205245414459005072696E74696E672E9B
:100750002E2E2020202020202020200020423A0081
:1007600020453A00543A0048656174696E67202E4E
:100770002E2E20202020202020202000486561747B
:10078000696E6720646F6E652E0048656174696EDE
:10079000672063616E636C65642E0020573A002009
:1007A000453A00543A0048656174696E672E2E2EF2
:1007B000202020202020202020200043524541548A
:1007C00041424C4520443320524541445900435254
:1007D00045415441424C45204433205245414459FF
:1007E0000048656174696E672E2E2E20202020201F
:1007F00020202020200048656174696E6720646FA6
:100800006E652E0048656174696E672063616E6372
:100810006C65642E0020573A0020453A00543A0097
:1008200048656174696E672E2E2E202020202020BE
:100830002020202000435245415441424C45204451
:1008400033205245414459007A5F6D61783A200067
:100850007A5F6D696E3A2000795F6D61783A2000A9
:10086000785F6D61783A2000205A3A0020593A00AA
:1008700020436F756E7420583A200020453A0020BE
:100880005A3A0020593A00583A004649524D5741C9
:1008900052455F4E414D453A4D61726C696E20562E
:1008A000313B20537072696E7465722F6772626C8F
:1008B000206D617368757020666F722067656E3693
:1008C000204649524D574152455F55524C3A687443
:1008D00074703A2F2F637265617461626C656C612C
:1008E00062732E636F6D2050524F544F434F4C5FD5
:1008F00056455253494F4E3A312E30204D414348D0
:10090000494E455F545950453A435245415441423E
:100910004C452044332045585452554445525F437A
:100920004F554E543A3120555549443A30303030C5
:10093000303030302D303030302D303030302D30C0
:100940003030302D303030303030303030303030AA
:100950000A00435245415441424C45204433204F04
:1009600066662E00435245415441424C4520443373
:10097000205245414459005072696E74696E672E69
:100980002E2E2020202020202020200020423A004F
:1009900020453A00543A0048656174696E67202E1C
:1009A0002E2E202020202020202020004865617449
:1009B000696E6720646F6E652E0048656174696EAC
:1009C000672063616E636C65642E0020573A0020D7
:1009D000453A00543A0048656174696E672E2E2EC0
:1009E00020202020202020202020002042403A00EB
:1009F00020403A00202F003A00205400202F0020F1
:100A0000423A00202F006F6B20543A002569206D78
:100A1000696E2C2025692073656300456E6420662D
:100A2000696C65206C69737400426567696E206645
:100A3000696C65206C697374004E6F206D6F76650C
:100A40002E00526573756D696E67207072696E74E1
:100A5000005761697420666F7220757365722E2E5F
:100A60002E000A00205A3A200020593A200020582F
:100A70003A20004245442054454D500043524541E0
:100A80005441424C4520443320524541445900537F
:100A90006C6565702E2E2E000A00207A3A20002008
:100AA000793A200020783A20004245442054454DB0
:100AB000500020000101010000874300008743002F
:100AC0000068430000A0400000A0400000A04000DB
:100AD0000000000000000000006843000007C300A1
:100AE0000007C300000000000007430000074300A8
:100AF000006843256920686F757273202569206D31
:100B0000696E7574657300446F6E65207072696EEE
:100B100074696E672066696C650053544F50504588
:100B2000442E20005072696E7465722073746F7069
:100B30007065642064756520746F206572726F72D1
:100B4000732E2046697820746865206572726F7212
:100B500020616E6420757365204D39393920746FBA
:100B600020726573746172742E202854656D7065EF
:100B70007261747572652069732072657365742E75
:100B800020536574206974206166746572207265F3
:100B90007374617274696E6729006F6B004E6F2009
:100BA0004C696E65204E756D626572207769746858
:100BB00020636865636B73756D2C204C61737420C2
:100BC0004C696E653A20004E6F20436865636B7315
:100BD000756D2077697468206C696E65206E756D1F
:100BE0006265722C204C617374204C696E653A20EA
:100BF00000636865636B73756D206D69736D6174F7
:100C000063682C204C617374204C696E653A200037
:100C10004C696E65204E756D626572206973206E39
:100C20006F74204C617374204C696E65204E756D35
:100C30006265722B312C204C617374204C696E6597
:100C40003A20004D31313000446F6E65207361767B
:100C5000696E672066696C652E006F6B004D3239D6
:100C6000002020506C616E6E65724275666665721A
:100C700042797465733A20002046726565204D659F
:100C80006D6F72793A20004A756C20323020323014
:100C9000313600436F6D70696C65643A20005665AB
:100CA0007273696F6E20312E302E3500207C20410A
:100CB0007574686F723A20004A756C2032302032A9
:100CC0003031362031383A31303A313500204C61FC
:100CD000737420557064617465643A2000312E305D
:100CE0002E30004D61726C696E0020536F66747710
:100CF0006172652052657365740020576174636882
:100D0000646F67205265736574002042726F776E5E
:100D1000206F757420526573657400204578746582
:100D2000726E616C20526573657400506F776572E6
:100D30005570007374617274002200656E71756580
:100D4000696E672022002200656E717565696E67A5
:100D50002022007C3C3E5E2B3D3F2F5B5D3B2C2ADE
:100D6000225C0045313A200045303A20005A3A20B2
:100D700000593A2000583A20004D53312C4D53323F
:100D80002050696E730A0024F404D9201BC40C5C43
:100D90000E9804C4095F0265077101F405F900FBB0
:100DA00004B30048048700C10369005803550003D9
:100DB000034500BE023A008402310053022A002992
:100DC00002250004022000E4011C00C8011900AF44
:100DD00001170098011400840113007101100061D3
:100DE00001100051010E0043010D0036010B002BD4
:100DF000010B0020010B00150109000C0109000383
:100E0000010800FB000800F3000800EB000700E405
:100E1000000600DE000600D8000600D2000600CC66
:100E2000000500C7000500C2000500BD000400B9B0
:100E3000000400B5000400B1000400AD000400A9E6
:100E4000000400A5000300A20003009F0004009B13
:100E50000003009800030095000200930003009037
:100E60000003008D0002008B000300880002008652
:100E700000020084000300810002007F0002007D68
:100E80000002007B0002007900020077000100767A
:100E90000002007400020072000100710002006F85
:100EA0000002006D0001006C0002006A0001006990
:100EB0000002006700010066000100650001006497
:100EC0000002006200010061000100600001005F9B
:100ED0000002005D0001005C0001005B0001005A9F
:100EE00000010059000100580001005700010056A0
:100EF00000010055000100540001005300000053A0
:100F00000001005200010051000100500001004F9B
:100F10000001004E0000004E0001004D0001004C99
:100F20000001004B0000004B0001004A0001004995
:100F30000001004800000048000100470001004691
:100F4000000000460001004500000045000100448B
:100F50000001004300000043000100420000004285
:100F60000001004100000041000100400001003F7D
:100F70000000003F0001003E0000003E0001003D77
:100F80000000003D0001003C0000003C0000003C6F
:100F90000001003B0000003B0001003A0000003A65
:100FA000000100390000003900010038000000385D
:100FB0000000003800010037000000370001003653
:100FC000000000360000003600010035000000354A
:100FD000000000350001003400000034000000343F
:100FE0000001003300000033000000330001003234
:100FF000000000320000003200010031000000312A
:10100000000000310001003000000030000000301E
:101010000001002F0000002F0000002F0000002F13
:101020000001002E0000002E0000002E0001002D07
:101030000000002D0000002D0000002D0001002CFC
:101040000000002C0000002C0000002C0001002BF0
:101050000000002B0000002B0000002B0001002AE4
:101060000000002A0000002A0000002A00010029D8
:1010700000000029000000290000002900000029CC
:1010800000010028000000280000002800000028BF
:1010900000000028000100270000002700000027B2
:1010A00000000027000000270001002600000026A5
:1010B0000000002600000026000000260001002598
:1010C000000000250000002500000025000000258C
:1010D000000000250001002400000024000000247E
:1010E0000000002400000024000100230000002371
:1010F0000000002300000023000000230000002364
:101100000000002300010022000000220000002255
:101110000000002200000022000000220001002147
:10112000000000210000002100000021000000213B
:10113000000000210000002100010020000000202C
:10114000000000200000002000000020000000201F
:1011500000000020000000200001001F0000001F10
:101160000000001F0000001F0000001F0000001F03
:101170000000001F0001001E0000001E0000001EF5
:101180000000001E00000024F4D43050C38E20C2A2
:10119000A24017828B7011127A910D816CD90AA826
:1011A00061E108C7586607615143061E4B5D05C1E2
:1011B00045A7041A411104093D98037139310340D0
:1011C00036DB0265339102D4305402802E1D026357
:1011D0002CEE01752AC501B028A001102781018FCE
:1011E0002564012B244B01E0223401AC211F018D29
:1011F000200D01801FFC00841EED00971DDF00B84C
:101200001CD200E61BC600201BBC00641AB200B250
:1012100019A8000A19A0006A189900D11791004076
:10122000178B00B516840031167E00B31579003A8D
:10123000157300C7146F0058146A00EE1366008817
:1012400013630025135E00C7125B006C1257001574
:10125000125400C111510070114F0021114B00D6E2
:101260001049008D1047004610440002104200C093
:101270000F4000800F3E00420F3C00060F3B00CBAA
:101280000E3800930E37005C0E3500270E3400F345
:101290000D3200C10D3100900D3000600D2E003276
:1012A0000D2D00050D2C00D90C2B00AE0C2900854E
:1012B0000C29005C0C2700350C27000E0C2600E8DA
:1012C0000B2400C40B2400A00B23007D0B23005A29
:1012D0000B2100390B2100180B2000F80A1F00D940
:1012E0000A1E00BB0A1E009D0A1D00800A1D006325
:1012F0000A1C00470A1B002C0A1B00110A1A00F7DF
:10130000091A00DD091900C4091900AB0919009276
:101310000917007B091800630917004C09160036ED
:10132000091600200916000A091500F5081500E045
:10133000081400CC081400B8081400A40814009085
:101340000813007D0812006B0813005808120046AD
:1013500008120034081100230811001208110001BE
:10136000081100F0071000E0071000D0071000C0BF
:10137000071000B0070F00A107100091070E0083AF
:10138000070F0074070F0065070E0057070E00498E
:10139000070E003B070D002E070E0020070D00135F
:1013A000070D0006070D00F9060C00ED060D00E024
:1013B000060C00D4060C00C8060C00BC060C00B0DD
:1013C000060C00A4060B0099060C008D060B00828B
:1013D000060B0077060B006C060B0061060A00572F
:1013E000060B004C060A0042060A0038060A002EC8
:1013F000060A0024060A001A060A00100609000759
:10140000060A00FD050900F4050900EB050900E2E4
:10141000050900D9050900D0050900C7050900BE66
:10142000050900B5050800AD050800A50509009CE3
:10143000050800940508008C050800840508007C58
:10144000050800740508006C050700650508005DC7
:10145000050700560508004E050700470507004030
:1014600005080038050700310507002A0507002395
:101470000507001C050600160507000F05070008F4
:1014800005060002050700FB040600F5040700EE50
:10149000040600E8040600E2040700DB040600D5A9
:1014A000040600CF040600C9040600C3040600BDFC
:1014B000040600B7040600B1040500AC040600A64B
:1014C000040600A00405009B040600950405009096
:1014D0000406008A04050085040500800406007ADD
:1014E00004050075040500700405006B0405006622
:1014F000040500610405005C040500570405005262
:101500000405004D04050048040500430405003EA1
:101510000404003A04050035040500300404002CDE
:1015200004050027040400230405001E0404001A17
:1015300004040016040500110404000D040400094D
:101540000405000404040000040400FC030400F883
:10155000030400F4030400F0030400EC030400E8B7
:10156000030400E4030400E0030400DC030400D8E7
:10157000030400D4030400D0030400CC030400C817
:10158000030300C50303006563686F3A00205A3AFD
:101590000020593A0020583A00656E6473746F70E9
:1015A00073206869743A20004572726F723A004580
:1015B00072723A204D415854454D502042454400E6
:1015C00054656D70657261747572652068656174CB
:1015D000656420626564207377697463686564205C
:1015E0006F66662E204D415854454D5020747269E7
:1015F000676765726564202121004572723A204D4B
:10160000494E54454D50003A2045787472756465D2
:1016100072207377697463686564206F66662E2034
:101620004D494E54454D5020747269676765726527
:10163000642021004572723A204D415854454D5066
:10164000003A204578747275646572207377697406
:1016500063686564206F66662E204D415854454D81
:101660005020747269676765726564202100202DBF
:1016700020496E76616C6964206578747275646562
:1016800072206E756D62657220210010003003B00B
:1016900000870150014701F001260190021001303E
:1016A000030001D003F3007004E9001005E000B06E
:1016B00005D8005006D200F006CC009007C60030D6
:1016C00008C200D008BD007009B900100AB500B00A
:1016D0000AB200500BAE00F00BAB00900CA800302B
:1016E0000DA500D00DA200700EA000100F9D00B03F
:1016F0000F9B0050109800F010960090119400304D
:10170000129200D012900070138E0010148C00B052
:10171000148A0050158800F0158700901685003057
:10172000178300D01781007018800010197E00B058
:10173000197D00501A7B00F01A7A00901B78003057
:101740001C7700D01C7500701D7400101E7200B054
:101750001E7100501F6F00F01F6E0090206C003053
:10176000216B00D0216A007022680010236700B04E
:1017700023660050246400F024630090256200304A
:10178000266000D0265F0070275D0010285C00B046
:10179000285B0050295900F0295800902A57003042
:1017A0002B5500D02B5400702C5200102D5100B03E
:1017B0002D5000502E4E00F02E4D00902F4B00303B
:1017C000304A00D03048007031460010324500B039
:1017D00032430050334100F033400090343E00303B
:1017E000353C00D0353A007036380010373600B03E
:1017F00037340050383200F0382F0090392D003047
:101800003A2A00D03A2700703B2400103C2000B058
:101810003C1C00503D1700F03D1100903E0A003086
:101820003F9CFF504944204175746F74756E65206C
:1018300066696E69736865642120507574207468E8
:1018400065204B702C204B6920616E64204B642016
:10185000636F6E7374616E747320696E746F20436E
:101860006F6E66696775726174696F6E2E6800507D
:101870004944204175746F74756E65206661696CAA
:101880006564212074696D656F75740020403A00AD
:101890006F6B20543A006F6B20423A00504944204D
:1018A0004175746F74756E65206661696C6564213D
:1018B0002054656D706572617475726520746F6F08
:1018C000206869676800204B643A2000204B693A21
:1018D0002000204B703A200020436C617369632024
:1018E00050494420002054753A2000204B753A207E
:1018F00000206D61783A2000206D696E3A2000204A
:10190000643A200020626961733A2000100060038D
:10191000B000940150015101F0012E019002170115
:1019200030030401D003F0007004E1001005DC0076
:10193000B005D2005006C800F006C3009007BE00F4
:101940003008BA00D008B7007009B500100AB3001B
:10195000B00AB100500BAF00F00BAD00900CAB0023
:10196000300DA800D00DA600700EA300100FA0002F
:10197000B00F9E0050109B00F0109900901197003E
:1019800030129500D01293007013910010148F0044
:10199000B0148D0050158B00F0158900901687004B
:1019A00030178500D017840070188200101980004D
:1019B000B0197F00501A7D00F01A7C00901B7A004D
:1019C000301C7800D01C7700701D7500101E74004C
:1019D000B01E7300501F7100F01F700090206E0049
:1019E00030216D00D0216B0070226A001023690045
:1019F000B023670050246600F02464009025630043
:101A000030266200D026600070275F0010285D003D
:101A1000B0285C0050295B00F0295900902A58003A
:101A2000302B5600D02B5500702C5400102D520036
:101A3000B02D5100502E4F00F02E4E00902F4C0034
:101A400030304A00D0304900703147001032460033
:101A5000B032440050334200F033400090343F0035
:101A600030353D00D0353B00703639001037370037
:101A7000B037340050383200F038300090392D0043
:101A8000303A2A00D03A2700703B2400103C200056
:101A9000B03C1C00503D1700F03D1100903E0A0084
:101AA000303F9CFF2D2D3A2D2D002020200020209E
:101AB0002000534420000120000120004D31303629
:101AC000205332353500494E464F2F534554544923
:101AD0004E4753005554494C4954494553005052C0
:101AE00045484541540046494C414D454E540043FC
:101AF0004F4F4C444F574E004E4F205344204341CC
:101B00005244005052494E542046524F4D205344A7
:101B100000414456414E4345440043414E43454CE9
:101B2000205052494E5400524553554D4520505275
:101B3000494E54005041555345205052494E54008F
:101B40004241434B00524553544F52452044454671
:101B500041554C540052554E54494D452053544123
:101B6000545553004649524D57415245205645520F
:101B700053494F4E0048454154494E47204D494E28
:101B80005554450048454154494E47204D494E550E
:101B90005445004C454420434F4C4F52004F66661D
:101BA000004F6E20004F6666004F6E200042555A6F
:101BB0005A4552004241434B004C45442042524951
:101BC0004748544E4553530048454154494E4720D9
:101BD000434F4C4F52005354414E44425920434FBF
:101BE0004C4F52005052494E54494E4720434F4C9F
:101BF0004F52004241434B004C454420425249471A
:101C000048544E4553530048454154494E4720429D
:101C10004C55450048454154494E4720475245459B
:101C20004E0048454154494E4720524544004241E8
:101C3000434B005354414E44425920424C554500B9
:101C40005354414E44425920475245454E00535447
:101C5000414E44425920524544005354414E44425F
:101C60005920424C5545005354414E444259204757
:101C70005245454E005354414E444259205245442A
:101C8000004241434B005354414E44425920424C80
:101C90005545005354414E44425920475245454E04
:101CA000005354414E444259205245440050524939
:101CB0004E5420424C5545005052494E54204752F4
:101CC00045454E005052494E542052454400424131
:101CD000434B005052494E5420424C5545005052FF
:101CE000494E5420475245454E005052494E5420CB
:101CF00052454400434C45414E204E4F5A5A4C45A4
:101D00000054454D504552415455524500424544BA
:101D1000204C4556454C494E4700484F4D452048BC
:101D2000454144004241434B0056323800434F4F37
:101D30004C444F574E004245442054454D500042BC
:101D400045442054454D50004E4F5A5A4C4520545E
:101D5000454D50004E4F5A5A4C452054454D500069
:101D60004241434B0043414E43454C004F4B0047DB
:101D700031204635303030205A313000473238007B
:101D80004731204635303030205A30004731205816
:101D90003020592D31313000473120463530303038
:101DA000205A3000473120582D39352E33205935EF
:101DB00035004731204635303030205A3130004729
:101DC00031204635303030205A30004731205839E4
:101DD000352E3320593535004731204635303030E7
:101DE000205A313000473238004732380043414EE4
:101DF00043454C0053544152540053455454494EAA
:101E0000472046494C414D454E54004348414E47BA
:101E1000452046494C414D454E5400455854525575
:101E200044452046494C414D454E54004241434BA8
:101E300000435553544F4D2053455454494E475336
:101E40000041425300504C41004241434B0042414B
:101E5000434B0053415645202620455849540042E3
:101E600045442054454D50004245442054454D5072
:101E7000004E4F5A5A4C452054454D50004E4F5A33
:101E80005A4C452054454D50004241434B0053416C
:101E9000564520262045584954004241434B0053A3
:101EA0004156452026204558495400554E4C4F4137
:101EB000442046494C414D454E54004C4F4144202E
:101EC00046494C414D454E54004241434B00012090
:101ED000000120000120000120000120000120005D
:101EE00047323800052E2E004241434B004D32341C
:101EF000004D3233202573004C454420425249475F
:101F000048544E455353004245442054454D5000DB
:101F10004245442054454D50004E4F5A5A4C45209E
:101F200054454D50004E4F5A5A4C452054454D5043
:101F3000004241434B00473238004D38342058208E
:101F400059205A204500434152442052454D4F5696
:101F50004544004341524420494E53455254454460
:101F6000004D313036205332353500207365630023
:101F7000206D696E0020686F75720020686F757241
:101F8000730000002100240027002A002D003000EB
:101F9000330001010000040107010A0100002200D2
:101FA000250028002B002E00310034000201000023
:101FB000050108010B010000200023002600290074
:101FC0002C002F003200000100000301060109016E
:101FD00005050505070508080808020202020A0AA5
:101FE00008080404040401010101010101010303C3
:101FF000030303030303040707070C0C0C0C0C0C6E
:102000000C0C0202020206060606060606060B0B6A
:102010000B0B0B0B0B0B01021020200808102040AB
:10202000102040800201020108040201010204089C
:10203000102040808040201008040201800402012A
:102040008040201008040201080402010102040873
:102050001020408001020408102040800000090A7E
:1020600002080B0C0D07060304010000000000002D
:102070000000000000000000000000000000000060
:10208000000000000000000011100F000000000020
:102090000000000000000000000000000000000040
:1020A0000000494E46494E4954594E414ECDCCCC84
:1020B0003D0AD7233C17B7D13877CC2B329595E61C
:1020C000241FB14F0A000020410000C84200401CFC
:1020D0004620BCBE4CCA1B0E5AAEC59D7400B93515
:1020E0003F38FBE6FBF23A3811241FBECFEFD1E2B6
:1020F000DEBFCDBF00E00CBF18E0A0E0B2E0E2EF31
:10210000FBEF01E00BBF02C007900D92A837B107AB
:10211000D9F71BBE13E1A8E7B8E001C01D92AA39A8
:10212000B107E1F710E2C6EED0E204C02297FE014B
:102130000E949FFDCE3DD107C9F70E942FF80C9455
:10214000EDFD0C940000A0E0B0E0E9EAF0E10C94B1
:10215000BCFDEC015B016115710519F0FB01918378
:102160008083F9908F2D90E00E94A3FD892BC9F701
:10217000FDE2FF1621F4F990EE24E39405C02BE272
:10218000F21609F4F990EE248E0101501040C801B6
:1021900062EA70E243E050E072D2892BF9F48E01DA
:1021A0000E5F1F4FC80165EA70E245E050E067D25C
:1021B000892B19F48E01095F1F4FA114B10419F086
:1021C000F50111830083E0FC04C070E090E080E83A
:1021D00013C070E090E080E86FEF07C1C8016AEAC1
:1021E00070E243E050E04BD2892B69F4A114B104B2
:1021F00029F470E090E080EC6FE7F7C02296F501DB
:10220000D183C083F6CF8824992440E050E060E079
:1022100070E0EF2DE053EA30A0F5F2E0EF2A8E2DCA
:1022200090E09C0128703070E2FE06C0232B79F507
:102230000894811C911C2BC0232B19F00894810851
:102240009108DB01CA0112E0880F991FAA1FBB1F6A
:102250001A95D1F7480F591F6A1F7B1F440F551F4E
:10226000661F771F4E0F511D611D711D483929E9E9
:10227000520729E9620729E1720748F084E0E82A59
:1022800006C0EE3F31F4E3FC39C098E0E92AF9904A
:10229000C0CFE53311F0E53189F529912D3219F4DC
:1022A000E0E1EE2A05C02B3219F081E090E003C096
:1022B000299182E090E0E22FE053EA3018F0C81B49
:1022C000D90B1CC020E030E0FCE020383F075CF474
:1022D000C901880F991F880F991F280F391F220FD6
:1022E000331F2E0F311DE991E053EA3068F3E4FE0D
:1022F00003C0309521953F4F820E931ECE2CDD24D6
:10230000E1FE07C0A114B10421F02197F501D183AA
:10231000C083CB01BA010E9408FA7B018C01F3E073
:10232000CF22DD2423E0C216D10421F417FB10953F
:1023300017F9109557016801C801B70120E030E096
:1023400040E050E00E9468F9882309F44AC097FEF3
:102350000DC021ECE22E20E2F22E9094819491089F
:102360009394C0E2D0E000E010E012C099EDE92EB5
:1023700090E2F92EF6CFF7012591359145915491D0
:10238000C601B5010E9448FC5B016C018C1A9D0AD4
:102390008C169D0684F7D595C7950F5F1F4F0630A5
:1023A000110529F08CEF9FEFE80EF91EF1CFC50162
:1023B000D6017C018D018C2D880F8D2D881F8F3FBC
:1023C00051F0C601B50120E030E040E050E00E944D
:1023D00068F9882331F482E290E090939913809316
:1023E00098137E2D9F2D802F612F272F392F482F57
:1023F000562FB901CA01CDB7DEB7ECE00C94D8FD79
:102400002F923F925F926F927F928F929F92AF92A4
:10241000BF92CF92DF92EF92FF920F931F93CF93D1
:10242000DF938C011B01EA016115710519F0FB01B5
:1024300091838083209749F0CE010297839728F0FB
:1024400020E030E040E050E0F6C0F801A1908F01BC
:102450008A2D90E00E94A3FD892BB9F7FDE2AF160B
:1024600031F4F801A1908F015524539407C0FBE289
:10247000AF1619F4F801A1908F015524209719F097
:10248000C031D105C1F4F0E3AF1679F4F8018081D1
:10249000883711F0883549F4F801A1800E5F1F4F8D
:1024A000F2E05F2AC0E1D0E006C0209721F480E38B
:1024B000A816E9F427C0C830D10531F1C930D105DB
:1024C00024F4C230D10531F50CC0CA30D10589F0F1
:1024D000C031D105F9F4C12CD12CE12CB8E0FB2E90
:1024E00028C0C12CD12CE12CA0E4FA2E22C0CAE0D5
:1024F000D0E0FCECCF2EFCECDF2EFCECEF2EFCE071
:10250000FF2E17C0C8E0D0E0C12CD12CE12CE0E1B7
:10251000FE2E0FC09E01442737FD4095542F60E0EA
:1025200070E080E090E80E9460FDC901DA016C0172
:102530007D0120E030E040E050E060E03E01882492
:1025400077FC8094982C70EDB72EBA0CE9E0EB156F
:1025500070F48A2D81548A3118F499ECB92E06C092
:102560008A2D81568A3150F589EAB82EBA0C8B2D06
:1025700090E08C179D0714F56F3FE1F0C216D3066B
:10258000E406F506B0F0CA01B901A40193010E9466
:102590001AFD9B01AC012B0D311D411D511D213038
:1025A000F0E03F07F0E04F07F0E85F0710F461E06C
:1025B00001C06FEFF801A1908F01C5CF2114310444
:1025C00081F0662331F001501040F1011183008346
:1025D00008C051FE1AC002501040F101118300835F
:1025E00014C067FF12C050FC05C02FEF3FEF4FEF44
:1025F0005FE704C020E030E040E050E882E290E095
:10260000909399138093981316C050FE08C050956C
:102610004095309521953F4F4F4F5F4F0CC057FF6E
:102620000AC082E290E090939913809398132FEF61
:102630003FEF4FEF5FE7B901CA01DF91CF911F91E3
:102640000F91FF90EF90DF90CF90BF90AF909F9051
:102650008F907F906F905F903F902F900895FB0137
:10266000DC0105900D920020E1F70895FC01059032
:102670000020E9F7809590958E0F9F1F0895FB012C
:10268000DC014150504088F08D9181341CF08B3535
:102690000CF4805E659161341CF06B350CF4605E67
:1026A000861B611171F3990B0895881BFCCFFB0108
:1026B000DC014150504048F005900D920020C9F7D0
:1026C00001C01D9241505040E0F70895FB01559123
:1026D0005523A9F0BF01DC014D9145174111E1F7E8
:1026E00059F4CD010590002049F04D91401541115C
:1026F000C9F3FB014111EFCF81E090E0019708950C
:10270000FB01DC0104C08D910190801921F441503E
:102710005040C8F7881B990B0895FB01DC0102C0EB
:1027200001900D9241505040D8F70895FB01DC0113
:102730000D900020E9F7119701900D920020E1F72C
:102740000895FC018191861721F08823D9F79927F4
:1027500008953197CF010895FB01DC0101900D929E
:102760000020E1F70895FB01DC014150504030F0BA
:102770008D910190801919F40020B9F7881B990BED
:102780000895FB01DC014150504048F001900D924A
:102790000020C9F701C01D9241505040E0F7089554
:1027A000AEE0B0E0E6EDF3E10C94C4FD0E891F89C4
:1027B00086E08C831A8309838FEF9FE79E838D8346
:1027C0009E01265E3F4FCE010196688D798DA9014D
:1027D0002DD02F813885020F131FF80110822E96FD
:1027E000E4E00C94E0FDAEE0B0E0E9EFF3E10C943E
:1027F000C4FD0E891F898EE08C831A8309838FEFB5
:102800009FE79E838D839E01265E3F4FCE010196FA
:10281000688D798DA9010AD02F813885020F131F89
:10282000F80110822E96E4E00C94E0FDABE0B0E0FD
:10283000ECE1F4E10C94B6FD3C012B015A01FC01E2
:1028400017821682838181FD03C06FEF7FEFB9C1CC
:102850009AE0892E1E010894211C311CF30123816A
:10286000F20123FD859123FF81912F01882309F433
:10287000A5C1853239F423FD859123FF81912F0174
:10288000853221F490E0B301B7D1E8CF982FFF242F
:10289000EE249924FFE1FF15D0F09B3269F09C32C1
:1028A00028F4903259F0933291F40EC09D3249F0E1
:1028B000903369F441E024C052E0F52A84E0F82A1C
:1028C00028C098E0F92A25C0E0E1FE2A22C0F7FCE2
:1028D00029C0892F80538A3070F4F6FE05C0989C79
:1028E000902C1124980E15C0E89CE02C1124E80EC1
:1028F000F0E2FF2A0EC09E3229F4F6FC5FC140E4EC
:10290000F42A07C09C3619F450E8F52A02C098361C
:1029100049F4F20123FD959123FF91912F01992311
:1029200009F0B8CF892F8554833018F08052833056
:1029300038F444E050E0A40EB51E5FE359830FC0A5
:10294000933631F0933779F0933509F052C01FC0B8
:10295000F5018081898342E050E0A40EB51E61013B
:1029600001E010E011C0F501C080D180F6FC03C089
:102970006FEF7FEF02C0692D70E042E050E0A40EDF
:10298000B51EC6012ED18C015FE7F52213C0F501FB
:10299000C080D180F6FC03C06FEF7FEF02C0692DCD
:1029A00070E042E050E0A40EB51EC6010FD18C01CC
:1029B00050E8F52AF3FE06C018C080E290E0B301AB
:1029C0001BD1EA948E2D90E008171907B0F30DC0C3
:1029D000F601F7FC8591F7FE81916F0190E0B3015C
:1029E0000BD1E110EA94015010400115110581F757
:1029F000E2C0943611F0993661F5F7FE08C0F50192
:102A0000208131814281538184E090E00AC0F50148
:102A1000808191819C01442737FD4095542F82E0AD
:102A200090E0A80EB91E9FE6F92257FF09C0509505
:102A30004095309521953F4F4F4F5F4FE0E8FE2A7C
:102A4000CA01B901A1012AE030E002D1D82ED21882
:102A50003FC0953729F41F2D1F7E2AE030E01DC0AE
:102A60001F2D197F9F3661F0903720F4983509F0BB
:102A7000A5C00FC0903739F0983709F09FC004C047
:102A800028E030E00AC0106114FD146020E130E05D
:102A900004C014FD166020E132E017FF08C0F50104
:102AA000608171818281938144E050E008C0F5012A
:102AB00080819181BC0180E090E042E050E0A40E72
:102AC000B51EA101C5D0D82ED2188FE7F82EF1225D
:102AD000F6FE0BC05EEFF522D91438F4F4FE07C001
:102AE000F2FC05C08FEEF82202C01D2D01C0192D89
:102AF000F4FE0DC0FE01ED0DF11D8081803319F44F
:102B000099EEF92208C01F5FF2FE05C003C08F2DA9
:102B1000867809F01F5F0F2DF3FC13C0F0FE0EC086
:102B20001E1510F09D2C0AC09D2C9E0C911A1E2D76
:102B300005C080E290E0B3015FD01F5F1E15C8F3AF
:102B400004C01E1510F4E11A01C0EE2404FF0EC0EB
:102B500080E390E0B30150D002FF1BC001FD03C031
:102B600088E790E00EC088E590E00BC0802F867863
:102B700081F001FF02C08BE201C080E2F7FC8DE230
:102B800090E0B30139D005C080E390E0B30134D0C8
:102B90009A94D914C8F3DA94F101ED0DF11D8081F6
:102BA00090E0B30129D0DD20B1F705C080E290E0CC
:102BB000B30122D0EA94EE20C9F750CEF30166812A
:102BC0007781CB012B96E2E10C94D2FDFC010590BC
:102BD000615070400110D8F7809590958E0F9F1F1F
:102BE0000895FC016150704001900110D8F7809564
:102BF00090958E0F9F1F08950F931F93CF93DF9390
:102C00008C01EB018B8181FF1BC082FF0DC02E81E7
:102C10003F818C819D812817390764F4E881F9810F
:102C20000193F983E88306C0E885F985802F19951B
:102C3000892B31F48E819F8101969F838E8302C000
:102C40000FEF1FEFC801DF91CF911F910F910895F2
:102C5000FA01AA27283051F1203181F1E8946F93CD
:102C60006E7F6E5F7F4F8F4F9F4FAF4FB1E03ED073
:102C7000B4E03CD0670F781F891F9A1FA11D680F11
:102C8000791F8A1F911DA11D6A0F711D811D911D44
:102C9000A11D20D009F468943F912AE0269F1124B9
:102CA0003019305D3193DEF6CF010895462F47701D
:102CB000405D4193B3E00FD0C9F7F6CF462F4F7078
:102CC000405D4A3318F0495D31FD4052419302D0D6
:102CD000A9F7EACFB4E0A69597958795779567957C
:102CE000BA95C9F700976105710508959B01AC017C
:102CF0000A2E06945795479537952795BA95C9F7A3
:102D0000620F731F841F951FA01D08950F931F93BB
:102D10008C01FC01878161E00E94CDF781E090E0A9
:102D20000E94D0F5F801878160E00E94CDF71F91E5
:102D30000F910895CF92DF92EF92FF920F931F931E
:102D4000CF93DF93D82EC92E282F392FC9018C019C
:102D5000C0E0D0E0E62EFF24F801818561E00E940A
:102D60001AF7B7010C2E02C0759567950A94E2F721
:102D70006170F80181850E94CDF721960F5F1F4F8A
:102D8000C430D10549F781E090E00E94D0F58D2D47
:102D90009C2DBCDFDF91CF911F910F91FF90EF90A1
:102DA000DF90CF900895FF920F931F938C01F62E22
:102DB000FC018581642F0E94CDF7F801868161E0D6
:102DC0000E941AF7F801868160E00E94CDF76F2D0E
:102DD00070E084E0759567958A95E1F7C801AADFF0
:102DE000C8016F2DA7DF1F910F91FF9008950F93DA
:102DF0001F93CF93DF93EC01888560E00E941AF760
:102E00008D8160E00E94CDF78E8161E00E94CDF758
:102E10000FEF8F8160E00E94CDF78F8161E00E940B
:102E2000CDF781E090E00E94D0F588850E94FFF701
:102E3000182F8F8160E00E94CDF7CE0167DF11234C
:102E400021F0002311F00150E4CF888561E00E9459
:102E50001AF78E8160E00E94CDF7DF91CF911F912C
:102E60000F9108950F931F938C0141E09CDFC801DF
:102E7000BEDF1F910F9108950F931F938C0140E0C7
:102E800092DFC801B4DF1F910F910895EF92FF9276
:102E90000F931F93CF93DF938C017A016770660FB6
:102EA000660F660F6064E8DFC0E0D0E0D801ED9106
:102EB000FC91D701AC0FBD1F0190F081E02DC8013E
:102EC0006C9119952196C830D10581F7DF91CF918A
:102ED0001F910F91FF90EF900895DF93CF9300D053
:102EE0000F92CDB7DEB7DC0152968C9152974817FE
:102EF00008F040E0198280E48A8384E18B8384E5D2
:102F00008C83FE01E40FF11D8181680F6068CD01A3
:102F1000B3DF0F900F900F900F90CF91DF91089536
:102F200061E0AACFEF92FF920F931F93CF93DF93AD
:102F3000EC014A8B198A8D8161E00E941AF78E811B
:102F400061E00E941AF78F8161E00E941AF78D817B
:102F500060E00E94CDF78F8160E00E94CDF78E8106
:102F600060E00E94CDF78E01EE24FF24F8018185F8
:102F700061E00E941AF7F801818560E00E94CDF7B8
:102F80000894E11CF11C0F5F1F4FF4E0EF16F104F1
:102F900069F7CE0163E0CEDE82E390E00E94D0F5D7
:102FA0008C81823039F4CE0168E0C4DE82E390E0A7
:102FB0000E94D0F5CE0162E0BDDE82E390E00E9487
:102FC000D0F5CE0162E0B6DE82E390E00E94D0F55B
:102FD000CE0168E0AFDE82E390E00E94D0F5CE0142
:102FE00068E04ADF82E390E00E94D0F5CE0161E024
:102FF00043DF82E390E00E94D0F5CE0166E03CDF43
:1030000082E390E00E94D0F5CE0162E035DF82E3FA
:1030100090E00E94D0F5CE016CE02EDF82E390E0DC
:103020000E94D0F5DF91CF911F910F91FF90EF900B
:1030300008956F927F928F92AF92CF92EF920F93FB
:10304000DF93CF93CDB7DEB73C01FC0164836150C1
:10305000623010F082E08483F30145832683078386
:10306000E186C286A38680868486842F61E00E94E2
:103070001AF7F301868161E00E941AF7F301878154
:1030800061E00E941AF788E2F3018587C30164E1D9
:1030900044E048DFCF91DF910F91EF90CF90AF9058
:1030A0008F907F906F9008958F92AF92CF92EF9212
:1030B0000F93DF93CF93CDB7DEB7FC01138212825B
:1030C0008DEA97E091838083CF01B3DFCF91DF91C9
:1030D0000F91EF90CF90AF908F900895FC011282E6
:1030E00013820895FC018281811112820895CF9389
:1030F000DF93DC01FC01EB55FE4F8081918100974D
:10310000C9F1019791838083ED01CC5ADF4FFD0116
:10311000ED58FF4F8BE1019009928150E1F7FD01DD
:10312000EE5AFF4FAF58BF4F8D919C911197A15709
:10313000B04091838083FD01ED58FF4F20E030E0E7
:10314000AD014B555E4F10C02F5F3F4FEF01DF01C8
:103150005F968BE10D9009928150E1F7858D968DF8
:10316000329791838083B196DA018D919C912817D3
:10317000390750F3DF91CF910895FC0181E298E087
:10318000918380838781882321F0CF0104960C945A
:10319000B6930895CF92DF92EF92FF920F931F9311
:1031A000DF93CF93CDB7DEB76F970FB6F894DEBF3E
:1031B0000FBECDBF8C016B01095A1F4FD8018C91F6
:1031C00007551040882321F42FE2E22EF12C03C092
:1031D00090E5E92EF12CE00EF11E81E298E09A8351
:1031E00089831C821B8218861D82B7016C5F7F4F0A
:1031F000CE010596A60121E00E94A29A882391F5AE
:10320000EBE3F1E0949108C08091C00085FFFCCF12
:103210009093C600319694919923B1F7E1E4F1E0DF
:10322000949108C08091C00085FFFCCF9093C600A8
:10323000319694919923B1F709C08091C00085FF20
:10324000FCCF0894C11CD11C9093C600F60190815C
:10325000992399F78091C00085FFFCCF8AE0809385
:10326000C6005AC0F801EB55FE4F208131812A304B
:10327000310508F040C02F5F3F4F3183208321503C
:103280003040F90185E0EE0FFF1F8A95E1F7E21B60
:10329000F30BED58FF4FE00FF11F13C0AF01415E7C
:1032A0005F4FBF018BE1DB010D90BD01DA010D9293
:1032B000AD018150C1F7929182913296968F858FA0
:1032C0007F9721503040BFEF2E3F3B0739F7D801A1
:1032D000AD58BF4FF70134968BE101900D928150AC
:1032E000E1F70F581F4FF70182819381D8018D9329
:1032F0009C9301571040D801AC5ABF4FFE01359640
:103300008BE101900D928150E1F70E5A1F4F8B8196
:103310009C81F80191838083CE0101962EDF6F9608
:103320000FB6F894DEBF0FBECDBFCF91DF911F91D6
:103330000F91FF90EF90DF90CF900895EF92FF9262
:103340000F931F938C013EECE32E31E0F32EE80E39
:10335000F91EC7010E946993C7010E94B693F80144
:10336000108211821F910F91FF90EF900895CF92DC
:10337000DF92EF92FF920F931F93CF93DF937C0125
:103380006B01DB010D900020E9F78D010150104029
:10339000061B170BEEECF1E0EE0EFF1ED7011C92A0
:1033A000E2E3FEEFEE0EFF1ECB016EE470E0C9D942
:1033B000EC01009731F4F8013197EC0DFD1D860109
:1033C0000CC060E270E0BDD98C010F5F1F4FCE01D1
:1033D0006AE270E0B6D9FC0131978DE081838AE022
:1033E00082831382C70186539E4FB8010E949B9B24
:1033F0008EEC91E0E80EF91ED7018C91882319F12B
:10340000EBE6F1E0949108C08091C00085FFFCCF0D
:103410009093C600319694919923B1F7E2E7F1E0D9
:10342000949108C08091C00085FFFCCF9093C600A6
:10343000319694919923B1F78091C00085FFFCCF1C
:103440008AE08093C600DF91CF911F910F91FF908A
:10345000EF90DF90CF900895CF93DF93EC018B81B5
:10346000882309F43BC0EAE9F1E0949108C0809117
:10347000C00085FFFCCF9093C600319694919923AC
:10348000B1F7CD57DD4F488159816A817B81C3589F
:10349000D24089E199E02AE030E00E945236E8E922
:1034A000F1E0949108C08091C00085FFFCCF90931B
:1034B000C600319694919923B1F7C558DD4F4881E4
:1034C00059816A817B8189E199E02AE030E00E949C
:1034D00052368091C00085FFFCCF12C0E8E8F1E0D1
:1034E000949108C08091C00085FFFCCF9093C600E6
:1034F000319694919923B1F78091C00085FFFCCF5C
:103500008AE08093C600DF91CF9108952F923F9279
:103510004F925F926F927F928F929F92AF92BF92E3
:10352000CF92DF92EF92FF920F931F93DF93CF938F
:10353000CDB7DEB7AC970FB6F894DEBF0FBECDBFE8
:103540005C014B01FC018381882309F434C1C5016E
:1035500082539E4F0E94B693F50112821A8A1D8AE9
:10356000198A188A81E298E09F878E875EE4C52ECB
:10357000D12CCA0CDB1C2FE230E0A20EB31EF601E8
:10358000B182A08221ED3FEFA20EB31EF401808133
:103590008F3209F08DC0C4016FE270E0D2D87C0197
:1035A0000894E11CF11C3E010894611C711C260169
:1035B00042E1242E312C2C0E3D1E75C0C7016FE256
:1035C00070E0BFD86C01009709F480C0E816F906D6
:1035D00008F07CC08C010E191F09C301B701A801B6
:1035E000D0D8060D171DF8011082F30107C0809195
:1035F000C00085FFFCCF31969093C600908199233F
:10360000B1F78091C00085FFFCCFFAE0F093C600CF
:10361000F201608171816115710519F460E070E05B
:1036200002C06C5F7F4FC101A30121E00E94A29AFA
:10363000882371F5E6EDF1E0949108C08091C00017
:1036400085FFFCCF9093C600319694919923B1F7F2
:10365000FE01319607C08091C00085FFFCCF3196F6
:103660009093C60090819923B1F7E4EDF1E0949135
:1036700008C08091C00085FFFCCF9093C6003196B2
:1036800094919923B1F78091C00085FFFCCF8DC044
:103690002EE030E02C0F3D1FF201318320837601B4
:1036A0000894E11CF11CE114F10409F087CF0BC070
:1036B00080E590E0A80EB91EF601B182A08220EB51
:1036C0003FEFA20EB31ED82C092D02C0DE2C0F2D09
:1036D0008EE490E0A80EB91EF5018081918122EB65
:1036E0003FEFA20EB31E009719F480E090E001C0F6
:1036F00004966D2D702F0E946E9B882339F1E6ECA5
:10370000F1E0949108C08091C00085FFFCCF9093B8
:10371000C600319694919923B1F78D2D902F9C017D
:10372000F90107C08091C00085FFFCCF31969093CE
:10373000C60090819923B1F783E892E0A80EB91EE4
:10374000F501108211821282138232C0EEEAF1E09A
:10375000949108C08091C00085FFFCCF9093C60073
:10376000319694919923B1F78D2D902F9C01F901F9
:1037700007C08091C00085FFFCCF31969093C600B2
:1037800090819923B1F7ECEAF1E0949108C080911F
:10379000C00085FFFCCF9093C60031969491992389
:1037A000B1F78091C00085FFFCCF8AE08093C6000E
:1037B000CE010E96E2DCAC960FB6F894DEBF0FBEDB
:1037C000CDBFCF91DF911F910F91FF90EF90DF90D0
:1037D000CF90BF90AF909F908F907F906F905F90B1
:1037E0004F903F902F900895BF92CF92DF92EF922B
:1037F000FF920F931F93CF93DF938C01EB018FE226
:103800008993FF24EE24E39475EAC72E71E0D72E46
:10381000C00ED11E6FE1B62E14C0FB9CC001112456
:103820008D589F4F800F911FBE010E94C69302C00A
:103830002196E3948881882319F08CE88E15C0F7CF
:10384000F3942F2D30E0F6018081918128173907FC
:1038500020F3E7FC07C0C80182539E4FBE010E94BF
:10386000C69301C01882DF91CF911F910F91FF90F5
:10387000EF90DF90CF90BF9008952F923F924F929C
:103880005F926F927F928F929F92AF92BF92CF92F0
:10389000DF92EF92FF920F931F93DF93CF93CDB7F9
:1038A000DEB7AD970FB6F894DEBF0FBECDBF6C018B
:1038B0004B014DA7DC0113968C91882309F440C37A
:1038C000E1EDF1E0CE0EDF1ED6018C91EFE2FEEFCE
:1038D000CE0EDF1E882309F418C1222309F0E0C0B0
:1038E00029EE31E0C20ED31ED6018C91E7E1FEEF46
:1038F000CE0EDF1E882371F1EBE6F1E0949108C053
:103900008091C00085FFFCCF9093C60031969491C2
:103910009923B1F7EEEAF2E0949108C08091C000DB
:1039200085FFFCCF9093C600319694919923B1F70F
:1039300089E199E061E070E04AE050E00E94A13640
:103940008091C00085FFFCCF8AE08093C6000E9472
:103950002E39F6C2EBE3F1E0949108C08091C000EB
:1039600085FFFCCF9093C600319694919923B1F7CF
:10397000E5E9F2E0949108C08091C00085FFFCCF9A
:103980009093C600319694919923B1F7F40107C042
:103990008091C00085FFFCCF31969093C600908146
:1039A0009923B1F7EAE8F2E0949108C08091C00051
:1039B00085FFFCCF9093C600319694919923B1F77F
:1039C000C6012EEE31E0C20ED31EB6010DDF4BEF65
:1039D0005FEFC40ED51ED6019C91E7E1FEEFCE0E3F
:1039E000DF1E8DE8989FF0011124E251FE4FEC0D8F
:1039F000FD1D07C08091C00085FFFCCF31969093DC
:103A0000C60090819923B1F7E4E8F2E0949108C0F0
:103A10008091C00085FFFCCF9093C60031969491B1
:103A20009923B1F723E832E0C20ED31ED6014D919F
:103A30005D916D917C91EDE7FDEFCE0EDF1E89E18A
:103A400099E02AE030E00E9452368091C00085FF64
:103A5000FCCF8AE08093C600A60147515E4FDA0191
:103A60002C91E22FF0E0EE0FFF1FEE0FFF1FEC0D89
:103A7000FD1DE651FE4F83E892E0C80ED91ED60127
:103A80004D905D906D907C908DE79DEFC80ED91E96
:103A900040825182628273822F5FDA012C932FC0A1
:103AA000EBE3F1E0949108C08091C00085FFFCCF6A
:103AB0009093C600319694919923B1F7E3E7F2E031
:103AC000949108C08091C00085FFFCCF9093C60000
:103AD000319694919923B1F7F40107C08091C00009
:103AE00085FFFCCF31969093C60090819923B1F762
:103AF0008091C00085FFFCCF8AE08093C600C6019C
:103B000082539E4F0E94B69339C0E9EEF1E0CE0E8B
:103B1000DF1ED6011C92E7E1FEEFCE0EDF1EEBE3C7
:103B2000F1E0949108C08091C00085FFFCCF909394
:103B3000C600319694919923B1F7E2E6F2E09491B0
:103B400008C08091C00085FFFCCF9093C6003196DD
:103B500094919923B1F7F40107C08091C00085FFCB
:103B6000FCCF31969093C60090819923B1F7809154
:103B7000C00085FFFCCF8AE08093C600D601129674
:103B80001C921A8A1D8A198A188A81E298E09F87F6
:103B90008E87FEE4AF2EB12CAC0CBD1CEFE2F0E042
:103BA000CE0EDF1ED501CD92DC92E1EDFFEFCE0E01
:103BB000DF1ED4018C918F3209F090C0C4016FE2F6
:103BC00070E00E94A1137C010894E11CF11C3E01ED
:103BD0000894611C711C2501E2E12E2E312C2C0E63
:103BE0003D1E77C0C7016FE270E00E94A1135C0127
:103BF000009709F481C0E816F90608F07DC08C0131
:103C00000E191F09C301B701A8010E94C113060DB7
:103C1000171DF8011082F30107C08091C00085FFD5
:103C2000FCCF31969093C60090819923B1F7809193
:103C3000C00085FFFCCFFAE0F093C600D2016D9181
:103C40007C916115710519F460E070E002C06C5F51
:103C50007F4FC101A30121E00E94A29A882371F540
:103C6000EEE4F2E0949108C08091C00085FFFCCFA3
:103C70009093C600319694919923B1F7FE01319645
:103C800007C08091C00085FFFCCF31969093C6009D
:103C900090819923B1F7ECE4F2E0949108C080910F
:103CA000C00085FFFCCF9093C60031969491992374
:103CB000B1F78091C00085FFFCCF3CC12EE030E021
:103CC0002C0F3D1FF2013183208375010894E11C04
:103CD000F11CE114F10409F085CF0BC040E550E080
:103CE000C40ED51ED501CD92DC92E0EBFFEFCE0ED7
:103CF000DF1E082DF92C01C00E2DF601E25BFF4FEF
:103D00002DA5222309F4B1C060817181611571056F
:103D100019F460E070E002C06C5F7F4FC60182530F
:103D20009E4F402F5F2D21E00E94A29A882309F424
:103D30006CC04FED51E0C40ED51ED6014D915D9182
:103D40006D917C91ECE9F0E0CE0EDF1ED6014D9333
:103D50005D936D937C931397E5E8FDEFCE0EDF1E28
:103D6000EEE3F2E0949108C08091C00085FFFCCFA3
:103D70009093C600319694919923B1F7802F9F2D8F
:103D80009C01F90107C08091C00085FFFCCF3196EE
:103D90009093C60090819923B1F7E6E3F2E0949105
:103DA00008C08091C00085FFFCCF9093C60031967B
:103DB00094919923B1F789E199E02AE030E00E94DB
:103DC00052368091C00085FFFCCF8AE08093C60008
:103DD00023E832E0C20ED31ED6011D921D921D9221
:103DE0001C921397E8E2F2E0949108C08091C00021
:103DF00085FFFCCF9093C600319694919923B1F73B
:103E00008091C00085FFFCCF95C0E4E1F2E0949181
:103E100008C08091C00085FFFCCF9093C60031960A
:103E200094919923B1F7802F9F2D9C01F90107C030
:103E30008091C00085FFFCCF31969093C6009081A1
:103E40009923B1F7E2E1F2E0949108C08091C000BB
:103E500085FFFCCF9093C600319694919923B1F7DA
:103E60008091C00085FFFCCF65C0608171816115C4
:103E7000710519F460E070E002C06C5F7F4FC6010D
:103E800082539E4F402F5F2D26E50E94A29A8823E1
:103E900081F5EEEFF1E0949108C08091C00085FFBC
:103EA000FCCF9093C600319694919923B1F7802F5F
:103EB0009F2D9C01F90107C08091C00085FFFCCFB8
:103EC00031969093C60090819923B1F7ECEFF1E021
:103ED000949108C08091C00085FFFCCF9093C600EC
:103EE000319694919923B1F78091C00085FFFCCF62
:103EF00021C081E0F6018083EAEEF1E0949108C0F0
:103F00008091C00085FFFCCF9093C60031969491BC
:103F10009923B1F7F40107C08091C00085FFFCCF61
:103F200031969093C60090819923B1F78091C0009B
:103F300085FFFCCF8AE08093C600CE010E961DD986
:103F4000AD960FB6F894DEBF0FBECDBFCF91DF9117
:103F50001F910F91FF90EF90DF90CF90BF90AF90A7
:103F60009F908F907F906F905F904F903F902F9099
:103F70000895FC0181E08183CF0140E021E07DCC08
:103F8000FC018381882321F081E082830C94C53376
:103F90000895EF92FF920F931F93CF93DF93EC015D
:103FA0000E9483A18E0107511E4FD8018C919EEC77
:103FB000E92E91E0F92EEC0EFD1E882381F1C70158
:103FC0000E94B693F8016081615060838DE8689F1C
:103FD000B001112462517E4F6C0F7D1FCE0141E074
:103FE00021E04BDCD801EC91F0E0EE0FFF1FEE0F6B
:103FF000FF1FEC0FFD1FE651FE4F40815181628192
:104000007381CD57DD4F488359836A837B83C358BF
:10401000D240C7010E949F92CE01B2DF2EC00E9403
:1040200060A1C7010E94B6931A828FE291E00E94BC
:10403000927980915B0E882301F110925B0E809142
:10404000DD0BC82FD0E0CC0FDD1FC050DE4E6881E5
:104050007981882777FD8095982F0E940AFA209110
:104060006C0730916D0740916E0750916F070E9469
:1040700076FB181614F419821882DF91CF911F91E4
:104080000F91FF90EF900895EF92FF920F931F937F
:10409000CF93DF938C01FC01138286A9882321F042
:1040A000C801C3960E94B69327EAE22E21E0F22EC1
:1040B000E00EF11EC70160E045E30E946591882390
:1040C00009F5EBE3F1E0949108C08091C00085FF11
:1040D000FCCF9093C600319694919923B1F7EFE10C
:1040E000F3E0949108C08091C00085FFFCCF9093CD
:1040F000C600319694919923B1F78091C00085FF55
:10410000FCCF7DC0E801C455DE4FCE01B70141E0D0
:104110000E942C9C882341F5CE01B70140E00E940B
:104120002C9C882309F5EBE6F1E0949108C080917E
:10413000C00085FFFCCF9093C600319694919923DF
:10414000B1F7ECE0F3E0949108C08091C00085FFE6
:10415000FCCF9093C600319694919923B1F780914A
:10416000C00085FFFCCF4BC0C801C396BE010E94B2
:10417000A896882309F5EBE6F1E0949108C08091B8
:10418000C00085FFFCCF9093C6003196949199238F
:10419000B1F7ECEFF2E0949108C08091C00085FF88
:1041A000FCCF9093C600319694919923B1F78091FA
:1041B000C00085FFFCCF23C081E0F8018383EBE3DF
:1041C000F1E0949108C08091C00085FFFCCF9093EE
:1041D000C600319694919923B1F7E1EFF2E0949102
:1041E00008C08091C00085FFFCCF9093C600319637
:1041F00094919923B1F78091C00085FFFCCF8AE0AC
:104200008093C600D801AC5ABF4FF801F3968BE1FA
:1042100001900D928150E1F7F80181A992A90E5AFF
:104220001F4FF8019183808302551040C8018F967B
:10423000025B1F4FF80191838083DF91CF911F9123
:104240000F91FF90EF9008952F923F924F925F92BF
:104250006F927F929F92AF92BF92CF92DF92EF9236
:10426000FF920F931F93DF93CF93CDB7DEB7CC555B
:10427000D0400FB6F894DEBF0FBECDBF6C016623F1
:1042800011F527E832E0C20ED31ED6018C91E9E782
:10429000FDEFCE0EDF1E882309F4E3C02FE732E0E6
:1042A000C20ED31ED601ED90FD900D911C91E1E858
:1042B000FDEFCE0EDF1E0E9469F5E616F706080731
:1042C000190708F4CEC027E832E0C20ED31ED6018B
:1042D0001C92E9E7FDEFCE0EDF1ED60113968C91FE
:1042E000882339F4C601D0DEF6018381882309F4DE
:1042F000B8C000D000D0EDB7FEB731967E0108946B
:10430000E11CF11CADB7BEB71296FC92EE9211976C
:1043100082E691E093838283D6019D968D919C9154
:104320009E97958384830E94F3138701EDB7FEB7B0
:1043300036960FB6F894FEBF0FBEEDBF57010AC008
:10434000D8018C91992787FD90950E94ABFDF801CB
:1043500081938F01F50101900020E9F73197EA1967
:10436000FB09802F8E198E175CF363E3A62EB12C08
:10437000AC0CBD1CC50140E050E060E070E00E9464
:104380009F9299245DE3E52EF12CEC0EFD1E2E018B
:104390000894411C511C4FE1642E712C6C0E7D1E43
:1043A0003BE5232E31E0332E42C0D8018C9190E0C2
:1043B0000E94ABFDF80181938F01D7010D90002081
:1043C000E9F71197AE19BF09802F8E198A176CF380
:1043D00027968FAD27978E3751F1C701B20145E07F
:1043E00050E00E94B313009711F500D000D0EDB754
:1043F000FEB73196ADB7BEB712967C926E9211970A
:1044000033822282558244820E94F313EDB7FEB7B5
:1044100036960FB6F894FEBF0FBEEDBFC3010E94E3
:104420000B7A87E591E00E94927999249394C501D3
:10443000B70140E050E00E94C795181614F48701B8
:10444000BCCF992041F48FEF9FEFD6019E969C93AD
:104450008E939D9706C0F60185A596A5019696A711
:1044600085A7C45ADF4F0FB6F894DEBF0FBECDBF8D
:10447000CF91DF911F910F91FF90EF90DF90CF9040
:10448000BF90AF909F907F906F905F904F903F90C4
:104490002F9008952F923F924F925F926F927F924A
:1044A0008F929F92AF92BF92CF92DF92EF92FF9244
:1044B0000F931F93DF93CF93CDB7DEB7CF58D04084
:1044C0000FB6F894DEBF0FBECDBF8C013B016A0171
:1044D00084E090E0C80ED91EF8017196C757DF4FEF
:1044E000F983E883C958D040C8010496CA57DF4F02
:1044F00099838883C658D040C857DF4F1882C85860
:10450000D040B6E6EB2EF12CEC0EFD1EF7013B96EB
:10451000C557DF4FF983E883CB58D040A8E88A2EEF
:10452000A2E09A2E800E911EFAE8AF2EF2E0BF2E86
:10453000A00EB11EEEE02E2E312C2C0E3D1E77E487
:10454000472E512C4C0E5D1EC2010496C357DF4FFF
:1045500099838883CD58D040EBE3F1E09491C15723
:10456000DF4F9883CF58D0404EC1F7018385482F45
:1045700050E0BA01687170706031710509F051C185
:10458000F401208131812130310509F44AC1223002
:10459000310509F446C1F701DE0111969081903290
:1045A00039F08E2F8E19883011F48EE28D939D9301
:1045B0003196C557DF4F88819981CB58D040E81795
:1045C000F90761F71C921E86F3018081882329F484
:1045D000C10160E072E00E949613C101B3010E9424
:1045E0009613C101BE016F5F7F4F0E949613C101F8
:1045F00060E072E00E9496131CA61FA61BA61AA6D6
:1046000081E298E099A788A7CE018C96B601AE0109
:104610004F5F5F4F21E00E94A29A882309F03FC0BC
:10462000F40180819181892BD1F5C157DF4F9881A9
:10463000CF58D040EBE3F1E008C08091C00085FF87
:10464000FCCF9093C600319694919923B1F7E2E0A4
:10465000F2E007C08091C00085FFFCCF31969093B7
:10466000C60090819923B1F78091C00085FFFCCFEF
:10467000FAE0F093C600FE01319607C08091C000B9
:1046800085FFFCCF31969093C60090819923B1F7B6
:104690008091C00085FFFCCF8AE08093C600C3579D
:1046A000DF4FA881B981CD58D040FE01BC968BE187
:1046B00001900D928150E1F78AA59BA5F2019383A9
:1046C000828381E298E091838083C801B101A201D5
:1046D000E1DEC2010E94BD18CE0188960E94BD187D
:1046E00092C0953E09F48FC09E3209F48CC09F356C
:1046F00009F489C0F8019189992331F09E3209F4B7
:1047000082C09F3509F47FC043FD7DC080E06031E9
:10471000710509F481E0F80184A7882349F4F701C1
:104720008085873409F06FC081858E3709F46BC0AE
:10473000CA57DF4FA881B981C658D040F7018081A0
:10474000803241F08E2F8E19883011F48EE28D93D5
:1047500080818D933196C557DF4F88819981CB58E1
:10476000D040E817F90759F71C92F4018081918134
:10477000009729F5F30107C08091C00085FFFCCFA9
:1047800031969093C60090819923B1F7CA57DF4FB5
:10479000E881F981C658D04007C08091C00085FFEC
:1047A000FCCF31969093C60090819923B1F7809108
:1047B000C00085FFFCCFFAE0F093C60024C0813032
:1047C000910539F4F501808191810196918380836F
:1047D0001AC00297C1F4C857DF4FF881C858D040BB
:1047E0002F2F30E0F5018081918128173907F1F0F2
:1047F000C857DF4FF881C858D040FF5FC857DF4F18
:10480000F883C858D040C601B701C757DF4F488169
:104810005981C958D0400E94C79518160CF4A5CEEE
:1048200005C0F7019081992309F05BCFC157DF4F95
:104830000FB6F894DEBF0FBECDBFCF91DF911F91B1
:104840000F91FF90EF90DF90CF90BF90AF909F902F
:104850008F907F906F905F904F903F902F90089532
:10486000EF92FF920F931F93DF93CF93CDB7DEB7F5
:104870006F970FB6F894DEBF0FBECDBF7C018C01E1
:10488000025B1F4F805B9F4FF8019183808328E874
:1048900032E0E20EF31E21E030E0F7012193319384
:1048A0007F011182108226E73DEFE20EF31E04968F
:1048B00040E050E060E070E00E949F92F8012081AB
:1048C0003181DE011596F90134968BE101900D924C
:1048D0008150E1F7F901828193819C838B8381E28E
:1048E00098E09A838983C70165E172E08E010F5FCA
:1048F0001F4FA801CFDDC8010E94BD18F701E65780
:10490000FD4F808191816F960FB6F894DEBF0FBE88
:10491000CDBFCF91DF911F910F91FF90EF90089540
:10492000EF92FF920F931F93DF93CF93CDB7DEB734
:104930006F970FB6F894DEBF0FBECDBF7C018C0120
:10494000025B1F4F805B9F4FF8019183808328E8B3
:1049500032E0E20EF31E22E030E0F70131832083E3
:1049600028E73DEFE20EF31EF701E657FD4F6083A7
:104970001182049640E050E060E070E00E949F9257
:10498000F80120813181DE011596F90134968BE121
:1049900001900D928150E1F7F901828193819C830E
:1049A0008B8381E298E09A838983C70165E172E095
:1049B0008E010F5F1F4FA8016DDDC8010E94BD1859
:1049C0006F960FB6F894DEBF0FBECDBFCF91DF91CB
:1049D0001F910F91FF90EF900895EF92FF920F9328
:1049E0001F93DF93CF93CDB7DEB76F970FB6F894D1
:1049F000DEBF0FBECDBF7C0188E892E0E80EF91E55
:104A0000F7011182108288E79DEFE80EF91E8701F9
:104A10000D5C1F4FC80140E050E060E070E00E9474
:104A20009F92DE011596F8018BE101900D92815065
:104A3000E1F7F70181A992A99C838B8381E298E039
:104A40009A838983C70165E172E08E010F5F1F4F72
:104A5000A80120DDC8010E94BD186F960FB6F8941A
:104A6000DEBF0FBECDBFCF91DF911F910F91FF90A1
:104A7000EF9008950F931F93CF93DF93DC01D396AC
:104A80001C92D397D6961C92D697D2961C921E92C1
:104A9000D19781E298E0D0969C938E939F97AC5AE1
:104AA000BF4F1C9213961C92A755B040FD01E05BCE
:104AB000FF4FAE5ABF4F11961C921E92A255B040A6
:104AC00091838083ED01C159DF4FFE0120E030E08A
:104AD000482F148217821382128240839183215EB1
:104AE0003F4F7F9681E02633380799F7A855BE4F90
:104AF00089E18C9313961C9258961C921B961C92DB
:104B000013961C92A15DB140FD01E653FE4FA453E4
:104B1000BE4F11961C921E9240839183A155BF4FA8
:104B20001D921D921D921C92139718961D921D9214
:104B30001D921C921397A358B24012961C92129782
:104B400013961C9213971C9211961C9211978D012B
:104B500001581D4FF8011082118212821382AB5549
:104B6000BE4F11961C921E92AC5BBF4F1C92FE0171
:104B7000C90111920197E9F7A256BF4F81E08C93CA
:104B8000A758B2409E961C921E929D970E9469F56E
:104B900068577C4E8F4F9F4FF801608371838283EB
:104BA0009383DF91CF911F910F910895CF92DF9260
:104BB000EF92FF920F931F93DF93CF93CDB7DEB7A2
:104BC0002A970FB6F894DEBF0FBECDBF80911602B4
:104BD00090911702A0911802B09119028B839C83C7
:104BE000AD83BE83FE01339684E690E02081F9997F
:104BF000FECF1FBA92BD81BD20BD0FB6F894FA9AC0
:104C0000F99A0FBE01968836910511F03196EECFD4
:104C1000EFEFFDE02081F999FECF1FBA92BD81BD73
:104C200020BD0FB6F894FA9AF99A0FBE019688370C
:104C3000910511F03196EECFEFEEFDE02081F9996C
:104C4000FECF1FBA92BD81BD20BD0FB6F894FA9A6F
:104C5000F99A0FBE01968838910511F03196EECF82
:104C6000EFE0FEE02081F999FECF1FBA92BD81BD31
:104C700020BD0FB6F894FA9AF99A0FBE01968839BA
:104C8000910511F03196EECFE3E2FEE02081F99933
:104C9000FECF1FBA92BD81BD20BD0FB6F894FA9A1F
:104CA000F99A0FBE01968C39910511F03196EECF2D
:104CB000E7E2FEE02081F999FECF1FBA92BD81BDE7
:104CC00020BD0FB6F894FA9AF99A0FBE0196803A71
:104CD000910511F03196EECFEFE1FEE02081F999D8
:104CE000FECF1FBA92BD81BD20BD0FB6F894FA9ACF
:104CF000F99A0FBE0196843A910511F03196EECFE4
:104D0000E7E3FEE02081F999FECF1FBA92BD81BD95
:104D100020BD0FB6F894FA9AF99A0FBE0196883A18
:104D2000910511F03196EECFEBEEFDE02081F9997F
:104D3000FECF1FBA92BD81BD20BD0FB6F894FA9A7E
:104D4000F99A0FBE01968C3A910511F03196EECF8B
:104D5000EBE2FEE02081F999FECF1FBA92BD81BD42
:104D600020BD0FB6F894FA9AF99A0FBE0196803BCF
:104D7000910511F03196EECFEFE2FEE02081F99936
:104D8000FECF1FBA92BD81BD20BD0FB6F894FA9A2E
:104D9000F99A0FBE0196843B910511F03196EECF42
:104DA000E3E3FEE02081F999FECF1FBA92BD81BDF9
:104DB00020BD0FB6F894FA9AF99A0FBE0196883B77
:104DC000910511F03196EECFEEEBFBE02081F999E1
:104DD000FECF1FBA92BD81BD20BD0FB6F894FA9ADE
:104DE000F99A0FBE0196843C910511F03196EECFF1
:104DF000EAECFBE02081F999FECF1FBA92BD81BD9C
:104E000020BD0FB6F894FA9AF99A0FBE0196803D2C
:104E1000910511F03196EECFE2E5F2E12081F999AA
:104E2000FECF1FBA92BD81BD20BD0FB6F894FA9A8D
:104E3000F99A0FBE0196823D910511F03196EECFA1
:104E4000E4E5F2E12081F999FECF1FBA92BD81BD60
:104E500020BD0FB6F894FA9AF99A0FBE0196843DD8
:104E6000910511F03196EECFE6E5F2E12081F99956
:104E7000FECF1FBA92BD81BD20BD0FB6F894FA9A3D
:104E8000F99A0FBE0196863D910511F03196EECF4D
:104E9000E8E5F2E12081F999FECF1FBA92BD81BD0C
:104EA00020BD0FB6F894FA9AF99A0FBE0196883D84
:104EB000910511F03196EECFEAE5F2E12081F99902
:104EC000FECF1FBA92BD81BD20BD0FB6F894FA9AED
:104ED000F99A0FBE01968A3D910511F03196EECFF9
:104EE000ECE5F2E12081F999FECF1FBA92BD81BDB8
:104EF00020BD0FB6F894FA9AF99A0FBE01968C3D30
:104F0000910511F03196EECFEEE5F2E12081F999AD
:104F1000FECF1FBA92BD81BD20BD0FB6F894FA9A9C
:104F2000F99A0FBE01968E3D910511F03196EECFA4
:104F3000E0E6F2E12081F999FECF1FBA92BD81BD72
:104F400020BD0FB6F894FA9AF99A0FBE0196803EEA
:104F5000910511F03196EECFE2E6F2E12081F99968
:104F6000FECF1FBA92BD81BD20BD0FB6F894FA9A4C
:104F7000F99A0FBE0196823E910511F03196EECF5F
:104F8000E9EDFBE02081F999FECF1FBA92BD81BD0A
:104F900020BD0FB6F894FA9AF99A0FBE0196863E94
:104FA000910511F03196EECFE4E6F2E12081F99916
:104FB000FECF1FBA92BD81BD20BD0FB6F894FA9AFC
:104FC000F99A0FBE0196883E910511F03196EECF09
:104FD000E7E6F2E12081F999FECF1FBA92BD81BDCB
:104FE00020BD0FB6F894FA9AF99A0FBE01968A3E40
:104FF000910511F03196EECFEFE6F2E12081F999BB
:10500000FECF1FBA92BD81BD20BD0FB6F894FA9AAB
:10501000F99A0FBE01968C3E910511F03196EECFB4
:10502000E9E6F2E12081F999FECF1FBA92BD81BD78
:1050300020BD0FB6F894FA9AF99A0FBE01968E3EEB
:10504000910511F03196EECFEBE6F2E12081F9996E
:10505000FECF1FBA92BD81BD20BD0FB6F894FA9A5B
:10506000F99A0FBE0196803F910511F03196EECF6F
:10507000EDE6F2E12081F999FECF1FBA92BD81BD24
:1050800020BD0FB6F894FA9AF99A0FBE0196823FA6
:10509000910511F03196EECFE1E7F2E12081F99927
:1050A000FECF1FBA92BD81BD20BD0FB6F894FA9A0B
:1050B000F99A0FBE0196843F910511F03196EECF1B
:1050C000E3E7F2E12081F999FECF1FBA92BD81BDDD
:1050D00020BD0FB6F894FA9AF99A0FBE0196863F52
:1050E000910511F03196EECFE5E7F2E12081F999D3
:1050F000FECF1FBA92BD81BD20BD0FB6F894FA9ABB
:10510000F99A0FBE0196883F910511F03196EECFC6
:10511000E7E7F2E12081F999FECF1FBA92BD81BD88
:1051200020BD0FB6F894FA9AF99A0FBE01968A3FFD
:10513000910511F03196EECFE9E7F2E12081F9997E
:10514000FECF1FBA92BD81BD20BD0FB6F894FA9A6A
:10515000F99A0FBE01968C3F910511F03196EECF72
:10516000EBE7F2E12081F999FECF1FBA92BD81BD34
:1051700020BD0FB6F894FA9AF99A0FBE8D3F9105AB
:1051800021F031968DEF90E0EDCF20917D12F999CD
:10519000FECF1FBA8EEF90E092BD81BD20BD0FB64D
:1051A000F894FA9AF99A0FBE2FEF30E0EE24FF241C
:1051B00033C0BD01600F711F660F771F660F771F29
:1051C0006451744F40E050E0FB01E40FF51FE081B3
:1051D000F999FECF1FBACA018C0D9D1D92BD81BDEC
:1051E000E0BD0FB6F894FA9AF99A0FBE4F5F5F4F81
:1051F0004430510549F784E090E0C80ED91E11965D
:10520000A330B105B1F6245F3F4F0894E11CF11CB7
:1052100091E02332390749F06901A0E0B0E087014D
:10522000000F111F0E0D1F1DC4CFE7EEFDE08081A2
:10523000F999FECF1FBA32BD21BD80BD0FB6F894DB
:10524000FA9AF99A0FBE2F5F3F4F81E02732380755
:1052500011F03196ECCFE9E7F7E08081F999FECFC4
:105260001FBA32BD21BD80BD0FB6F894FA9AF99AE3
:105270000FBE2F5F3F4F91E02B32390711F031966F
:10528000ECCFEDE7F7E08081F999FECF1FBA32BD90
:1052900021BD80BD0FB6F894FA9AF99A0FBE2F5F20
:1052A0003F4F81E02F32380711F03196ECCFE1E823
:1052B000F7E08081F999FECF1FBA32BD21BD80BDD4
:1052C0000FB6F894FA9AF99A0FBE2F5F3F4F91E00C
:1052D0002333390711F03196ECCF80E290E09A83C6
:1052E0008983FE0131968081F999FECF1FBA32BDC4
:1052F00021BD80BD0FB6F894FA9AF99A0FBE2453D7
:10530000314021F0319624E331E0EDCF80911A0253
:1053100090911B02A0911C02B0911D028F8398876F
:10532000A987BA87FE01379684E690E02081F99933
:10533000FECF1FBA92BD81BD20BD0FB6F894FA9A78
:10534000F99A0FBE8736910519F001963196EECF86
:10535000ECE2F3E0949108C08091C00085FFFCCF9F
:105360009093C600319694919923B1F7EEE7F5E05A
:10537000949108C08091C00085FFFCCF9093C60037
:10538000319694919923B1F78091C00085FFFCCFAD
:105390008AE08093C6002A960FB6F894DEBF0FBE4F
:1053A000CDBFCF91DF911F910F91FF90EF90DF90D4
:1053B000CF900895DF93CF93CDB7DEB7E0970FB6C8
:1053C000F894DEBF0FBECDBFDE011196E1EDF7E030
:1053D00080E101900D928150E1F7DE015196E1EC00
:1053E000F7E080E101900D928150E1F7DE019196A6
:1053F000E1EBF7E080E101900D928150E1F78981C6
:105400009A81AB81BC818093FF0D9093000EA09395
:10541000010EB093020E89899A89AB89BC89809369
:10542000EF0D9093F00DA093F10DB093F20D89A1C3
:105430009AA1ABA1BCA180930F0E9093100EA093E4
:10544000110EB093120E8D819E81AF81B88580932D
:10545000030E9093040EA093050EB093060E8D8953
:105460009E89AF89B88D8093F30D9093F40DA0932E
:10547000F50DB093F60D8DA19EA1AFA1B8A58093B7
:10548000130E9093140EA093150EB093160E8985EB
:105490009A85AB85BC858093070E9093080EA093E8
:1054A000090EB0930A0E898D9A8DAB8DBC8D8093B9
:1054B000F70D9093F80DA093F90DB093FA0D89A50F
:1054C0009AA5ABA5BCA58093170E9093180EA09338
:1054D000190EB0931A0E8D859E85AF85B88980937D
:1054E0000B0E90930C0EA0930D0EB0930E0E8D8D9F
:1054F0009E8DAF8DB8A18093FB0D9093FC0DA09372
:10550000FD0DB093FE0D8DA59EA5AFA5B8A9809306
:105510001B0E90931C0EA0931D0EB0931E0E0E94A6
:10552000497F80E090E0AAE7B4E48093230E909353
:10553000240EA093250EB093260E80E090E8ABE3F6
:10554000B5E48093270E9093280EA093290EB09374
:105550002A0E20E030E040E050E020931F0E309310
:10556000200E4093210E5093220E80E29EE4A0E094
:10557000B0E08093EB0D9093EC0DA093ED0DB09304
:10558000EE0D2093370E3093380E4093390E509322
:105590003A0E80E090E0A0EAB1E480932B0E909365
:1055A0002C0EA0932D0EB0932E0E80932F0E909361
:1055B000300EA093310EB093320E80E090E0A0E761
:1055C000B1E48093330E9093340EA093350EB093D4
:1055D000360E2093C60B3093C70B4093C80B5093E5
:1055E000C90B2093C20B3093C30B4093C40B509351
:1055F000C50B2093BE0B3093BF0B4093C00B509351
:10560000C10B2093D20B3093D30B4093D40B509308
:10561000D50B2093CE0B3093CF0B4093D00B5093F0
:10562000D10B2093CA0B3093CB0B4093CC0B5093F0
:10563000CD0B68EC70E0709353126093521246E405
:1056400050E050935512409354122FEF30E03093B6
:1056500057122093561280EF90E090935912809346
:1056600058128AE590E090935B1280935A1230931F
:105670005D1220935C1270935F1260935E125093E0
:1056800061124093601230936312209362128AE099
:1056900090E09093651280936412109268121092B9
:1056A000671284E690E09093701280936F123093AB
:1056B0006A122093691230936C1220936B1230930C
:1056C0006E1220936D12109272121092711230931A
:1056D00074122093731210927612109275123093F6
:1056E00078122093771210927A12109279121092F7
:1056F0007C1210927B1281E080937D1280E090E01A
:10570000A0E0B0E88093D90B9093DA0BA093DB0B69
:10571000B093DC0B83E393E3A3E1B1E480937907D7
:1057200090937A07A0937B07B0937C076DEC7CEC99
:105730008CE89FE30E94DEA960937D0770937E074B
:1057400080937F079093800760E070E088E991E4A0
:105750000E94EAA960938107709382078093830770
:10576000909384070E94F5A880E090E0A0E8BFE352
:105770008093850790938607A0938707B093880747
:1057800060E070E080E090E00E941B7EECEEFBE0C9
:1057900080E090E0A0E0B0E080839183A283B383B7
:1057A00084839583A683B78380879187A287B387F5
:1057B0003C962CE0E031F20779F7F8D9ECE2F3E01F
:1057C000949108C08091C00085FFFCCF9093C600E3
:1057D000319694919923B1F7E2E3F3E0949108C0F4
:1057E0008091C00085FFFCCF9093C60031969491C4
:1057F0009923B1F78091C00085FFFCCF8AE08093A8
:10580000C600E0960FB6F894DEBF0FBECDBFCF91B5
:10581000DF910895CF92DF92EF92FF920F931F9343
:10582000DF93CF93CDB7DEB72A970FB6F894DEBFDC
:105830000FBECDBF80911A0290911B02A0911C0255
:10584000B0911D028F839887A987BA87FE0133968E
:1058500004E610E0F999FECF12BD01BDF89A80B5BB
:1058600080830F5F1F4F0836110511F03196F2CF7C
:10587000CE010796BE016D5F7F4F43E050E00E946E
:10588000B313009709F0F1C2EFEFFDE0F999FECFF5
:1058900012BD01BDF89A80B580830F5F1F4F083796
:1058A000110511F03196F2CFEFEEFDE0F999FECF40
:1058B00012BD01BDF89A80B580830F5F1F4F083875
:1058C000110511F03196F2CFEFE0FEE0F999FECF2D
:1058D00012BD01BDF89A80B580830F5F1F4F083954
:1058E000110511F03196F2CF0E94497FE3E2FEE00C
:1058F000F999FECF12BD01BDF89A80B580830F5F84
:105900001F4F0C39110511F03196F2CFE7E2FEE09E
:10591000F999FECF12BD01BDF89A80B580830F5F63
:105920001F4F003A110511F03196F2CFEFE1FEE082
:10593000F999FECF12BD01BDF89A80B580830F5F43
:105940001F4F043A110511F03196F2CFE7E3FEE064
:10595000F999FECF12BD01BDF89A80B580830F5F23
:105960001F4F083A110511F03196F2CFEBEEFDE032
:10597000F999FECF12BD01BDF89A80B580830F5F03
:105980001F4F0C3A110511F03196F2CFEBE2FEE019
:10599000F999FECF12BD01BDF89A80B580830F5FE3
:1059A0001F4F003B110511F03196F2CFEFE2FEE000
:1059B000F999FECF12BD01BDF89A80B580830F5FC3
:1059C0001F4F043B110511F03196F2CFE3E3FEE0E7
:1059D000F999FECF12BD01BDF89A80B580830F5FA3
:1059E0001F4F083B110511F03196F2CFEEEBFBE0B3
:1059F000F999FECF12BD01BDF89A80B580830F5F83
:105A00001F4F043C110511F03196F2CFEAECFBE098
:105A1000F999FECF12BD01BDF89A80B580830F5F62
:105A20001F4F003D110511F03196F2CFE2E5F2E192
:105A3000F999FECF12BD01BDF89A80B580830F5F42
:105A40001F4F023D110511F03196F2CFE4E5F2E16E
:105A5000F999FECF12BD01BDF89A80B580830F5F22
:105A60001F4F043D110511F03196F2CFE6E5F2E14A
:105A7000F999FECF12BD01BDF89A80B580830F5F02
:105A80001F4F063D110511F03196F2CFE8E5F2E126
:105A9000F999FECF12BD01BDF89A80B580830F5FE2
:105AA0001F4F083D110511F03196F2CFEAE5F2E102
:105AB000F999FECF12BD01BDF89A80B580830F5FC2
:105AC0001F4F0A3D110511F03196F2CFECE5F2E1DE
:105AD000F999FECF12BD01BDF89A80B580830F5FA2
