:100000000C944A100C9477100C9477100C94771081
:100010000C9477100C9477100C9477100C94771044
:100020000C9477100C9477100C9477100C94771034
:100030000C9477100C9477100C9477100C94771024
:100040000C9477100C94D6910C9477100C94771034
:100050000C9477100C9477100C94D89A0C9444E27A
:100060000C9477100C9432690C9477100C947710E0
:100070000C9477100C9477100C9477100C947710E4
:100080000C9477100C9477100C9477100C947710D4
:100090000C9477100C9477100C9477100C94AFE0BC
:1000A0000C9477100C9477100C9477100C947710B4
:1000B0000C9477100C9477100C9477100C947710A4
:1000C0000C9477100C9477100C9477100C94771094
:1000D0000C9477100C9477100C9477100C94771084
:1000E0000C947710084AD73B3BCE016E84BCBFFD11
:1000F000C12F3D6C74319ABD56833DDA3D00C77FF8
:1001000011BED9E4BB4C3E916BAAAABE0000008090
:100110003F05A84CCDB2D44EB93836A9020C50B91F
:10012000918688083CA6AAAA2ABE000000803F4DFE
:10013000383420582059205A2045006563686F3AAA
:100140000043616E6E6F7420656E74657220737506
:10015000626469723A20004D3234004D32332025FA
:1001600073006175746F25692E67004572726F7236
:100170003A006572726F722077726974696E6720D7
:10018000746F2066696C65004E6F74205344207054
:1001900072696E74696E67002F0053442070726933
:1001A0006E74696E67206279746520002E00446564
:1001B0006C6574696F6E206661696C65642C20469D
:1001C000696C653A200046696C652064656C6574ED
:1001D00065643A002E006F70656E206661696C651B
:1001E000642C2046696C653A200057726974696E08
:1001F0006720746F2066696C653A20002E006F706E
:10020000656E206661696C65642C2046696C653A90
:1002100020002E006F70656E206661696C65642C2D
:100220002046696C653A200046696C652073656CF0
:100230006563746564002053697A653A20004669F5
:100240006C65206F70656E65643A20002E006F70DB
:10025000656E206661696C65642C2046696C653A40
:1002600020004E6F772066726573682066696C6542
:100270003A20004E6F7720646F696E672066696C64
:10028000653A20002220706F730022207061726531
:100290006E743A2200535542524F5554494E4520F0
:1002A00043414C4C207461726765743A2200747249
:1002B00079696E6720746F2063616C6C207375625E
:1002C0002D67636F64652066696C65732077697458
:1002D0006820746F6F206D616E79206C6576656C37
:1002E000732E204D4158206C6576656C2069733AF9
:1002F0000053442063617264206F6B006F70656E01
:10030000526F6F74206661696C656400766F6C75FE
:100310006D652E696E6974206661696C6564005351
:100320004420696E6974206661696C006563686F5A
:100330003A0048617264636F646564204465666175
:10034000756C742053657474696E6773204C6F61AB
:100350006465640053746F726564207365747469B6
:100360006E677320726574726965766564002044F7
:10037000002049002020204D3330312050005049CA
:10038000442073657474696E67733A00205A0020C4
:10039000590020204D363636205800456E6473745F
:1003A0006F702061646A757374656D656E74202862
:1003B0006D6D293A00205A0020590020204D32301E
:1003C00036205800486F6D65206F6666736574202F
:1003D000286D6D293A00204500205A002058002041
:1003E000420020540020204D32303520530041641B
:1003F00076616E636564207661726961626C6573B3
:100400003A20533D4D696E2066656564726174657E
:1004100020286D6D2F73292C20543D4D696E20745A
:10042000726176656C20666565647261746520280A
:100430006D6D2F73292C20423D6D696E696D756D50
:10044000207365676D656E742074696D6520286D15
:1004500073292C20583D6D6178696D756D20585950
:10046000206A65726B20286D6D2F73292C20205A0D
:100470003D6D6178696D756D205A206A65726B20DB
:10048000286D6D2F73292C2020453D6D6178696D95
:10049000756D2045206A65726B20286D6D2F73295C
:1004A0000020540020204D3230342053004163633B
:1004B000656C65726174696F6E3A20533D61636368
:1004C000656C65726174696F6E2C20543D72657441
:1004D0007261637420616363656C65726174696FD6
:1004E0006E00204500205A0020590020204D323057
:1004F000312058004D6178696D756D2041636365E9
:100500006C65726174696F6E20286D6D2F7332296E
:100510003A00204500205A0020590020204D32305A
:10052000332058004D6178696D756D20666565648E
:10053000726174657320286D6D2F73293A00204510
:1005400000205A0020590020204D393220580053F5
:10055000746570732070657220756E69743A00530B
:10056000657474696E67732053746F726564000DEF
:100570000A342E204E6F7A7A6C65202620426564FC
:100580002073657420746F20313030206467726589
:10059000650D0A000D0A332E2046616E204F6E0D48
:1005A0000A004842204572726F720D0A00484220CC
:1005B0004F6B0D0A004E6F7A7A6C65204572726F30
:1005C000720D0A000D0A4E6F7A7A6C65204F6B0D22
:1005D0000A0020423A004E3A000D0A322E2054689A
:1005E00065726D6973746F720D0A0058204F4B0D60
:1005F0000A0058204572726F720D0A005A204F4B44
:100600000D0A005A204572726F720D0A0059204F70
:100610004B0D0A0059204572726F720D0A00312E7F
:10062000204C696D6974207377697463680D0A00E2
:100630000D0A426F61726420546573740D0A00657F
:1006400063686F3A004572726F723A0053544F50AC
:100650005045442E20005072696E74657220737488
:100660006F707065642064756520746F20657272A8
:100670006F72732E204669782074686520657272E7
:100680006F7220616E6420757365204D3939392091
:10069000746F20726573746172742E202854656DB6
:1006A0007065726174757265206973207265736517
:1006B000742E2053657420697420616674657220FD
:1006C00072657374617274696E6729004B494C4C92
:1006D00045442E20005072696E7465722068616C0A
:1006E0007465642E206B696C6C28292063616C6CC6
:1006F000656421006F6B00526573656E643A20007B
:100700002200556E6B6E6F776E20636F6D6D616E3C
:10071000643A202200435245415441424C45204412
:1007200033205245414459005072696E74696E67B6
:100730002E2E2E2020202020202020200020423A73
:100740000020453A00543A0048656174696E67209C
:100750002E2E2E20202020202020202000486561E1
:1007600074696E6720646F6E652E004865617469F8
:100770006E672063616E636C65642E0020573A00DB
:1007800020453A00543A0048656174696E672E2E20
:100790002E202020202020202020200043524541D0
:1007A0005441424C45204433205245414459004372
:1007B0005245415441424C45204433205245414426
:1007C000590048656174696E672E2E2E2020202006
:1007D0002020202020200048656174696E67206415
:1007E0006F6E652E0048656174696E672063616E87
:1007F000636C65642E0020573A0020453A00543A55
:100800000048656174696E672E2E2E2020202020FE
:10081000202020202000435245415441424C452095
:100820004433205245414459007A5F6D61783A2043
:10083000007A5F6D696E3A2000795F6D61783A20C9
:1008400000785F6D61783A2000205A3A0020593ACA
:100850000020436F756E7420583A200020453A00FE
:10086000205A3A0020593A00583A004649524D570A
:100870004152455F4E414D453A4D61726C696E2063
:1008800056313B20537072696E7465722F677262C5
:100890006C206D617368757020666F722067656E7D
:1008A00036204649524D574152455F55524C3A68A1
:1008B0007474703A2F2F637265617461626C656C39
:1008C0006162732E636F6D2050524F544F434F4CF3
:1008D0005F56455253494F4E3A312E30204D4143D9
:1008E00048494E455F545950453A43524541544159
:1008F000424C452044332045585452554445525F9C
:10090000434F554E543A3120555549443A303030D2
:1009100030303030302D303030302D303030302DE0
:10092000303030302D3030303030303030303030CA
:10093000300A00435245415441424C452044332043
:100940004F66662E00435245415441424C45204477
:1009500033205245414459005072696E74696E6784
:100960002E2E2E2020202020202020200020423A41
:100970000020453A00543A0048656174696E67206A
:100980002E2E2E20202020202020202000486561AF
:1009900074696E6720646F6E652E004865617469C6
:1009A0006E672063616E636C65642E0020573A00A9
:1009B00020453A00543A0048656174696E672E2EEE
:1009C0002E20202020202020202020002042403ADD
:1009D0000020403A00202F003A00205400202F0031
:1009E00020423A00202F006F6B20543A00256920E6
:1009F0006D696E2C2025692073656300456E642047
:100A000066696C65206C69737400426567696E2065
:100A100066696C65206C697374004E6F206D6F762B
:100A2000652E00526573756D696E67207072696E10
:100A300074005761697420666F7220757365722E39
:100A40002E2E00435245415441424C452044332010
:100A5000524541445900536C6565702E2E2E00019D
:100A60000101000087430000874300006643000047
:100A7000A0400000A0400000A040000000000000D6
:100A8000000000006643000007C3000007C3000029
:100A9000000000000743000007430000664325698B
:100AA00020686F757273202569206D696E75746595
:100AB0007300446F6E65207072696E74696E672092
:100AC00066696C650053544F505045442E200050C9
:100AD00072696E7465722073746F707065642064DF
:100AE000756520746F206572726F72732E2046696F
:100AF0007820746865206572726F7220616E642060
:100B0000757365204D39393920746F20726573749F
:100B10006172742E202854656D70657261747572EF
:100B2000652069732072657365742E205365742087
:100B30006974206166746572207265737461727481
:100B4000696E6729006F6B004E6F204C696E6520DF
:100B50004E756D626572207769746820636865639D
:100B60006B73756D2C204C617374204C696E653A03
:100B700020004E6F20436865636B73756D20776945
:100B80007468206C696E65206E756D6265722C20CC
:100B90004C617374204C696E653A2000636865632C
:100BA0006B73756D206D69736D617463682C204C77
:100BB000617374204C696E653A20004C696E652043
:100BC0004E756D626572206973206E6F74204C6182
:100BD0007374204C696E65204E756D6265722B31A1
:100BE0002C204C617374204C696E653A20004D31A5
:100BF000313000446F6E6520736176696E672066E0
:100C0000696C652E006F6B004D3239002020506CEE
:100C1000616E6E657242756666657242797465735F
:100C20003A20002046726565204D656D6F72793AF5
:100C30002000417567203235203230313600436F55
:100C40006D70696C65643A200056657273696F6EE9
:100C500020312E312E3000207C20417574686F7257
:100C60003A2000417567203235203230313620314C
:100C7000363A33323A303700204C61737420557065
:100C800064617465643A2000312E302E30004D616D
:100C9000726C696E0020536F6674776172652052C2
:100CA0006573657400205761746368646F672052D0
:100CB00065736574002042726F776E206F757420C3
:100CC0005265736574002045787465726E616C209E
:100CD000526573657400506F776572557000737458
:100CE000617274002200656E717565696E672022FD
:100CF000002200656E717565696E672022007C3C7C
:100D00003E5E2B3D3F2F5B5D3B2C2A225C00453134
:100D10003A200045303A20005A3A2000593A200043
:100D2000583A20004D53312C4D53322050696E7388
:100D30000A0024F404D9201BC40C5C0E9804C409D6
:100D40005F0265077101F405F900FB04B300480474
:100D50008700C10369005803550003034500BE0224
:100D60003A008402310053022A00290225000402BD
:100D70002000E4011C00C8011900AF011700980110
:100D80001400840113007101100061011000510171
:100D90000E0043010D0036010B002B010B0020015A
:100DA0000B00150109000C01090003010800FB00FC
:100DB0000800F3000800EB000700E4000600DE0076
:100DC0000600D8000600D2000600CC000500C700CF
:100DD0000500C2000500BD000400B9000400B50014
:100DE0000400B1000400AD000400A9000400A50047
:100DF0000300A20003009F0004009B000300980072
:100E000003009500020093000300900003008D0092
:100E100002008B00030088000200860002008400AC
:100E20000300810002007F0002007D0002007B00C1
:100E300002007900020077000100760002007400D1
:100E4000020072000100710002006F0002006D00DC
:100E500001006C0002006A000100690002006700E6
:100E600001006600010065000100640002006200EC
:100E7000010061000100600001005F0002005D00F0
:100E800001005C0001005B0001005A0001005900F4
:100E900001005800010057000100560001005500F4
:100EA00001005400010053000000530001005200F3
:100EB000010051000100500001004F0001004E00F0
:100EC00000004E0001004D0001004C0001004B00ED
:100ED00000004B0001004A000100490001004800E9
:100EE00000004800010047000100460000004600E5
:100EF00001004500000045000100440001004300DE
:100F000000004300010042000000420001004100D7
:100F1000000041000100400001003F0000003F00D0
:100F200001003E0000003E0001003D0000003D00C9
:100F300001003C0000003C0000003C0001003B00C0
:100F400000003B0001003A0000003A0001003900B7
:100F500000003900010038000000380000003800AF
:100F600001003700000037000100360000003600A5
:100F7000000036000100350000003500000035009B
:100F80000100340000003400000034000100330090
:100F90000000330000003300010032000000320086
:100FA000000032000100310000003100000031007B
:100FB00001003000000030000000300001002F0070
:100FC00000002F0000002F0000002F0001002E0065
:100FD00000002E0000002E0001002D0000002D005A
:100FE00000002D0000002D0001002C0000002C004E
:100FF00000002C0000002C0001002B0000002B0042
:1010000000002B0000002B0001002A0000002A0035
:1010100000002A0000002A00010029000000290029
:10102000000029000000290000002900010028001C
:101030000000280000002800000028000000280010
:101040000100270000002700000027000000270003
:1010500000002700010026000000260000002600F6
:1010600000002600000026000100250000002500E9
:1010700000002500000025000000250000002500DC
:1010800001002400000024000000240000002400CF
:1010900000002400010023000000230000002300C2
:1010A00000002300000023000000230000002300B4
:1010B00001002200000022000000220000002200A7
:1010C0000000220000002200010021000000210099
:1010D000000021000000210000002100000021008C
:1010E000000021000100200000002000000020007E
:1010F0000000200000002000000020000000200070
:101100000000200001001F0000001F0000001F0061
:1011100000001F0000001F0000001F0000001F0053
:1011200001001E0000001E0000001E0000001E0046
:10113000000024F4D43050C38E20C2A24017828B0A
:101140007011127A910D816CD90AA861E108C75813
:101150006607615143061E4B5D05C145A7041A4150
:101160001104093D9803713931034036DB026533C0
:101170009102D4305402802E1D02632CEE01752A98
:10118000C501B028A001102781018F2564012B24FF
:101190004B01E0223401AC211F018D200D01801F85
:1011A000FC00841EED00971DDF00B81CD200E61B7A
:1011B000C600201BBC00641AB200B219A8000A19AC
:1011C000A0006A189900D117910040178B00B5163E
:1011D000840031167E00B31579003A157300C714E8
:1011E0006F0058146A00EE1366008813630025131D
:1011F0005E00C7125B006C12570015125400C1113B
:10120000510070114F0021114B00D61049008D1074
:1012100047004610440002104200C00F4000800FFB
:101220003E00420F3C00060F3B00CB0E3800930EF1
:1012300037005C0E3500270E3400F30D3200C10D6F
:101240003100900D3000600D2E00320D2D00050D87
:101250002C00D90C2B00AE0C2900850C29005C0C4D
:101260002700350C27000E0C2600E80B2400C40BC9
:101270002400A00B23007D0B23005A0B2100390B07
:101280002100180B2000F80A1F00D90A1E00BB0A13
:101290001E009D0A1D00800A1D00630A1C00470AEB
:1012A0001B002C0A1B00110A1A00F7091A00DD099D
:1012B0001900C4091900AB091900920917007B092C
:1012C0001800630917004C0916003609160020099A
:1012D00016000A091500F5081500E0081400CC08EE
:1012E0001400B8081400A4081400900813007D0826
:1012F00012006B0813005808120046081200340848
:101300001100230811001208110001081100F00754
:101310001000E0071000D0071000C0071000B00751
:101320000F00A107100091070E0083070F0074073C
:101330000F0065070E0057070E0049070E003B0718
:101340000D002E070E0020070D0013070D000607E5
:101350000D00F9060C00ED060D00E0060C00D406A9
:101360000C00C8060C00BC060C00B0060C00A4065D
:101370000B0099060C008D060B0082060B00770609
:101380000B006C060B0061060A0057060B004C06AA
:101390000A0042060A0038060A002E060A00240641
:1013A0000A001A060A001006090007060A00FD05D1
:1013B0000900F4050900EB050900E2050900D9055B
:1013C0000900D0050900C7050900BE050900B505DB
:1013D0000800AD050800A50509009C050800940556
:1013E00008008C050800840508007C0508007405C9
:1013F00008006C050700650508005D050700560537
:1014000008004E050700470507004005080038059D
:101410000700310507002A050700230507001C0502
:101420000600160507000F0507000805060002055F
:101430000700FB040600F5040700EE040600E804BC
:101440000600E2040700DB040600D5040600CF0412
:101450000600C9040600C3040600BD040600B70464
:101460000600B1040500AC040600A6040600A004B2
:1014700005009B04060095040500900406008A04FC
:10148000050085040500800406007A040500750443
:101490000500700405006B04050066040500610486
:1014A00005005C04050057040500520405004D04C6
:1014B000050048040500430405003E0404003A0406
:1014C000050035040500300404002C040500270441
:1014D0000400230405001E0404001A04040016047A
:1014E0000500110404000D040400090405000404AF
:1014F000040000040400FC030400F8030400F403E7
:101500000400F0030400EC030400E8030400E40317
:101510000400E0030400DC030400D8030400D40347
:101520000400D0030400CC030400C8030300C50377
:1015300003006563686F3A00205A3A0020593A0068
:1015400020583A00656E6473746F70732068697414
:101550003A20004572726F723A004572723A204D1D
:10156000415854454D50204245440054656D7065C6
:101570007261747572652068656174656420626566
:1015800064207377697463686564206F66662E20D3
:101590004D415854454D50207472696767657265B6
:1015A00064202121004572723A204D494E54454D28
:1015B00050003A20457874727564657220737769BB
:1015C0007463686564206F66662E204D494E5445ED
:1015D0004D5020747269676765726564202100450B
:1015E00072723A204D415854454D50003A2045788A
:1015F00074727564657220737769746368656420BA
:101600006F66662E204D415854454D5020747269C6
:10161000676765726564202100202D20496E766120
:101620006C6964206578747275646572206E756D7E
:1016300062657220210010003003B0008701500164
:101640004701F00126019002100130030001D00390
:10165000F3007004E9001005E000B005D800500662
:10166000D200F006CC009007C6003008C200D008B7
:10167000BD007009B900100AB500B00AB200500BE5
:10168000AE00F00BAB00900CA800300DA500D00D03
:10169000A200700EA000100F9D00B00F9B00501014
:1016A0009800F01096009011940030129200D01221
:1016B000900070138E0010148C00B0148A00501526
:1016C0008800F01587009016850030178300D0172A
:1016D00081007018800010197E00B0197D00501A2A
:1016E0007B00F01A7A00901B7800301C7700D01C29
:1016F0007500701D7400101E7200B01E7100501F26
:101700006F00F01F6E0090206C0030216B00D02124
:101710006A007022680010236700B023660050241E
:101720006400F02463009025620030266000D0261B
:101730005F0070275D0010285C00B0285B00502916
:101740005900F0295800902A5700302B5500D02B13
:101750005400702C5200102D5100B02D5000502E0E
:101760004E00F02E4D00902F4B0030304A00D0300C
:1017700048007031460010324500B032430050330B
:101780004100F033400090343E0030353C00D0350D
:101790003A007036380010373600B0373400503811
:1017A0003200F0382F0090392D00303A2A00D03A1C
:1017B0002700703B2400103C2000B03C1C00503D32
:1017C0001700F03D1100903E0A00303F9CFF504949
:1017D00044204175746F74756E652066696E697317
:1017E000686564212050757420746865204B702CE6
:1017F000204B6920616E64204B6420636F6E7374AC
:10180000616E747320696E746F20436F6E666967D2
:1018100075726174696F6E2E68005049442041757D
:10182000746F74756E65206661696C6564212074DF
:10183000696D656F75740020403A006F6B20543AF3
:10184000006F6B20423A00504944204175746F7418
:10185000756E65206661696C6564212054656D70E4
:101860006572617475726520746F6F20686967684E
:1018700000204B643A2000204B693A2000204B7036
:101880003A200020436C6173696320504944200072
:101890002054753A2000204B753A2000206D617865
:1018A0003A2000206D696E3A200020643A20002022
:1018B000626961733A200010006003B00094015027
:1018C000015101F0012E019002170130030401D0F3
:1018D00003F0007004E1001005DC00B005D20050F8
:1018E00006C800F006C3009007BE003008BA00D05A
:1018F00008B7007009B500100AB300B00AB1005073
:101900000BAF00F00BAD00900CAB00300DA800D079
:101910000DA600700EA300100FA000B00F9E005087
:10192000109B00F01099009011970030129500D094
:101930001293007013910010148F00B0148D00509A
:10194000158B00F01589009016870030178500D0A0
:101950001784007018820010198000B0197F0050A1
:101960001A7D00F01A7C00901B7A00301C7800D0A1
:101970001C7700701D7500101E7400B01E7300509F
:101980001F7100F01F700090206E0030216D00D09C
:10199000216B0070226A0010236900B02367005099
:1019A000246600F02464009025630030266200D095
:1019B00026600070275F0010285D00B0285C005092
:1019C000295B00F0295900902A5800302B5600D08E
:1019D0002B5500702C5400102D5200B02D5100508A
:1019E0002E4F00F02E4E00902F4C0030304A00D089
:1019F0003049007031470010324600B03244005088
:101A0000334200F033400090343F0030353D00D089
:101A1000353B007036390010373700B0373400508E
:101A2000383200F038300090392D00303A2A00D09A
:101A30003A2700703B2400103C2000B03C1C0050B2
:101A40003D1700F03D1100903E0A00303F9CFF2DF5
:101A50002D3A2D2D0020202000202020005344204E
:101A6000000120000120004D313036205332353541
:101A700000494E464F2F53455454494E4753005545
:101A800054494C49544945530050524548454154E6
:101A90000046494C414D454E5400434F4F4C444F36
:101AA000574E004E4F205344204341524400505261
:101AB000494E542046524F4D205344004144564114
:101AC0004E4345440043414E43454C205052494EFD
:101AD0005400524553554D45205052494E540050E4
:101AE00041555345205052494E54004241434B000A
:101AF000524553544F52452044454641554C54009D
:101B000052554E54494D4520535441545553004667
:101B100049524D574152452056455253494F4E0068
:101B200048454154494E47204D494E55544500487B
:101B3000454154494E47204D494E555445004C456A
:101B40004420434F4C4F52004F6666004F6E2000BA
:101B50004F6666004F6E200042555A5A4552004269
:101B600041434B004C4544204252494748544E455E
:101B700053530048454154494E4720434F4C4F5220
:101B8000005354414E44425920434F4C4F52005051
:101B900052494E54494E4720434F4C4F5200424108
:101BA000434B004C4544204252494748544E45530C
:101BB000530048454154494E4720424C5545004842
:101BC000454154494E4720475245454E00484541FE
:101BD00054494E4720524544004241434B00535420
:101BE000414E44425920424C5545005354414E44C5
:101BF000425920475245454E005354414E444259A4
:101C000020524544005354414E44425920424C55C1
:101C100045005354414E44425920475245454E00D9
:101C20005354414E44425920524544004241434B93
:101C3000005354414E44425920424C5545005354A0
:101C4000414E44425920475245454E005354414E5F
:101C500044425920524544005052494E5420424C6F
:101C60005545005052494E5420475245454E00506C
:101C700052494E5420524544004241434B00505279
:101C8000494E5420424C5545005052494E5420472D
:101C90005245454E005052494E542052454400543E
:101CA000454D504552415455524500424544204C03
:101CB0004556454C494E4700484F4D452048454103
:101CC00044004241434B00434F4F4C444F574E005A
:101CD0004245442054454D50004245442054454D12
:101CE00050004E4F5A5A4C452054454D50004E4FCF
:101CF0005A5A4C452054454D50004241434B0043F5
:101D0000414E43454C004F4B004731204635303063
:101D100030205A31300047323800473120463530C4
:101D20003030205A3000473120583020592D313181
:101D300030004731204635303030205A30004731AE
:101D400020582D39352E332059353500473120465E
:101D500035303030205A3130004731204635303070
:101D600030205A30004731205839352E332059352C
:101D700035004731204635303030205A3130004769
:101D80003238004732380043414E43454C005354EB
:101D90004152540053455454494E472046494C4102
:101DA0004D454E54004348414E47452046494C411D
:101DB0004D454E5400455854525544452046494CD3
:101DC000414D454E54004241434B0053454C454321
:101DD0005420435553544F4D0053454C45435420D4
:101DE0004142530053454C45435420504C4100421E
:101DF00041434B004241434B0053454C4543542023
:101E0000262045584954004245442054454D500031
:101E10004245442054454D50004E4F5A5A4C45209F
:101E200054454D50004E4F5A5A4C452054454D5044
:101E3000004241434B0053454C4543542026204526
:101E4000584954004241434B0053454C45435420AC
:101E500026204558495400554E4C4F414420464990
:101E60004C414D454E54004C4F41442046494C4155
:101E70004D454E54004241434B00012000012000DB
:101E8000012000012000012000012000473238001D
:101E9000052E2E004241434B004D3234004D32336B
:101EA000202573004C4544204252494748544E4532
:101EB0005353004245442054454D50004245442070
:101EC00054454D50004E4F5A5A4C452054454D50A4
:101ED000004E4F5A5A4C452054454D500042414304
:101EE0004B00473238004D383420582059205A20B2
:101EF0004500434152442052454D4F56454400430E
:101F000041524420494E534552544544004D3130CE
:101F1000362053323535002073656300206D696EBD
:101F20000020686F75720020686F75727300000082
:101F30002100240027002A002D0030003300010179
:101F40000000040107010A0100002200250028000A
:101F50002B002E00310034000201000005010801B1
:101F60000B01000020002300260029002C002F0078
:101F70003200000100000301060109010505050505
:101F8000070508080808020202020A0A08080404F1
:101F9000040401010101010101010303030303031F
:101FA0000303040707070C0C0C0C0C0C0C0C0202AE
:101FB000020206060606060606060B0B0B0B0B0BAB
:101FC0000B0B010210202008081020401020408038
:101FD00002010201080402010102040810204080ED
:101FE000804020100804020180040201804020107B
:101FF00008040201080402010102040810204080C4
:1020000001020408102040800000090A02080B0C9D
:102010000D0706030401000000000000000000009E
:1020200000000000000000000000000000000000B0
:102030000000000011100F00000000000000000070
:102040000000000000000000000000000000494EF9
:1020500046494E4954594E414ECDCCCC3D0AD7232A
:102060003C17B7D13877CC2B329595E6241FB14F6A
:102070000A000020410000C84200401C4620BCBEAF
:102080004CCA1B0E5AAEC59D74007434C669ABD5DC
:102090001EE06F3411241FBECFEFD1E2DEBFCDBFF3
:1020A00000E00CBF18E0A0E0B2E0E8E3F6ED01E0EC
:1020B0000BBF02C007900D92A435B107D9F71BBE24
:1020C00013E1A4E5B8E001C01D92A335B107E1F723
:1020D00010E2C2E9D0E204C02297FE010E94C2EAE7
:1020E000CA38D107C9F70E9452E50C9410EB0C9442
:1020F0000000A0E0B0E0EFE7F0E10C94DFEAEC01D3
:102100005B016115710519F0FB0191838083F990E2
:102110008F2D90E00E94C6EA892BC9F7FDE2FF16D9
:1021200021F4F990EE24E39405C02BE2F21609F4B1
:10213000F990EE248E0101501040C8016EE470E267
:1021400043E050E072D2892BF9F48E010E5F1F4FED
:10215000C80161E570E245E050E067D2892B19F4CF
:102160008E01095F1F4FA114B10419F0F50111830D
:102170000083E0FC04C070E090E080E813C070E0F1
:1021800090E080E86FEF07C1C80166E570E243E0C8
:1021900050E04BD2892B69F4A114B10429F470E00A
:1021A00090E080EC6FE7F7C02296F501D183C08301
:1021B000F6CF8824992440E050E060E070E0EF2DF5
:1021C000E053EA30A0F5F2E0EF2A8E2D90E09C017A
:1021D00028703070E2FE06C0232B79F50894811C2C
:1021E000911C2BC0232B19F0089481089108DB0166
:1021F000CA0112E0880F991FAA1FBB1F1A95D1F7B9
:10220000480F591F6A1F7B1F440F551F661F771FFA
:102210004E0F511D611D711D483929E9520729E9E9
:10222000620729E1720748F084E0E82A06C0EE3F21
:1022300031F4E3FC39C098E0E92AF990C0CFE533E6
:1022400011F0E53189F529912D3219F4E0E1EE2AFA
:1022500005C02B3219F081E090E003C0299182E0A3
:1022600090E0E22FE053EA3018F0C81BD90B1CC0F5
:1022700020E030E0FCE020383F075CF4C901880F23
:10228000991F880F991F280F391F220F331F2E0FF8
:10229000311DE991E053EA3068F3E4FE03C0309564
:1022A00021953F4F820E931ECE2CDD24E1FE07C008
:1022B000A114B10421F02197F501D183C083CB0192
:1022C000BA010E942BE77B018C01F3E0CF22DD24D1
:1022D00023E0C216D10421F417FB109517F91095CD
:1022E00057016801C801B70120E030E040E050E04C
:1022F0000E948BE6882309F44AC097FE0DC02DE6A4
:10230000E22E20E2F22E9094819491089394C0E200
:10231000D0E000E010E012C095E8E92E90E2F92E3E
:10232000F6CFF7012591359145915491C601B5013C
:102330000E946BE95B016C018C1A9D0A8C169D064C
:1023400084F7D595C7950F5F1F4F0630110529F00B
:102350008CEF9FEFE80EF91EF1CFC501D6017C018D
:102360008D018C2D880F8D2D881F8F3F51F0C60158
:10237000B50120E030E040E050E00E948BE6882389
:1023800031F482E290E090935213809351137E2DAA
:102390009F2D802F612F272F392F482F562FB901BE
:1023A000CA01CDB7DEB7ECE00C94FBEA2F923F9266
:1023B0005F926F927F928F929F92AF92BF92CF92D5
:1023C000DF92EF92FF920F931F93CF93DF938C01D5
:1023D0001B01EA016115710519F0FB0191838083EE
:1023E000209749F0CE010297839728F020E030E053
:1023F00040E050E0F6C0F801A1908F018A2D90E0F6
:102400000E94C6EA892BB9F7FDE2AF1631F4F80154
:10241000A1908F015524539407C0FBE2AF1619F425
:10242000F801A1908F015524209719F0C031D105F2
:10243000C1F4F0E3AF1679F4F8018081883711F028
:10244000883549F4F801A1800E5F1F4FF2E05F2A42
:10245000C0E1D0E006C0209721F480E3A816E9F49B
:1024600027C0C830D10531F1C930D10524F4C230BC
:10247000D10531F50CC0CA30D10589F0C031D10584
:10248000F9F4C12CD12CE12CB8E0FB2E28C0C12CD2
:10249000D12CE12CA0E4FA2E22C0CAE0D0E0FCEC62
:1024A000CF2EFCECDF2EFCECEF2EFCE0FF2E17C055
:1024B000C8E0D0E0C12CD12CE12CE0E1FE2E0FC011
:1024C0009E01442737FD4095542F60E070E080E086
:1024D00090E80E9483EAC901DA016C017D0120E0E5
:1024E00030E040E050E060E03E01882477FC8094DA
:1024F000982C70EDB72EBA0CE9E0EB1570F48A2D2C
:1025000081548A3118F499ECB92E06C08A2D81566F
:102510008A3150F589EAB82EBA0C8B2D90E08C17D1
:102520009D0714F56F3FE1F0C216D306E406F506E9
:10253000B0F0CA01B901A40193010E943DEA9B01D8
:10254000AC012B0D311D411D511D2130F0E03F0725
:10255000F0E04F07F0E85F0710F461E001C06FEFB3
:10256000F801A1908F01C5CF2114310481F06623B9
:1025700031F001501040F1011183008308C051FE79
:102580001AC002501040F1011183008314C067FF8C
:1025900012C050FC05C02FEF3FEF4FEF5FE704C0C4
:1025A00020E030E040E050E882E290E09093521367
:1025B0008093511316C050FE08C050954095309539
:1025C00021953F4F4F4F5F4F0CC057FF0AC082E22B
:1025D00090E090935213809351132FEF3FEF4FEF02
:1025E0005FE7B901CA01DF91CF911F910F91FF9071
:1025F000EF90DF90CF90BF90AF909F908F907F90A3
:102600006F905F903F902F900895FB01DC01059043
:102610000D920020E1F70895FC0105900020E9F7F4
:10262000809590958E0F9F1F0895FB01DC0141500E
:10263000504088F08D9181341CF08B350CF4805E15
:10264000659161341CF06B350CF4605E861B611182
:1026500071F3990B0895881BFCCFFB01DC014150FD
:10266000504048F005900D920020C9F701C01D921E
:1026700041505040E0F70895FB0155915523A9F0D2
:10268000BF01DC014D9145174111E1F759F4CD012E
:102690000590002049F04D9140154111C9F3FB010F
:1026A0004111EFCF81E090E001970895FB01DC013B
:1026B00004C08D910190801921F441505040C8F719
:1026C000881B990B0895FB01DC0102C001900D925B
:1026D00041505040D8F70895FB01DC010D900020D7
:1026E000E9F7119701900D920020E1F70895FC01A0
:1026F0008191861721F08823D9F79927089531977A
:10270000CF010895FB01DC0101900D920020E1F75B
:102710000895FB01DC014150504030F08D91019053
:10272000801919F40020B9F7881B990B0895FB0153
:10273000DC014150504048F001900D920020C9F753
:1027400001C01D9241505040E0F70895AEE0B0E066
:10275000ECEAF3E10C94E7EA0E891F8986E08C83AA
:102760001A8309838FEF9FE79E838D839E01265EE8
:102770003F4FCE010196688D798DA9012DD02F8113
:102780003885020F131FF80110822E96E4E00C9496
:1027900003EBAEE0B0E0EFECF3E10C94E7EA0E8976
:1027A0001F898EE08C831A8309838FEF9FE79E83B6
:1027B0008D839E01265E3F4FCE010196688D798DF7
:1027C000A9010AD02F813885020F131FF80110824A
:1027D0002E96E4E00C9403EBABE0B0E0E2EFF3E123
:1027E0000C94D9EA3C012B015A01FC011782168294
:1027F000838181FD03C06FEF7FEFB9C19AE0892E1D
:102800001E010894211C311CF3012381F20123FDD8
:10281000859123FF81912F01882309F4A5C1853279
:1028200039F423FD859123FF81912F01853221F415
:1028300090E0B301B7D1E8CF982FFF24EE2499247C
:10284000FFE1FF15D0F09B3269F09C3228F4903202
:1028500059F0933291F40EC09D3249F0903369F4EF
:1028600041E024C052E0F52A84E0F82A28C098E02C
:10287000F92A25C0E0E1FE2A22C0F7FC29C0892FF1
:1028800080538A3070F4F6FE05C0989C902C112479
:10289000980E15C0E89CE02C1124E80EF0E2FF2A07
:1028A0000EC09E3229F4F6FC5FC140E4F42A07C052
:1028B0009C3619F450E8F52A02C0983649F4F20122
:1028C00023FD959123FF91912F01992309F0B8CF12
:1028D000892F8554833018F08052833038F444E0D7
:1028E00050E0A40EB51E5FE359830FC0933631F05C
:1028F000933779F0933509F052C01FC0F5018081FC
:10290000898342E050E0A40EB51E610101E010E0B1
:1029100011C0F501C080D180F6FC03C06FEF7FEFDE
:1029200002C0692D70E042E050E0A40EB51EC60161
:102930002ED18C015FE7F52213C0F501C080D18054
:10294000F6FC03C06FEF7FEF02C0692D70E042E03C
:1029500050E0A40EB51EC6010FD18C0150E8F52A37
:10296000F3FE06C018C080E290E0B3011BD1EA94E8
:102970008E2D90E008171907B0F30DC0F601F7FC93
:102980008591F7FE81916F0190E0B3010BD1E110C9
:10299000EA94015010400115110581F7E2C0943608
:1029A00011F0993661F5F7FE08C0F50120813181FB
:1029B0004281538184E090E00AC0F50180819181D9
:1029C0009C01442737FD4095542F82E090E0A80EEB
:1029D000B91E9FE6F92257FF09C0509540953095E2
:1029E00021953F4F4F4F5F4FE0E8FE2ACA01B901E2
:1029F000A1012AE030E002D1D82ED2183FC095378D
:102A000029F41F2D1F7E2AE030E01DC01F2D197FE5
:102A10009F3661F0903720F4983509F0A5C00FC0BB
:102A2000903739F0983709F09FC004C028E030E0B3
:102A30000AC0106114FD146020E130E004C014FDF0
:102A4000166020E132E017FF08C0F5016081718156
:102A50008281938144E050E008C0F501808191813A
:102A6000BC0180E090E042E050E0A40EB51EA10160
:102A7000C5D0D82ED2188FE7F82EF122F6FE0BC063
:102A80005EEFF522D91438F4F4FE07C0F2FC05C05D
:102A90008FEEF82202C01D2D01C0192DF4FE0DC0CD
:102AA000FE01ED0DF11D8081803319F499EEF922BC
:102AB00008C01F5FF2FE05C003C08F2D867809F0A5
:102AC0001F5F0F2DF3FC13C0F0FE0EC01E1510F09B
:102AD0009D2C0AC09D2C9E0C911A1E2D05C080E2D3
:102AE00090E0B3015FD01F5F1E15C8F304C01E1530
:102AF00010F4E11A01C0EE2404FF0EC080E390E060
:102B0000B30150D002FF1BC001FD03C088E790E075
:102B10000EC088E590E00BC0802F867881F001FF21
:102B200002C08BE201C080E2F7FC8DE290E0B301CD
:102B300039D005C080E390E0B30134D09A94D91421
:102B4000C8F3DA94F101ED0DF11D808190E0B3013D
:102B500029D0DD20B1F705C080E290E0B30122D09A
:102B6000EA94EE20C9F750CEF30166817781CB015C
:102B70002B96E2E10C94F5EAFC010590615070405F
:102B80000110D8F7809590958E0F9F1F0895FC0136
:102B90006150704001900110D8F7809590958E0F8C
:102BA0009F1F08950F931F93CF93DF938C01EB0129
:102BB0008B8181FF1BC082FF0DC02E813F818C81E4
:102BC0009D812817390764F4E881F9810193F9831D
:102BD000E88306C0E885F985802F1995892B31F4A3
:102BE0008E819F8101969F838E8302C00FEF1FEF1E
:102BF000C801DF91CF911F910F910895FA01AA2783
:102C0000283051F1203181F1E8946F936E7F6E5F2F
:102C10007F4F8F4F9F4FAF4FB1E03ED0B4E03CD0DD
:102C2000670F781F891F9A1FA11D680F791F8A1FC0
:102C3000911DA11D6A0F711D811D911DA11D20D027
:102C400009F468943F912AE0269F11243019305DE1
:102C50003193DEF6CF010895462F4770405D4193D2
:102C6000B3E00FD0C9F7F6CF462F4F70405D4A331F
:102C700018F0495D31FD4052419302D0A9F7EACFE7
:102C8000B4E0A6959795879577956795BA95C9F716
:102C900000976105710508959B01AC010A2E069409
:102CA0005795479537952795BA95C9F7620F731FC2
:102CB000841F951FA01D08950F931F938C01FC0185
:102CC000878161E00E94F0E481E090E00E94F3E2FD
:102CD000F801878160E00E94F0E41F910F91089550
:102CE000CF92DF92EF92FF920F931F93CF93DF93D8
:102CF000D82EC92E282F392FC9018C01C0E0D0E071
:102D0000E62EFF24F801818561E00E943DE4B701D1
:102D10000C2E02C0759567950A94E2F76170F80170
:102D200081850E94F0E421960F5F1F4FC430D105CA
:102D300049F781E090E00E94F3E28D2D9C2DBCDFED
:102D4000DF91CF911F910F91FF90EF90DF90CF9087
:102D50000895FF920F931F938C01F62EFC0185813D
:102D6000642F0E94F0E4F801868161E00E943DE456
:102D7000F801868160E00E94F0E46F2D70E084E04D
:102D8000759567958A95E1F7C801AADFC8016F2D8F
:102D9000A7DF1F910F91FF9008950F931F93CF937B
:102DA000DF93EC01888560E00E943DE48D8160E066
:102DB0000E94F0E48E8161E00E94F0E40FEF8F81C9
:102DC00060E00E94F0E48F8161E00E94F0E481E025
:102DD00090E00E94F3E288850E9422E5182F8F81FF
:102DE00060E00E94F0E4CE0167DF112321F00023B0
:102DF00011F00150E4CF888561E00E943DE48E81AE
:102E000060E00E94F0E4DF91CF911F910F9108954F
:102E10000F931F938C0141E09CDFC801BEDF1F911F
:102E20000F9108950F931F938C0140E092DFC8012A
:102E3000B4DF1F910F910895EF92FF920F931F93AC
:102E4000CF93DF938C017A016770660F660F660F70
:102E50006064E8DFC0E0D0E0D801ED91FC91D701DB
:102E6000AC0FBD1F0190F081E02DC8016C91199548
:102E70002196C830D10581F7DF91CF911F910F9135
:102E8000FF90EF900895DF93CF9300D00F92CDB7CE
:102E9000DEB7DC0152968C915297481708F040E05B
:102EA000198280E48A8384E18B8384E58C83FE012C
:102EB000E40FF11D8181680F6068CD01B3DF0F90D1
:102EC0000F900F900F90CF91DF91089561E0AACFFE
:102ED000EF92FF920F931F93CF93DF93EC014A8BF6
:102EE000198A8D8161E00E943DE48E8161E00E943B
:102EF0003DE48F8161E00E943DE48D8160E00E94AD
:102F0000F0E48F8160E00E94F0E48E8160E00E9436
:102F1000F0E48E01EE24FF24F801818561E00E9437
:102F20003DE4F801818560E00E94F0E40894E11C32
:102F3000F11C0F5F1F4FF4E0EF16F10469F7CE01AB
:102F400063E0CEDE82E390E00E94F3E28C81823087
:102F500039F4CE0168E0C4DE82E390E00E94F3E23F
:102F6000CE0162E0BDDE82E390E00E94F3E2CE019A
:102F700062E0B6DE82E390E00E94F3E2CE0168E018
:102F8000AFDE82E390E00E94F3E2CE0168E04ADF28
:102F900082E390E00E94F3E2CE0161E043DF82E34E
:102FA00090E00E94F3E2CE0166E03CDF82E390E035
:102FB0000E94F3E2CE0162E035DF82E390E00E94FE
:102FC000F3E2CE016CE02EDF82E390E00E94F3E2B8
:102FD000DF91CF911F910F91FF90EF9008956F9225
:102FE0007F928F92AF92CF92EF920F93DF93CF9316
:102FF000CDB7DEB73C01FC0164836150623010F054
:1030000082E08483F301458326830783E186C286B9
:10301000A38680868486842F61E00E943DE4F301CC
:10302000868161E00E943DE4F301878161E00E94B6
:103030003DE488E2F3018587C30164E144E048DFB1
:10304000CF91DF910F91EF90CF90AF908F907F90C5
:103050006F9008958F92AF92CF92EF920F93DF937C
:10306000CF93CDB7DEB7FC011382128289E897E0D7
:1030700091838083CF01B3DFCF91DF910F91EF90E8
:10308000CF90AF908F900895FC0112821382089523
:10309000FC018281811112820895CF93DF93DC01BC
:1030A000FC01EB55FE4F808191810097C9F101979A
:1030B00091838083ED01CC5ADF4FFD01ED58FF4F26
:1030C0008BE1019009928150E1F7FD01EE5AFF4F2B
:1030D000AF58BF4F8D919C911197A157B0409183EC
:1030E0008083FD01ED58FF4F20E030E0AD014B55EE
:1030F0005E4F10C02F5F3F4FEF01DF015F968BE106
:103100000D9009928150E1F7858D968D32979183CC
:103110008083B196DA018D919C912817390750F37D
:10312000DF91CF910895FC018DEF97E0918380832B
:103130008781882321F0CF0104960C94DF830895C2
:10314000CF92DF92EF92FF920F931F93DF93CF9373
:10315000CDB7DEB76F970FB6F894DEBF0FBECDBF09
:103160008C016B01095A1F4FD8018C9107551040F3
:10317000882321F42FE2E22EF12C03C090E5E92E02
:10318000F12CE00EF11E8DEF97E09A8389831C826B
:103190001B8218861D82B7016C5F7F4FCE0105969A
:1031A000A60121E00E94CB8A882391F5EBE3F1E0B0
:1031B000949108C08091C00085FFFCCF9093C60019
:1031C000319694919923B1F7E1E4F1E0949108C02C
:1031D0008091C00085FFFCCF9093C60031969491FA
:1031E0009923B1F709C08091C00085FFFCCF0894F6
:1031F000C11CD11C9093C600F6019081992399F7C8
:103200008091C00085FFFCCF8AE08093C6005AC041
:10321000F801EB55FE4F208131812A30310508F04D
:1032200040C02F5F3F4F3183208321503040F90150
:1032300085E0EE0FFF1F8A95E1F7E21BF30BED58D7
:10324000FF4FE00FF11F13C0AF01415E5F4FBF01A1
:103250008BE1DB010D90BD01DA010D92AD018150D2
:10326000C1F7929182913296968F858F7F972150E8
:103270003040BFEF2E3F3B0739F7D801AD58BF4F65
:10328000F70134968BE101900D928150E1F70F58D0
:103290001F4FF70182819381D8018D939C93015731
:1032A0001040D801AC5ABF4FFE0135968BE101901A
:1032B0000D928150E1F70E5A1F4F8B819C81F801CE
:1032C00091838083CE0101962EDF6F960FB6F8941E
:1032D000DEBF0FBECDBFCF91DF911F910F91FF9049
:1032E000EF90DF90CF900895EF92FF920F931F938E
:1032F0008C013EECE32E31E0F32EE80EF91EC701FF
:103300000E949083C7010E94DF83F801108211821E
:103310001F910F91FF90EF900895CF92DF92EF925F
:10332000FF920F931F93CF93DF937C016B01DB011F
:103330000D900020E9F78D0101501040061B170B7E
:10334000EEECF1E0EE0EFF1ED7011C92E2E3FEEF81
:10335000EE0EFF1ECB016EE470E0C9D9EC010097C0
:1033600031F4F8013197EC0DFD1D86010CC060E2CF
:1033700070E0BDD98C010F5F1F4FCE016AE270E093
:10338000B6D9FC0131978DE081838AE08283138274
:10339000C70186539E4FB8010E94C48B8EEC91E00A
:1033A000E80EF91ED7018C91882319F1EBE6F1E0C4
:1033B000949108C08091C00085FFFCCF9093C60017
:1033C000319694919923B1F7E2E7F1E0949108C026
:1033D0008091C00085FFFCCF9093C60031969491F8
:1033E0009923B1F78091C00085FFFCCF8AE08093DC
:1033F000C600DF91CF911F910F91FF90EF90DF906A
:10340000CF900895CF93DF93EC018B81882309F44B
:103410003BC0EAE9F1E0949108C08091C00085FFCB
:10342000FCCF9093C600319694919923B1F7CD5774
:10343000DD4F488159816A817B81C358D2408FE931
:103440009DE02AE030E00E945F6AE8E9F1E09491B3
:1034500008C08091C00085FFFCCF9093C6003196D4
:1034600094919923B1F7C558DD4F488159816A81FC
:103470007B818FE99DE02AE030E00E945F6A8091C5
:10348000C00085FFFCCF12C0E8E8F1E0949108C0CD
:103490008091C00085FFFCCF9093C6003196949137
:1034A0009923B1F78091C00085FFFCCF8AE080931B
:1034B000C600DF91CF9108952F923F924F925F9275
:1034C0006F927F928F929F92AF92BF92CF92DF9234
:1034D000EF92FF920F931F93DF93CF93CDB7DEB799
:1034E000AC970FB6F894DEBF0FBECDBF5C014B01A9
:1034F000FC018381882309F434C1C50182539E4FA6
:103500000E94DF83F50112821A8A1D8A198A188A9D
:103510008DEF97E09F878E875EE4C52ED12CCA0C75
:10352000DB1C2FE230E0A20EB31EF601B182A082B6
:1035300021ED3FEFA20EB31EF40180818F3209F01E
:103540008DC0C4016FE270E0D2D87C010894E11C08
:10355000F11C3E010894611C711C260142E1242EDD
:10356000312C2C0E3D1E75C0C7016FE270E0BFD834
:103570006C01009709F480C0E816F90608F07CC0D9
:103580008C010E191F09C301B701A801D0D8060D7F
:10359000171DF8011082F30107C08091C00085FF5C
:1035A000FCCF31969093C60090819923B1F780911A
:1035B000C00085FFFCCFFAE0F093C600F201608105
:1035C00071816115710519F460E070E002C06C5FF3
:1035D0007F4FC101A30121E00E94CB8A882371F5AE
:1035E000E6EDF1E0949108C08091C00085FFFCCF2A
:1035F0009093C600319694919923B1F7FE013196CC
:1036000007C08091C00085FFFCCF31969093C60023
:1036100090819923B1F7E4EDF1E0949108C0809195
:10362000C00085FFFCCF9093C600319694919923FA
:10363000B1F78091C00085FFFCCF8DC02EE030E057
:103640002C0F3D1FF2013183208376010894E11C89
:10365000F11CE114F10409F087CF0BC080E590E084
:10366000A80EB91EF601B182A08220EB3FEFA20E98
:10367000B31ED82C092D02C0DE2C0F2D8EE490E055
:10368000A80EB91EF5018081918122EB3FEFA20EB9
:10369000B31E009719F480E090E001C004966D2DF0
:1036A000702F0E94978B882339F1E6ECF1E094911A
:1036B00008C08091C00085FFFCCF9093C600319672
:1036C00094919923B1F78D2D902F9C01F90107C09A
:1036D0008091C00085FFFCCF31969093C600908109
:1036E0009923B1F783E892E0A80EB91EF501108284
:1036F00011821282138232C0EEEAF1E0949108C086
:103700008091C00085FFFCCF9093C60031969491C4
:103710009923B1F78D2D902F9C01F90107C080915D
:10372000C00085FFFCCF31969093C600908199230D
:10373000B1F7ECEAF1E0949108C08091C00085FFF8
:10374000FCCF9093C600319694919923B1F7809164
:10375000C00085FFFCCF8AE08093C600CE010E96A4
:10376000E2DCAC960FB6F894DEBF0FBECDBFCF91B2
:10377000DF911F910F91FF90EF90DF90CF90BF905E
:10378000AF909F908F907F906F905F904F903F9001
:103790002F900895BF92CF92DF92EF92FF920F93F6
:1037A0001F93CF93DF938C01EB018FE28993EE247B
:1037B000E394FF2475EAC72E71E0D72EC00ED11E08
:1037C0006FE1B62E14C0FB9CC00111248D589F4F91
:1037D000800F911FBE010E94EF8302C02196E394E7
:1037E0008881882319F08CE88E15C0F7F3942F2D6B
:1037F00030E0F601808191812817390720F3E7FC3A
:1038000007C0C80182539E4FBE010E94EF8301C0D2
:103810001882DF91CF911F910F91FF90EF90DF9071
:10382000CF90BF9008952F923F924F925F926F92E8
:103830007F928F929F92AF92BF92CF92DF92EF9240
:10384000FF920F931F93DF93CF93CDB7DEB7AD9762
:103850000FB6F894DEBF0FBECDBF6C014B014DA774
:10386000DC0113968C91882309F440C3E1EDF1E06B
:10387000CE0EDF1ED6018C91EFE2FEEFCE0EDF1EE4
:10388000882309F418C1222309F0E0C029EE31E0B1
:10389000C20ED31ED6018C91E7E1FEEFCE0EDF1EE5
:1038A000882371F1EBE6F1E0949108C08091C000AB
:1038B00085FFFCCF9093C600319694919923B1F780
:1038C000EEEAF2E0949108C08091C00085FFFCCF41
:1038D0009093C600319694919923B1F78FE99DE0BA
:1038E00061E070E04AE050E00E94AE6A8091C00062
:1038F00085FFFCCF8AE08093C6000E940A35F6C29D
:10390000EBE3F1E0949108C08091C00085FFFCCF0B
:103910009093C600319694919923B1F7E5E9F2E0CE
:10392000949108C08091C00085FFFCCF9093C600A1
:10393000319694919923B1F7F40107C08091C000AA
:1039400085FFFCCF31969093C60090819923B1F703
:10395000EAE8F2E0949108C08091C00085FFFCCFB6
:103960009093C600319694919923B1F7C6012EEE3B
:1039700031E0C20ED31EB6010DDF4BEF5FEFC40E78
:10398000D51ED6019C91E7E1FEEFCE0EDF1E8DE83D
:10399000989FF0011124E251FE4FEC0DFD1D07C070
:1039A0008091C00085FFFCCF31969093C600908136
:1039B0009923B1F7E4E8F2E0949108C08091C00047
:1039C00085FFFCCF9093C600319694919923B1F76F
:1039D00023E832E0C20ED31ED6014D915D916D9168
:1039E0007C91EDE7FDEFCE0EDF1E8FE99DE02AE032
:1039F00030E00E945F6A8091C00085FFFCCF8AE0C2
:103A00008093C600A60147515E4FDA012C91E22F48
:103A1000F0E0EE0FFF1FEE0FFF1FEC0DFD1DE65156
:103A2000FE4F83E892E0C80ED91ED6014D905D90FE
:103A30006D907C908DE79DEFC80ED91E408251821B
:103A4000628273822F5FDA012C932FC0EBE3F1E0E7
:103A5000949108C08091C00085FFFCCF9093C60070
:103A6000319694919923B1F7E3E7F2E0949108C07D
:103A70008091C00085FFFCCF9093C6003196949151
:103A80009923B1F7F40107C08091C00085FFFCCFF6
:103A900031969093C60090819923B1F78091C00030
:103AA00085FFFCCF8AE08093C600C60182539E4FFB
:103AB0000E94DF8339C0E9EEF1E0CE0EDF1ED601B1
:103AC0001C92E7E1FEEFCE0EDF1EEBE3F1E09491F6
:103AD00008C08091C00085FFFCCF9093C60031964E
:103AE00094919923B1F7E2E6F2E0949108C08091B5
:103AF000C00085FFFCCF9093C60031969491992326
:103B0000B1F7F40107C08091C00085FFFCCF31966A
:103B10009093C60090819923B1F78091C00085FFF2
:103B2000FCCF8AE08093C600D60112961C921A8AB6
:103B30001D8A198A188A8DEF97E09F878E87FEE489
:103B4000AF2EB12CAC0CBD1CEFE2F0E0CE0EDF1EB0
:103B5000D501CD92DC92E1EDFFEFCE0EDF1ED40158
:103B60008C918F3209F090C0C4016FE270E00E9426
:103B700077137C010894E11CF11C3E010894611C40
:103B8000711C2501E2E12E2E312C2C0E3D1E77C03A
:103B9000C7016FE270E00E9477135C01009709F49F
:103BA00081C0E816F90608F07DC08C010E191F09C6
:103BB000C301B701A8010E949713060D171DF80154
:103BC0001082F30107C08091C00085FFFCCF3196C1
:103BD0009093C60090819923B1F78091C00085FF32
:103BE000FCCFFAE0F093C600D2016D917C91611593
:103BF000710519F460E070E002C06C5F7F4FC10195
:103C0000A30121E00E94CB8A882371F5EEE4F2E063
:103C1000949108C08091C00085FFFCCF9093C600AE
:103C2000319694919923B1F7FE01319607C08091A6
:103C3000C00085FFFCCF31969093C60090819923F8
:103C4000B1F7ECE4F2E0949108C08091C00085FFE8
:103C5000FCCF9093C600319694919923B1F780914F
:103C6000C00085FFFCCF3CC12EE030E02C0F3D1F93
:103C7000F2013183208375010894E11CF11CE114E9
:103C8000F10409F085CF0BC040E550E0C40ED51E0D
:103C9000D501CD92DC92E0EBFFEFCE0EDF1E082DBA
:103CA000F92C01C00E2DF601E25BFF4F2DA522235A
:103CB00009F4B1C0608171816115710519F460E08A
:103CC00070E002C06C5F7F4FC60182539E4F402F51
:103CD0005F2D21E00E94CB8A882309F46CC04FED50
:103CE00051E0C40ED51ED6014D915D916D917C9130
:103CF000ECE9F0E0CE0EDF1ED6014D935D936D939F
:103D00007C931397E5E8FDEFCE0EDF1EEEE3F2E0C5
:103D1000949108C08091C00085FFFCCF9093C600AD
:103D2000319694919923B1F7802F9F2D9C01F90131
:103D300007C08091C00085FFFCCF31969093C600EC
:103D400090819923B1F7E6E3F2E0949108C0809165
:103D5000C00085FFFCCF9093C600319694919923C3
:103D6000B1F78FE99DE02AE030E00E945F6A809120
:103D7000C00085FFFCCF8AE08093C60023E832E0D4
:103D8000C20ED31ED6011D921D921D921C92139736
:103D9000E8E2F2E0949108C08091C00085FFFCCF7A
:103DA0009093C600319694919923B1F78091C00009
:103DB00085FFFCCF95C0E4E1F2E0949108C08091CA
:103DC000C00085FFFCCF9093C60031969491992353
:103DD000B1F7802F9F2D9C01F90107C08091C00091
:103DE00085FFFCCF31969093C60090819923B1F75F
:103DF000E2E1F2E0949108C08091C00085FFFCCF21
:103E00009093C600319694919923B1F78091C000A8
:103E100085FFFCCF65C0608171816115710519F462
:103E200060E070E002C06C5F7F4FC60182539E4F1E
:103E3000402F5F2D26E50E94CB8A882381F5EEEF87
:103E4000F1E0949108C08091C00085FFFCCF909371
:103E5000C600319694919923B1F7802F9F2D9C0134
:103E6000F90107C08091C00085FFFCCF3196909387
:103E7000C60090819923B1F7ECEFF1E0949108C06E
:103E80008091C00085FFFCCF9093C600319694913D
:103E90009923B1F78091C00085FFFCCF21C081E05C
:103EA000F6018083EAEEF1E0949108C08091C000B1
:103EB00085FFFCCF9093C600319694919923B1F77A
:103EC000F40107C08091C00085FFFCCF319690932C
:103ED000C60090819923B1F78091C00085FFFCCF87
:103EE0008AE08093C600CE010E961DD9AD960FB61E
:103EF000F894DEBF0FBECDBFCF91DF911F910F9120
:103F0000FF90EF90DF90CF90BF90AF909F908F90F9
:103F10007F906F905F904F903F902F900895FC019D
:103F200081E08183CF0140E021E07DCCFC018381F1
:103F3000882321F081E082830C944B320895EF9224
:103F4000FF920F931F93CF93DF93EC010E94AC91EC
:103F50008E0107511E4FD8018C919EECE92E91E005
:103F6000F92EEC0EFD1E882381F1C7010E94DF832C
:103F7000F8016081615060838DE8689FB001112471
:103F800062517E4F6C0F7D1FCE0141E021E04BDC82
:103F9000D801EC91F0E0EE0FFF1FEE0FFF1FEC0FCA
:103FA000FD1FE651FE4F4081518162817381CD57E3
:103FB000DD4F488359836A837B83C358D240C7014E
:103FC0000E94C682CE01B2DF2EC00E948991C70135
:103FD0000E94DF831A828FE291E00E944068809104
:103FE000140E882301F11092140E8091350BC82F06
:103FF000D0E0CC0FDD1FC754DE4E68817981882761
:1040000077FD8095982F0E942DE7209148073091E9
:10401000490740914A0750914B070E9499E81816AA
:1040200014F419821882DF91CF911F910F91FF90A4
:10403000EF900895EF92FF920F931F93CF93DF932A
:104040008C01FC01138286A9882321F0C801C39644
:104050000E94DF8327EAE22E21E0F22EE00EF11E1D
:10406000C70160E045E30E948C81882309F5EBE3FA
:10407000F1E0949108C08091C00085FFFCCF90933F
:10408000C600319694919923B1F7EFE1F3E0949152
:1040900008C08091C00085FFFCCF9093C600319688
:1040A00094919923B1F78091C00085FFFCCF7DC02A
:1040B000E801C455DE4FCE01B70141E00E94558CA6
:1040C000882341F5CE01B70140E00E94558C88233A
:1040D00009F5EBE6F1E0949108C08091C00085FFFE
:1040E000FCCF9093C600319694919923B1F7ECE000
:1040F000F3E0949108C08091C00085FFFCCF9093BD
:10410000C600319694919923B1F78091C00085FF44
:10411000FCCF4BC0C801C396BE010E94D186882344
:1041200009F5EBE6F1E0949108C08091C00085FFAD
:10413000FCCF9093C600319694919923B1F7ECEFA0
:10414000F2E0949108C08091C00085FFFCCF90936D
:10415000C600319694919923B1F78091C00085FFF4
:10416000FCCF23C081E0F8018383EBE3F1E094917D
:1041700008C08091C00085FFFCCF9093C6003196A7
:1041800094919923B1F7E1EFF2E0949108C0809106
:10419000C00085FFFCCF9093C6003196949199237F
:1041A000B1F78091C00085FFFCCF8AE08093C60004
:1041B000D801AC5ABF4FF801F3968BE101900D92F4
:1041C0008150E1F7F80181A992A90E5A1F4FF80119
:1041D0009183808302551040C8018F96025B1F4F68
:1041E000F80191838083DF91CF911F910F91FF9010
:1041F000EF9008952F923F924F925F926F927F922D
:104200009F92AF92BF92CF92DF92EF92FF920F9365
:104210001F93DF93CF93CDB7DEB7CC55D0400FB609
:10422000F894DEBF0FBECDBF6C01662311F527E801
:1042300032E0C20ED31ED6018C91E9E7FDEFCE0E1F
:10424000DF1E882309F4E3C02FE732E0C20ED31E3D
:10425000D601ED90FD900D911C91E1E8FDEFCE0EA1
:10426000DF1E0E948CE2E616F7060807190708F41D
:10427000CEC027E832E0C20ED31ED6011C92E9E779
:10428000FDEFCE0EDF1ED60113968C91882339F4F4
:10429000C601D0DEF6018381882309F4B8C000D0BE
:1042A00000D0EDB7FEB731967E010894E11CF11CF9
:1042B000ADB7BEB71296FC92EE92119782E691E0EE
:1042C00093838283D6019D968D919C919E97958331
:1042D00084830E94C9138701EDB7FEB736960FB6E7
:1042E000F894FEBF0FBEEDBF57010AC0D8018C91F4
:1042F000992787FD90950E94CEEAF80181938F015E
:10430000F50101900020E9F73197EA19FB09802FA8
:104310008E198E175CF363E3A62EB12CAC0CBD1C7A
:10432000C50140E050E060E070E00E94C682992440
:104330005DE3E52EF12CEC0EFD1E2E010894411CD0
:10434000511C4FE1642E712C6C0E7D1E3BE5232E1B
:1043500031E0332E42C0D8018C9190E00E94CEEA29
:10436000F80181938F01D7010D900020E9F7119793
:10437000AE19BF09802F8E198A176CF327968FAD5F
:1043800027978E3751F1C701B20145E050E00E94F6
:104390008913009711F500D000D0EDB7FEB7319624
:1043A000ADB7BEB712967C926E921197338222827D
:1043B000558244820E94C913EDB7FEB736960FB6F8
:1043C000F894FEBF0FBEEDBFC3010E94B96887E538
:1043D00091E00E94406899249394C501B70140E0A0
:1043E00050E00E94F085181614F48701BCCF992084
:1043F00041F48FEF9FEFD6019E969C938E939D97ED
:1044000006C0F60185A596A5019696A785A7C45A6C
:10441000DF4F0FB6F894DEBF0FBECDBFCF91DF9157
:104420001F910F91FF90EF90DF90CF90BF90AF90D2
:104430009F907F906F905F904F903F902F90089546
:104440002F923F924F925F926F927F928F929F92A4
:10445000AF92BF92CF92DF92EF92FF920F931F9392
:10446000DF93CF93CDB7DEB7CF58D0400FB6F894D7
:10447000DEBF0FBECDBF8C013B016A0184E090E03E
:10448000C80ED91EF8017196C757DF4FF983E8832C
:10449000C958D040C8010496CA57DF4F9983888312
:1044A000C658D040C857DF4F1882C858D040B6E62B
:1044B000EB2EF12CEC0EFD1EF7013B96C557DF4F9E
:1044C000F983E883CB58D040A8E88A2EA2E09A2E40
:1044D000800E911EFAE8AF2EF2E0BF2EA00EB11EA4
:1044E000EEE02E2E312C2C0E3D1E77E4472E512C63
:1044F0004C0E5D1EC2010496C357DF4F998388831B
:10450000CD58D040EBE3F1E09491C157DF4F988351
:10451000CF58D0404EC1F7018385482F50E0BA01F3
:10452000687170706031710509F051C1F40120812A
:1045300031812130310509F44AC12230310509F4B5
:1045400046C1F701DE0111969081903239F08E2F2D
:104550008E19883011F48EE28D939D933196C55754
:10456000DF4F88819981CB58D040E817F90761F770
:104570001C921E86F3018081882329F4C10160E02A
:1045800072E00E946C13C101B3010E946C13C1015F
:10459000BE016F5F7F4F0E946C13C10160E072E04B
:1045A0000E946C131CA61FA61BA61AA68DEF97E0EF
:1045B00099A788A7CE018C96B601AE014F5F5F4FD9
:1045C00021E00E94CB8A882309F03FC0F40180815A
:1045D0009181892BD1F5C157DF4F9881CF58D040B9
:1045E000EBE3F1E008C08091C00085FFFCCF909321
:1045F000C600319694919923B1F7E2E0F2E007C04A
:104600008091C00085FFFCCF31969093C6009081C9
:104610009923B1F78091C00085FFFCCFFAE0F093B9
:10462000C600FE01319607C08091C00085FFFCCF17
:1046300031969093C60090819923B1F78091C00084
:1046400085FFFCCF8AE08093C600C357DF4FA88167
:10465000B981CD58D040FE01BC968BE101900D92FE
:104660008150E1F78AA59BA5F201938382838DEFA8
:1046700097E091838083C801B101A201E1DEC2010C
:104680000E949318CE0188960E94931892C0953E7E
:1046900009F48FC09E3209F48CC09F3509F489C09B
:1046A000F8019189992331F09E3209F482C09F3537
:1046B00009F47FC043FD7DC080E06031710509F4DD
:1046C00081E0F80184A7882349F4F70180858734C5
:1046D00009F06FC081858E3709F46BC0CA57DF4F70
:1046E000A881B981C658D040F7018081803241F05D
:1046F0008E2F8E19883011F48EE28D9380818D93E8
:104700003196C557DF4F88819981CB58D040E81743
:10471000F90759F71C92F40180819181009729F5DE
:10472000F30107C08091C00085FFFCCF31969093C4
:10473000C60090819923B1F7CA57DF4FE881F9810C
:10474000C658D04007C08091C00085FFFCCF31968D
:104750009093C60090819923B1F78091C00085FFA6
:10476000FCCFFAE0F093C60024C08130910539F403
:10477000F501808191810196918380831AC002970F
:10478000C1F4C857DF4FF881C858D0402F2F30E010
:10479000F5018081918128173907F1F0C857DF4F63
:1047A000F881C858D040FF5FC857DF4FF883C8581A
:1047B000D040C601B701C757DF4F48815981C9585A
:1047C000D0400E94F08518160CF4A5CE05C0F70164
:1047D0009081992309F05BCFC157DF4F0FB6F89452
:1047E000DEBF0FBECDBFCF91DF911F910F91FF9024
:1047F000EF90DF90CF90BF90AF909F908F907F9081
:104800006F905F904F903F902F900895EF92FF929E
:104810000F931F93DF93CF93CDB7DEB76F970FB68C
:10482000F894DEBF0FBECDBF7C018C01025B1F4F31
:10483000805B9F4FF8019183808328E832E0E20E8D
:10484000F31E21E030E0F701219331937F011182C3
:10485000108226E73DEFE20EF31E049640E050E0A2
:1048600060E070E00E94C682F80120813181DE01A3
:104870001596F90134968BE101900D928150E1F784
:10488000F901828193819C838B838DEF97E09A83DA
:104890008983C70165E172E08E010F5F1F4FA80198
:1048A000CFDDC8010E949318F701E657FD4F8081C4
:1048B00091816F960FB6F894DEBF0FBECDBFCF913A
:1048C000DF911F910F91FF90EF900895EF92FF926B
:1048D0000F931F93DF93CF93CDB7DEB76F970FB6CC
:1048E000F894DEBF0FBECDBF7C018C01025B1F4F71
:1048F000805B9F4FF8019183808328E832E0E20ECD
:10490000F31E22E030E0F7013183208328E73DEFFA
:10491000E20EF31EF701E657FD4F60831182049605
:1049200040E050E060E070E00E94C682F801208123
:104930003181DE011596F90134968BE101900D92DB
:104940008150E1F7F901828193819C838B838DEF04
:1049500097E09A838983C70165E172E08E010F5F5A
:104960001F4FA8016DDDC8010E9493186F960FB606
:10497000F894DEBF0FBECDBFCF91DF911F910F9195
:10498000FF90EF900895EF92FF920F931F93DF93A4
:10499000CF93CDB7DEB76F970FB6F894DEBF0FBEDB
:1049A000CDBF7C0188E892E0E80EF91EF701118284
:1049B000108288E79DEFE80EF91E87010D5C1F4FFE
:1049C000C80140E050E060E070E00E94C682DE0175
:1049D0001596F8018BE101900D928150E1F7F701F6
:1049E00081A992A99C838B838DEF97E09A83898319
:1049F000C70165E172E08E010F5F1F4FA80120DD46
:104A0000C8010E9493186F960FB6F894DEBF0FBED0
:104A1000CDBFCF91DF911F910F91FF90EF9008953F
:104A20000F931F93CF93DF93DC01D3961C92D39700
:104A3000D6961C92D697D2961C921E92D1978DEF45
:104A400097E0D0969C938E939F97AC5ABF4F1C9241
:104A500013961C92A755B040FD01E05BFF4FAE5A84
:104A6000BF4F11961C921E92A255B0409183808335
:104A7000ED01C159DF4FFE0120E030E0482F1482E4
:104A800017821382128240839183215E3F4F7F966B
:104A900081E02633380799F7A855BE4F89E18C93FA
:104AA00013961C9258961C921B961C9213961C925D
:104AB000A15DB140FD01E653FE4FA453BE4F1196D8
:104AC0001C921E9240839183A155BF4F1D921D924F
:104AD0001D921C92139718961D921D921D921C9266
:104AE0001397A358B24012961C92129713961C92D9
:104AF00013971C9211961C9211978D0101581D4F0E
:104B0000F8011082118212821382AB55BE4F1196AA
:104B10001C921E92AC5BBF4F1C92FE01C901119208
:104B20000197E9F7A256BF4F81E08C93A758B24096
:104B30009E961C921E929D970E948CE268577C4E16
:104B40008F4F9F4FF8016083718382839383DF913E
:104B5000CF911F910F910895DF93CF93CDB7DEB71B
:104B60002A970FB6F894DEBF0FBECDBF8091160214
:104B700090911702A0911802B09119028B839C8327
:104B8000AD83BE83FE01339684E690E02081F999DF
:104B9000FECF1FBA92BD81BD20BD0FB6F894FA9A20
:104BA000F99A0FBE01968836910511F03196EECF35
:104BB000E8EBFDE02081F999FECF1FBA92BD81BDDF
:104BC00020BD0FB6F894FA9AF99A0FBE019688376D
:104BD000910511F03196EECFE8EAFDE02081F999D8
:104BE000FECF1FBA92BD81BD20BD0FB6F894FA9AD0
:104BF000F99A0FBE01968838910511F03196EECFE3
:104C0000E8ECFDE02081F999FECF1FBA92BD81BD8D
:104C100020BD0FB6F894FA9AF99A0FBE019688391A
:104C2000910511F03196EECFECEDFDE02081F99980
:104C3000FECF1FBA92BD81BD20BD0FB6F894FA9A7F
:104C4000F99A0FBE01968C39910511F03196EECF8D
:104C5000E0EEFDE02081F999FECF1FBA92BD81BD43
:104C600020BD0FB6F894FA9AF99A0FBE0196803AD1
:104C7000910511F03196EECFE8EDFDE02081F99934
:104C8000FECF1FBA92BD81BD20BD0FB6F894FA9A2F
:104C9000F99A0FBE0196843A910511F03196EECF44
:104CA000E0EFFDE02081F999FECF1FBA92BD81BDF2
:104CB00020BD0FB6F894FA9AF99A0FBE0196883A79
:104CC000910511F03196EECFE4EAFDE02081F999EB
:104CD000FECF1FBA92BD81BD20BD0FB6F894FA9ADF
:104CE000F99A0FBE01968C3A910511F03196EECFEC
:104CF000E4EEFDE02081F999FECF1FBA92BD81BD9F
:104D000020BD0FB6F894FA9AF99A0FBE0196803B2F
:104D1000910511F03196EECFE8EEFDE02081F99992
:104D2000FECF1FBA92BD81BD20BD0FB6F894FA9A8E
:104D3000F99A0FBE0196843B910511F03196EECFA2
:104D4000ECEEFDE02081F999FECF1FBA92BD81BD46
:104D500020BD0FB6F894FA9AF99A0FBE0196883BD7
:104D6000910511F03196EECFE5E1FBE02081F99954
:104D7000FECF1FBA92BD81BD20BD0FB6F894FA9A3E
:104D8000F99A0FBE0196843C910511F03196EECF51
:104D9000E1E2FBE02081F999FECF1FBA92BD81BD0F
:104DA00020BD0FB6F894FA9AF99A0FBE0196803D8D
:104DB000910511F03196EECFEBE0F2E12081F99907
:104DC000FECF1FBA92BD81BD20BD0FB6F894FA9AEE
:104DD000F99A0FBE0196823D910511F03196EECF02
:104DE000EDE0F2E12081F999FECF1FBA92BD81BDBD
:104DF00020BD0FB6F894FA9AF99A0FBE0196843D39
:104E0000910511F03196EECFEFE0F2E12081F999B2
:104E1000FECF1FBA92BD81BD20BD0FB6F894FA9A9D
:104E2000F99A0FBE0196863D910511F03196EECFAD
:104E3000E1E1F2E12081F999FECF1FBA92BD81BD77
:104E400020BD0FB6F894FA9AF99A0FBE0196883DE4
:104E5000910511F03196EECFE3E1F2E12081F9996D
:104E6000FECF1FBA92BD81BD20BD0FB6F894FA9A4D
:104E7000F99A0FBE01968A3D910511F03196EECF59
:104E8000E5E1F2E12081F999FECF1FBA92BD81BD23
:104E900020BD0FB6F894FA9AF99A0FBE01968C3D90
:104EA000910511F03196EECFE7E1F2E12081F99919
:104EB000FECF1FBA92BD81BD20BD0FB6F894FA9AFD
:104EC000F99A0FBE01968E3D910511F03196EECF05
:104ED000E9E1F2E12081F999FECF1FBA92BD81BDCF
:104EE00020BD0FB6F894FA9AF99A0FBE0196803E4B
:104EF000910511F03196EECFEBE1F2E12081F999C5
:104F0000FECF1FBA92BD81BD20BD0FB6F894FA9AAC
:104F1000F99A0FBE0196823E910511F03196EECFBF
:104F2000E0E3FBE02081F999FECF1FBA92BD81BD7D
:104F300020BD0FB6F894FA9AF99A0FBE0196863EF4
:104F4000910511F03196EECFEDE1F2E12081F99972
:104F5000FECF1FBA92BD81BD20BD0FB6F894FA9A5C
:104F6000F99A0FBE0196883E910511F03196EECF69
:104F7000E0E2F2E12081F999FECF1FBA92BD81BD36
:104F800020BD0FB6F894FA9AF99A0FBE01968A3EA0
:104F9000910511F03196EECFE8E2F2E12081F99926
:104FA000FECF1FBA92BD81BD20BD0FB6F894FA9A0C
:104FB000F99A0FBE01968C3E910511F03196EECF15
:104FC000E2E2F2E12081F999FECF1FBA92BD81BDE4
:104FD00020BD0FB6F894FA9AF99A0FBE01968E3E4C
:104FE000910511F03196EECFE4E2F2E12081F999DA
:104FF000FECF1FBA92BD81BD20BD0FB6F894FA9ABC
:10500000F99A0FBE0196803F910511F03196EECFCF
:10501000E6E2F2E12081F999FECF1FBA92BD81BD8F
:1050200020BD0FB6F894FA9AF99A0FBE0196823F06
:10503000910511F03196EECFEAE2F2E12081F99983
:10504000FECF1FBA92BD81BD20BD0FB6F894FA9A6B
:10505000F99A0FBE0196843F910511F03196EECF7B
:10506000ECE2F2E12081F999FECF1FBA92BD81BD39
:1050700020BD0FB6F894FA9AF99A0FBE0196863FB2
:10508000910511F03196EECFEEE2F2E12081F9992F
:10509000FECF1FBA92BD81BD20BD0FB6F894FA9A1B
:1050A000F99A0FBE0196883F910511F03196EECF27
:1050B000E0E3F2E12081F999FECF1FBA92BD81BDF4
:1050C00020BD0FB6F894FA9AF99A0FBE01968A3F5E
:1050D000910511F03196EECFE2E3F2E12081F999EA
:1050E000FECF1FBA92BD81BD20BD0FB6F894FA9ACB
:1050F000F99A0FBE01968C3F910511F03196EECFD3
:10510000E4E3F2E12081F999FECF1FBA92BD81BD9F
:1051100020BD0FB6F894FA9AF99A0FBE8D3F91050B
:1051200021F031968DEF90E0EDCF20913612F99974
:10513000FECF1FBA8EEF90E092BD81BD20BD0FB6AD
:10514000F894FA9AF99A0FBEE0EAFDE02FEF30E00A
:105150008081F999FECF1FBA32BD21BD80BD0FB647
:10516000F894FA9AF99A0FBE2F5F3F4F81E02330EF
:10517000380711F03196ECCFE5E5F7E08081F99939
:10518000FECF1FBA32BD21BD80BD0FB6F894FA9A8A
:10519000F99A0FBE2F5F3F4F81E02730380711F09B
:1051A0003196ECCFE9E5F7E08081F999FECF1FBA9F
:1051B00032BD21BD80BD0FB6F894FA9AF99A0FBEA0
:1051C0002F5F3F4F81E02B30380711F03196ECCF45
:1051D000EDE5F7E08081F999FECF1FBA32BD21BD20
:1051E00080BD0FB6F894FA9AF99A0FBE2F5F3F4F21
:1051F00081E02F30380711F03196ECCF80E290E05B
:105200009A838983FE0131968081F999FECF1FBA76
:1052100032BD21BD80BD0FB6F894FA9AF99A0FBE3F
:105220002051314021F0319620E131E0EDCF8091E5
:105230001A0290911B02A0911C02B0911D028F8353
:105240009887A987BA87FE01379684E690E0208187
:10525000F999FECF1FBA92BD81BD20BD0FB6F8945B
:10526000FA9AF99A0FBE8736910519F00196319690
:10527000EECFECE2F3E0949108C08091C00085FF8E
:10528000FCCF9093C600319694919923B1F7EFE546
:10529000F5E0949108C08091C00085FFFCCF909309
:1052A000C600319694919923B1F78091C00085FF93
:1052B000FCCF8AE08093C6002A960FB6F894DEBF32
:1052C0000FBECDBFCF91DF910895DF93CF93CDB7C0
:1052D000DEB7E0970FB6F894DEBF0FBECDBFDE019C
:1052E0001196EDEAF7E080E101900D928150E1F72F
:1052F000DE015196EDE9F7E080E101900D928150D9
:10530000E1F7DE019196EDE8F7E080E101900D9282
:105310008150E1F789819A81AB81BC818093B80D7E
:105320009093B90DA093BA0DB093BB0D89899A895A
:10533000AB89BC898093A80D9093A90DA093AA0D69
:10534000B093AB0D89A19AA1ABA1BCA18093C80D6C
:105350009093C90DA093CA0DB093CB0D8D819E8102
:10536000AF81B8858093BC0D9093BD0DA093BE0D09
:10537000B093BF0D8D899E89AF89B88D8093AC0D98
:105380009093AD0DA093AE0DB093AF0D8DA19EA1E6
:10539000AFA1B8A58093CC0D9093CD0DA093CE0D69
:1053A000B093CF0D89859A85AB85BC858093C00D60
:1053B0009093C10DA093C20DB093C30D898D9A8DAA
:1053C000AB8DBC8D8093B00D9093B10DA093B20DB9
:1053D000B093B30D89A59AA5ABA5BCA58093D00DBC
:1053E0009093D10DA093D20DB093D30D8D859E8552
:1053F000AF85B8898093C40D9093C50DA093C60D59
:10540000B093C70D8D8D9E8DAF8DB8A18093B40DD7
:105410009093B50DA093B60DB093B70D8DA59EA535
:10542000AFA5B8A98093D40D9093D50DA093D60DB8
:10543000B093D70D0E94257080E090E0AAE7B4E415
:105440008093DC0D9093DD0DA093DE0DB093DF0D06
:1054500080E090E8ABE3B5E48093E00D9093E10D3C
:10546000A093E20DB093E30D20E030E040E050E087
:105470002093D80D3093D90D4093DA0D5093DB0D66
:1054800080E29EE4A0E0B0E08093A40D9093A50D8F
:10549000A093A60DB093A70D2093F00D3093F10DBE
:1054A0004093F20D5093F30D80E090E0A0EAB1E458
:1054B0008093E40D9093E50DA093E60DB093E70D76
:1054C0008093E80D9093E90DA093EA0DB093EB0D56
:1054D00080E090E0A0E7B1E48093EC0D9093ED0DB7
:1054E000A093EE0DB093EF0D20931D0B30931E0B88
:1054F00040931F0B5093200B2093190B30931A0BE2
:1055000040931B0B50931C0B2093150B3093160BE1
:105510004093170B5093180B2093290B30932A0BB1
:1055200040932B0B50932C0B2093250B3093260B81
:105530004093270B5093280B2093210B3093220B81
:105540004093230B5093240B68EC70E070930C1283
:1055500060930B1246E450E050930E1240930D12EC
:105560002FEF30E03093101220930F1280EF90E075
:1055700090931212809311128AE590E09093141286
:1055800080931312309316122093151270931812F1
:105590006093171250931A124093191230931C12F1
:1055A00020931B128AE090E090931E1280931D12AC
:1055B000109221121092201284E690E0909329120A
:1055C00080932812309323122093221230932512B5
:1055D00020932412309327122093261210922B121C
:1055E00010922A1230932D1220932C1210922F1207
:1055F00010922E12309331122093301210923312E7
:1056000010923212109235121092341281E080936F
:10561000361284E19EEAA7EDB0E48093550790939B
:105620005607A0935707B093580761E77DE38AE0D8
:105630009FE30E94079A6093590770935A078093DB
:105640005B0790935C0765E87BEE87EA91E40E9434
:10565000139A60935D0770935E0780935F07909342
:1056600060070E941E9980E090E0A0E8BFE380936D
:10567000610790936207A0936307B09364076CDAA5
:10568000ECE2F3E0949108C08091C00085FFFCCF6C
:105690009093C600319694919923B1F7E2E3F3E039
:1056A000949108C08091C00085FFFCCF9093C60004
:1056B000319694919923B1F78091C00085FFFCCF7A
:1056C0008AE08093C600E0960FB6F894DEBF0FBE66
:1056D000CDBFCF91DF9108950F931F93DF93CF93A9
:1056E000CDB7DEB72A970FB6F894DEBF0FBECDBF99
:1056F00080911A0290911B02A0911C02B0911D0290
:105700008F839887A987BA87FE01339604E610E055
:10571000F999FECF12BD01BDF89A80B580830F5F65
:105720001F4F0836110511F03196F2CFCE010796C2
:10573000BE016D5F7F4F43E050E00E9489130097E8
:1057400009F0B8C2E8EBFDE0F999FECF12BD01BD4A
:10575000F89A80B580830F5F1F4F0837110511F04D
:105760003196F2CFE8EAFDE0F999FECF12BD01BD16
:10577000F89A80B580830F5F1F4F0838110511F02C
:105780003196F2CFE8ECFDE0F999FECF12BD01BDF4
:10579000F89A80B580830F5F1F4F0839110511F00B
:1057A0003196F2CF0E942570ECEDFDE0F999FECF25
:1057B00012BD01BDF89A80B580830F5F1F4F0C3971
:1057C000110511F03196F2CFE0EEFDE0F999FECF30
:1057D00012BD01BDF89A80B580830F5F1F4F003A5C
:1057E000110511F03196F2CFE8EDFDE0F999FECF09
:1057F00012BD01BDF89A80B580830F5F1F4F043A38
:10580000110511F03196F2CFE0EFFDE0F999FECFEE
:1058100012BD01BDF89A80B580830F5F1F4F083A13
:10582000110511F03196F2CFE4EAFDE0F999FECFCF
:1058300012BD01BDF89A80B580830F5F1F4F0C3AEF
:10584000110511F03196F2CFE4EEFDE0F999FECFAB
:1058500012BD01BDF89A80B580830F5F1F4F003BDA
:10586000110511F03196F2CFE8EEFDE0F999FECF87
:1058700012BD01BDF89A80B580830F5F1F4F043BB6
:10588000110511F03196F2CFECEEFDE0F999FECF63
:1058900012BD01BDF89A80B580830F5F1F4F083B92
:1058A000110511F03196F2CFE5E1FBE0F999FECF59
:1058B00012BD01BDF89A80B580830F5F1F4F043C75
:1058C000110511F03196F2CFE1E2FBE0F999FECF3C
:1058D00012BD01BDF89A80B580830F5F1F4F003D58
:1058E000110511F03196F2CFEBE0F2E1F999FECF1C
:1058F00012BD01BDF89A80B580830F5F1F4F023D36
:10590000110511F03196F2CFEDE0F2E1F999FECFF9
:1059100012BD01BDF89A80B580830F5F1F4F043D13
:10592000110511F03196F2CFEFE0F2E1F999FECFD7
:1059300012BD01BDF89A80B580830F5F1F4F063DF1
:10594000110511F03196F2CFE1E1F2E1F999FECFC4
:1059500012BD01BDF89A80B580830F5F1F4F083DCF
:10596000110511F03196F2CFE3E1F2E1F999FECFA2
:1059700012BD01BDF89A80B580830F5F1F4F0A3DAD
:10598000110511F03196F2CFE5E1F2E1F999FECF80
:1059900012BD01BDF89A80B580830F5F1F4F0C3D8B
:1059A000110511F03196F2CFE7E1F2E1F999FECF5E
:1059B00012BD01BDF89A80B580830F5F1F4F0E3D69
:1059C000110511F03196F2CFE9E1F2E1F999FECF3C
:1059D00012BD01BDF89A80B580830F5F1F4F003E56
:1059E000110511F03196F2CFEBE1F2E1F999FECF1A
:1059F00012BD01BDF89A80B580830F5F1F4F023E34
:105A0000110511F03196F2CFE0E3FBE0F999FECFFA
:105A100012BD01BDF89A80B580830F5F1F4F063E0F
:105A2000110511F03196F2CFEDE1F2E1F999FECFD7
:105A300012BD01BDF89A80B580830F5F1F4F083EED
:105A4000110511F03196F2CFE0E2F2E1F999FECFC3
:105A500012BD01BDF89A80B580830F5F1F4F0A3ECB
:105A6000110511F03196F2CFE8E2F2E1F999FECF9B
:105A700012BD01BDF89A80B580830F5F1F4F0C3EA9
:105A8000110511F03196F2CFE2E2F2E1F999FECF81
:105A900012BD01BDF89A80B580830F5F1F4F0E3E87
:105AA000110511F03196F2CFE4E2F2E1F999FECF5F
:105AB00012BD01BDF89A80B580830F5F1F4F003F74
:105AC000110511F03196F2CFE6E2F2E1F999FECF3D
:105AD00012BD01BDF89A80B580830F5F1F4F023F52
